{
  "contracts/Union.sol": {
    "Union": {
      "abi": [
        {
          "inputs": [
            {
              "internalType": "address",
              "name": "passportContract_",
              "type": "address"
            }
          ],
          "stateMutability": "nonpayable",
          "type": "constructor"
        },
        {
          "anonymous": false,
          "inputs": [
            {
              "indexed": false,
              "internalType": "int64",
              "name": "chat_id",
              "type": "int64"
            },
            {
              "indexed": false,
              "internalType": "int64",
              "name": "applier_id",
              "type": "int64"
            },
            {
              "indexed": false,
              "internalType": "address",
              "name": "multy_wallet_address",
              "type": "address"
            },
            {
              "indexed": false,
              "internalType": "enum Union.VotingType",
              "name": "vote_type",
              "type": "uint8"
            },
            {
              "indexed": false,
              "internalType": "address",
              "name": "voting_token_address",
              "type": "address"
            },
            {
              "indexed": false,
              "internalType": "string",
              "name": "group_name",
              "type": "string"
            }
          ],
          "name": "ApplicationForJoin",
          "type": "event"
        },
        {
          "anonymous": false,
          "inputs": [
            {
              "indexed": true,
              "internalType": "int64",
              "name": "chat_id",
              "type": "int64"
            },
            {
              "indexed": false,
              "internalType": "int64",
              "name": "applier_id",
              "type": "int64"
            },
            {
              "indexed": false,
              "internalType": "address",
              "name": "multy_wallet_address",
              "type": "address"
            },
            {
              "indexed": false,
              "internalType": "enum Union.VotingType",
              "name": "vote_type",
              "type": "uint8"
            },
            {
              "indexed": false,
              "internalType": "address",
              "name": "voting_token_address",
              "type": "address"
            },
            {
              "indexed": false,
              "internalType": "string",
              "name": "group_name",
              "type": "string"
            }
          ],
          "name": "ApplicationForJoinIndexed",
          "type": "event"
        },
        {
          "anonymous": false,
          "inputs": [
            {
              "indexed": false,
              "internalType": "int256",
              "name": "chat_id",
              "type": "int256"
            },
            {
              "indexed": false,
              "internalType": "address",
              "name": "multy_wallet_address",
              "type": "address"
            },
            {
              "indexed": false,
              "internalType": "enum Union.VotingType",
              "name": "vote_type",
              "type": "uint8"
            },
            {
              "indexed": false,
              "internalType": "address",
              "name": "voting_token_address",
              "type": "address"
            },
            {
              "indexed": false,
              "internalType": "string",
              "name": "group_name",
              "type": "string"
            }
          ],
          "name": "ApprovedJoin",
          "type": "event"
        },
        {
          "anonymous": false,
          "inputs": [
            {
              "indexed": false,
              "internalType": "int256",
              "name": "chat_id",
              "type": "int256"
            },
            {
              "indexed": false,
              "internalType": "address",
              "name": "multy_wallet_address",
              "type": "address"
            },
            {
              "indexed": false,
              "internalType": "enum Union.VotingType",
              "name": "vote_type",
              "type": "uint8"
            },
            {
              "indexed": false,
              "internalType": "address",
              "name": "voting_token_address",
              "type": "address"
            },
            {
              "indexed": false,
              "internalType": "string",
              "name": "group_name",
              "type": "string"
            }
          ],
          "name": "DeclinedApplication",
          "type": "event"
        },
        {
          "anonymous": false,
          "inputs": [
            {
              "indexed": true,
              "internalType": "address",
              "name": "previousOwner",
              "type": "address"
            },
            {
              "indexed": true,
              "internalType": "address",
              "name": "newOwner",
              "type": "address"
            }
          ],
          "name": "OwnershipTransferred",
          "type": "event"
        },
        {
          "inputs": [
            {
              "internalType": "int64",
              "name": "applyerTg",
              "type": "int64"
            },
            {
              "internalType": "int64",
              "name": "daoTg",
              "type": "int64"
            },
            {
              "internalType": "address",
              "name": "dao_",
              "type": "address"
            },
            {
              "internalType": "enum Union.VotingType",
              "name": "votingType_",
              "type": "uint8"
            },
            {
              "internalType": "address",
              "name": "votingTokenContract_",
              "type": "address"
            },
            {
              "internalType": "string",
              "name": "dao_name_",
              "type": "string"
            }
          ],
          "name": "ApplyForUnion",
          "outputs": [],
          "stateMutability": "payable",
          "type": "function"
        },
        {
          "inputs": [
            {
              "internalType": "address",
              "name": "daoAddress",
              "type": "address"
            }
          ],
          "name": "ApproveJoin",
          "outputs": [],
          "stateMutability": "nonpayable",
          "type": "function"
        },
        {
          "inputs": [
            {
              "internalType": "address",
              "name": "daoAddress",
              "type": "address"
            }
          ],
          "name": "DeclineJoin",
          "outputs": [],
          "stateMutability": "nonpayable",
          "type": "function"
        },
        {
          "inputs": [
            {
              "internalType": "int64",
              "name": "",
              "type": "int64"
            }
          ],
          "name": "daoAddresses",
          "outputs": [
            {
              "internalType": "address",
              "name": "",
              "type": "address"
            }
          ],
          "stateMutability": "view",
          "type": "function"
        },
        {
          "inputs": [
            {
              "internalType": "address",
              "name": "",
              "type": "address"
            }
          ],
          "name": "daos",
          "outputs": [
            {
              "internalType": "address",
              "name": "chatOwnerAddress",
              "type": "address"
            },
            {
              "internalType": "int64",
              "name": "tgId",
              "type": "int64"
            },
            {
              "internalType": "bool",
              "name": "valid",
              "type": "bool"
            },
            {
              "internalType": "address",
              "name": "multisigAddress",
              "type": "address"
            },
            {
              "internalType": "enum Union.VotingType",
              "name": "votingType",
              "type": "uint8"
            },
            {
              "internalType": "address",
              "name": "votingToken",
              "type": "address"
            },
            {
              "internalType": "string",
              "name": "group_name",
              "type": "string"
            }
          ],
          "stateMutability": "view",
          "type": "function"
        },
        {
          "inputs": [
            {
              "internalType": "int64",
              "name": "chat_id",
              "type": "int64"
            }
          ],
          "name": "getDaoAddressbyChatId",
          "outputs": [
            {
              "internalType": "address",
              "name": "",
              "type": "address"
            }
          ],
          "stateMutability": "view",
          "type": "function"
        },
        {
          "inputs": [],
          "name": "getDaoCount",
          "outputs": [
            {
              "internalType": "uint256",
              "name": "",
              "type": "uint256"
            }
          ],
          "stateMutability": "view",
          "type": "function"
        },
        {
          "inputs": [],
          "name": "owner",
          "outputs": [
            {
              "internalType": "address",
              "name": "",
              "type": "address"
            }
          ],
          "stateMutability": "view",
          "type": "function"
        },
        {
          "inputs": [],
          "name": "renounceOwnership",
          "outputs": [],
          "stateMutability": "nonpayable",
          "type": "function"
        },
        {
          "inputs": [],
          "name": "tgpassport",
          "outputs": [
            {
              "internalType": "contract TGPassport",
              "name": "",
              "type": "address"
            }
          ],
          "stateMutability": "view",
          "type": "function"
        },
        {
          "inputs": [
            {
              "internalType": "address",
              "name": "newOwner",
              "type": "address"
            }
          ],
          "name": "transferOwnership",
          "outputs": [],
          "stateMutability": "nonpayable",
          "type": "function"
        }
      ],
      "evm": {
        "bytecode": {
          "linkReferences": {},
          "object": "6080604052620000146200013060201b60201c565b600260006101000a81548173ffffffffffffffffffffffffffffffffffffffff021916908373ffffffffffffffffffffffffffffffffffffffff1602179055503480156200006157600080fd5b5060405162002b3638038062002b3683398181016040528101906200008791906200023c565b620000a76200009b6200015960201b60201c565b6200016160201b60201c565b80600660006101000a81548173ffffffffffffffffffffffffffffffffffffffff021916908373ffffffffffffffffffffffffffffffffffffffff16021790555080600760006101000a81548173ffffffffffffffffffffffffffffffffffffffff021916908373ffffffffffffffffffffffffffffffffffffffff16021790555050620002b6565b60008060009054906101000a900473ffffffffffffffffffffffffffffffffffffffff16905090565b600033905090565b60008060009054906101000a900473ffffffffffffffffffffffffffffffffffffffff169050816000806101000a81548173ffffffffffffffffffffffffffffffffffffffff021916908373ffffffffffffffffffffffffffffffffffffffff1602179055508173ffffffffffffffffffffffffffffffffffffffff168173ffffffffffffffffffffffffffffffffffffffff167f8be0079c531659141344cd1fd0a4f28419497f9722a3daafe3b4186f6b6457e060405160405180910390a35050565b60008151905062000236816200029c565b92915050565b6000602082840312156200024f57600080fd5b60006200025f8482850162000225565b91505092915050565b600062000275826200027c565b9050919050565b600073ffffffffffffffffffffffffffffffffffffffff82169050919050565b620002a78162000268565b8114620002b357600080fd5b50565b61287080620002c66000396000f3fe60806040526004361061009c5760003560e01c8063b9f7076f11610064578063b9f7076f14610160578063c25f3cf61461017c578063d4d8f892146101bf578063d6b2da8e146101ea578063e57bede414610227578063f2fde38b146102645761009c565b806336b9f727146100a1578063715018a6146100ca5780637527d5a1146100e15780638da5cb5b1461010c578063ad8f866014610137575b600080fd5b3480156100ad57600080fd5b506100c860048036038101906100c39190611ce6565b61028d565b005b3480156100d657600080fd5b506100df610796565b005b3480156100ed57600080fd5b506100f661081e565b604051610103919061212a565b60405180910390f35b34801561011857600080fd5b50610121610844565b60405161012e919061207e565b60405180910390f35b34801561014357600080fd5b5061015e60048036038101906101599190611ce6565b61086d565b005b61017a60048036038101906101759190611d8a565b610e24565b005b34801561018857600080fd5b506101a3600480360381019061019e9190611ce6565b61152b565b6040516101b69796959493929190612099565b60405180910390f35b3480156101cb57600080fd5b506101d461167c565b6040516101e19190612322565b60405180910390f35b3480156101f657600080fd5b50610211600480360381019061020c9190611d61565b61168d565b60405161021e919061207e565b60405180910390f35b34801561023357600080fd5b5061024e60048036038101906102499190611d61565b6116c0565b60405161025b919061207e565b60405180910390f35b34801561027057600080fd5b5061028b60048036038101906102869190611ce6565b611708565b005b610295611800565b73ffffffffffffffffffffffffffffffffffffffff166102b3610844565b73ffffffffffffffffffffffffffffffffffffffff1614610309576040517f08c379a0000000000000000000000000000000000000000000000000000000008152600401610300906122e2565b60405180910390fd5b6000600560008373ffffffffffffffffffffffffffffffffffffffff1673ffffffffffffffffffffffffffffffffffffffff1681526020019081526020016000206040518060e00160405290816000820160009054906101000a900473ffffffffffffffffffffffffffffffffffffffff1673ffffffffffffffffffffffffffffffffffffffff1673ffffffffffffffffffffffffffffffffffffffff1681526020016000820160149054906101000a900460070b60070b60070b815260200160008201601c9054906101000a900460ff161515151581526020016001820160009054906101000a900473ffffffffffffffffffffffffffffffffffffffff1673ffffffffffffffffffffffffffffffffffffffff1673ffffffffffffffffffffffffffffffffffffffff1681526020016001820160149054906101000a900460ff166002811115610484577f4e487b7100000000000000000000000000000000000000000000000000000000600052602160045260246000fd5b60028111156104bc577f4e487b7100000000000000000000000000000000000000000000000000000000600052602160045260246000fd5b81526020016002820160009054906101000a900473ffffffffffffffffffffffffffffffffffffffff1673ffffffffffffffffffffffffffffffffffffffff1673ffffffffffffffffffffffffffffffffffffffff168152602001600382018054610526906124e5565b80601f0160208091040260200160405190810160405280929190818152602001828054610552906124e5565b801561059f5780601f106105745761010080835404028352916020019161059f565b820191906000526020600020905b81548152906001019060200180831161058257829003601f168201915b50505050508152505090506000151581604001511515146105f5576040517f08c379a00000000000000000000000000000000000000000000000000000000081526004016105ec90612302565b60405180910390fd5b600560008373ffffffffffffffffffffffffffffffffffffffff1673ffffffffffffffffffffffffffffffffffffffff168152602001908152602001600020600080820160006101000a81549073ffffffffffffffffffffffffffffffffffffffff02191690556000820160146101000a81549067ffffffffffffffff021916905560008201601c6101000a81549060ff02191690556001820160006101000a81549073ffffffffffffffffffffffffffffffffffffffff02191690556001820160146101000a81549060ff02191690556002820160006101000a81549073ffffffffffffffffffffffffffffffffffffffff02191690556003820160006106fd9190611b08565b505060036000826020015160070b60070b815260200190815260200160002060006101000a81549073ffffffffffffffffffffffffffffffffffffffff02191690557fd06e11c55c5f21676305517c655a0188744d3bee09361e15470276872d56a0b98160200151826060015183608001518460a001518560c0015160405161078a959493929190612160565b60405180910390a15050565b61079e611800565b73ffffffffffffffffffffffffffffffffffffffff166107bc610844565b73ffffffffffffffffffffffffffffffffffffffff1614610812576040517f08c379a0000000000000000000000000000000000000000000000000000000008152600401610809906122e2565b60405180910390fd5b61081c6000611808565b565b600760009054906101000a900473ffffffffffffffffffffffffffffffffffffffff1681565b60008060009054906101000a900473ffffffffffffffffffffffffffffffffffffffff16905090565b610875611800565b73ffffffffffffffffffffffffffffffffffffffff16610893610844565b73ffffffffffffffffffffffffffffffffffffffff16146108e9576040517f08c379a00000000000000000000000000000000000000000000000000000000081526004016108e0906122e2565b60405180910390fd5b6000600560008373ffffffffffffffffffffffffffffffffffffffff1673ffffffffffffffffffffffffffffffffffffffff1681526020019081526020016000206040518060e00160405290816000820160009054906101000a900473ffffffffffffffffffffffffffffffffffffffff1673ffffffffffffffffffffffffffffffffffffffff1673ffffffffffffffffffffffffffffffffffffffff1681526020016000820160149054906101000a900460070b60070b60070b815260200160008201601c9054906101000a900460ff161515151581526020016001820160009054906101000a900473ffffffffffffffffffffffffffffffffffffffff1673ffffffffffffffffffffffffffffffffffffffff1673ffffffffffffffffffffffffffffffffffffffff1681526020016001820160149054906101000a900460ff166002811115610a64577f4e487b7100000000000000000000000000000000000000000000000000000000600052602160045260246000fd5b6002811115610a9c577f4e487b7100000000000000000000000000000000000000000000000000000000600052602160045260246000fd5b81526020016002820160009054906101000a900473ffffffffffffffffffffffffffffffffffffffff1673ffffffffffffffffffffffffffffffffffffffff1673ffffffffffffffffffffffffffffffffffffffff168152602001600382018054610b06906124e5565b80601f0160208091040260200160405190810160405280929190818152602001828054610b32906124e5565b8015610b7f5780601f10610b5457610100808354040283529160200191610b7f565b820191906000526020600020905b815481529060010190602001808311610b6257829003601f168201915b5050505050815250509050600015158160400151151514610bd5576040517f08c379a0000000000000000000000000000000000000000000000000000000008152600401610bcc90612302565b60405180910390fd5b600181604001901515908115158152505080600560008473ffffffffffffffffffffffffffffffffffffffff1673ffffffffffffffffffffffffffffffffffffffff16815260200190815260200160002060008201518160000160006101000a81548173ffffffffffffffffffffffffffffffffffffffff021916908373ffffffffffffffffffffffffffffffffffffffff16021790555060208201518160000160146101000a81548167ffffffffffffffff021916908360070b67ffffffffffffffff160217905550604082015181600001601c6101000a81548160ff02191690831515021790555060608201518160010160006101000a81548173ffffffffffffffffffffffffffffffffffffffff021916908373ffffffffffffffffffffffffffffffffffffffff16021790555060808201518160010160146101000a81548160ff02191690836002811115610d57577f4e487b7100000000000000000000000000000000000000000000000000000000600052602160045260246000fd5b021790555060a08201518160020160006101000a81548173ffffffffffffffffffffffffffffffffffffffff021916908373ffffffffffffffffffffffffffffffffffffffff16021790555060c0820151816003019080519060200190610dbf929190611b48565b50905050610dcd60046118cc565b7f19c3744c2d10eda4d05b727f02a712a414539c26678f5f988d98f9635afcac288160200151826060015183608001518460a001518560c00151604051610e18959493929190612160565b60405180910390a15050565b6000600760009054906101000a900473ffffffffffffffffffffffffffffffffffffffff1673ffffffffffffffffffffffffffffffffffffffff16630c2fc6e3886040518263ffffffff1660e01b8152600401610e819190612145565b60206040518083038186803b158015610e9957600080fd5b505afa158015610ead573d6000803e3d6000fd5b505050506040513d601f19601f82011682018060405250810190610ed19190611d0f565b90503373ffffffffffffffffffffffffffffffffffffffff168173ffffffffffffffffffffffffffffffffffffffff1614610f41576040517f08c379a0000000000000000000000000000000000000000000000000000000008152600401610f3890612222565b60405180910390fd5b600073ffffffffffffffffffffffffffffffffffffffff16600360008860070b60070b815260200190815260200160002060009054906101000a900473ffffffffffffffffffffffffffffffffffffffff1673ffffffffffffffffffffffffffffffffffffffff1614610fe9576040517f08c379a0000000000000000000000000000000000000000000000000000000008152600401610fe0906122a2565b60405180910390fd5b84600360008860070b60070b815260200190815260200160002060006101000a81548173ffffffffffffffffffffffffffffffffffffffff021916908373ffffffffffffffffffffffffffffffffffffffff160217905550600061104d85856118e2565b90506001151581151514611096576040517f08c379a000000000000000000000000000000000000000000000000000000000815260040161108d906122c2565b60405180910390fd5b600760009054906101000a900473ffffffffffffffffffffffffffffffffffffffff1673ffffffffffffffffffffffffffffffffffffffff166348dc15616040518163ffffffff1660e01b815260040160206040518083038186803b1580156110fe57600080fd5b505afa158015611112573d6000803e3d6000fd5b505050506040513d601f19601f820116820180604052508101906111369190611e2b565b6001819055506040518060e001604052803373ffffffffffffffffffffffffffffffffffffffff1681526020018860070b81526020016000151581526020018773ffffffffffffffffffffffffffffffffffffffff1681526020018660028111156111ca577f4e487b7100000000000000000000000000000000000000000000000000000000600052602160045260246000fd5b81526020018573ffffffffffffffffffffffffffffffffffffffff16815260200184815250600560008873ffffffffffffffffffffffffffffffffffffffff1673ffffffffffffffffffffffffffffffffffffffff16815260200190815260200160002060008201518160000160006101000a81548173ffffffffffffffffffffffffffffffffffffffff021916908373ffffffffffffffffffffffffffffffffffffffff16021790555060208201518160000160146101000a81548167ffffffffffffffff021916908360070b67ffffffffffffffff160217905550604082015181600001601c6101000a81548160ff02191690831515021790555060608201518160010160006101000a81548173ffffffffffffffffffffffffffffffffffffffff021916908373ffffffffffffffffffffffffffffffffffffffff16021790555060808201518160010160146101000a81548160ff0219169083600281111561135f577f4e487b7100000000000000000000000000000000000000000000000000000000600052602160045260246000fd5b021790555060a08201518160020160006101000a81548173ffffffffffffffffffffffffffffffffffffffff021916908373ffffffffffffffffffffffffffffffffffffffff16021790555060c08201518160030190805190602001906113c7929190611b48565b509050506000600260009054906101000a900473ffffffffffffffffffffffffffffffffffffffff1673ffffffffffffffffffffffffffffffffffffffff1660015460405161141590612069565b60006040518083038185875af1925050503d8060008114611452576040519150601f19603f3d011682016040523d82523d6000602084013e611457565b606091505b505090508061149b576040517f08c379a000000000000000000000000000000000000000000000000000000000815260040161149290612262565b60405180910390fd5b60015434146114df576040517f08c379a00000000000000000000000000000000000000000000000000000000081526004016114d690612282565b60405180910390fd5b7f0ae33dac4eb1cdcaf489d2a9a56c45d17257612cad7c531513d4e425951349e2888a89898989604051611518969594939291906121ba565b60405180910390a1505050505050505050565b60056020528060005260406000206000915090508060000160009054906101000a900473ffffffffffffffffffffffffffffffffffffffff16908060000160149054906101000a900460070b9080600001601c9054906101000a900460ff16908060010160009054906101000a900473ffffffffffffffffffffffffffffffffffffffff16908060010160149054906101000a900460ff16908060020160009054906101000a900473ffffffffffffffffffffffffffffffffffffffff16908060030180546115f9906124e5565b80601f0160208091040260200160405190810160405280929190818152602001828054611625906124e5565b80156116725780601f1061164757610100808354040283529160200191611672565b820191906000526020600020905b81548152906001019060200180831161165557829003601f168201915b5050505050905087565b60006116886004611afa565b905090565b60036020528060005260406000206000915054906101000a900473ffffffffffffffffffffffffffffffffffffffff1681565b600080600360008460070b60070b815260200190815260200160002060009054906101000a900473ffffffffffffffffffffffffffffffffffffffff16905080915050919050565b611710611800565b73ffffffffffffffffffffffffffffffffffffffff1661172e610844565b73ffffffffffffffffffffffffffffffffffffffff1614611784576040517f08c379a000000000000000000000000000000000000000000000000000000000815260040161177b906122e2565b60405180910390fd5b600073ffffffffffffffffffffffffffffffffffffffff168173ffffffffffffffffffffffffffffffffffffffff1614156117f4576040517f08c379a00000000000000000000000000000000000000000000000000000000081526004016117eb90612242565b60405180910390fd5b6117fd81611808565b50565b600033905090565b60008060009054906101000a900473ffffffffffffffffffffffffffffffffffffffff169050816000806101000a81548173ffffffffffffffffffffffffffffffffffffffff021916908373ffffffffffffffffffffffffffffffffffffffff1602179055508173ffffffffffffffffffffffffffffffffffffffff168173ffffffffffffffffffffffffffffffffffffffff167f8be0079c531659141344cd1fd0a4f28419497f9722a3daafe3b4186f6b6457e060405160405180910390a35050565b6001816000016000828254019250508190555050565b600060028081111561191d577f4e487b7100000000000000000000000000000000000000000000000000000000600052602160045260246000fd5b836002811115611956577f4e487b7100000000000000000000000000000000000000000000000000000000600052602160045260246000fd5b14156119f3578173ffffffffffffffffffffffffffffffffffffffff166301ffc9a763780e9d6360e01b6040518263ffffffff1660e01b815260040161199c919061210f565b60206040518083038186803b1580156119b457600080fd5b505afa1580156119c8573d6000803e3d6000fd5b505050506040513d601f19601f820116820180604052508101906119ec9190611d38565b9050611af4565b60006002811115611a2d577f4e487b7100000000000000000000000000000000000000000000000000000000600052602160045260246000fd5b836002811115611a66577f4e487b7100000000000000000000000000000000000000000000000000000000600052602160045260246000fd5b1415611af35760128273ffffffffffffffffffffffffffffffffffffffff1663313ce5676040518163ffffffff1660e01b815260040160206040518083038186803b158015611ab457600080fd5b505afa158015611ac8573d6000803e3d6000fd5b505050506040513d601f19601f82011682018060405250810190611aec9190611e54565b60ff161490505b5b92915050565b600081600001549050919050565b508054611b14906124e5565b6000825580601f10611b265750611b45565b601f016020900490600052602060002090810190611b449190611bce565b5b50565b828054611b54906124e5565b90600052602060002090601f016020900481019282611b765760008555611bbd565b82601f10611b8f57805160ff1916838001178555611bbd565b82800160010185558215611bbd579182015b82811115611bbc578251825591602001919060010190611ba1565b5b509050611bca9190611bce565b5090565b5b80821115611be7576000816000905550600101611bcf565b5090565b6000611bfe611bf984612362565b61233d565b905082815260208101848484011115611c1657600080fd5b611c218482856124a3565b509392505050565b600081359050611c38816127b7565b92915050565b600081519050611c4d816127b7565b92915050565b600081519050611c62816127ce565b92915050565b600081359050611c77816127e5565b92915050565b600081359050611c8c816127f5565b92915050565b600082601f830112611ca357600080fd5b8135611cb3848260208601611beb565b91505092915050565b600081519050611ccb8161280c565b92915050565b600081519050611ce081612823565b92915050565b600060208284031215611cf857600080fd5b6000611d0684828501611c29565b91505092915050565b600060208284031215611d2157600080fd5b6000611d2f84828501611c3e565b91505092915050565b600060208284031215611d4a57600080fd5b6000611d5884828501611c53565b91505092915050565b600060208284031215611d7357600080fd5b6000611d8184828501611c7d565b91505092915050565b60008060008060008060c08789031215611da357600080fd5b6000611db189828a01611c7d565b9650506020611dc289828a01611c7d565b9550506040611dd389828a01611c29565b9450506060611de489828a01611c68565b9350506080611df589828a01611c29565b92505060a087013567ffffffffffffffff811115611e1257600080fd5b611e1e89828a01611c92565b9150509295509295509295565b600060208284031215611e3d57600080fd5b6000611e4b84828501611cbc565b91505092915050565b600060208284031215611e6657600080fd5b6000611e7484828501611cd1565b91505092915050565b611e86816123ba565b82525050565b611e95816123cc565b82525050565b611ea4816123d8565b82525050565b611eb38161245b565b82525050565b611ec28161247f565b82525050565b611ed181612491565b82525050565b611ee081612417565b82525050565b6000611ef182612393565b611efb81856123a9565b9350611f0b8185602086016124b2565b611f14816125d5565b840191505092915050565b6000611f2c601d836123a9565b9150611f37826125e6565b602082019050919050565b6000611f4f6026836123a9565b9150611f5a8261260f565b604082019050919050565b6000611f726016836123a9565b9150611f7d8261265e565b602082019050919050565b6000611f956018836123a9565b9150611fa082612687565b602082019050919050565b6000611fb8601c836123a9565b9150611fc3826126b0565b602082019050919050565b6000611fdb602f836123a9565b9150611fe6826126d9565b604082019050919050565b6000611ffe6020836123a9565b915061200982612728565b602082019050919050565b600061202160008361239e565b915061202c82612751565b600082019050919050565b60006120446032836123a9565b915061204f82612754565b604082019050919050565b61206381612444565b82525050565b600061207482612014565b9150819050919050565b60006020820190506120936000830184611e7d565b92915050565b600060e0820190506120ae600083018a611e7d565b6120bb6020830189611ed7565b6120c86040830188611e8c565b6120d56060830187611e7d565b6120e26080830186611eb9565b6120ef60a0830185611e7d565b81810360c08301526121018184611ee6565b905098975050505050505050565b60006020820190506121246000830184611e9b565b92915050565b600060208201905061213f6000830184611eaa565b92915050565b600060208201905061215a6000830184611ed7565b92915050565b600060a0820190506121756000830188611ec8565b6121826020830187611e7d565b61218f6040830186611eb9565b61219c6060830185611e7d565b81810360808301526121ae8184611ee6565b90509695505050505050565b600060c0820190506121cf6000830189611ed7565b6121dc6020830188611ed7565b6121e96040830187611e7d565b6121f66060830186611eb9565b6122036080830185611e7d565b81810360a08301526122158184611ee6565b9050979650505050505050565b6000602082019050818103600083015261223b81611f1f565b9050919050565b6000602082019050818103600083015261225b81611f42565b9050919050565b6000602082019050818103600083015261227b81611f65565b9050919050565b6000602082019050818103600083015261229b81611f88565b9050919050565b600060208201905081810360008301526122bb81611fab565b9050919050565b600060208201905081810360008301526122db81611fce565b9050919050565b600060208201905081810360008301526122fb81611ff1565b9050919050565b6000602082019050818103600083015261231b81612037565b9050919050565b6000602082019050612337600083018461205a565b92915050565b6000612347612358565b90506123538282612517565b919050565b6000604051905090565b600067ffffffffffffffff82111561237d5761237c6125a6565b5b612386826125d5565b9050602081019050919050565b600081519050919050565b600081905092915050565b600082825260208201905092915050565b60006123c582612424565b9050919050565b60008115159050919050565b60007fffffffff0000000000000000000000000000000000000000000000000000000082169050919050565b6000819050612412826127a3565b919050565b60008160070b9050919050565b600073ffffffffffffffffffffffffffffffffffffffff82169050919050565b6000819050919050565b600060ff82169050919050565b60006124668261246d565b9050919050565b600061247882612424565b9050919050565b600061248a82612404565b9050919050565b600061249c82612417565b9050919050565b82818337600083830152505050565b60005b838110156124d05780820151818401526020810190506124b5565b838111156124df576000848401525b50505050565b600060028204905060018216806124fd57607f821691505b6020821081141561251157612510612577565b5b50919050565b612520826125d5565b810181811067ffffffffffffffff8211171561253f5761253e6125a6565b5b80604052505050565b7f4e487b7100000000000000000000000000000000000000000000000000000000600052602160045260246000fd5b7f4e487b7100000000000000000000000000000000000000000000000000000000600052602260045260246000fd5b7f4e487b7100000000000000000000000000000000000000000000000000000000600052604160045260246000fd5b6000601f19601f8301169050919050565b7f5573657220646964206e6f742072656769737472656420696e20544750000000600082015250565b7f4f776e61626c653a206e6577206f776e657220697320746865207a65726f206160008201527f6464726573730000000000000000000000000000000000000000000000000000602082015250565b7f556e61626c6520746f207472616e736665722066656500000000000000000000600082015250565b7f50617373706f727420666565206973206e6f7420706169640000000000000000600082015250565b7f746869732063686174207467696420616c72656164792074616b656e00000000600082015250565b7f436f6e747261637420646f6573206e6f74206d61746368207769746820636f7260008201527f726573706f6e64696e6720747970650000000000000000000000000000000000602082015250565b7f4f776e61626c653a2063616c6c6572206973206e6f7420746865206f776e6572600082015250565b50565b7f616c726561647920686173206265656e20617070726f766564204f522064696460008201527f6e2774206170706c69656420617420616c6c0000000000000000000000000000602082015250565b600381106127b4576127b3612548565b5b50565b6127c0816123ba565b81146127cb57600080fd5b50565b6127d7816123cc565b81146127e257600080fd5b50565b600381106127f257600080fd5b50565b6127fe81612417565b811461280957600080fd5b50565b61281581612444565b811461282057600080fd5b50565b61282c8161244e565b811461283757600080fd5b5056fea26469706673582212201935ef66af3d907bdd524c500e4af834d3ec00425bee8b7f5744c178b7d2f91064736f6c63430008040033",
          "opcodes": "PUSH1 0x80 PUSH1 0x40 MSTORE PUSH3 0x14 PUSH3 0x130 PUSH1 0x20 SHL PUSH1 0x20 SHR JUMP JUMPDEST PUSH1 0x2 PUSH1 0x0 PUSH2 0x100 EXP DUP2 SLOAD DUP2 PUSH20 0xFFFFFFFFFFFFFFFFFFFFFFFFFFFFFFFFFFFFFFFF MUL NOT AND SWAP1 DUP4 PUSH20 0xFFFFFFFFFFFFFFFFFFFFFFFFFFFFFFFFFFFFFFFF AND MUL OR SWAP1 SSTORE POP CALLVALUE DUP1 ISZERO PUSH3 0x61 JUMPI PUSH1 0x0 DUP1 REVERT JUMPDEST POP PUSH1 0x40 MLOAD PUSH3 0x2B36 CODESIZE SUB DUP1 PUSH3 0x2B36 DUP4 CODECOPY DUP2 DUP2 ADD PUSH1 0x40 MSTORE DUP2 ADD SWAP1 PUSH3 0x87 SWAP2 SWAP1 PUSH3 0x23C JUMP JUMPDEST PUSH3 0xA7 PUSH3 0x9B PUSH3 0x159 PUSH1 0x20 SHL PUSH1 0x20 SHR JUMP JUMPDEST PUSH3 0x161 PUSH1 0x20 SHL PUSH1 0x20 SHR JUMP JUMPDEST DUP1 PUSH1 0x6 PUSH1 0x0 PUSH2 0x100 EXP DUP2 SLOAD DUP2 PUSH20 0xFFFFFFFFFFFFFFFFFFFFFFFFFFFFFFFFFFFFFFFF MUL NOT AND SWAP1 DUP4 PUSH20 0xFFFFFFFFFFFFFFFFFFFFFFFFFFFFFFFFFFFFFFFF AND MUL OR SWAP1 SSTORE POP DUP1 PUSH1 0x7 PUSH1 0x0 PUSH2 0x100 EXP DUP2 SLOAD DUP2 PUSH20 0xFFFFFFFFFFFFFFFFFFFFFFFFFFFFFFFFFFFFFFFF MUL NOT AND SWAP1 DUP4 PUSH20 0xFFFFFFFFFFFFFFFFFFFFFFFFFFFFFFFFFFFFFFFF AND MUL OR SWAP1 SSTORE POP POP PUSH3 0x2B6 JUMP JUMPDEST PUSH1 0x0 DUP1 PUSH1 0x0 SWAP1 SLOAD SWAP1 PUSH2 0x100 EXP SWAP1 DIV PUSH20 0xFFFFFFFFFFFFFFFFFFFFFFFFFFFFFFFFFFFFFFFF AND SWAP1 POP SWAP1 JUMP JUMPDEST PUSH1 0x0 CALLER SWAP1 POP SWAP1 JUMP JUMPDEST PUSH1 0x0 DUP1 PUSH1 0x0 SWAP1 SLOAD SWAP1 PUSH2 0x100 EXP SWAP1 DIV PUSH20 0xFFFFFFFFFFFFFFFFFFFFFFFFFFFFFFFFFFFFFFFF AND SWAP1 POP DUP2 PUSH1 0x0 DUP1 PUSH2 0x100 EXP DUP2 SLOAD DUP2 PUSH20 0xFFFFFFFFFFFFFFFFFFFFFFFFFFFFFFFFFFFFFFFF MUL NOT AND SWAP1 DUP4 PUSH20 0xFFFFFFFFFFFFFFFFFFFFFFFFFFFFFFFFFFFFFFFF AND MUL OR SWAP1 SSTORE POP DUP2 PUSH20 0xFFFFFFFFFFFFFFFFFFFFFFFFFFFFFFFFFFFFFFFF AND DUP2 PUSH20 0xFFFFFFFFFFFFFFFFFFFFFFFFFFFFFFFFFFFFFFFF AND PUSH32 0x8BE0079C531659141344CD1FD0A4F28419497F9722A3DAAFE3B4186F6B6457E0 PUSH1 0x40 MLOAD PUSH1 0x40 MLOAD DUP1 SWAP2 SUB SWAP1 LOG3 POP POP JUMP JUMPDEST PUSH1 0x0 DUP2 MLOAD SWAP1 POP PUSH3 0x236 DUP2 PUSH3 0x29C JUMP JUMPDEST SWAP3 SWAP2 POP POP JUMP JUMPDEST PUSH1 0x0 PUSH1 0x20 DUP3 DUP5 SUB SLT ISZERO PUSH3 0x24F JUMPI PUSH1 0x0 DUP1 REVERT JUMPDEST PUSH1 0x0 PUSH3 0x25F DUP5 DUP3 DUP6 ADD PUSH3 0x225 JUMP JUMPDEST SWAP2 POP POP SWAP3 SWAP2 POP POP JUMP JUMPDEST PUSH1 0x0 PUSH3 0x275 DUP3 PUSH3 0x27C JUMP JUMPDEST SWAP1 POP SWAP2 SWAP1 POP JUMP JUMPDEST PUSH1 0x0 PUSH20 0xFFFFFFFFFFFFFFFFFFFFFFFFFFFFFFFFFFFFFFFF DUP3 AND SWAP1 POP SWAP2 SWAP1 POP JUMP JUMPDEST PUSH3 0x2A7 DUP2 PUSH3 0x268 JUMP JUMPDEST DUP2 EQ PUSH3 0x2B3 JUMPI PUSH1 0x0 DUP1 REVERT JUMPDEST POP JUMP JUMPDEST PUSH2 0x2870 DUP1 PUSH3 0x2C6 PUSH1 0x0 CODECOPY PUSH1 0x0 RETURN INVALID PUSH1 0x80 PUSH1 0x40 MSTORE PUSH1 0x4 CALLDATASIZE LT PUSH2 0x9C JUMPI PUSH1 0x0 CALLDATALOAD PUSH1 0xE0 SHR DUP1 PUSH4 0xB9F7076F GT PUSH2 0x64 JUMPI DUP1 PUSH4 0xB9F7076F EQ PUSH2 0x160 JUMPI DUP1 PUSH4 0xC25F3CF6 EQ PUSH2 0x17C JUMPI DUP1 PUSH4 0xD4D8F892 EQ PUSH2 0x1BF JUMPI DUP1 PUSH4 0xD6B2DA8E EQ PUSH2 0x1EA JUMPI DUP1 PUSH4 0xE57BEDE4 EQ PUSH2 0x227 JUMPI DUP1 PUSH4 0xF2FDE38B EQ PUSH2 0x264 JUMPI PUSH2 0x9C JUMP JUMPDEST DUP1 PUSH4 0x36B9F727 EQ PUSH2 0xA1 JUMPI DUP1 PUSH4 0x715018A6 EQ PUSH2 0xCA JUMPI DUP1 PUSH4 0x7527D5A1 EQ PUSH2 0xE1 JUMPI DUP1 PUSH4 0x8DA5CB5B EQ PUSH2 0x10C JUMPI DUP1 PUSH4 0xAD8F8660 EQ PUSH2 0x137 JUMPI JUMPDEST PUSH1 0x0 DUP1 REVERT JUMPDEST CALLVALUE DUP1 ISZERO PUSH2 0xAD JUMPI PUSH1 0x0 DUP1 REVERT JUMPDEST POP PUSH2 0xC8 PUSH1 0x4 DUP1 CALLDATASIZE SUB DUP2 ADD SWAP1 PUSH2 0xC3 SWAP2 SWAP1 PUSH2 0x1CE6 JUMP JUMPDEST PUSH2 0x28D JUMP JUMPDEST STOP JUMPDEST CALLVALUE DUP1 ISZERO PUSH2 0xD6 JUMPI PUSH1 0x0 DUP1 REVERT JUMPDEST POP PUSH2 0xDF PUSH2 0x796 JUMP JUMPDEST STOP JUMPDEST CALLVALUE DUP1 ISZERO PUSH2 0xED JUMPI PUSH1 0x0 DUP1 REVERT JUMPDEST POP PUSH2 0xF6 PUSH2 0x81E JUMP JUMPDEST PUSH1 0x40 MLOAD PUSH2 0x103 SWAP2 SWAP1 PUSH2 0x212A JUMP JUMPDEST PUSH1 0x40 MLOAD DUP1 SWAP2 SUB SWAP1 RETURN JUMPDEST CALLVALUE DUP1 ISZERO PUSH2 0x118 JUMPI PUSH1 0x0 DUP1 REVERT JUMPDEST POP PUSH2 0x121 PUSH2 0x844 JUMP JUMPDEST PUSH1 0x40 MLOAD PUSH2 0x12E SWAP2 SWAP1 PUSH2 0x207E JUMP JUMPDEST PUSH1 0x40 MLOAD DUP1 SWAP2 SUB SWAP1 RETURN JUMPDEST CALLVALUE DUP1 ISZERO PUSH2 0x143 JUMPI PUSH1 0x0 DUP1 REVERT JUMPDEST POP PUSH2 0x15E PUSH1 0x4 DUP1 CALLDATASIZE SUB DUP2 ADD SWAP1 PUSH2 0x159 SWAP2 SWAP1 PUSH2 0x1CE6 JUMP JUMPDEST PUSH2 0x86D JUMP JUMPDEST STOP JUMPDEST PUSH2 0x17A PUSH1 0x4 DUP1 CALLDATASIZE SUB DUP2 ADD SWAP1 PUSH2 0x175 SWAP2 SWAP1 PUSH2 0x1D8A JUMP JUMPDEST PUSH2 0xE24 JUMP JUMPDEST STOP JUMPDEST CALLVALUE DUP1 ISZERO PUSH2 0x188 JUMPI PUSH1 0x0 DUP1 REVERT JUMPDEST POP PUSH2 0x1A3 PUSH1 0x4 DUP1 CALLDATASIZE SUB DUP2 ADD SWAP1 PUSH2 0x19E SWAP2 SWAP1 PUSH2 0x1CE6 JUMP JUMPDEST PUSH2 0x152B JUMP JUMPDEST PUSH1 0x40 MLOAD PUSH2 0x1B6 SWAP8 SWAP7 SWAP6 SWAP5 SWAP4 SWAP3 SWAP2 SWAP1 PUSH2 0x2099 JUMP JUMPDEST PUSH1 0x40 MLOAD DUP1 SWAP2 SUB SWAP1 RETURN JUMPDEST CALLVALUE DUP1 ISZERO PUSH2 0x1CB JUMPI PUSH1 0x0 DUP1 REVERT JUMPDEST POP PUSH2 0x1D4 PUSH2 0x167C JUMP JUMPDEST PUSH1 0x40 MLOAD PUSH2 0x1E1 SWAP2 SWAP1 PUSH2 0x2322 JUMP JUMPDEST PUSH1 0x40 MLOAD DUP1 SWAP2 SUB SWAP1 RETURN JUMPDEST CALLVALUE DUP1 ISZERO PUSH2 0x1F6 JUMPI PUSH1 0x0 DUP1 REVERT JUMPDEST POP PUSH2 0x211 PUSH1 0x4 DUP1 CALLDATASIZE SUB DUP2 ADD SWAP1 PUSH2 0x20C SWAP2 SWAP1 PUSH2 0x1D61 JUMP JUMPDEST PUSH2 0x168D JUMP JUMPDEST PUSH1 0x40 MLOAD PUSH2 0x21E SWAP2 SWAP1 PUSH2 0x207E JUMP JUMPDEST PUSH1 0x40 MLOAD DUP1 SWAP2 SUB SWAP1 RETURN JUMPDEST CALLVALUE DUP1 ISZERO PUSH2 0x233 JUMPI PUSH1 0x0 DUP1 REVERT JUMPDEST POP PUSH2 0x24E PUSH1 0x4 DUP1 CALLDATASIZE SUB DUP2 ADD SWAP1 PUSH2 0x249 SWAP2 SWAP1 PUSH2 0x1D61 JUMP JUMPDEST PUSH2 0x16C0 JUMP JUMPDEST PUSH1 0x40 MLOAD PUSH2 0x25B SWAP2 SWAP1 PUSH2 0x207E JUMP JUMPDEST PUSH1 0x40 MLOAD DUP1 SWAP2 SUB SWAP1 RETURN JUMPDEST CALLVALUE DUP1 ISZERO PUSH2 0x270 JUMPI PUSH1 0x0 DUP1 REVERT JUMPDEST POP PUSH2 0x28B PUSH1 0x4 DUP1 CALLDATASIZE SUB DUP2 ADD SWAP1 PUSH2 0x286 SWAP2 SWAP1 PUSH2 0x1CE6 JUMP JUMPDEST PUSH2 0x1708 JUMP JUMPDEST STOP JUMPDEST PUSH2 0x295 PUSH2 0x1800 JUMP JUMPDEST PUSH20 0xFFFFFFFFFFFFFFFFFFFFFFFFFFFFFFFFFFFFFFFF AND PUSH2 0x2B3 PUSH2 0x844 JUMP JUMPDEST PUSH20 0xFFFFFFFFFFFFFFFFFFFFFFFFFFFFFFFFFFFFFFFF AND EQ PUSH2 0x309 JUMPI PUSH1 0x40 MLOAD PUSH32 0x8C379A000000000000000000000000000000000000000000000000000000000 DUP2 MSTORE PUSH1 0x4 ADD PUSH2 0x300 SWAP1 PUSH2 0x22E2 JUMP JUMPDEST PUSH1 0x40 MLOAD DUP1 SWAP2 SUB SWAP1 REVERT JUMPDEST PUSH1 0x0 PUSH1 0x5 PUSH1 0x0 DUP4 PUSH20 0xFFFFFFFFFFFFFFFFFFFFFFFFFFFFFFFFFFFFFFFF AND PUSH20 0xFFFFFFFFFFFFFFFFFFFFFFFFFFFFFFFFFFFFFFFF AND DUP2 MSTORE PUSH1 0x20 ADD SWAP1 DUP2 MSTORE PUSH1 0x20 ADD PUSH1 0x0 KECCAK256 PUSH1 0x40 MLOAD DUP1 PUSH1 0xE0 ADD PUSH1 0x40 MSTORE SWAP1 DUP2 PUSH1 0x0 DUP3 ADD PUSH1 0x0 SWAP1 SLOAD SWAP1 PUSH2 0x100 EXP SWAP1 DIV PUSH20 0xFFFFFFFFFFFFFFFFFFFFFFFFFFFFFFFFFFFFFFFF AND PUSH20 0xFFFFFFFFFFFFFFFFFFFFFFFFFFFFFFFFFFFFFFFF AND PUSH20 0xFFFFFFFFFFFFFFFFFFFFFFFFFFFFFFFFFFFFFFFF AND DUP2 MSTORE PUSH1 0x20 ADD PUSH1 0x0 DUP3 ADD PUSH1 0x14 SWAP1 SLOAD SWAP1 PUSH2 0x100 EXP SWAP1 DIV PUSH1 0x7 SIGNEXTEND PUSH1 0x7 SIGNEXTEND PUSH1 0x7 SIGNEXTEND DUP2 MSTORE PUSH1 0x20 ADD PUSH1 0x0 DUP3 ADD PUSH1 0x1C SWAP1 SLOAD SWAP1 PUSH2 0x100 EXP SWAP1 DIV PUSH1 0xFF AND ISZERO ISZERO ISZERO ISZERO DUP2 MSTORE PUSH1 0x20 ADD PUSH1 0x1 DUP3 ADD PUSH1 0x0 SWAP1 SLOAD SWAP1 PUSH2 0x100 EXP SWAP1 DIV PUSH20 0xFFFFFFFFFFFFFFFFFFFFFFFFFFFFFFFFFFFFFFFF AND PUSH20 0xFFFFFFFFFFFFFFFFFFFFFFFFFFFFFFFFFFFFFFFF AND PUSH20 0xFFFFFFFFFFFFFFFFFFFFFFFFFFFFFFFFFFFFFFFF AND DUP2 MSTORE PUSH1 0x20 ADD PUSH1 0x1 DUP3 ADD PUSH1 0x14 SWAP1 SLOAD SWAP1 PUSH2 0x100 EXP SWAP1 DIV PUSH1 0xFF AND PUSH1 0x2 DUP2 GT ISZERO PUSH2 0x484 JUMPI PUSH32 0x4E487B7100000000000000000000000000000000000000000000000000000000 PUSH1 0x0 MSTORE PUSH1 0x21 PUSH1 0x4 MSTORE PUSH1 0x24 PUSH1 0x0 REVERT JUMPDEST PUSH1 0x2 DUP2 GT ISZERO PUSH2 0x4BC JUMPI PUSH32 0x4E487B7100000000000000000000000000000000000000000000000000000000 PUSH1 0x0 MSTORE PUSH1 0x21 PUSH1 0x4 MSTORE PUSH1 0x24 PUSH1 0x0 REVERT JUMPDEST DUP2 MSTORE PUSH1 0x20 ADD PUSH1 0x2 DUP3 ADD PUSH1 0x0 SWAP1 SLOAD SWAP1 PUSH2 0x100 EXP SWAP1 DIV PUSH20 0xFFFFFFFFFFFFFFFFFFFFFFFFFFFFFFFFFFFFFFFF AND PUSH20 0xFFFFFFFFFFFFFFFFFFFFFFFFFFFFFFFFFFFFFFFF AND PUSH20 0xFFFFFFFFFFFFFFFFFFFFFFFFFFFFFFFFFFFFFFFF AND DUP2 MSTORE PUSH1 0x20 ADD PUSH1 0x3 DUP3 ADD DUP1 SLOAD PUSH2 0x526 SWAP1 PUSH2 0x24E5 JUMP JUMPDEST DUP1 PUSH1 0x1F ADD PUSH1 0x20 DUP1 SWAP2 DIV MUL PUSH1 0x20 ADD PUSH1 0x40 MLOAD SWAP1 DUP2 ADD PUSH1 0x40 MSTORE DUP1 SWAP3 SWAP2 SWAP1 DUP2 DUP2 MSTORE PUSH1 0x20 ADD DUP3 DUP1 SLOAD PUSH2 0x552 SWAP1 PUSH2 0x24E5 JUMP JUMPDEST DUP1 ISZERO PUSH2 0x59F JUMPI DUP1 PUSH1 0x1F LT PUSH2 0x574 JUMPI PUSH2 0x100 DUP1 DUP4 SLOAD DIV MUL DUP4 MSTORE SWAP2 PUSH1 0x20 ADD SWAP2 PUSH2 0x59F JUMP JUMPDEST DUP3 ADD SWAP2 SWAP1 PUSH1 0x0 MSTORE PUSH1 0x20 PUSH1 0x0 KECCAK256 SWAP1 JUMPDEST DUP2 SLOAD DUP2 MSTORE SWAP1 PUSH1 0x1 ADD SWAP1 PUSH1 0x20 ADD DUP1 DUP4 GT PUSH2 0x582 JUMPI DUP3 SWAP1 SUB PUSH1 0x1F AND DUP3 ADD SWAP2 JUMPDEST POP POP POP POP POP DUP2 MSTORE POP POP SWAP1 POP PUSH1 0x0 ISZERO ISZERO DUP2 PUSH1 0x40 ADD MLOAD ISZERO ISZERO EQ PUSH2 0x5F5 JUMPI PUSH1 0x40 MLOAD PUSH32 0x8C379A000000000000000000000000000000000000000000000000000000000 DUP2 MSTORE PUSH1 0x4 ADD PUSH2 0x5EC SWAP1 PUSH2 0x2302 JUMP JUMPDEST PUSH1 0x40 MLOAD DUP1 SWAP2 SUB SWAP1 REVERT JUMPDEST PUSH1 0x5 PUSH1 0x0 DUP4 PUSH20 0xFFFFFFFFFFFFFFFFFFFFFFFFFFFFFFFFFFFFFFFF AND PUSH20 0xFFFFFFFFFFFFFFFFFFFFFFFFFFFFFFFFFFFFFFFF AND DUP2 MSTORE PUSH1 0x20 ADD SWAP1 DUP2 MSTORE PUSH1 0x20 ADD PUSH1 0x0 KECCAK256 PUSH1 0x0 DUP1 DUP3 ADD PUSH1 0x0 PUSH2 0x100 EXP DUP2 SLOAD SWAP1 PUSH20 0xFFFFFFFFFFFFFFFFFFFFFFFFFFFFFFFFFFFFFFFF MUL NOT AND SWAP1 SSTORE PUSH1 0x0 DUP3 ADD PUSH1 0x14 PUSH2 0x100 EXP DUP2 SLOAD SWAP1 PUSH8 0xFFFFFFFFFFFFFFFF MUL NOT AND SWAP1 SSTORE PUSH1 0x0 DUP3 ADD PUSH1 0x1C PUSH2 0x100 EXP DUP2 SLOAD SWAP1 PUSH1 0xFF MUL NOT AND SWAP1 SSTORE PUSH1 0x1 DUP3 ADD PUSH1 0x0 PUSH2 0x100 EXP DUP2 SLOAD SWAP1 PUSH20 0xFFFFFFFFFFFFFFFFFFFFFFFFFFFFFFFFFFFFFFFF MUL NOT AND SWAP1 SSTORE PUSH1 0x1 DUP3 ADD PUSH1 0x14 PUSH2 0x100 EXP DUP2 SLOAD SWAP1 PUSH1 0xFF MUL NOT AND SWAP1 SSTORE PUSH1 0x2 DUP3 ADD PUSH1 0x0 PUSH2 0x100 EXP DUP2 SLOAD SWAP1 PUSH20 0xFFFFFFFFFFFFFFFFFFFFFFFFFFFFFFFFFFFFFFFF MUL NOT AND SWAP1 SSTORE PUSH1 0x3 DUP3 ADD PUSH1 0x0 PUSH2 0x6FD SWAP2 SWAP1 PUSH2 0x1B08 JUMP JUMPDEST POP POP PUSH1 0x3 PUSH1 0x0 DUP3 PUSH1 0x20 ADD MLOAD PUSH1 0x7 SIGNEXTEND PUSH1 0x7 SIGNEXTEND DUP2 MSTORE PUSH1 0x20 ADD SWAP1 DUP2 MSTORE PUSH1 0x20 ADD PUSH1 0x0 KECCAK256 PUSH1 0x0 PUSH2 0x100 EXP DUP2 SLOAD SWAP1 PUSH20 0xFFFFFFFFFFFFFFFFFFFFFFFFFFFFFFFFFFFFFFFF MUL NOT AND SWAP1 SSTORE PUSH32 0xD06E11C55C5F21676305517C655A0188744D3BEE09361E15470276872D56A0B9 DUP2 PUSH1 0x20 ADD MLOAD DUP3 PUSH1 0x60 ADD MLOAD DUP4 PUSH1 0x80 ADD MLOAD DUP5 PUSH1 0xA0 ADD MLOAD DUP6 PUSH1 0xC0 ADD MLOAD PUSH1 0x40 MLOAD PUSH2 0x78A SWAP6 SWAP5 SWAP4 SWAP3 SWAP2 SWAP1 PUSH2 0x2160 JUMP JUMPDEST PUSH1 0x40 MLOAD DUP1 SWAP2 SUB SWAP1 LOG1 POP POP JUMP JUMPDEST PUSH2 0x79E PUSH2 0x1800 JUMP JUMPDEST PUSH20 0xFFFFFFFFFFFFFFFFFFFFFFFFFFFFFFFFFFFFFFFF AND PUSH2 0x7BC PUSH2 0x844 JUMP JUMPDEST PUSH20 0xFFFFFFFFFFFFFFFFFFFFFFFFFFFFFFFFFFFFFFFF AND EQ PUSH2 0x812 JUMPI PUSH1 0x40 MLOAD PUSH32 0x8C379A000000000000000000000000000000000000000000000000000000000 DUP2 MSTORE PUSH1 0x4 ADD PUSH2 0x809 SWAP1 PUSH2 0x22E2 JUMP JUMPDEST PUSH1 0x40 MLOAD DUP1 SWAP2 SUB SWAP1 REVERT JUMPDEST PUSH2 0x81C PUSH1 0x0 PUSH2 0x1808 JUMP JUMPDEST JUMP JUMPDEST PUSH1 0x7 PUSH1 0x0 SWAP1 SLOAD SWAP1 PUSH2 0x100 EXP SWAP1 DIV PUSH20 0xFFFFFFFFFFFFFFFFFFFFFFFFFFFFFFFFFFFFFFFF AND DUP2 JUMP JUMPDEST PUSH1 0x0 DUP1 PUSH1 0x0 SWAP1 SLOAD SWAP1 PUSH2 0x100 EXP SWAP1 DIV PUSH20 0xFFFFFFFFFFFFFFFFFFFFFFFFFFFFFFFFFFFFFFFF AND SWAP1 POP SWAP1 JUMP JUMPDEST PUSH2 0x875 PUSH2 0x1800 JUMP JUMPDEST PUSH20 0xFFFFFFFFFFFFFFFFFFFFFFFFFFFFFFFFFFFFFFFF AND PUSH2 0x893 PUSH2 0x844 JUMP JUMPDEST PUSH20 0xFFFFFFFFFFFFFFFFFFFFFFFFFFFFFFFFFFFFFFFF AND EQ PUSH2 0x8E9 JUMPI PUSH1 0x40 MLOAD PUSH32 0x8C379A000000000000000000000000000000000000000000000000000000000 DUP2 MSTORE PUSH1 0x4 ADD PUSH2 0x8E0 SWAP1 PUSH2 0x22E2 JUMP JUMPDEST PUSH1 0x40 MLOAD DUP1 SWAP2 SUB SWAP1 REVERT JUMPDEST PUSH1 0x0 PUSH1 0x5 PUSH1 0x0 DUP4 PUSH20 0xFFFFFFFFFFFFFFFFFFFFFFFFFFFFFFFFFFFFFFFF AND PUSH20 0xFFFFFFFFFFFFFFFFFFFFFFFFFFFFFFFFFFFFFFFF AND DUP2 MSTORE PUSH1 0x20 ADD SWAP1 DUP2 MSTORE PUSH1 0x20 ADD PUSH1 0x0 KECCAK256 PUSH1 0x40 MLOAD DUP1 PUSH1 0xE0 ADD PUSH1 0x40 MSTORE SWAP1 DUP2 PUSH1 0x0 DUP3 ADD PUSH1 0x0 SWAP1 SLOAD SWAP1 PUSH2 0x100 EXP SWAP1 DIV PUSH20 0xFFFFFFFFFFFFFFFFFFFFFFFFFFFFFFFFFFFFFFFF AND PUSH20 0xFFFFFFFFFFFFFFFFFFFFFFFFFFFFFFFFFFFFFFFF AND PUSH20 0xFFFFFFFFFFFFFFFFFFFFFFFFFFFFFFFFFFFFFFFF AND DUP2 MSTORE PUSH1 0x20 ADD PUSH1 0x0 DUP3 ADD PUSH1 0x14 SWAP1 SLOAD SWAP1 PUSH2 0x100 EXP SWAP1 DIV PUSH1 0x7 SIGNEXTEND PUSH1 0x7 SIGNEXTEND PUSH1 0x7 SIGNEXTEND DUP2 MSTORE PUSH1 0x20 ADD PUSH1 0x0 DUP3 ADD PUSH1 0x1C SWAP1 SLOAD SWAP1 PUSH2 0x100 EXP SWAP1 DIV PUSH1 0xFF AND ISZERO ISZERO ISZERO ISZERO DUP2 MSTORE PUSH1 0x20 ADD PUSH1 0x1 DUP3 ADD PUSH1 0x0 SWAP1 SLOAD SWAP1 PUSH2 0x100 EXP SWAP1 DIV PUSH20 0xFFFFFFFFFFFFFFFFFFFFFFFFFFFFFFFFFFFFFFFF AND PUSH20 0xFFFFFFFFFFFFFFFFFFFFFFFFFFFFFFFFFFFFFFFF AND PUSH20 0xFFFFFFFFFFFFFFFFFFFFFFFFFFFFFFFFFFFFFFFF AND DUP2 MSTORE PUSH1 0x20 ADD PUSH1 0x1 DUP3 ADD PUSH1 0x14 SWAP1 SLOAD SWAP1 PUSH2 0x100 EXP SWAP1 DIV PUSH1 0xFF AND PUSH1 0x2 DUP2 GT ISZERO PUSH2 0xA64 JUMPI PUSH32 0x4E487B7100000000000000000000000000000000000000000000000000000000 PUSH1 0x0 MSTORE PUSH1 0x21 PUSH1 0x4 MSTORE PUSH1 0x24 PUSH1 0x0 REVERT JUMPDEST PUSH1 0x2 DUP2 GT ISZERO PUSH2 0xA9C JUMPI PUSH32 0x4E487B7100000000000000000000000000000000000000000000000000000000 PUSH1 0x0 MSTORE PUSH1 0x21 PUSH1 0x4 MSTORE PUSH1 0x24 PUSH1 0x0 REVERT JUMPDEST DUP2 MSTORE PUSH1 0x20 ADD PUSH1 0x2 DUP3 ADD PUSH1 0x0 SWAP1 SLOAD SWAP1 PUSH2 0x100 EXP SWAP1 DIV PUSH20 0xFFFFFFFFFFFFFFFFFFFFFFFFFFFFFFFFFFFFFFFF AND PUSH20 0xFFFFFFFFFFFFFFFFFFFFFFFFFFFFFFFFFFFFFFFF AND PUSH20 0xFFFFFFFFFFFFFFFFFFFFFFFFFFFFFFFFFFFFFFFF AND DUP2 MSTORE PUSH1 0x20 ADD PUSH1 0x3 DUP3 ADD DUP1 SLOAD PUSH2 0xB06 SWAP1 PUSH2 0x24E5 JUMP JUMPDEST DUP1 PUSH1 0x1F ADD PUSH1 0x20 DUP1 SWAP2 DIV MUL PUSH1 0x20 ADD PUSH1 0x40 MLOAD SWAP1 DUP2 ADD PUSH1 0x40 MSTORE DUP1 SWAP3 SWAP2 SWAP1 DUP2 DUP2 MSTORE PUSH1 0x20 ADD DUP3 DUP1 SLOAD PUSH2 0xB32 SWAP1 PUSH2 0x24E5 JUMP JUMPDEST DUP1 ISZERO PUSH2 0xB7F JUMPI DUP1 PUSH1 0x1F LT PUSH2 0xB54 JUMPI PUSH2 0x100 DUP1 DUP4 SLOAD DIV MUL DUP4 MSTORE SWAP2 PUSH1 0x20 ADD SWAP2 PUSH2 0xB7F JUMP JUMPDEST DUP3 ADD SWAP2 SWAP1 PUSH1 0x0 MSTORE PUSH1 0x20 PUSH1 0x0 KECCAK256 SWAP1 JUMPDEST DUP2 SLOAD DUP2 MSTORE SWAP1 PUSH1 0x1 ADD SWAP1 PUSH1 0x20 ADD DUP1 DUP4 GT PUSH2 0xB62 JUMPI DUP3 SWAP1 SUB PUSH1 0x1F AND DUP3 ADD SWAP2 JUMPDEST POP POP POP POP POP DUP2 MSTORE POP POP SWAP1 POP PUSH1 0x0 ISZERO ISZERO DUP2 PUSH1 0x40 ADD MLOAD ISZERO ISZERO EQ PUSH2 0xBD5 JUMPI PUSH1 0x40 MLOAD PUSH32 0x8C379A000000000000000000000000000000000000000000000000000000000 DUP2 MSTORE PUSH1 0x4 ADD PUSH2 0xBCC SWAP1 PUSH2 0x2302 JUMP JUMPDEST PUSH1 0x40 MLOAD DUP1 SWAP2 SUB SWAP1 REVERT JUMPDEST PUSH1 0x1 DUP2 PUSH1 0x40 ADD SWAP1 ISZERO ISZERO SWAP1 DUP2 ISZERO ISZERO DUP2 MSTORE POP POP DUP1 PUSH1 0x5 PUSH1 0x0 DUP5 PUSH20 0xFFFFFFFFFFFFFFFFFFFFFFFFFFFFFFFFFFFFFFFF AND PUSH20 0xFFFFFFFFFFFFFFFFFFFFFFFFFFFFFFFFFFFFFFFF AND DUP2 MSTORE PUSH1 0x20 ADD SWAP1 DUP2 MSTORE PUSH1 0x20 ADD PUSH1 0x0 KECCAK256 PUSH1 0x0 DUP3 ADD MLOAD DUP2 PUSH1 0x0 ADD PUSH1 0x0 PUSH2 0x100 EXP DUP2 SLOAD DUP2 PUSH20 0xFFFFFFFFFFFFFFFFFFFFFFFFFFFFFFFFFFFFFFFF MUL NOT AND SWAP1 DUP4 PUSH20 0xFFFFFFFFFFFFFFFFFFFFFFFFFFFFFFFFFFFFFFFF AND MUL OR SWAP1 SSTORE POP PUSH1 0x20 DUP3 ADD MLOAD DUP2 PUSH1 0x0 ADD PUSH1 0x14 PUSH2 0x100 EXP DUP2 SLOAD DUP2 PUSH8 0xFFFFFFFFFFFFFFFF MUL NOT AND SWAP1 DUP4 PUSH1 0x7 SIGNEXTEND PUSH8 0xFFFFFFFFFFFFFFFF AND MUL OR SWAP1 SSTORE POP PUSH1 0x40 DUP3 ADD MLOAD DUP2 PUSH1 0x0 ADD PUSH1 0x1C PUSH2 0x100 EXP DUP2 SLOAD DUP2 PUSH1 0xFF MUL NOT AND SWAP1 DUP4 ISZERO ISZERO MUL OR SWAP1 SSTORE POP PUSH1 0x60 DUP3 ADD MLOAD DUP2 PUSH1 0x1 ADD PUSH1 0x0 PUSH2 0x100 EXP DUP2 SLOAD DUP2 PUSH20 0xFFFFFFFFFFFFFFFFFFFFFFFFFFFFFFFFFFFFFFFF MUL NOT AND SWAP1 DUP4 PUSH20 0xFFFFFFFFFFFFFFFFFFFFFFFFFFFFFFFFFFFFFFFF AND MUL OR SWAP1 SSTORE POP PUSH1 0x80 DUP3 ADD MLOAD DUP2 PUSH1 0x1 ADD PUSH1 0x14 PUSH2 0x100 EXP DUP2 SLOAD DUP2 PUSH1 0xFF MUL NOT AND SWAP1 DUP4 PUSH1 0x2 DUP2 GT ISZERO PUSH2 0xD57 JUMPI PUSH32 0x4E487B7100000000000000000000000000000000000000000000000000000000 PUSH1 0x0 MSTORE PUSH1 0x21 PUSH1 0x4 MSTORE PUSH1 0x24 PUSH1 0x0 REVERT JUMPDEST MUL OR SWAP1 SSTORE POP PUSH1 0xA0 DUP3 ADD MLOAD DUP2 PUSH1 0x2 ADD PUSH1 0x0 PUSH2 0x100 EXP DUP2 SLOAD DUP2 PUSH20 0xFFFFFFFFFFFFFFFFFFFFFFFFFFFFFFFFFFFFFFFF MUL NOT AND SWAP1 DUP4 PUSH20 0xFFFFFFFFFFFFFFFFFFFFFFFFFFFFFFFFFFFFFFFF AND MUL OR SWAP1 SSTORE POP PUSH1 0xC0 DUP3 ADD MLOAD DUP2 PUSH1 0x3 ADD SWAP1 DUP1 MLOAD SWAP1 PUSH1 0x20 ADD SWAP1 PUSH2 0xDBF SWAP3 SWAP2 SWAP1 PUSH2 0x1B48 JUMP JUMPDEST POP SWAP1 POP POP PUSH2 0xDCD PUSH1 0x4 PUSH2 0x18CC JUMP JUMPDEST PUSH32 0x19C3744C2D10EDA4D05B727F02A712A414539C26678F5F988D98F9635AFCAC28 DUP2 PUSH1 0x20 ADD MLOAD DUP3 PUSH1 0x60 ADD MLOAD DUP4 PUSH1 0x80 ADD MLOAD DUP5 PUSH1 0xA0 ADD MLOAD DUP6 PUSH1 0xC0 ADD MLOAD PUSH1 0x40 MLOAD PUSH2 0xE18 SWAP6 SWAP5 SWAP4 SWAP3 SWAP2 SWAP1 PUSH2 0x2160 JUMP JUMPDEST PUSH1 0x40 MLOAD DUP1 SWAP2 SUB SWAP1 LOG1 POP POP JUMP JUMPDEST PUSH1 0x0 PUSH1 0x7 PUSH1 0x0 SWAP1 SLOAD SWAP1 PUSH2 0x100 EXP SWAP1 DIV PUSH20 0xFFFFFFFFFFFFFFFFFFFFFFFFFFFFFFFFFFFFFFFF AND PUSH20 0xFFFFFFFFFFFFFFFFFFFFFFFFFFFFFFFFFFFFFFFF AND PUSH4 0xC2FC6E3 DUP9 PUSH1 0x40 MLOAD DUP3 PUSH4 0xFFFFFFFF AND PUSH1 0xE0 SHL DUP2 MSTORE PUSH1 0x4 ADD PUSH2 0xE81 SWAP2 SWAP1 PUSH2 0x2145 JUMP JUMPDEST PUSH1 0x20 PUSH1 0x40 MLOAD DUP1 DUP4 SUB DUP2 DUP7 DUP1 EXTCODESIZE ISZERO DUP1 ISZERO PUSH2 0xE99 JUMPI PUSH1 0x0 DUP1 REVERT JUMPDEST POP GAS STATICCALL ISZERO DUP1 ISZERO PUSH2 0xEAD JUMPI RETURNDATASIZE PUSH1 0x0 DUP1 RETURNDATACOPY RETURNDATASIZE PUSH1 0x0 REVERT JUMPDEST POP POP POP POP PUSH1 0x40 MLOAD RETURNDATASIZE PUSH1 0x1F NOT PUSH1 0x1F DUP3 ADD AND DUP3 ADD DUP1 PUSH1 0x40 MSTORE POP DUP2 ADD SWAP1 PUSH2 0xED1 SWAP2 SWAP1 PUSH2 0x1D0F JUMP JUMPDEST SWAP1 POP CALLER PUSH20 0xFFFFFFFFFFFFFFFFFFFFFFFFFFFFFFFFFFFFFFFF AND DUP2 PUSH20 0xFFFFFFFFFFFFFFFFFFFFFFFFFFFFFFFFFFFFFFFF AND EQ PUSH2 0xF41 JUMPI PUSH1 0x40 MLOAD PUSH32 0x8C379A000000000000000000000000000000000000000000000000000000000 DUP2 MSTORE PUSH1 0x4 ADD PUSH2 0xF38 SWAP1 PUSH2 0x2222 JUMP JUMPDEST PUSH1 0x40 MLOAD DUP1 SWAP2 SUB SWAP1 REVERT JUMPDEST PUSH1 0x0 PUSH20 0xFFFFFFFFFFFFFFFFFFFFFFFFFFFFFFFFFFFFFFFF AND PUSH1 0x3 PUSH1 0x0 DUP9 PUSH1 0x7 SIGNEXTEND PUSH1 0x7 SIGNEXTEND DUP2 MSTORE PUSH1 0x20 ADD SWAP1 DUP2 MSTORE PUSH1 0x20 ADD PUSH1 0x0 KECCAK256 PUSH1 0x0 SWAP1 SLOAD SWAP1 PUSH2 0x100 EXP SWAP1 DIV PUSH20 0xFFFFFFFFFFFFFFFFFFFFFFFFFFFFFFFFFFFFFFFF AND PUSH20 0xFFFFFFFFFFFFFFFFFFFFFFFFFFFFFFFFFFFFFFFF AND EQ PUSH2 0xFE9 JUMPI PUSH1 0x40 MLOAD PUSH32 0x8C379A000000000000000000000000000000000000000000000000000000000 DUP2 MSTORE PUSH1 0x4 ADD PUSH2 0xFE0 SWAP1 PUSH2 0x22A2 JUMP JUMPDEST PUSH1 0x40 MLOAD DUP1 SWAP2 SUB SWAP1 REVERT JUMPDEST DUP5 PUSH1 0x3 PUSH1 0x0 DUP9 PUSH1 0x7 SIGNEXTEND PUSH1 0x7 SIGNEXTEND DUP2 MSTORE PUSH1 0x20 ADD SWAP1 DUP2 MSTORE PUSH1 0x20 ADD PUSH1 0x0 KECCAK256 PUSH1 0x0 PUSH2 0x100 EXP DUP2 SLOAD DUP2 PUSH20 0xFFFFFFFFFFFFFFFFFFFFFFFFFFFFFFFFFFFFFFFF MUL NOT AND SWAP1 DUP4 PUSH20 0xFFFFFFFFFFFFFFFFFFFFFFFFFFFFFFFFFFFFFFFF AND MUL OR SWAP1 SSTORE POP PUSH1 0x0 PUSH2 0x104D DUP6 DUP6 PUSH2 0x18E2 JUMP JUMPDEST SWAP1 POP PUSH1 0x1 ISZERO ISZERO DUP2 ISZERO ISZERO EQ PUSH2 0x1096 JUMPI PUSH1 0x40 MLOAD PUSH32 0x8C379A000000000000000000000000000000000000000000000000000000000 DUP2 MSTORE PUSH1 0x4 ADD PUSH2 0x108D SWAP1 PUSH2 0x22C2 JUMP JUMPDEST PUSH1 0x40 MLOAD DUP1 SWAP2 SUB SWAP1 REVERT JUMPDEST PUSH1 0x7 PUSH1 0x0 SWAP1 SLOAD SWAP1 PUSH2 0x100 EXP SWAP1 DIV PUSH20 0xFFFFFFFFFFFFFFFFFFFFFFFFFFFFFFFFFFFFFFFF AND PUSH20 0xFFFFFFFFFFFFFFFFFFFFFFFFFFFFFFFFFFFFFFFF AND PUSH4 0x48DC1561 PUSH1 0x40 MLOAD DUP2 PUSH4 0xFFFFFFFF AND PUSH1 0xE0 SHL DUP2 MSTORE PUSH1 0x4 ADD PUSH1 0x20 PUSH1 0x40 MLOAD DUP1 DUP4 SUB DUP2 DUP7 DUP1 EXTCODESIZE ISZERO DUP1 ISZERO PUSH2 0x10FE JUMPI PUSH1 0x0 DUP1 REVERT JUMPDEST POP GAS STATICCALL ISZERO DUP1 ISZERO PUSH2 0x1112 JUMPI RETURNDATASIZE PUSH1 0x0 DUP1 RETURNDATACOPY RETURNDATASIZE PUSH1 0x0 REVERT JUMPDEST POP POP POP POP PUSH1 0x40 MLOAD RETURNDATASIZE PUSH1 0x1F NOT PUSH1 0x1F DUP3 ADD AND DUP3 ADD DUP1 PUSH1 0x40 MSTORE POP DUP2 ADD SWAP1 PUSH2 0x1136 SWAP2 SWAP1 PUSH2 0x1E2B JUMP JUMPDEST PUSH1 0x1 DUP2 SWAP1 SSTORE POP PUSH1 0x40 MLOAD DUP1 PUSH1 0xE0 ADD PUSH1 0x40 MSTORE DUP1 CALLER PUSH20 0xFFFFFFFFFFFFFFFFFFFFFFFFFFFFFFFFFFFFFFFF AND DUP2 MSTORE PUSH1 0x20 ADD DUP9 PUSH1 0x7 SIGNEXTEND DUP2 MSTORE PUSH1 0x20 ADD PUSH1 0x0 ISZERO ISZERO DUP2 MSTORE PUSH1 0x20 ADD DUP8 PUSH20 0xFFFFFFFFFFFFFFFFFFFFFFFFFFFFFFFFFFFFFFFF AND DUP2 MSTORE PUSH1 0x20 ADD DUP7 PUSH1 0x2 DUP2 GT ISZERO PUSH2 0x11CA JUMPI PUSH32 0x4E487B7100000000000000000000000000000000000000000000000000000000 PUSH1 0x0 MSTORE PUSH1 0x21 PUSH1 0x4 MSTORE PUSH1 0x24 PUSH1 0x0 REVERT JUMPDEST DUP2 MSTORE PUSH1 0x20 ADD DUP6 PUSH20 0xFFFFFFFFFFFFFFFFFFFFFFFFFFFFFFFFFFFFFFFF AND DUP2 MSTORE PUSH1 0x20 ADD DUP5 DUP2 MSTORE POP PUSH1 0x5 PUSH1 0x0 DUP9 PUSH20 0xFFFFFFFFFFFFFFFFFFFFFFFFFFFFFFFFFFFFFFFF AND PUSH20 0xFFFFFFFFFFFFFFFFFFFFFFFFFFFFFFFFFFFFFFFF AND DUP2 MSTORE PUSH1 0x20 ADD SWAP1 DUP2 MSTORE PUSH1 0x20 ADD PUSH1 0x0 KECCAK256 PUSH1 0x0 DUP3 ADD MLOAD DUP2 PUSH1 0x0 ADD PUSH1 0x0 PUSH2 0x100 EXP DUP2 SLOAD DUP2 PUSH20 0xFFFFFFFFFFFFFFFFFFFFFFFFFFFFFFFFFFFFFFFF MUL NOT AND SWAP1 DUP4 PUSH20 0xFFFFFFFFFFFFFFFFFFFFFFFFFFFFFFFFFFFFFFFF AND MUL OR SWAP1 SSTORE POP PUSH1 0x20 DUP3 ADD MLOAD DUP2 PUSH1 0x0 ADD PUSH1 0x14 PUSH2 0x100 EXP DUP2 SLOAD DUP2 PUSH8 0xFFFFFFFFFFFFFFFF MUL NOT AND SWAP1 DUP4 PUSH1 0x7 SIGNEXTEND PUSH8 0xFFFFFFFFFFFFFFFF AND MUL OR SWAP1 SSTORE POP PUSH1 0x40 DUP3 ADD MLOAD DUP2 PUSH1 0x0 ADD PUSH1 0x1C PUSH2 0x100 EXP DUP2 SLOAD DUP2 PUSH1 0xFF MUL NOT AND SWAP1 DUP4 ISZERO ISZERO MUL OR SWAP1 SSTORE POP PUSH1 0x60 DUP3 ADD MLOAD DUP2 PUSH1 0x1 ADD PUSH1 0x0 PUSH2 0x100 EXP DUP2 SLOAD DUP2 PUSH20 0xFFFFFFFFFFFFFFFFFFFFFFFFFFFFFFFFFFFFFFFF MUL NOT AND SWAP1 DUP4 PUSH20 0xFFFFFFFFFFFFFFFFFFFFFFFFFFFFFFFFFFFFFFFF AND MUL OR SWAP1 SSTORE POP PUSH1 0x80 DUP3 ADD MLOAD DUP2 PUSH1 0x1 ADD PUSH1 0x14 PUSH2 0x100 EXP DUP2 SLOAD DUP2 PUSH1 0xFF MUL NOT AND SWAP1 DUP4 PUSH1 0x2 DUP2 GT ISZERO PUSH2 0x135F JUMPI PUSH32 0x4E487B7100000000000000000000000000000000000000000000000000000000 PUSH1 0x0 MSTORE PUSH1 0x21 PUSH1 0x4 MSTORE PUSH1 0x24 PUSH1 0x0 REVERT JUMPDEST MUL OR SWAP1 SSTORE POP PUSH1 0xA0 DUP3 ADD MLOAD DUP2 PUSH1 0x2 ADD PUSH1 0x0 PUSH2 0x100 EXP DUP2 SLOAD DUP2 PUSH20 0xFFFFFFFFFFFFFFFFFFFFFFFFFFFFFFFFFFFFFFFF MUL NOT AND SWAP1 DUP4 PUSH20 0xFFFFFFFFFFFFFFFFFFFFFFFFFFFFFFFFFFFFFFFF AND MUL OR SWAP1 SSTORE POP PUSH1 0xC0 DUP3 ADD MLOAD DUP2 PUSH1 0x3 ADD SWAP1 DUP1 MLOAD SWAP1 PUSH1 0x20 ADD SWAP1 PUSH2 0x13C7 SWAP3 SWAP2 SWAP1 PUSH2 0x1B48 JUMP JUMPDEST POP SWAP1 POP POP PUSH1 0x0 PUSH1 0x2 PUSH1 0x0 SWAP1 SLOAD SWAP1 PUSH2 0x100 EXP SWAP1 DIV PUSH20 0xFFFFFFFFFFFFFFFFFFFFFFFFFFFFFFFFFFFFFFFF AND PUSH20 0xFFFFFFFFFFFFFFFFFFFFFFFFFFFFFFFFFFFFFFFF AND PUSH1 0x1 SLOAD PUSH1 0x40 MLOAD PUSH2 0x1415 SWAP1 PUSH2 0x2069 JUMP JUMPDEST PUSH1 0x0 PUSH1 0x40 MLOAD DUP1 DUP4 SUB DUP2 DUP6 DUP8 GAS CALL SWAP3 POP POP POP RETURNDATASIZE DUP1 PUSH1 0x0 DUP2 EQ PUSH2 0x1452 JUMPI PUSH1 0x40 MLOAD SWAP2 POP PUSH1 0x1F NOT PUSH1 0x3F RETURNDATASIZE ADD AND DUP3 ADD PUSH1 0x40 MSTORE RETURNDATASIZE DUP3 MSTORE RETURNDATASIZE PUSH1 0x0 PUSH1 0x20 DUP5 ADD RETURNDATACOPY PUSH2 0x1457 JUMP JUMPDEST PUSH1 0x60 SWAP2 POP JUMPDEST POP POP SWAP1 POP DUP1 PUSH2 0x149B JUMPI PUSH1 0x40 MLOAD PUSH32 0x8C379A000000000000000000000000000000000000000000000000000000000 DUP2 MSTORE PUSH1 0x4 ADD PUSH2 0x1492 SWAP1 PUSH2 0x2262 JUMP JUMPDEST PUSH1 0x40 MLOAD DUP1 SWAP2 SUB SWAP1 REVERT JUMPDEST PUSH1 0x1 SLOAD CALLVALUE EQ PUSH2 0x14DF JUMPI PUSH1 0x40 MLOAD PUSH32 0x8C379A000000000000000000000000000000000000000000000000000000000 DUP2 MSTORE PUSH1 0x4 ADD PUSH2 0x14D6 SWAP1 PUSH2 0x2282 JUMP JUMPDEST PUSH1 0x40 MLOAD DUP1 SWAP2 SUB SWAP1 REVERT JUMPDEST PUSH32 0xAE33DAC4EB1CDCAF489D2A9A56C45D17257612CAD7C531513D4E425951349E2 DUP9 DUP11 DUP10 DUP10 DUP10 DUP10 PUSH1 0x40 MLOAD PUSH2 0x1518 SWAP7 SWAP6 SWAP5 SWAP4 SWAP3 SWAP2 SWAP1 PUSH2 0x21BA JUMP JUMPDEST PUSH1 0x40 MLOAD DUP1 SWAP2 SUB SWAP1 LOG1 POP POP POP POP POP POP POP POP POP JUMP JUMPDEST PUSH1 0x5 PUSH1 0x20 MSTORE DUP1 PUSH1 0x0 MSTORE PUSH1 0x40 PUSH1 0x0 KECCAK256 PUSH1 0x0 SWAP2 POP SWAP1 POP DUP1 PUSH1 0x0 ADD PUSH1 0x0 SWAP1 SLOAD SWAP1 PUSH2 0x100 EXP SWAP1 DIV PUSH20 0xFFFFFFFFFFFFFFFFFFFFFFFFFFFFFFFFFFFFFFFF AND SWAP1 DUP1 PUSH1 0x0 ADD PUSH1 0x14 SWAP1 SLOAD SWAP1 PUSH2 0x100 EXP SWAP1 DIV PUSH1 0x7 SIGNEXTEND SWAP1 DUP1 PUSH1 0x0 ADD PUSH1 0x1C SWAP1 SLOAD SWAP1 PUSH2 0x100 EXP SWAP1 DIV PUSH1 0xFF AND SWAP1 DUP1 PUSH1 0x1 ADD PUSH1 0x0 SWAP1 SLOAD SWAP1 PUSH2 0x100 EXP SWAP1 DIV PUSH20 0xFFFFFFFFFFFFFFFFFFFFFFFFFFFFFFFFFFFFFFFF AND SWAP1 DUP1 PUSH1 0x1 ADD PUSH1 0x14 SWAP1 SLOAD SWAP1 PUSH2 0x100 EXP SWAP1 DIV PUSH1 0xFF AND SWAP1 DUP1 PUSH1 0x2 ADD PUSH1 0x0 SWAP1 SLOAD SWAP1 PUSH2 0x100 EXP SWAP1 DIV PUSH20 0xFFFFFFFFFFFFFFFFFFFFFFFFFFFFFFFFFFFFFFFF AND SWAP1 DUP1 PUSH1 0x3 ADD DUP1 SLOAD PUSH2 0x15F9 SWAP1 PUSH2 0x24E5 JUMP JUMPDEST DUP1 PUSH1 0x1F ADD PUSH1 0x20 DUP1 SWAP2 DIV MUL PUSH1 0x20 ADD PUSH1 0x40 MLOAD SWAP1 DUP2 ADD PUSH1 0x40 MSTORE DUP1 SWAP3 SWAP2 SWAP1 DUP2 DUP2 MSTORE PUSH1 0x20 ADD DUP3 DUP1 SLOAD PUSH2 0x1625 SWAP1 PUSH2 0x24E5 JUMP JUMPDEST DUP1 ISZERO PUSH2 0x1672 JUMPI DUP1 PUSH1 0x1F LT PUSH2 0x1647 JUMPI PUSH2 0x100 DUP1 DUP4 SLOAD DIV MUL DUP4 MSTORE SWAP2 PUSH1 0x20 ADD SWAP2 PUSH2 0x1672 JUMP JUMPDEST DUP3 ADD SWAP2 SWAP1 PUSH1 0x0 MSTORE PUSH1 0x20 PUSH1 0x0 KECCAK256 SWAP1 JUMPDEST DUP2 SLOAD DUP2 MSTORE SWAP1 PUSH1 0x1 ADD SWAP1 PUSH1 0x20 ADD DUP1 DUP4 GT PUSH2 0x1655 JUMPI DUP3 SWAP1 SUB PUSH1 0x1F AND DUP3 ADD SWAP2 JUMPDEST POP POP POP POP POP SWAP1 POP DUP8 JUMP JUMPDEST PUSH1 0x0 PUSH2 0x1688 PUSH1 0x4 PUSH2 0x1AFA JUMP JUMPDEST SWAP1 POP SWAP1 JUMP JUMPDEST PUSH1 0x3 PUSH1 0x20 MSTORE DUP1 PUSH1 0x0 MSTORE PUSH1 0x40 PUSH1 0x0 KECCAK256 PUSH1 0x0 SWAP2 POP SLOAD SWAP1 PUSH2 0x100 EXP SWAP1 DIV PUSH20 0xFFFFFFFFFFFFFFFFFFFFFFFFFFFFFFFFFFFFFFFF AND DUP2 JUMP JUMPDEST PUSH1 0x0 DUP1 PUSH1 0x3 PUSH1 0x0 DUP5 PUSH1 0x7 SIGNEXTEND PUSH1 0x7 SIGNEXTEND DUP2 MSTORE PUSH1 0x20 ADD SWAP1 DUP2 MSTORE PUSH1 0x20 ADD PUSH1 0x0 KECCAK256 PUSH1 0x0 SWAP1 SLOAD SWAP1 PUSH2 0x100 EXP SWAP1 DIV PUSH20 0xFFFFFFFFFFFFFFFFFFFFFFFFFFFFFFFFFFFFFFFF AND SWAP1 POP DUP1 SWAP2 POP POP SWAP2 SWAP1 POP JUMP JUMPDEST PUSH2 0x1710 PUSH2 0x1800 JUMP JUMPDEST PUSH20 0xFFFFFFFFFFFFFFFFFFFFFFFFFFFFFFFFFFFFFFFF AND PUSH2 0x172E PUSH2 0x844 JUMP JUMPDEST PUSH20 0xFFFFFFFFFFFFFFFFFFFFFFFFFFFFFFFFFFFFFFFF AND EQ PUSH2 0x1784 JUMPI PUSH1 0x40 MLOAD PUSH32 0x8C379A000000000000000000000000000000000000000000000000000000000 DUP2 MSTORE PUSH1 0x4 ADD PUSH2 0x177B SWAP1 PUSH2 0x22E2 JUMP JUMPDEST PUSH1 0x40 MLOAD DUP1 SWAP2 SUB SWAP1 REVERT JUMPDEST PUSH1 0x0 PUSH20 0xFFFFFFFFFFFFFFFFFFFFFFFFFFFFFFFFFFFFFFFF AND DUP2 PUSH20 0xFFFFFFFFFFFFFFFFFFFFFFFFFFFFFFFFFFFFFFFF AND EQ ISZERO PUSH2 0x17F4 JUMPI PUSH1 0x40 MLOAD PUSH32 0x8C379A000000000000000000000000000000000000000000000000000000000 DUP2 MSTORE PUSH1 0x4 ADD PUSH2 0x17EB SWAP1 PUSH2 0x2242 JUMP JUMPDEST PUSH1 0x40 MLOAD DUP1 SWAP2 SUB SWAP1 REVERT JUMPDEST PUSH2 0x17FD DUP2 PUSH2 0x1808 JUMP JUMPDEST POP JUMP JUMPDEST PUSH1 0x0 CALLER SWAP1 POP SWAP1 JUMP JUMPDEST PUSH1 0x0 DUP1 PUSH1 0x0 SWAP1 SLOAD SWAP1 PUSH2 0x100 EXP SWAP1 DIV PUSH20 0xFFFFFFFFFFFFFFFFFFFFFFFFFFFFFFFFFFFFFFFF AND SWAP1 POP DUP2 PUSH1 0x0 DUP1 PUSH2 0x100 EXP DUP2 SLOAD DUP2 PUSH20 0xFFFFFFFFFFFFFFFFFFFFFFFFFFFFFFFFFFFFFFFF MUL NOT AND SWAP1 DUP4 PUSH20 0xFFFFFFFFFFFFFFFFFFFFFFFFFFFFFFFFFFFFFFFF AND MUL OR SWAP1 SSTORE POP DUP2 PUSH20 0xFFFFFFFFFFFFFFFFFFFFFFFFFFFFFFFFFFFFFFFF AND DUP2 PUSH20 0xFFFFFFFFFFFFFFFFFFFFFFFFFFFFFFFFFFFFFFFF AND PUSH32 0x8BE0079C531659141344CD1FD0A4F28419497F9722A3DAAFE3B4186F6B6457E0 PUSH1 0x40 MLOAD PUSH1 0x40 MLOAD DUP1 SWAP2 SUB SWAP1 LOG3 POP POP JUMP JUMPDEST PUSH1 0x1 DUP2 PUSH1 0x0 ADD PUSH1 0x0 DUP3 DUP3 SLOAD ADD SWAP3 POP POP DUP2 SWAP1 SSTORE POP POP JUMP JUMPDEST PUSH1 0x0 PUSH1 0x2 DUP1 DUP2 GT ISZERO PUSH2 0x191D JUMPI PUSH32 0x4E487B7100000000000000000000000000000000000000000000000000000000 PUSH1 0x0 MSTORE PUSH1 0x21 PUSH1 0x4 MSTORE PUSH1 0x24 PUSH1 0x0 REVERT JUMPDEST DUP4 PUSH1 0x2 DUP2 GT ISZERO PUSH2 0x1956 JUMPI PUSH32 0x4E487B7100000000000000000000000000000000000000000000000000000000 PUSH1 0x0 MSTORE PUSH1 0x21 PUSH1 0x4 MSTORE PUSH1 0x24 PUSH1 0x0 REVERT JUMPDEST EQ ISZERO PUSH2 0x19F3 JUMPI DUP2 PUSH20 0xFFFFFFFFFFFFFFFFFFFFFFFFFFFFFFFFFFFFFFFF AND PUSH4 0x1FFC9A7 PUSH4 0x780E9D63 PUSH1 0xE0 SHL PUSH1 0x40 MLOAD DUP3 PUSH4 0xFFFFFFFF AND PUSH1 0xE0 SHL DUP2 MSTORE PUSH1 0x4 ADD PUSH2 0x199C SWAP2 SWAP1 PUSH2 0x210F JUMP JUMPDEST PUSH1 0x20 PUSH1 0x40 MLOAD DUP1 DUP4 SUB DUP2 DUP7 DUP1 EXTCODESIZE ISZERO DUP1 ISZERO PUSH2 0x19B4 JUMPI PUSH1 0x0 DUP1 REVERT JUMPDEST POP GAS STATICCALL ISZERO DUP1 ISZERO PUSH2 0x19C8 JUMPI RETURNDATASIZE PUSH1 0x0 DUP1 RETURNDATACOPY RETURNDATASIZE PUSH1 0x0 REVERT JUMPDEST POP POP POP POP PUSH1 0x40 MLOAD RETURNDATASIZE PUSH1 0x1F NOT PUSH1 0x1F DUP3 ADD AND DUP3 ADD DUP1 PUSH1 0x40 MSTORE POP DUP2 ADD SWAP1 PUSH2 0x19EC SWAP2 SWAP1 PUSH2 0x1D38 JUMP JUMPDEST SWAP1 POP PUSH2 0x1AF4 JUMP JUMPDEST PUSH1 0x0 PUSH1 0x2 DUP2 GT ISZERO PUSH2 0x1A2D JUMPI PUSH32 0x4E487B7100000000000000000000000000000000000000000000000000000000 PUSH1 0x0 MSTORE PUSH1 0x21 PUSH1 0x4 MSTORE PUSH1 0x24 PUSH1 0x0 REVERT JUMPDEST DUP4 PUSH1 0x2 DUP2 GT ISZERO PUSH2 0x1A66 JUMPI PUSH32 0x4E487B7100000000000000000000000000000000000000000000000000000000 PUSH1 0x0 MSTORE PUSH1 0x21 PUSH1 0x4 MSTORE PUSH1 0x24 PUSH1 0x0 REVERT JUMPDEST EQ ISZERO PUSH2 0x1AF3 JUMPI PUSH1 0x12 DUP3 PUSH20 0xFFFFFFFFFFFFFFFFFFFFFFFFFFFFFFFFFFFFFFFF AND PUSH4 0x313CE567 PUSH1 0x40 MLOAD DUP2 PUSH4 0xFFFFFFFF AND PUSH1 0xE0 SHL DUP2 MSTORE PUSH1 0x4 ADD PUSH1 0x20 PUSH1 0x40 MLOAD DUP1 DUP4 SUB DUP2 DUP7 DUP1 EXTCODESIZE ISZERO DUP1 ISZERO PUSH2 0x1AB4 JUMPI PUSH1 0x0 DUP1 REVERT JUMPDEST POP GAS STATICCALL ISZERO DUP1 ISZERO PUSH2 0x1AC8 JUMPI RETURNDATASIZE PUSH1 0x0 DUP1 RETURNDATACOPY RETURNDATASIZE PUSH1 0x0 REVERT JUMPDEST POP POP POP POP PUSH1 0x40 MLOAD RETURNDATASIZE PUSH1 0x1F NOT PUSH1 0x1F DUP3 ADD AND DUP3 ADD DUP1 PUSH1 0x40 MSTORE POP DUP2 ADD SWAP1 PUSH2 0x1AEC SWAP2 SWAP1 PUSH2 0x1E54 JUMP JUMPDEST PUSH1 0xFF AND EQ SWAP1 POP JUMPDEST JUMPDEST SWAP3 SWAP2 POP POP JUMP JUMPDEST PUSH1 0x0 DUP2 PUSH1 0x0 ADD SLOAD SWAP1 POP SWAP2 SWAP1 POP JUMP JUMPDEST POP DUP1 SLOAD PUSH2 0x1B14 SWAP1 PUSH2 0x24E5 JUMP JUMPDEST PUSH1 0x0 DUP3 SSTORE DUP1 PUSH1 0x1F LT PUSH2 0x1B26 JUMPI POP PUSH2 0x1B45 JUMP JUMPDEST PUSH1 0x1F ADD PUSH1 0x20 SWAP1 DIV SWAP1 PUSH1 0x0 MSTORE PUSH1 0x20 PUSH1 0x0 KECCAK256 SWAP1 DUP2 ADD SWAP1 PUSH2 0x1B44 SWAP2 SWAP1 PUSH2 0x1BCE JUMP JUMPDEST JUMPDEST POP JUMP JUMPDEST DUP3 DUP1 SLOAD PUSH2 0x1B54 SWAP1 PUSH2 0x24E5 JUMP JUMPDEST SWAP1 PUSH1 0x0 MSTORE PUSH1 0x20 PUSH1 0x0 KECCAK256 SWAP1 PUSH1 0x1F ADD PUSH1 0x20 SWAP1 DIV DUP2 ADD SWAP3 DUP3 PUSH2 0x1B76 JUMPI PUSH1 0x0 DUP6 SSTORE PUSH2 0x1BBD JUMP JUMPDEST DUP3 PUSH1 0x1F LT PUSH2 0x1B8F JUMPI DUP1 MLOAD PUSH1 0xFF NOT AND DUP4 DUP1 ADD OR DUP6 SSTORE PUSH2 0x1BBD JUMP JUMPDEST DUP3 DUP1 ADD PUSH1 0x1 ADD DUP6 SSTORE DUP3 ISZERO PUSH2 0x1BBD JUMPI SWAP2 DUP3 ADD JUMPDEST DUP3 DUP2 GT ISZERO PUSH2 0x1BBC JUMPI DUP3 MLOAD DUP3 SSTORE SWAP2 PUSH1 0x20 ADD SWAP2 SWAP1 PUSH1 0x1 ADD SWAP1 PUSH2 0x1BA1 JUMP JUMPDEST JUMPDEST POP SWAP1 POP PUSH2 0x1BCA SWAP2 SWAP1 PUSH2 0x1BCE JUMP JUMPDEST POP SWAP1 JUMP JUMPDEST JUMPDEST DUP1 DUP3 GT ISZERO PUSH2 0x1BE7 JUMPI PUSH1 0x0 DUP2 PUSH1 0x0 SWAP1 SSTORE POP PUSH1 0x1 ADD PUSH2 0x1BCF JUMP JUMPDEST POP SWAP1 JUMP JUMPDEST PUSH1 0x0 PUSH2 0x1BFE PUSH2 0x1BF9 DUP5 PUSH2 0x2362 JUMP JUMPDEST PUSH2 0x233D JUMP JUMPDEST SWAP1 POP DUP3 DUP2 MSTORE PUSH1 0x20 DUP2 ADD DUP5 DUP5 DUP5 ADD GT ISZERO PUSH2 0x1C16 JUMPI PUSH1 0x0 DUP1 REVERT JUMPDEST PUSH2 0x1C21 DUP5 DUP3 DUP6 PUSH2 0x24A3 JUMP JUMPDEST POP SWAP4 SWAP3 POP POP POP JUMP JUMPDEST PUSH1 0x0 DUP2 CALLDATALOAD SWAP1 POP PUSH2 0x1C38 DUP2 PUSH2 0x27B7 JUMP JUMPDEST SWAP3 SWAP2 POP POP JUMP JUMPDEST PUSH1 0x0 DUP2 MLOAD SWAP1 POP PUSH2 0x1C4D DUP2 PUSH2 0x27B7 JUMP JUMPDEST SWAP3 SWAP2 POP POP JUMP JUMPDEST PUSH1 0x0 DUP2 MLOAD SWAP1 POP PUSH2 0x1C62 DUP2 PUSH2 0x27CE JUMP JUMPDEST SWAP3 SWAP2 POP POP JUMP JUMPDEST PUSH1 0x0 DUP2 CALLDATALOAD SWAP1 POP PUSH2 0x1C77 DUP2 PUSH2 0x27E5 JUMP JUMPDEST SWAP3 SWAP2 POP POP JUMP JUMPDEST PUSH1 0x0 DUP2 CALLDATALOAD SWAP1 POP PUSH2 0x1C8C DUP2 PUSH2 0x27F5 JUMP JUMPDEST SWAP3 SWAP2 POP POP JUMP JUMPDEST PUSH1 0x0 DUP3 PUSH1 0x1F DUP4 ADD SLT PUSH2 0x1CA3 JUMPI PUSH1 0x0 DUP1 REVERT JUMPDEST DUP2 CALLDATALOAD PUSH2 0x1CB3 DUP5 DUP3 PUSH1 0x20 DUP7 ADD PUSH2 0x1BEB JUMP JUMPDEST SWAP2 POP POP SWAP3 SWAP2 POP POP JUMP JUMPDEST PUSH1 0x0 DUP2 MLOAD SWAP1 POP PUSH2 0x1CCB DUP2 PUSH2 0x280C JUMP JUMPDEST SWAP3 SWAP2 POP POP JUMP JUMPDEST PUSH1 0x0 DUP2 MLOAD SWAP1 POP PUSH2 0x1CE0 DUP2 PUSH2 0x2823 JUMP JUMPDEST SWAP3 SWAP2 POP POP JUMP JUMPDEST PUSH1 0x0 PUSH1 0x20 DUP3 DUP5 SUB SLT ISZERO PUSH2 0x1CF8 JUMPI PUSH1 0x0 DUP1 REVERT JUMPDEST PUSH1 0x0 PUSH2 0x1D06 DUP5 DUP3 DUP6 ADD PUSH2 0x1C29 JUMP JUMPDEST SWAP2 POP POP SWAP3 SWAP2 POP POP JUMP JUMPDEST PUSH1 0x0 PUSH1 0x20 DUP3 DUP5 SUB SLT ISZERO PUSH2 0x1D21 JUMPI PUSH1 0x0 DUP1 REVERT JUMPDEST PUSH1 0x0 PUSH2 0x1D2F DUP5 DUP3 DUP6 ADD PUSH2 0x1C3E JUMP JUMPDEST SWAP2 POP POP SWAP3 SWAP2 POP POP JUMP JUMPDEST PUSH1 0x0 PUSH1 0x20 DUP3 DUP5 SUB SLT ISZERO PUSH2 0x1D4A JUMPI PUSH1 0x0 DUP1 REVERT JUMPDEST PUSH1 0x0 PUSH2 0x1D58 DUP5 DUP3 DUP6 ADD PUSH2 0x1C53 JUMP JUMPDEST SWAP2 POP POP SWAP3 SWAP2 POP POP JUMP JUMPDEST PUSH1 0x0 PUSH1 0x20 DUP3 DUP5 SUB SLT ISZERO PUSH2 0x1D73 JUMPI PUSH1 0x0 DUP1 REVERT JUMPDEST PUSH1 0x0 PUSH2 0x1D81 DUP5 DUP3 DUP6 ADD PUSH2 0x1C7D JUMP JUMPDEST SWAP2 POP POP SWAP3 SWAP2 POP POP JUMP JUMPDEST PUSH1 0x0 DUP1 PUSH1 0x0 DUP1 PUSH1 0x0 DUP1 PUSH1 0xC0 DUP8 DUP10 SUB SLT ISZERO PUSH2 0x1DA3 JUMPI PUSH1 0x0 DUP1 REVERT JUMPDEST PUSH1 0x0 PUSH2 0x1DB1 DUP10 DUP3 DUP11 ADD PUSH2 0x1C7D JUMP JUMPDEST SWAP7 POP POP PUSH1 0x20 PUSH2 0x1DC2 DUP10 DUP3 DUP11 ADD PUSH2 0x1C7D JUMP JUMPDEST SWAP6 POP POP PUSH1 0x40 PUSH2 0x1DD3 DUP10 DUP3 DUP11 ADD PUSH2 0x1C29 JUMP JUMPDEST SWAP5 POP POP PUSH1 0x60 PUSH2 0x1DE4 DUP10 DUP3 DUP11 ADD PUSH2 0x1C68 JUMP JUMPDEST SWAP4 POP POP PUSH1 0x80 PUSH2 0x1DF5 DUP10 DUP3 DUP11 ADD PUSH2 0x1C29 JUMP JUMPDEST SWAP3 POP POP PUSH1 0xA0 DUP8 ADD CALLDATALOAD PUSH8 0xFFFFFFFFFFFFFFFF DUP2 GT ISZERO PUSH2 0x1E12 JUMPI PUSH1 0x0 DUP1 REVERT JUMPDEST PUSH2 0x1E1E DUP10 DUP3 DUP11 ADD PUSH2 0x1C92 JUMP JUMPDEST SWAP2 POP POP SWAP3 SWAP6 POP SWAP3 SWAP6 POP SWAP3 SWAP6 JUMP JUMPDEST PUSH1 0x0 PUSH1 0x20 DUP3 DUP5 SUB SLT ISZERO PUSH2 0x1E3D JUMPI PUSH1 0x0 DUP1 REVERT JUMPDEST PUSH1 0x0 PUSH2 0x1E4B DUP5 DUP3 DUP6 ADD PUSH2 0x1CBC JUMP JUMPDEST SWAP2 POP POP SWAP3 SWAP2 POP POP JUMP JUMPDEST PUSH1 0x0 PUSH1 0x20 DUP3 DUP5 SUB SLT ISZERO PUSH2 0x1E66 JUMPI PUSH1 0x0 DUP1 REVERT JUMPDEST PUSH1 0x0 PUSH2 0x1E74 DUP5 DUP3 DUP6 ADD PUSH2 0x1CD1 JUMP JUMPDEST SWAP2 POP POP SWAP3 SWAP2 POP POP JUMP JUMPDEST PUSH2 0x1E86 DUP2 PUSH2 0x23BA JUMP JUMPDEST DUP3 MSTORE POP POP JUMP JUMPDEST PUSH2 0x1E95 DUP2 PUSH2 0x23CC JUMP JUMPDEST DUP3 MSTORE POP POP JUMP JUMPDEST PUSH2 0x1EA4 DUP2 PUSH2 0x23D8 JUMP JUMPDEST DUP3 MSTORE POP POP JUMP JUMPDEST PUSH2 0x1EB3 DUP2 PUSH2 0x245B JUMP JUMPDEST DUP3 MSTORE POP POP JUMP JUMPDEST PUSH2 0x1EC2 DUP2 PUSH2 0x247F JUMP JUMPDEST DUP3 MSTORE POP POP JUMP JUMPDEST PUSH2 0x1ED1 DUP2 PUSH2 0x2491 JUMP JUMPDEST DUP3 MSTORE POP POP JUMP JUMPDEST PUSH2 0x1EE0 DUP2 PUSH2 0x2417 JUMP JUMPDEST DUP3 MSTORE POP POP JUMP JUMPDEST PUSH1 0x0 PUSH2 0x1EF1 DUP3 PUSH2 0x2393 JUMP JUMPDEST PUSH2 0x1EFB DUP2 DUP6 PUSH2 0x23A9 JUMP JUMPDEST SWAP4 POP PUSH2 0x1F0B DUP2 DUP6 PUSH1 0x20 DUP7 ADD PUSH2 0x24B2 JUMP JUMPDEST PUSH2 0x1F14 DUP2 PUSH2 0x25D5 JUMP JUMPDEST DUP5 ADD SWAP2 POP POP SWAP3 SWAP2 POP POP JUMP JUMPDEST PUSH1 0x0 PUSH2 0x1F2C PUSH1 0x1D DUP4 PUSH2 0x23A9 JUMP JUMPDEST SWAP2 POP PUSH2 0x1F37 DUP3 PUSH2 0x25E6 JUMP JUMPDEST PUSH1 0x20 DUP3 ADD SWAP1 POP SWAP2 SWAP1 POP JUMP JUMPDEST PUSH1 0x0 PUSH2 0x1F4F PUSH1 0x26 DUP4 PUSH2 0x23A9 JUMP JUMPDEST SWAP2 POP PUSH2 0x1F5A DUP3 PUSH2 0x260F JUMP JUMPDEST PUSH1 0x40 DUP3 ADD SWAP1 POP SWAP2 SWAP1 POP JUMP JUMPDEST PUSH1 0x0 PUSH2 0x1F72 PUSH1 0x16 DUP4 PUSH2 0x23A9 JUMP JUMPDEST SWAP2 POP PUSH2 0x1F7D DUP3 PUSH2 0x265E JUMP JUMPDEST PUSH1 0x20 DUP3 ADD SWAP1 POP SWAP2 SWAP1 POP JUMP JUMPDEST PUSH1 0x0 PUSH2 0x1F95 PUSH1 0x18 DUP4 PUSH2 0x23A9 JUMP JUMPDEST SWAP2 POP PUSH2 0x1FA0 DUP3 PUSH2 0x2687 JUMP JUMPDEST PUSH1 0x20 DUP3 ADD SWAP1 POP SWAP2 SWAP1 POP JUMP JUMPDEST PUSH1 0x0 PUSH2 0x1FB8 PUSH1 0x1C DUP4 PUSH2 0x23A9 JUMP JUMPDEST SWAP2 POP PUSH2 0x1FC3 DUP3 PUSH2 0x26B0 JUMP JUMPDEST PUSH1 0x20 DUP3 ADD SWAP1 POP SWAP2 SWAP1 POP JUMP JUMPDEST PUSH1 0x0 PUSH2 0x1FDB PUSH1 0x2F DUP4 PUSH2 0x23A9 JUMP JUMPDEST SWAP2 POP PUSH2 0x1FE6 DUP3 PUSH2 0x26D9 JUMP JUMPDEST PUSH1 0x40 DUP3 ADD SWAP1 POP SWAP2 SWAP1 POP JUMP JUMPDEST PUSH1 0x0 PUSH2 0x1FFE PUSH1 0x20 DUP4 PUSH2 0x23A9 JUMP JUMPDEST SWAP2 POP PUSH2 0x2009 DUP3 PUSH2 0x2728 JUMP JUMPDEST PUSH1 0x20 DUP3 ADD SWAP1 POP SWAP2 SWAP1 POP JUMP JUMPDEST PUSH1 0x0 PUSH2 0x2021 PUSH1 0x0 DUP4 PUSH2 0x239E JUMP JUMPDEST SWAP2 POP PUSH2 0x202C DUP3 PUSH2 0x2751 JUMP JUMPDEST PUSH1 0x0 DUP3 ADD SWAP1 POP SWAP2 SWAP1 POP JUMP JUMPDEST PUSH1 0x0 PUSH2 0x2044 PUSH1 0x32 DUP4 PUSH2 0x23A9 JUMP JUMPDEST SWAP2 POP PUSH2 0x204F DUP3 PUSH2 0x2754 JUMP JUMPDEST PUSH1 0x40 DUP3 ADD SWAP1 POP SWAP2 SWAP1 POP JUMP JUMPDEST PUSH2 0x2063 DUP2 PUSH2 0x2444 JUMP JUMPDEST DUP3 MSTORE POP POP JUMP JUMPDEST PUSH1 0x0 PUSH2 0x2074 DUP3 PUSH2 0x2014 JUMP JUMPDEST SWAP2 POP DUP2 SWAP1 POP SWAP2 SWAP1 POP JUMP JUMPDEST PUSH1 0x0 PUSH1 0x20 DUP3 ADD SWAP1 POP PUSH2 0x2093 PUSH1 0x0 DUP4 ADD DUP5 PUSH2 0x1E7D JUMP JUMPDEST SWAP3 SWAP2 POP POP JUMP JUMPDEST PUSH1 0x0 PUSH1 0xE0 DUP3 ADD SWAP1 POP PUSH2 0x20AE PUSH1 0x0 DUP4 ADD DUP11 PUSH2 0x1E7D JUMP JUMPDEST PUSH2 0x20BB PUSH1 0x20 DUP4 ADD DUP10 PUSH2 0x1ED7 JUMP JUMPDEST PUSH2 0x20C8 PUSH1 0x40 DUP4 ADD DUP9 PUSH2 0x1E8C JUMP JUMPDEST PUSH2 0x20D5 PUSH1 0x60 DUP4 ADD DUP8 PUSH2 0x1E7D JUMP JUMPDEST PUSH2 0x20E2 PUSH1 0x80 DUP4 ADD DUP7 PUSH2 0x1EB9 JUMP JUMPDEST PUSH2 0x20EF PUSH1 0xA0 DUP4 ADD DUP6 PUSH2 0x1E7D JUMP JUMPDEST DUP2 DUP2 SUB PUSH1 0xC0 DUP4 ADD MSTORE PUSH2 0x2101 DUP2 DUP5 PUSH2 0x1EE6 JUMP JUMPDEST SWAP1 POP SWAP9 SWAP8 POP POP POP POP POP POP POP POP JUMP JUMPDEST PUSH1 0x0 PUSH1 0x20 DUP3 ADD SWAP1 POP PUSH2 0x2124 PUSH1 0x0 DUP4 ADD DUP5 PUSH2 0x1E9B JUMP JUMPDEST SWAP3 SWAP2 POP POP JUMP JUMPDEST PUSH1 0x0 PUSH1 0x20 DUP3 ADD SWAP1 POP PUSH2 0x213F PUSH1 0x0 DUP4 ADD DUP5 PUSH2 0x1EAA JUMP JUMPDEST SWAP3 SWAP2 POP POP JUMP JUMPDEST PUSH1 0x0 PUSH1 0x20 DUP3 ADD SWAP1 POP PUSH2 0x215A PUSH1 0x0 DUP4 ADD DUP5 PUSH2 0x1ED7 JUMP JUMPDEST SWAP3 SWAP2 POP POP JUMP JUMPDEST PUSH1 0x0 PUSH1 0xA0 DUP3 ADD SWAP1 POP PUSH2 0x2175 PUSH1 0x0 DUP4 ADD DUP9 PUSH2 0x1EC8 JUMP JUMPDEST PUSH2 0x2182 PUSH1 0x20 DUP4 ADD DUP8 PUSH2 0x1E7D JUMP JUMPDEST PUSH2 0x218F PUSH1 0x40 DUP4 ADD DUP7 PUSH2 0x1EB9 JUMP JUMPDEST PUSH2 0x219C PUSH1 0x60 DUP4 ADD DUP6 PUSH2 0x1E7D JUMP JUMPDEST DUP2 DUP2 SUB PUSH1 0x80 DUP4 ADD MSTORE PUSH2 0x21AE DUP2 DUP5 PUSH2 0x1EE6 JUMP JUMPDEST SWAP1 POP SWAP7 SWAP6 POP POP POP POP POP POP JUMP JUMPDEST PUSH1 0x0 PUSH1 0xC0 DUP3 ADD SWAP1 POP PUSH2 0x21CF PUSH1 0x0 DUP4 ADD DUP10 PUSH2 0x1ED7 JUMP JUMPDEST PUSH2 0x21DC PUSH1 0x20 DUP4 ADD DUP9 PUSH2 0x1ED7 JUMP JUMPDEST PUSH2 0x21E9 PUSH1 0x40 DUP4 ADD DUP8 PUSH2 0x1E7D JUMP JUMPDEST PUSH2 0x21F6 PUSH1 0x60 DUP4 ADD DUP7 PUSH2 0x1EB9 JUMP JUMPDEST PUSH2 0x2203 PUSH1 0x80 DUP4 ADD DUP6 PUSH2 0x1E7D JUMP JUMPDEST DUP2 DUP2 SUB PUSH1 0xA0 DUP4 ADD MSTORE PUSH2 0x2215 DUP2 DUP5 PUSH2 0x1EE6 JUMP JUMPDEST SWAP1 POP SWAP8 SWAP7 POP POP POP POP POP POP POP JUMP JUMPDEST PUSH1 0x0 PUSH1 0x20 DUP3 ADD SWAP1 POP DUP2 DUP2 SUB PUSH1 0x0 DUP4 ADD MSTORE PUSH2 0x223B DUP2 PUSH2 0x1F1F JUMP JUMPDEST SWAP1 POP SWAP2 SWAP1 POP JUMP JUMPDEST PUSH1 0x0 PUSH1 0x20 DUP3 ADD SWAP1 POP DUP2 DUP2 SUB PUSH1 0x0 DUP4 ADD MSTORE PUSH2 0x225B DUP2 PUSH2 0x1F42 JUMP JUMPDEST SWAP1 POP SWAP2 SWAP1 POP JUMP JUMPDEST PUSH1 0x0 PUSH1 0x20 DUP3 ADD SWAP1 POP DUP2 DUP2 SUB PUSH1 0x0 DUP4 ADD MSTORE PUSH2 0x227B DUP2 PUSH2 0x1F65 JUMP JUMPDEST SWAP1 POP SWAP2 SWAP1 POP JUMP JUMPDEST PUSH1 0x0 PUSH1 0x20 DUP3 ADD SWAP1 POP DUP2 DUP2 SUB PUSH1 0x0 DUP4 ADD MSTORE PUSH2 0x229B DUP2 PUSH2 0x1F88 JUMP JUMPDEST SWAP1 POP SWAP2 SWAP1 POP JUMP JUMPDEST PUSH1 0x0 PUSH1 0x20 DUP3 ADD SWAP1 POP DUP2 DUP2 SUB PUSH1 0x0 DUP4 ADD MSTORE PUSH2 0x22BB DUP2 PUSH2 0x1FAB JUMP JUMPDEST SWAP1 POP SWAP2 SWAP1 POP JUMP JUMPDEST PUSH1 0x0 PUSH1 0x20 DUP3 ADD SWAP1 POP DUP2 DUP2 SUB PUSH1 0x0 DUP4 ADD MSTORE PUSH2 0x22DB DUP2 PUSH2 0x1FCE JUMP JUMPDEST SWAP1 POP SWAP2 SWAP1 POP JUMP JUMPDEST PUSH1 0x0 PUSH1 0x20 DUP3 ADD SWAP1 POP DUP2 DUP2 SUB PUSH1 0x0 DUP4 ADD MSTORE PUSH2 0x22FB DUP2 PUSH2 0x1FF1 JUMP JUMPDEST SWAP1 POP SWAP2 SWAP1 POP JUMP JUMPDEST PUSH1 0x0 PUSH1 0x20 DUP3 ADD SWAP1 POP DUP2 DUP2 SUB PUSH1 0x0 DUP4 ADD MSTORE PUSH2 0x231B DUP2 PUSH2 0x2037 JUMP JUMPDEST SWAP1 POP SWAP2 SWAP1 POP JUMP JUMPDEST PUSH1 0x0 PUSH1 0x20 DUP3 ADD SWAP1 POP PUSH2 0x2337 PUSH1 0x0 DUP4 ADD DUP5 PUSH2 0x205A JUMP JUMPDEST SWAP3 SWAP2 POP POP JUMP JUMPDEST PUSH1 0x0 PUSH2 0x2347 PUSH2 0x2358 JUMP JUMPDEST SWAP1 POP PUSH2 0x2353 DUP3 DUP3 PUSH2 0x2517 JUMP JUMPDEST SWAP2 SWAP1 POP JUMP JUMPDEST PUSH1 0x0 PUSH1 0x40 MLOAD SWAP1 POP SWAP1 JUMP JUMPDEST PUSH1 0x0 PUSH8 0xFFFFFFFFFFFFFFFF DUP3 GT ISZERO PUSH2 0x237D JUMPI PUSH2 0x237C PUSH2 0x25A6 JUMP JUMPDEST JUMPDEST PUSH2 0x2386 DUP3 PUSH2 0x25D5 JUMP JUMPDEST SWAP1 POP PUSH1 0x20 DUP2 ADD SWAP1 POP SWAP2 SWAP1 POP JUMP JUMPDEST PUSH1 0x0 DUP2 MLOAD SWAP1 POP SWAP2 SWAP1 POP JUMP JUMPDEST PUSH1 0x0 DUP2 SWAP1 POP SWAP3 SWAP2 POP POP JUMP JUMPDEST PUSH1 0x0 DUP3 DUP3 MSTORE PUSH1 0x20 DUP3 ADD SWAP1 POP SWAP3 SWAP2 POP POP JUMP JUMPDEST PUSH1 0x0 PUSH2 0x23C5 DUP3 PUSH2 0x2424 JUMP JUMPDEST SWAP1 POP SWAP2 SWAP1 POP JUMP JUMPDEST PUSH1 0x0 DUP2 ISZERO ISZERO SWAP1 POP SWAP2 SWAP1 POP JUMP JUMPDEST PUSH1 0x0 PUSH32 0xFFFFFFFF00000000000000000000000000000000000000000000000000000000 DUP3 AND SWAP1 POP SWAP2 SWAP1 POP JUMP JUMPDEST PUSH1 0x0 DUP2 SWAP1 POP PUSH2 0x2412 DUP3 PUSH2 0x27A3 JUMP JUMPDEST SWAP2 SWAP1 POP JUMP JUMPDEST PUSH1 0x0 DUP2 PUSH1 0x7 SIGNEXTEND SWAP1 POP SWAP2 SWAP1 POP JUMP JUMPDEST PUSH1 0x0 PUSH20 0xFFFFFFFFFFFFFFFFFFFFFFFFFFFFFFFFFFFFFFFF DUP3 AND SWAP1 POP SWAP2 SWAP1 POP JUMP JUMPDEST PUSH1 0x0 DUP2 SWAP1 POP SWAP2 SWAP1 POP JUMP JUMPDEST PUSH1 0x0 PUSH1 0xFF DUP3 AND SWAP1 POP SWAP2 SWAP1 POP JUMP JUMPDEST PUSH1 0x0 PUSH2 0x2466 DUP3 PUSH2 0x246D JUMP JUMPDEST SWAP1 POP SWAP2 SWAP1 POP JUMP JUMPDEST PUSH1 0x0 PUSH2 0x2478 DUP3 PUSH2 0x2424 JUMP JUMPDEST SWAP1 POP SWAP2 SWAP1 POP JUMP JUMPDEST PUSH1 0x0 PUSH2 0x248A DUP3 PUSH2 0x2404 JUMP JUMPDEST SWAP1 POP SWAP2 SWAP1 POP JUMP JUMPDEST PUSH1 0x0 PUSH2 0x249C DUP3 PUSH2 0x2417 JUMP JUMPDEST SWAP1 POP SWAP2 SWAP1 POP JUMP JUMPDEST DUP3 DUP2 DUP4 CALLDATACOPY PUSH1 0x0 DUP4 DUP4 ADD MSTORE POP POP POP JUMP JUMPDEST PUSH1 0x0 JUMPDEST DUP4 DUP2 LT ISZERO PUSH2 0x24D0 JUMPI DUP1 DUP3 ADD MLOAD DUP2 DUP5 ADD MSTORE PUSH1 0x20 DUP2 ADD SWAP1 POP PUSH2 0x24B5 JUMP JUMPDEST DUP4 DUP2 GT ISZERO PUSH2 0x24DF JUMPI PUSH1 0x0 DUP5 DUP5 ADD MSTORE JUMPDEST POP POP POP POP JUMP JUMPDEST PUSH1 0x0 PUSH1 0x2 DUP3 DIV SWAP1 POP PUSH1 0x1 DUP3 AND DUP1 PUSH2 0x24FD JUMPI PUSH1 0x7F DUP3 AND SWAP2 POP JUMPDEST PUSH1 0x20 DUP3 LT DUP2 EQ ISZERO PUSH2 0x2511 JUMPI PUSH2 0x2510 PUSH2 0x2577 JUMP JUMPDEST JUMPDEST POP SWAP2 SWAP1 POP JUMP JUMPDEST PUSH2 0x2520 DUP3 PUSH2 0x25D5 JUMP JUMPDEST DUP2 ADD DUP2 DUP2 LT PUSH8 0xFFFFFFFFFFFFFFFF DUP3 GT OR ISZERO PUSH2 0x253F JUMPI PUSH2 0x253E PUSH2 0x25A6 JUMP JUMPDEST JUMPDEST DUP1 PUSH1 0x40 MSTORE POP POP POP JUMP JUMPDEST PUSH32 0x4E487B7100000000000000000000000000000000000000000000000000000000 PUSH1 0x0 MSTORE PUSH1 0x21 PUSH1 0x4 MSTORE PUSH1 0x24 PUSH1 0x0 REVERT JUMPDEST PUSH32 0x4E487B7100000000000000000000000000000000000000000000000000000000 PUSH1 0x0 MSTORE PUSH1 0x22 PUSH1 0x4 MSTORE PUSH1 0x24 PUSH1 0x0 REVERT JUMPDEST PUSH32 0x4E487B7100000000000000000000000000000000000000000000000000000000 PUSH1 0x0 MSTORE PUSH1 0x41 PUSH1 0x4 MSTORE PUSH1 0x24 PUSH1 0x0 REVERT JUMPDEST PUSH1 0x0 PUSH1 0x1F NOT PUSH1 0x1F DUP4 ADD AND SWAP1 POP SWAP2 SWAP1 POP JUMP JUMPDEST PUSH32 0x5573657220646964206E6F742072656769737472656420696E20544750000000 PUSH1 0x0 DUP3 ADD MSTORE POP JUMP JUMPDEST PUSH32 0x4F776E61626C653A206E6577206F776E657220697320746865207A65726F2061 PUSH1 0x0 DUP3 ADD MSTORE PUSH32 0x6464726573730000000000000000000000000000000000000000000000000000 PUSH1 0x20 DUP3 ADD MSTORE POP JUMP JUMPDEST PUSH32 0x556E61626C6520746F207472616E736665722066656500000000000000000000 PUSH1 0x0 DUP3 ADD MSTORE POP JUMP JUMPDEST PUSH32 0x50617373706F727420666565206973206E6F7420706169640000000000000000 PUSH1 0x0 DUP3 ADD MSTORE POP JUMP JUMPDEST PUSH32 0x746869732063686174207467696420616C72656164792074616B656E00000000 PUSH1 0x0 DUP3 ADD MSTORE POP JUMP JUMPDEST PUSH32 0x436F6E747261637420646F6573206E6F74206D61746368207769746820636F72 PUSH1 0x0 DUP3 ADD MSTORE PUSH32 0x726573706F6E64696E6720747970650000000000000000000000000000000000 PUSH1 0x20 DUP3 ADD MSTORE POP JUMP JUMPDEST PUSH32 0x4F776E61626C653A2063616C6C6572206973206E6F7420746865206F776E6572 PUSH1 0x0 DUP3 ADD MSTORE POP JUMP JUMPDEST POP JUMP JUMPDEST PUSH32 0x616C726561647920686173206265656E20617070726F766564204F5220646964 PUSH1 0x0 DUP3 ADD MSTORE PUSH32 0x6E2774206170706C69656420617420616C6C0000000000000000000000000000 PUSH1 0x20 DUP3 ADD MSTORE POP JUMP JUMPDEST PUSH1 0x3 DUP2 LT PUSH2 0x27B4 JUMPI PUSH2 0x27B3 PUSH2 0x2548 JUMP JUMPDEST JUMPDEST POP JUMP JUMPDEST PUSH2 0x27C0 DUP2 PUSH2 0x23BA JUMP JUMPDEST DUP2 EQ PUSH2 0x27CB JUMPI PUSH1 0x0 DUP1 REVERT JUMPDEST POP JUMP JUMPDEST PUSH2 0x27D7 DUP2 PUSH2 0x23CC JUMP JUMPDEST DUP2 EQ PUSH2 0x27E2 JUMPI PUSH1 0x0 DUP1 REVERT JUMPDEST POP JUMP JUMPDEST PUSH1 0x3 DUP2 LT PUSH2 0x27F2 JUMPI PUSH1 0x0 DUP1 REVERT JUMPDEST POP JUMP JUMPDEST PUSH2 0x27FE DUP2 PUSH2 0x2417 JUMP JUMPDEST DUP2 EQ PUSH2 0x2809 JUMPI PUSH1 0x0 DUP1 REVERT JUMPDEST POP JUMP JUMPDEST PUSH2 0x2815 DUP2 PUSH2 0x2444 JUMP JUMPDEST DUP2 EQ PUSH2 0x2820 JUMPI PUSH1 0x0 DUP1 REVERT JUMPDEST POP JUMP JUMPDEST PUSH2 0x282C DUP2 PUSH2 0x244E JUMP JUMPDEST DUP2 EQ PUSH2 0x2837 JUMPI PUSH1 0x0 DUP1 REVERT JUMPDEST POP JUMP INVALID LOG2 PUSH5 0x6970667358 0x22 SLT KECCAK256 NOT CALLDATALOAD 0xEF PUSH7 0xAF3D907BDD524C POP 0xE 0x4A 0xF8 CALLVALUE 0xD3 0xEC STOP TIMESTAMP JUMPDEST 0xEE DUP12 PUSH32 0x5744C178B7D2F91064736F6C6343000804003300000000000000000000000000 "
        },
        "methodIdentifiers": {
          "ApplyForUnion(int64,int64,address,uint8,address,string)": "b9f7076f",
          "ApproveJoin(address)": "ad8f8660",
          "DeclineJoin(address)": "36b9f727",
          "daoAddresses(int64)": "d6b2da8e",
          "daos(address)": "c25f3cf6",
          "getDaoAddressbyChatId(int64)": "e57bede4",
          "getDaoCount()": "d4d8f892",
          "owner()": "8da5cb5b",
          "renounceOwnership()": "715018a6",
          "tgpassport()": "7527d5a1",
          "transferOwnership(address)": "f2fde38b"
        }
      }
    }
  }
}