{
  "contracts/TGPassport.sol": {
    "TGPassport": {
      "abi": [
        {
          "inputs": [],
          "stateMutability": "nonpayable",
          "type": "constructor"
        },
        {
          "anonymous": false,
          "inputs": [
            {
              "indexed": true,
              "internalType": "address",
              "name": "previousOwner",
              "type": "address"
            },
            {
              "indexed": true,
              "internalType": "address",
              "name": "newOwner",
              "type": "address"
            }
          ],
          "name": "OwnershipTransferred",
          "type": "event"
        },
        {
          "anonymous": false,
          "inputs": [
            {
              "indexed": false,
              "internalType": "int64",
              "name": "applyerTg",
              "type": "int64"
            },
            {
              "indexed": false,
              "internalType": "address",
              "name": "wallet_address",
              "type": "address"
            }
          ],
          "name": "passportApplied",
          "type": "event"
        },
        {
          "anonymous": false,
          "inputs": [
            {
              "indexed": true,
              "internalType": "int64",
              "name": "applyerTg",
              "type": "int64"
            },
            {
              "indexed": false,
              "internalType": "address",
              "name": "wallet_address",
              "type": "address"
            }
          ],
          "name": "passportAppliedIndexed",
          "type": "event"
        },
        {
          "anonymous": false,
          "inputs": [
            {
              "indexed": false,
              "internalType": "int256",
              "name": "applyerTg",
              "type": "int256"
            },
            {
              "indexed": false,
              "internalType": "address",
              "name": "wallet_address",
              "type": "address"
            },
            {
              "indexed": false,
              "internalType": "address",
              "name": "issuer",
              "type": "address"
            }
          ],
          "name": "passportApproved",
          "type": "event"
        },
        {
          "anonymous": false,
          "inputs": [
            {
              "indexed": false,
              "internalType": "int256",
              "name": "applyerTg",
              "type": "int256"
            },
            {
              "indexed": false,
              "internalType": "address",
              "name": "wallet",
              "type": "address"
            }
          ],
          "name": "passportDenied",
          "type": "event"
        },
        {
          "inputs": [
            {
              "internalType": "int64",
              "name": "applyerTg",
              "type": "int64"
            },
            {
              "internalType": "string",
              "name": "user_name_",
              "type": "string"
            }
          ],
          "name": "ApplyForPassport",
          "outputs": [],
          "stateMutability": "payable",
          "type": "function"
        },
        {
          "inputs": [
            {
              "internalType": "address",
              "name": "passportToApprove",
              "type": "address"
            }
          ],
          "name": "ApprovePassport",
          "outputs": [],
          "stateMutability": "nonpayable",
          "type": "function"
        },
        {
          "inputs": [
            {
              "internalType": "address",
              "name": "passportToDecline",
              "type": "address"
            }
          ],
          "name": "DeclinePassport",
          "outputs": [],
          "stateMutability": "nonpayable",
          "type": "function"
        },
        {
          "inputs": [
            {
              "internalType": "address",
              "name": "passportToDecline",
              "type": "address"
            }
          ],
          "name": "DeletePassport",
          "outputs": [],
          "stateMutability": "nonpayable",
          "type": "function"
        },
        {
          "inputs": [],
          "name": "GetOwner",
          "outputs": [
            {
              "internalType": "address",
              "name": "",
              "type": "address"
            }
          ],
          "stateMutability": "view",
          "type": "function"
        },
        {
          "inputs": [
            {
              "internalType": "address",
              "name": "user_wallet",
              "type": "address"
            }
          ],
          "name": "GetPassportByAddress",
          "outputs": [
            {
              "components": [
                {
                  "internalType": "address",
                  "name": "userAddress",
                  "type": "address"
                },
                {
                  "internalType": "int64",
                  "name": "tgId",
                  "type": "int64"
                },
                {
                  "internalType": "bool",
                  "name": "valid",
                  "type": "bool"
                },
                {
                  "internalType": "address",
                  "name": "validatorAddress",
                  "type": "address"
                },
                {
                  "internalType": "string",
                  "name": "userName",
                  "type": "string"
                }
              ],
              "internalType": "struct TGPassport.Passport",
              "name": "",
              "type": "tuple"
            }
          ],
          "stateMutability": "view",
          "type": "function"
        },
        {
          "inputs": [
            {
              "internalType": "string",
              "name": "user_name_",
              "type": "string"
            }
          ],
          "name": "GetPassportByNickName",
          "outputs": [
            {
              "components": [
                {
                  "internalType": "address",
                  "name": "userAddress",
                  "type": "address"
                },
                {
                  "internalType": "int64",
                  "name": "tgId",
                  "type": "int64"
                },
                {
                  "internalType": "bool",
                  "name": "valid",
                  "type": "bool"
                },
                {
                  "internalType": "address",
                  "name": "validatorAddress",
                  "type": "address"
                },
                {
                  "internalType": "string",
                  "name": "userName",
                  "type": "string"
                }
              ],
              "internalType": "struct TGPassport.Passport",
              "name": "",
              "type": "tuple"
            }
          ],
          "stateMutability": "view",
          "type": "function"
        },
        {
          "inputs": [],
          "name": "GetPassportFee",
          "outputs": [
            {
              "internalType": "uint256",
              "name": "",
              "type": "uint256"
            }
          ],
          "stateMutability": "view",
          "type": "function"
        },
        {
          "inputs": [
            {
              "internalType": "int64",
              "name": "tgId_",
              "type": "int64"
            }
          ],
          "name": "GetPassportWalletByID",
          "outputs": [
            {
              "internalType": "address",
              "name": "",
              "type": "address"
            }
          ],
          "stateMutability": "view",
          "type": "function"
        },
        {
          "inputs": [
            {
              "internalType": "string",
              "name": "user_name_",
              "type": "string"
            }
          ],
          "name": "GetWalletByNickName",
          "outputs": [
            {
              "internalType": "address",
              "name": "",
              "type": "address"
            }
          ],
          "stateMutability": "view",
          "type": "function"
        },
        {
          "inputs": [
            {
              "internalType": "int64",
              "name": "from",
              "type": "int64"
            },
            {
              "internalType": "int64",
              "name": "to",
              "type": "int64"
            }
          ],
          "name": "ITrustTo",
          "outputs": [],
          "stateMutability": "nonpayable",
          "type": "function"
        },
        {
          "inputs": [
            {
              "internalType": "uint256",
              "name": "passportFee_",
              "type": "uint256"
            }
          ],
          "name": "SetPassportFee",
          "outputs": [],
          "stateMutability": "nonpayable",
          "type": "function"
        },
        {
          "inputs": [
            {
              "internalType": "string",
              "name": "new_user_name_",
              "type": "string"
            }
          ],
          "name": "UpdateUserName",
          "outputs": [],
          "stateMutability": "nonpayable",
          "type": "function"
        },
        {
          "inputs": [
            {
              "internalType": "int64",
              "name": "",
              "type": "int64"
            },
            {
              "internalType": "uint256",
              "name": "",
              "type": "uint256"
            }
          ],
          "name": "itrust_to_global",
          "outputs": [
            {
              "internalType": "int64",
              "name": "",
              "type": "int64"
            }
          ],
          "stateMutability": "view",
          "type": "function"
        },
        {
          "inputs": [],
          "name": "owner",
          "outputs": [
            {
              "internalType": "address",
              "name": "",
              "type": "address"
            }
          ],
          "stateMutability": "view",
          "type": "function"
        },
        {
          "inputs": [
            {
              "internalType": "address",
              "name": "",
              "type": "address"
            }
          ],
          "name": "passports",
          "outputs": [
            {
              "internalType": "address",
              "name": "userAddress",
              "type": "address"
            },
            {
              "internalType": "int64",
              "name": "tgId",
              "type": "int64"
            },
            {
              "internalType": "bool",
              "name": "valid",
              "type": "bool"
            },
            {
              "internalType": "address",
              "name": "validatorAddress",
              "type": "address"
            },
            {
              "internalType": "string",
              "name": "userName",
              "type": "string"
            }
          ],
          "stateMutability": "view",
          "type": "function"
        },
        {
          "inputs": [],
          "name": "renounceOwnership",
          "outputs": [],
          "stateMutability": "nonpayable",
          "type": "function"
        },
        {
          "inputs": [
            {
              "internalType": "int64",
              "name": "",
              "type": "int64"
            }
          ],
          "name": "tgIdToAddress",
          "outputs": [
            {
              "internalType": "address",
              "name": "",
              "type": "address"
            }
          ],
          "stateMutability": "view",
          "type": "function"
        },
        {
          "inputs": [
            {
              "internalType": "address",
              "name": "newOwner",
              "type": "address"
            }
          ],
          "name": "transferOwnership",
          "outputs": [],
          "stateMutability": "nonpayable",
          "type": "function"
        },
        {
          "inputs": [
            {
              "internalType": "int64",
              "name": "",
              "type": "int64"
            },
            {
              "internalType": "uint256",
              "name": "",
              "type": "uint256"
            }
          ],
          "name": "trusted_by_global",
          "outputs": [
            {
              "internalType": "int64",
              "name": "",
              "type": "int64"
            }
          ],
          "stateMutability": "view",
          "type": "function"
        },
        {
          "inputs": [
            {
              "internalType": "string",
              "name": "",
              "type": "string"
            }
          ],
          "name": "username_wallets",
          "outputs": [
            {
              "internalType": "address",
              "name": "",
              "type": "address"
            }
          ],
          "stateMutability": "view",
          "type": "function"
        }
      ],
      "evm": {
        "bytecode": {
          "linkReferences": {},
          "object": "60806040523480156200001157600080fd5b5062000032620000266200009160201b60201c565b6200009960201b60201c565b6103e86001819055506200004b6200015d60201b60201c565b600260006101000a81548173ffffffffffffffffffffffffffffffffffffffff021916908373ffffffffffffffffffffffffffffffffffffffff16021790555062000186565b600033905090565b60008060009054906101000a900473ffffffffffffffffffffffffffffffffffffffff169050816000806101000a81548173ffffffffffffffffffffffffffffffffffffffff021916908373ffffffffffffffffffffffffffffffffffffffff1602179055508173ffffffffffffffffffffffffffffffffffffffff168173ffffffffffffffffffffffffffffffffffffffff167f8be0079c531659141344cd1fd0a4f28419497f9722a3daafe3b4186f6b6457e060405160405180910390a35050565b60008060009054906101000a900473ffffffffffffffffffffffffffffffffffffffff16905090565b612e4480620001966000396000f3fe60806040526004361061012a5760003560e01c80638da5cb5b116100ab578063cbfee1791161006f578063cbfee17914610402578063d2114e181461043f578063d2125bd21461047c578063d5998aeb146104a5578063e37c132b146104c1578063f2fde38b146105025761012a565b80638da5cb5b146102f75780639413c642146103225780639421da611461035f578063b1eea0a514610388578063b25047c2146103c55761012a565b806348dc1561116100f257806348dc15611461022657806359cca93b146102515780635e2927571461028e57806365104afc146102b7578063715018a6146102e05761012a565b80630ae50a391461012f5780630c2fc6e31461015a5780631423ea07146101975780631755e9e6146101d457806321e6531d146101fd575b600080fd5b34801561013b57600080fd5b5061014461052b565b604051610151919061277c565b60405180910390f35b34801561016657600080fd5b50610181600480360381019061017c9190612325565b610555565b60405161018e919061277c565b60405180910390f35b3480156101a357600080fd5b506101be60048036038101906101b991906122fc565b610598565b6040516101cb9190612995565b60405180910390f35b3480156101e057600080fd5b506101fb60048036038101906101f691906122fc565b61076d565b005b34801561020957600080fd5b50610224600480360381019061021f919061241a565b610bf0565b005b34801561023257600080fd5b5061023b610dbc565b60405161024891906129b7565b60405180910390f35b34801561025d57600080fd5b506102786004803603810190610273919061241a565b610dc6565b604051610285919061277c565b60405180910390f35b34801561029a57600080fd5b506102b560048036038101906102b0919061234e565b610e0f565b005b3480156102c357600080fd5b506102de60048036038101906102d991906122fc565b610e4b565b005b3480156102ec57600080fd5b506102f56111bd565b005b34801561030357600080fd5b5061030c611245565b604051610319919061277c565b60405180910390f35b34801561032e57600080fd5b5061034960048036038101906103449190612325565b61126e565b604051610356919061277c565b60405180910390f35b34801561036b57600080fd5b50610386600480360381019061038191906122fc565b6112a1565b005b34801561039457600080fd5b506103af60048036038101906103aa91906123de565b611660565b6040516103bc91906127f1565b60405180910390f35b3480156103d157600080fd5b506103ec60048036038101906103e7919061241a565b6116a6565b6040516103f99190612995565b60405180910390f35b34801561040e57600080fd5b50610429600480360381019061042491906123de565b611889565b60405161043691906127f1565b60405180910390f35b34801561044b57600080fd5b506104666004803603810190610461919061241a565b6118cf565b604051610473919061277c565b60405180910390f35b34801561048857600080fd5b506104a3600480360381019061049e919061245b565b611917565b005b6104bf60048036038101906104ba919061238a565b61199d565b005b3480156104cd57600080fd5b506104e860048036038101906104e391906122fc565b611cd4565b6040516104f9959493929190612797565b60405180910390f35b34801561050e57600080fd5b50610529600480360381019061052491906122fc565b611dec565b005b6000600260009054906101000a900473ffffffffffffffffffffffffffffffffffffffff16905090565b6000600360008360070b60070b815260200190815260200160002060009054906101000a900473ffffffffffffffffffffffffffffffffffffffff169050919050565b6105a0612112565b6000600460008473ffffffffffffffffffffffffffffffffffffffff1673ffffffffffffffffffffffffffffffffffffffff1681526020019081526020016000206040518060a00160405290816000820160009054906101000a900473ffffffffffffffffffffffffffffffffffffffff1673ffffffffffffffffffffffffffffffffffffffff1673ffffffffffffffffffffffffffffffffffffffff1681526020016000820160149054906101000a900460070b60070b60070b815260200160008201601c9054906101000a900460ff161515151581526020016001820160009054906101000a900473ffffffffffffffffffffffffffffffffffffffff1673ffffffffffffffffffffffffffffffffffffffff1673ffffffffffffffffffffffffffffffffffffffff1681526020016002820180546106e090612b14565b80601f016020809104026020016040519081016040528092919081815260200182805461070c90612b14565b80156107595780601f1061072e57610100808354040283529160200191610759565b820191906000526020600020905b81548152906001019060200180831161073c57829003601f168201915b505050505081525050905080915050919050565b610775611ee4565b73ffffffffffffffffffffffffffffffffffffffff16610793611245565b73ffffffffffffffffffffffffffffffffffffffff16146107e9576040517f08c379a00000000000000000000000000000000000000000000000000000000081526004016107e090612935565b60405180910390fd5b6000600460008373ffffffffffffffffffffffffffffffffffffffff1673ffffffffffffffffffffffffffffffffffffffff16815260200190815260200160002060000160149054906101000a900460070b90506000600460008473ffffffffffffffffffffffffffffffffffffffff1673ffffffffffffffffffffffffffffffffffffffff168152602001908152602001600020600201805461088c90612b14565b80601f01602080910402602001604051908101604052809291908181526020018280546108b890612b14565b80156109055780601f106108da57610100808354040283529160200191610905565b820191906000526020600020905b8154815290600101906020018083116108e857829003601f168201915b5050505050905060001515600460008573ffffffffffffffffffffffffffffffffffffffff1673ffffffffffffffffffffffffffffffffffffffff168152602001908152602001600020600001601c9054906101000a900460ff161515146109a2576040517f08c379a000000000000000000000000000000000000000000000000000000000815260040161099990612975565b60405180910390fd5b6000600660008460070b60070b81526020019081526020016000209050808390806001815401808255809150506001900390600052602060002090600491828204019190066008029091909190916101000a81548167ffffffffffffffff021916908360070b67ffffffffffffffff1602179055506040518060a001604052808573ffffffffffffffffffffffffffffffffffffffff1681526020018460070b81526020016001151581526020013373ffffffffffffffffffffffffffffffffffffffff16815260200183815250600460008673ffffffffffffffffffffffffffffffffffffffff1673ffffffffffffffffffffffffffffffffffffffff16815260200190815260200160002060008201518160000160006101000a81548173ffffffffffffffffffffffffffffffffffffffff021916908373ffffffffffffffffffffffffffffffffffffffff16021790555060208201518160000160146101000a81548167ffffffffffffffff021916908360070b67ffffffffffffffff160217905550604082015181600001601c6101000a81548160ff02191690831515021790555060608201518160010160006101000a81548173ffffffffffffffffffffffffffffffffffffffff021916908373ffffffffffffffffffffffffffffffffffffffff1602179055506080820151816002019080519060200190610bab929190612172565b509050507fc86c0f4d7dcfca9a81352087d1dd1bde720d362e74ab52722809cc8c31766277838533604051610be29392919061285e565b60405180910390a150505050565b6000610bfb33610598565b90503373ffffffffffffffffffffffffffffffffffffffff16816000015173ffffffffffffffffffffffffffffffffffffffff1614610c6f576040517f08c379a0000000000000000000000000000000000000000000000000000000008152600401610c6690612915565b60405180910390fd5b81816080018190525080600460003373ffffffffffffffffffffffffffffffffffffffff1673ffffffffffffffffffffffffffffffffffffffff16815260200190815260200160002060008201518160000160006101000a81548173ffffffffffffffffffffffffffffffffffffffff021916908373ffffffffffffffffffffffffffffffffffffffff16021790555060208201518160000160146101000a81548167ffffffffffffffff021916908360070b67ffffffffffffffff160217905550604082015181600001601c6101000a81548160ff02191690831515021790555060608201518160010160006101000a81548173ffffffffffffffffffffffffffffffffffffffff021916908373ffffffffffffffffffffffffffffffffffffffff1602179055506080820151816002019080519060200190610db4929190612172565b509050505050565b6000600154905090565b6005818051602081018201805184825260208301602085012081835280955050505050506000915054906101000a900473ffffffffffffffffffffffffffffffffffffffff1681565b6000610e1a83610555565b90506000610e2782610598565b90506000610e3484610555565b90506000610e4182610598565b9050505050505050565b610e53611ee4565b73ffffffffffffffffffffffffffffffffffffffff16610e71611245565b73ffffffffffffffffffffffffffffffffffffffff1614610ec7576040517f08c379a0000000000000000000000000000000000000000000000000000000008152600401610ebe90612935565b60405180910390fd5b6000600460008373ffffffffffffffffffffffffffffffffffffffff1673ffffffffffffffffffffffffffffffffffffffff16815260200190815260200160002060000160149054906101000a900460070b90506000600460008473ffffffffffffffffffffffffffffffffffffffff1673ffffffffffffffffffffffffffffffffffffffff1681526020019081526020016000206002018054610f6a90612b14565b80601f0160208091040260200160405190810160405280929190818152602001828054610f9690612b14565b8015610fe35780601f10610fb857610100808354040283529160200191610fe3565b820191906000526020600020905b815481529060010190602001808311610fc657829003601f168201915b50505050509050600046905060048114611032576040517f08c379a000000000000000000000000000000000000000000000000000000000815260040161102990612955565b60405180910390fd5b600460008573ffffffffffffffffffffffffffffffffffffffff1673ffffffffffffffffffffffffffffffffffffffff168152602001908152602001600020600080820160006101000a81549073ffffffffffffffffffffffffffffffffffffffff02191690556000820160146101000a81549067ffffffffffffffff021916905560008201601c6101000a81549060ff02191690556001820160006101000a81549073ffffffffffffffffffffffffffffffffffffffff02191690556002820160006110ff91906121f8565b5050600360008460070b60070b815260200190815260200160002060006101000a81549073ffffffffffffffffffffffffffffffffffffffff021916905560058260405161114d9190612750565b908152602001604051809103902060006101000a81549073ffffffffffffffffffffffffffffffffffffffff02191690557f015de234da64d7247b81f8ecac83b1d657b0ecad3085534fbc525bc9ca4560fc83856040516111af92919061280c565b60405180910390a150505050565b6111c5611ee4565b73ffffffffffffffffffffffffffffffffffffffff166111e3611245565b73ffffffffffffffffffffffffffffffffffffffff1614611239576040517f08c379a000000000000000000000000000000000000000000000000000000000815260040161123090612935565b60405180910390fd5b6112436000611eec565b565b60008060009054906101000a900473ffffffffffffffffffffffffffffffffffffffff16905090565b60036020528060005260406000206000915054906101000a900473ffffffffffffffffffffffffffffffffffffffff1681565b6112a9611ee4565b73ffffffffffffffffffffffffffffffffffffffff166112c7611245565b73ffffffffffffffffffffffffffffffffffffffff161461131d576040517f08c379a000000000000000000000000000000000000000000000000000000000815260040161131490612935565b60405180910390fd5b6000600460008373ffffffffffffffffffffffffffffffffffffffff1673ffffffffffffffffffffffffffffffffffffffff16815260200190815260200160002060000160149054906101000a900460070b90506000600460008473ffffffffffffffffffffffffffffffffffffffff1673ffffffffffffffffffffffffffffffffffffffff16815260200190815260200160002060020180546113c090612b14565b80601f01602080910402602001604051908101604052809291908181526020018280546113ec90612b14565b80156114395780601f1061140e57610100808354040283529160200191611439565b820191906000526020600020905b81548152906001019060200180831161141c57829003601f168201915b5050505050905060001515600460008573ffffffffffffffffffffffffffffffffffffffff1673ffffffffffffffffffffffffffffffffffffffff168152602001908152602001600020600001601c9054906101000a900460ff161515146114d6576040517f08c379a00000000000000000000000000000000000000000000000000000000081526004016114cd90612975565b60405180910390fd5b600460008473ffffffffffffffffffffffffffffffffffffffff1673ffffffffffffffffffffffffffffffffffffffff168152602001908152602001600020600080820160006101000a81549073ffffffffffffffffffffffffffffffffffffffff02191690556000820160146101000a81549067ffffffffffffffff021916905560008201601c6101000a81549060ff02191690556001820160006101000a81549073ffffffffffffffffffffffffffffffffffffffff02191690556002820160006115a391906121f8565b5050600360008360070b60070b815260200190815260200160002060006101000a81549073ffffffffffffffffffffffffffffffffffffffff02191690556005816040516115f19190612750565b908152602001604051809103902060006101000a81549073ffffffffffffffffffffffffffffffffffffffff02191690557f015de234da64d7247b81f8ecac83b1d657b0ecad3085534fbc525bc9ca4560fc828460405161165392919061280c565b60405180910390a1505050565b6007602052816000526040600020818154811061167c57600080fd5b9060005260206000209060049182820401919006600802915091509054906101000a900460070b81565b6116ae612112565b60006116b9836118cf565b90506000600460008373ffffffffffffffffffffffffffffffffffffffff1673ffffffffffffffffffffffffffffffffffffffff1681526020019081526020016000206040518060a00160405290816000820160009054906101000a900473ffffffffffffffffffffffffffffffffffffffff1673ffffffffffffffffffffffffffffffffffffffff1673ffffffffffffffffffffffffffffffffffffffff1681526020016000820160149054906101000a900460070b60070b60070b815260200160008201601c9054906101000a900460ff161515151581526020016001820160009054906101000a900473ffffffffffffffffffffffffffffffffffffffff1673ffffffffffffffffffffffffffffffffffffffff1673ffffffffffffffffffffffffffffffffffffffff1681526020016002820180546117fb90612b14565b80601f016020809104026020016040519081016040528092919081815260200182805461182790612b14565b80156118745780601f1061184957610100808354040283529160200191611874565b820191906000526020600020905b81548152906001019060200180831161185757829003601f168201915b50505050508152505090508092505050919050565b600660205281600052604060002081815481106118a557600080fd5b9060005260206000209060049182820401919006600802915091509054906101000a900460070b81565b60006005826040516118e19190612750565b908152602001604051809103902060009054906101000a900473ffffffffffffffffffffffffffffffffffffffff169050919050565b61191f611ee4565b73ffffffffffffffffffffffffffffffffffffffff1661193d611245565b73ffffffffffffffffffffffffffffffffffffffff1614611993576040517f08c379a000000000000000000000000000000000000000000000000000000000815260040161198a90612935565b60405180910390fd5b8060018190555050565b60003390506119ad838284611fb0565b60015434146119f1576040517f08c379a00000000000000000000000000000000000000000000000000000000081526004016119e8906128f5565b60405180910390fd5b6040518060a001604052808273ffffffffffffffffffffffffffffffffffffffff1681526020018460070b8152602001600015158152602001600073ffffffffffffffffffffffffffffffffffffffff16815260200183815250600460003373ffffffffffffffffffffffffffffffffffffffff1673ffffffffffffffffffffffffffffffffffffffff16815260200190815260200160002060008201518160000160006101000a81548173ffffffffffffffffffffffffffffffffffffffff021916908373ffffffffffffffffffffffffffffffffffffffff16021790555060208201518160000160146101000a81548167ffffffffffffffff021916908360070b67ffffffffffffffff160217905550604082015181600001601c6101000a81548160ff02191690831515021790555060608201518160010160006101000a81548173ffffffffffffffffffffffffffffffffffffffff021916908373ffffffffffffffffffffffffffffffffffffffff1602179055506080820151816002019080519060200190611b86929190612172565b509050507fcb042d04619e497175f63ce8ec9b9127cb0bf344facc37db4fe8492c2ecfbb9e8333604051611bbb929190612835565b60405180910390a18260070b7f2d329f0d038ded94203a58e5be2f2f41b14cbbc49cc1f89443696606f104658c33604051611bf6919061277c565b60405180910390a26000600260009054906101000a900473ffffffffffffffffffffffffffffffffffffffff1673ffffffffffffffffffffffffffffffffffffffff16600154604051611c4890612767565b60006040518083038185875af1925050503d8060008114611c85576040519150601f19603f3d011682016040523d82523d6000602084013e611c8a565b606091505b5050905080611cce576040517f08c379a0000000000000000000000000000000000000000000000000000000008152600401611cc5906128b5565b60405180910390fd5b50505050565b60046020528060005260406000206000915090508060000160009054906101000a900473ffffffffffffffffffffffffffffffffffffffff16908060000160149054906101000a900460070b9080600001601c9054906101000a900460ff16908060010160009054906101000a900473ffffffffffffffffffffffffffffffffffffffff1690806002018054611d6990612b14565b80601f0160208091040260200160405190810160405280929190818152602001828054611d9590612b14565b8015611de25780601f10611db757610100808354040283529160200191611de2565b820191906000526020600020905b815481529060010190602001808311611dc557829003601f168201915b5050505050905085565b611df4611ee4565b73ffffffffffffffffffffffffffffffffffffffff16611e12611245565b73ffffffffffffffffffffffffffffffffffffffff1614611e68576040517f08c379a0000000000000000000000000000000000000000000000000000000008152600401611e5f90612935565b60405180910390fd5b600073ffffffffffffffffffffffffffffffffffffffff168173ffffffffffffffffffffffffffffffffffffffff161415611ed8576040517f08c379a0000000000000000000000000000000000000000000000000000000008152600401611ecf90612895565b60405180910390fd5b611ee181611eec565b50565b600033905090565b60008060009054906101000a900473ffffffffffffffffffffffffffffffffffffffff169050816000806101000a81548173ffffffffffffffffffffffffffffffffffffffff021916908373ffffffffffffffffffffffffffffffffffffffff1602179055508173ffffffffffffffffffffffffffffffffffffffff168173ffffffffffffffffffffffffffffffffffffffff167f8be0079c531659141344cd1fd0a4f28419497f9722a3daafe3b4186f6b6457e060405160405180910390a35050565b600073ffffffffffffffffffffffffffffffffffffffff16600360008560070b60070b815260200190815260200160002060009054906101000a900473ffffffffffffffffffffffffffffffffffffffff1673ffffffffffffffffffffffffffffffffffffffff1614612058576040517f08c379a000000000000000000000000000000000000000000000000000000000815260040161204f906128d5565b60405180910390fd5b81600360008560070b60070b815260200190815260200160002060006101000a81548173ffffffffffffffffffffffffffffffffffffffff021916908373ffffffffffffffffffffffffffffffffffffffff160217905550816005826040516120c19190612750565b908152602001604051809103902060006101000a81548173ffffffffffffffffffffffffffffffffffffffff021916908373ffffffffffffffffffffffffffffffffffffffff160217905550505050565b6040518060a00160405280600073ffffffffffffffffffffffffffffffffffffffff168152602001600060070b8152602001600015158152602001600073ffffffffffffffffffffffffffffffffffffffff168152602001606081525090565b82805461217e90612b14565b90600052602060002090601f0160209004810192826121a057600085556121e7565b82601f106121b957805160ff19168380011785556121e7565b828001600101855582156121e7579182015b828111156121e65782518255916020019190600101906121cb565b5b5090506121f49190612238565b5090565b50805461220490612b14565b6000825580601f106122165750612235565b601f0160209004906000526020600020908101906122349190612238565b5b50565b5b80821115612251576000816000905550600101612239565b5090565b6000612268612263846129f7565b6129d2565b90508281526020810184848401111561228057600080fd5b61228b848285612ad2565b509392505050565b6000813590506122a281612dc9565b92915050565b6000813590506122b781612de0565b92915050565b600082601f8301126122ce57600080fd5b81356122de848260208601612255565b91505092915050565b6000813590506122f681612df7565b92915050565b60006020828403121561230e57600080fd5b600061231c84828501612293565b91505092915050565b60006020828403121561233757600080fd5b6000612345848285016122a8565b91505092915050565b6000806040838503121561236157600080fd5b600061236f858286016122a8565b9250506020612380858286016122a8565b9150509250929050565b6000806040838503121561239d57600080fd5b60006123ab858286016122a8565b925050602083013567ffffffffffffffff8111156123c857600080fd5b6123d4858286016122bd565b9150509250929050565b600080604083850312156123f157600080fd5b60006123ff858286016122a8565b9250506020612410858286016122e7565b9150509250929050565b60006020828403121561242c57600080fd5b600082013567ffffffffffffffff81111561244657600080fd5b612452848285016122bd565b91505092915050565b60006020828403121561246d57600080fd5b600061247b848285016122e7565b91505092915050565b61248d81612a6b565b82525050565b61249c81612a6b565b82525050565b6124ab81612a7d565b82525050565b6124ba81612a7d565b82525050565b6124c981612ac0565b82525050565b6124d881612a89565b82525050565b6124e781612a89565b82525050565b60006124f882612a28565b6125028185612a3e565b9350612512818560208601612ae1565b61251b81612bd5565b840191505092915050565b600061253182612a28565b61253b8185612a4f565b935061254b818560208601612ae1565b61255481612bd5565b840191505092915050565b600061256a82612a28565b6125748185612a60565b9350612584818560208601612ae1565b80840191505092915050565b600061259d602683612a4f565b91506125a882612be6565b604082019050919050565b60006125c0601683612a4f565b91506125cb82612c35565b602082019050919050565b60006125e3603083612a4f565b91506125ee82612c5e565b604082019050919050565b6000612606601883612a4f565b915061261182612cad565b602082019050919050565b6000612629601f83612a4f565b915061263482612cd6565b602082019050919050565b600061264c602083612a4f565b915061265782612cff565b602082019050919050565b600061266f602583612a4f565b915061267a82612d28565b604082019050919050565b6000612692602583612a4f565b915061269d82612d77565b604082019050919050565b60006126b5600083612a33565b91506126c082612dc6565b600082019050919050565b600060a0830160008301516126e36000860182612484565b5060208301516126f660208601826124cf565b50604083015161270960408601826124a2565b50606083015161271c6060860182612484565b506080830151848203608086015261273482826124ed565b9150508091505092915050565b61274a81612ab6565b82525050565b600061275c828461255f565b915081905092915050565b6000612772826126a8565b9150819050919050565b60006020820190506127916000830184612493565b92915050565b600060a0820190506127ac6000830188612493565b6127b960208301876124de565b6127c660408301866124b1565b6127d36060830185612493565b81810360808301526127e58184612526565b90509695505050505050565b600060208201905061280660008301846124de565b92915050565b600060408201905061282160008301856124c0565b61282e6020830184612493565b9392505050565b600060408201905061284a60008301856124de565b6128576020830184612493565b9392505050565b600060608201905061287360008301866124c0565b6128806020830185612493565b61288d6040830184612493565b949350505050565b600060208201905081810360008301526128ae81612590565b9050919050565b600060208201905081810360008301526128ce816125b3565b9050919050565b600060208201905081810360008301526128ee816125d6565b9050919050565b6000602082019050818103600083015261290e816125f9565b9050919050565b6000602082019050818103600083015261292e8161261c565b9050919050565b6000602082019050818103600083015261294e8161263f565b9050919050565b6000602082019050818103600083015261296e81612662565b9050919050565b6000602082019050818103600083015261298e81612685565b9050919050565b600060208201905081810360008301526129af81846126cb565b905092915050565b60006020820190506129cc6000830184612741565b92915050565b60006129dc6129ed565b90506129e88282612b46565b919050565b6000604051905090565b600067ffffffffffffffff821115612a1257612a11612ba6565b5b612a1b82612bd5565b9050602081019050919050565b600081519050919050565b600081905092915050565b600082825260208201905092915050565b600082825260208201905092915050565b600081905092915050565b6000612a7682612a96565b9050919050565b60008115159050919050565b60008160070b9050919050565b600073ffffffffffffffffffffffffffffffffffffffff82169050919050565b6000819050919050565b6000612acb82612a89565b9050919050565b82818337600083830152505050565b60005b83811015612aff578082015181840152602081019050612ae4565b83811115612b0e576000848401525b50505050565b60006002820490506001821680612b2c57607f821691505b60208210811415612b4057612b3f612b77565b5b50919050565b612b4f82612bd5565b810181811067ffffffffffffffff82111715612b6e57612b6d612ba6565b5b80604052505050565b7f4e487b7100000000000000000000000000000000000000000000000000000000600052602260045260246000fd5b7f4e487b7100000000000000000000000000000000000000000000000000000000600052604160045260246000fd5b6000601f19601f8301169050919050565b7f4f776e61626c653a206e6577206f776e657220697320746865207a65726f206160008201527f6464726573730000000000000000000000000000000000000000000000000000602082015250565b7f556e61626c6520746f207472616e736665722066656500000000000000000000600082015250565b7f54686572652773206164647265737320636f6e6e656374656420746f2074686160008201527f7420544720494420616c72656164792e00000000000000000000000000000000602082015250565b7f50617373706f727420666565206973206e6f7420706169640000000000000000600082015250565b7f796f7520646f6e2774206e6f77206f776e207468697320757365726e616d6500600082015250565b7f4f776e61626c653a2063616c6c6572206973206e6f7420746865206f776e6572600082015250565b7f746869732066756e6374696f6e20776f726b2773206f6e6c7920666f7220746560008201527f73746e6574000000000000000000000000000000000000000000000000000000602082015250565b7f616c726561647920617070726f766564204f5220646f206e6f7420657869737460008201527f7320796574000000000000000000000000000000000000000000000000000000602082015250565b50565b612dd281612a6b565b8114612ddd57600080fd5b50565b612de981612a89565b8114612df457600080fd5b50565b612e0081612ab6565b8114612e0b57600080fd5b5056fea2646970667358221220a2ec8f8aeef493b8fee4e908d4843d092a40e6eaa8cb6f640af4bb0e453df4f664736f6c63430008040033",
          "opcodes": "PUSH1 0x80 PUSH1 0x40 MSTORE CALLVALUE DUP1 ISZERO PUSH3 0x11 JUMPI PUSH1 0x0 DUP1 REVERT JUMPDEST POP PUSH3 0x32 PUSH3 0x26 PUSH3 0x91 PUSH1 0x20 SHL PUSH1 0x20 SHR JUMP JUMPDEST PUSH3 0x99 PUSH1 0x20 SHL PUSH1 0x20 SHR JUMP JUMPDEST PUSH2 0x3E8 PUSH1 0x1 DUP2 SWAP1 SSTORE POP PUSH3 0x4B PUSH3 0x15D PUSH1 0x20 SHL PUSH1 0x20 SHR JUMP JUMPDEST PUSH1 0x2 PUSH1 0x0 PUSH2 0x100 EXP DUP2 SLOAD DUP2 PUSH20 0xFFFFFFFFFFFFFFFFFFFFFFFFFFFFFFFFFFFFFFFF MUL NOT AND SWAP1 DUP4 PUSH20 0xFFFFFFFFFFFFFFFFFFFFFFFFFFFFFFFFFFFFFFFF AND MUL OR SWAP1 SSTORE POP PUSH3 0x186 JUMP JUMPDEST PUSH1 0x0 CALLER SWAP1 POP SWAP1 JUMP JUMPDEST PUSH1 0x0 DUP1 PUSH1 0x0 SWAP1 SLOAD SWAP1 PUSH2 0x100 EXP SWAP1 DIV PUSH20 0xFFFFFFFFFFFFFFFFFFFFFFFFFFFFFFFFFFFFFFFF AND SWAP1 POP DUP2 PUSH1 0x0 DUP1 PUSH2 0x100 EXP DUP2 SLOAD DUP2 PUSH20 0xFFFFFFFFFFFFFFFFFFFFFFFFFFFFFFFFFFFFFFFF MUL NOT AND SWAP1 DUP4 PUSH20 0xFFFFFFFFFFFFFFFFFFFFFFFFFFFFFFFFFFFFFFFF AND MUL OR SWAP1 SSTORE POP DUP2 PUSH20 0xFFFFFFFFFFFFFFFFFFFFFFFFFFFFFFFFFFFFFFFF AND DUP2 PUSH20 0xFFFFFFFFFFFFFFFFFFFFFFFFFFFFFFFFFFFFFFFF AND PUSH32 0x8BE0079C531659141344CD1FD0A4F28419497F9722A3DAAFE3B4186F6B6457E0 PUSH1 0x40 MLOAD PUSH1 0x40 MLOAD DUP1 SWAP2 SUB SWAP1 LOG3 POP POP JUMP JUMPDEST PUSH1 0x0 DUP1 PUSH1 0x0 SWAP1 SLOAD SWAP1 PUSH2 0x100 EXP SWAP1 DIV PUSH20 0xFFFFFFFFFFFFFFFFFFFFFFFFFFFFFFFFFFFFFFFF AND SWAP1 POP SWAP1 JUMP JUMPDEST PUSH2 0x2E44 DUP1 PUSH3 0x196 PUSH1 0x0 CODECOPY PUSH1 0x0 RETURN INVALID PUSH1 0x80 PUSH1 0x40 MSTORE PUSH1 0x4 CALLDATASIZE LT PUSH2 0x12A JUMPI PUSH1 0x0 CALLDATALOAD PUSH1 0xE0 SHR DUP1 PUSH4 0x8DA5CB5B GT PUSH2 0xAB JUMPI DUP1 PUSH4 0xCBFEE179 GT PUSH2 0x6F JUMPI DUP1 PUSH4 0xCBFEE179 EQ PUSH2 0x402 JUMPI DUP1 PUSH4 0xD2114E18 EQ PUSH2 0x43F JUMPI DUP1 PUSH4 0xD2125BD2 EQ PUSH2 0x47C JUMPI DUP1 PUSH4 0xD5998AEB EQ PUSH2 0x4A5 JUMPI DUP1 PUSH4 0xE37C132B EQ PUSH2 0x4C1 JUMPI DUP1 PUSH4 0xF2FDE38B EQ PUSH2 0x502 JUMPI PUSH2 0x12A JUMP JUMPDEST DUP1 PUSH4 0x8DA5CB5B EQ PUSH2 0x2F7 JUMPI DUP1 PUSH4 0x9413C642 EQ PUSH2 0x322 JUMPI DUP1 PUSH4 0x9421DA61 EQ PUSH2 0x35F JUMPI DUP1 PUSH4 0xB1EEA0A5 EQ PUSH2 0x388 JUMPI DUP1 PUSH4 0xB25047C2 EQ PUSH2 0x3C5 JUMPI PUSH2 0x12A JUMP JUMPDEST DUP1 PUSH4 0x48DC1561 GT PUSH2 0xF2 JUMPI DUP1 PUSH4 0x48DC1561 EQ PUSH2 0x226 JUMPI DUP1 PUSH4 0x59CCA93B EQ PUSH2 0x251 JUMPI DUP1 PUSH4 0x5E292757 EQ PUSH2 0x28E JUMPI DUP1 PUSH4 0x65104AFC EQ PUSH2 0x2B7 JUMPI DUP1 PUSH4 0x715018A6 EQ PUSH2 0x2E0 JUMPI PUSH2 0x12A JUMP JUMPDEST DUP1 PUSH4 0xAE50A39 EQ PUSH2 0x12F JUMPI DUP1 PUSH4 0xC2FC6E3 EQ PUSH2 0x15A JUMPI DUP1 PUSH4 0x1423EA07 EQ PUSH2 0x197 JUMPI DUP1 PUSH4 0x1755E9E6 EQ PUSH2 0x1D4 JUMPI DUP1 PUSH4 0x21E6531D EQ PUSH2 0x1FD JUMPI JUMPDEST PUSH1 0x0 DUP1 REVERT JUMPDEST CALLVALUE DUP1 ISZERO PUSH2 0x13B JUMPI PUSH1 0x0 DUP1 REVERT JUMPDEST POP PUSH2 0x144 PUSH2 0x52B JUMP JUMPDEST PUSH1 0x40 MLOAD PUSH2 0x151 SWAP2 SWAP1 PUSH2 0x277C JUMP JUMPDEST PUSH1 0x40 MLOAD DUP1 SWAP2 SUB SWAP1 RETURN JUMPDEST CALLVALUE DUP1 ISZERO PUSH2 0x166 JUMPI PUSH1 0x0 DUP1 REVERT JUMPDEST POP PUSH2 0x181 PUSH1 0x4 DUP1 CALLDATASIZE SUB DUP2 ADD SWAP1 PUSH2 0x17C SWAP2 SWAP1 PUSH2 0x2325 JUMP JUMPDEST PUSH2 0x555 JUMP JUMPDEST PUSH1 0x40 MLOAD PUSH2 0x18E SWAP2 SWAP1 PUSH2 0x277C JUMP JUMPDEST PUSH1 0x40 MLOAD DUP1 SWAP2 SUB SWAP1 RETURN JUMPDEST CALLVALUE DUP1 ISZERO PUSH2 0x1A3 JUMPI PUSH1 0x0 DUP1 REVERT JUMPDEST POP PUSH2 0x1BE PUSH1 0x4 DUP1 CALLDATASIZE SUB DUP2 ADD SWAP1 PUSH2 0x1B9 SWAP2 SWAP1 PUSH2 0x22FC JUMP JUMPDEST PUSH2 0x598 JUMP JUMPDEST PUSH1 0x40 MLOAD PUSH2 0x1CB SWAP2 SWAP1 PUSH2 0x2995 JUMP JUMPDEST PUSH1 0x40 MLOAD DUP1 SWAP2 SUB SWAP1 RETURN JUMPDEST CALLVALUE DUP1 ISZERO PUSH2 0x1E0 JUMPI PUSH1 0x0 DUP1 REVERT JUMPDEST POP PUSH2 0x1FB PUSH1 0x4 DUP1 CALLDATASIZE SUB DUP2 ADD SWAP1 PUSH2 0x1F6 SWAP2 SWAP1 PUSH2 0x22FC JUMP JUMPDEST PUSH2 0x76D JUMP JUMPDEST STOP JUMPDEST CALLVALUE DUP1 ISZERO PUSH2 0x209 JUMPI PUSH1 0x0 DUP1 REVERT JUMPDEST POP PUSH2 0x224 PUSH1 0x4 DUP1 CALLDATASIZE SUB DUP2 ADD SWAP1 PUSH2 0x21F SWAP2 SWAP1 PUSH2 0x241A JUMP JUMPDEST PUSH2 0xBF0 JUMP JUMPDEST STOP JUMPDEST CALLVALUE DUP1 ISZERO PUSH2 0x232 JUMPI PUSH1 0x0 DUP1 REVERT JUMPDEST POP PUSH2 0x23B PUSH2 0xDBC JUMP JUMPDEST PUSH1 0x40 MLOAD PUSH2 0x248 SWAP2 SWAP1 PUSH2 0x29B7 JUMP JUMPDEST PUSH1 0x40 MLOAD DUP1 SWAP2 SUB SWAP1 RETURN JUMPDEST CALLVALUE DUP1 ISZERO PUSH2 0x25D JUMPI PUSH1 0x0 DUP1 REVERT JUMPDEST POP PUSH2 0x278 PUSH1 0x4 DUP1 CALLDATASIZE SUB DUP2 ADD SWAP1 PUSH2 0x273 SWAP2 SWAP1 PUSH2 0x241A JUMP JUMPDEST PUSH2 0xDC6 JUMP JUMPDEST PUSH1 0x40 MLOAD PUSH2 0x285 SWAP2 SWAP1 PUSH2 0x277C JUMP JUMPDEST PUSH1 0x40 MLOAD DUP1 SWAP2 SUB SWAP1 RETURN JUMPDEST CALLVALUE DUP1 ISZERO PUSH2 0x29A JUMPI PUSH1 0x0 DUP1 REVERT JUMPDEST POP PUSH2 0x2B5 PUSH1 0x4 DUP1 CALLDATASIZE SUB DUP2 ADD SWAP1 PUSH2 0x2B0 SWAP2 SWAP1 PUSH2 0x234E JUMP JUMPDEST PUSH2 0xE0F JUMP JUMPDEST STOP JUMPDEST CALLVALUE DUP1 ISZERO PUSH2 0x2C3 JUMPI PUSH1 0x0 DUP1 REVERT JUMPDEST POP PUSH2 0x2DE PUSH1 0x4 DUP1 CALLDATASIZE SUB DUP2 ADD SWAP1 PUSH2 0x2D9 SWAP2 SWAP1 PUSH2 0x22FC JUMP JUMPDEST PUSH2 0xE4B JUMP JUMPDEST STOP JUMPDEST CALLVALUE DUP1 ISZERO PUSH2 0x2EC JUMPI PUSH1 0x0 DUP1 REVERT JUMPDEST POP PUSH2 0x2F5 PUSH2 0x11BD JUMP JUMPDEST STOP JUMPDEST CALLVALUE DUP1 ISZERO PUSH2 0x303 JUMPI PUSH1 0x0 DUP1 REVERT JUMPDEST POP PUSH2 0x30C PUSH2 0x1245 JUMP JUMPDEST PUSH1 0x40 MLOAD PUSH2 0x319 SWAP2 SWAP1 PUSH2 0x277C JUMP JUMPDEST PUSH1 0x40 MLOAD DUP1 SWAP2 SUB SWAP1 RETURN JUMPDEST CALLVALUE DUP1 ISZERO PUSH2 0x32E JUMPI PUSH1 0x0 DUP1 REVERT JUMPDEST POP PUSH2 0x349 PUSH1 0x4 DUP1 CALLDATASIZE SUB DUP2 ADD SWAP1 PUSH2 0x344 SWAP2 SWAP1 PUSH2 0x2325 JUMP JUMPDEST PUSH2 0x126E JUMP JUMPDEST PUSH1 0x40 MLOAD PUSH2 0x356 SWAP2 SWAP1 PUSH2 0x277C JUMP JUMPDEST PUSH1 0x40 MLOAD DUP1 SWAP2 SUB SWAP1 RETURN JUMPDEST CALLVALUE DUP1 ISZERO PUSH2 0x36B JUMPI PUSH1 0x0 DUP1 REVERT JUMPDEST POP PUSH2 0x386 PUSH1 0x4 DUP1 CALLDATASIZE SUB DUP2 ADD SWAP1 PUSH2 0x381 SWAP2 SWAP1 PUSH2 0x22FC JUMP JUMPDEST PUSH2 0x12A1 JUMP JUMPDEST STOP JUMPDEST CALLVALUE DUP1 ISZERO PUSH2 0x394 JUMPI PUSH1 0x0 DUP1 REVERT JUMPDEST POP PUSH2 0x3AF PUSH1 0x4 DUP1 CALLDATASIZE SUB DUP2 ADD SWAP1 PUSH2 0x3AA SWAP2 SWAP1 PUSH2 0x23DE JUMP JUMPDEST PUSH2 0x1660 JUMP JUMPDEST PUSH1 0x40 MLOAD PUSH2 0x3BC SWAP2 SWAP1 PUSH2 0x27F1 JUMP JUMPDEST PUSH1 0x40 MLOAD DUP1 SWAP2 SUB SWAP1 RETURN JUMPDEST CALLVALUE DUP1 ISZERO PUSH2 0x3D1 JUMPI PUSH1 0x0 DUP1 REVERT JUMPDEST POP PUSH2 0x3EC PUSH1 0x4 DUP1 CALLDATASIZE SUB DUP2 ADD SWAP1 PUSH2 0x3E7 SWAP2 SWAP1 PUSH2 0x241A JUMP JUMPDEST PUSH2 0x16A6 JUMP JUMPDEST PUSH1 0x40 MLOAD PUSH2 0x3F9 SWAP2 SWAP1 PUSH2 0x2995 JUMP JUMPDEST PUSH1 0x40 MLOAD DUP1 SWAP2 SUB SWAP1 RETURN JUMPDEST CALLVALUE DUP1 ISZERO PUSH2 0x40E JUMPI PUSH1 0x0 DUP1 REVERT JUMPDEST POP PUSH2 0x429 PUSH1 0x4 DUP1 CALLDATASIZE SUB DUP2 ADD SWAP1 PUSH2 0x424 SWAP2 SWAP1 PUSH2 0x23DE JUMP JUMPDEST PUSH2 0x1889 JUMP JUMPDEST PUSH1 0x40 MLOAD PUSH2 0x436 SWAP2 SWAP1 PUSH2 0x27F1 JUMP JUMPDEST PUSH1 0x40 MLOAD DUP1 SWAP2 SUB SWAP1 RETURN JUMPDEST CALLVALUE DUP1 ISZERO PUSH2 0x44B JUMPI PUSH1 0x0 DUP1 REVERT JUMPDEST POP PUSH2 0x466 PUSH1 0x4 DUP1 CALLDATASIZE SUB DUP2 ADD SWAP1 PUSH2 0x461 SWAP2 SWAP1 PUSH2 0x241A JUMP JUMPDEST PUSH2 0x18CF JUMP JUMPDEST PUSH1 0x40 MLOAD PUSH2 0x473 SWAP2 SWAP1 PUSH2 0x277C JUMP JUMPDEST PUSH1 0x40 MLOAD DUP1 SWAP2 SUB SWAP1 RETURN JUMPDEST CALLVALUE DUP1 ISZERO PUSH2 0x488 JUMPI PUSH1 0x0 DUP1 REVERT JUMPDEST POP PUSH2 0x4A3 PUSH1 0x4 DUP1 CALLDATASIZE SUB DUP2 ADD SWAP1 PUSH2 0x49E SWAP2 SWAP1 PUSH2 0x245B JUMP JUMPDEST PUSH2 0x1917 JUMP JUMPDEST STOP JUMPDEST PUSH2 0x4BF PUSH1 0x4 DUP1 CALLDATASIZE SUB DUP2 ADD SWAP1 PUSH2 0x4BA SWAP2 SWAP1 PUSH2 0x238A JUMP JUMPDEST PUSH2 0x199D JUMP JUMPDEST STOP JUMPDEST CALLVALUE DUP1 ISZERO PUSH2 0x4CD JUMPI PUSH1 0x0 DUP1 REVERT JUMPDEST POP PUSH2 0x4E8 PUSH1 0x4 DUP1 CALLDATASIZE SUB DUP2 ADD SWAP1 PUSH2 0x4E3 SWAP2 SWAP1 PUSH2 0x22FC JUMP JUMPDEST PUSH2 0x1CD4 JUMP JUMPDEST PUSH1 0x40 MLOAD PUSH2 0x4F9 SWAP6 SWAP5 SWAP4 SWAP3 SWAP2 SWAP1 PUSH2 0x2797 JUMP JUMPDEST PUSH1 0x40 MLOAD DUP1 SWAP2 SUB SWAP1 RETURN JUMPDEST CALLVALUE DUP1 ISZERO PUSH2 0x50E JUMPI PUSH1 0x0 DUP1 REVERT JUMPDEST POP PUSH2 0x529 PUSH1 0x4 DUP1 CALLDATASIZE SUB DUP2 ADD SWAP1 PUSH2 0x524 SWAP2 SWAP1 PUSH2 0x22FC JUMP JUMPDEST PUSH2 0x1DEC JUMP JUMPDEST STOP JUMPDEST PUSH1 0x0 PUSH1 0x2 PUSH1 0x0 SWAP1 SLOAD SWAP1 PUSH2 0x100 EXP SWAP1 DIV PUSH20 0xFFFFFFFFFFFFFFFFFFFFFFFFFFFFFFFFFFFFFFFF AND SWAP1 POP SWAP1 JUMP JUMPDEST PUSH1 0x0 PUSH1 0x3 PUSH1 0x0 DUP4 PUSH1 0x7 SIGNEXTEND PUSH1 0x7 SIGNEXTEND DUP2 MSTORE PUSH1 0x20 ADD SWAP1 DUP2 MSTORE PUSH1 0x20 ADD PUSH1 0x0 KECCAK256 PUSH1 0x0 SWAP1 SLOAD SWAP1 PUSH2 0x100 EXP SWAP1 DIV PUSH20 0xFFFFFFFFFFFFFFFFFFFFFFFFFFFFFFFFFFFFFFFF AND SWAP1 POP SWAP2 SWAP1 POP JUMP JUMPDEST PUSH2 0x5A0 PUSH2 0x2112 JUMP JUMPDEST PUSH1 0x0 PUSH1 0x4 PUSH1 0x0 DUP5 PUSH20 0xFFFFFFFFFFFFFFFFFFFFFFFFFFFFFFFFFFFFFFFF AND PUSH20 0xFFFFFFFFFFFFFFFFFFFFFFFFFFFFFFFFFFFFFFFF AND DUP2 MSTORE PUSH1 0x20 ADD SWAP1 DUP2 MSTORE PUSH1 0x20 ADD PUSH1 0x0 KECCAK256 PUSH1 0x40 MLOAD DUP1 PUSH1 0xA0 ADD PUSH1 0x40 MSTORE SWAP1 DUP2 PUSH1 0x0 DUP3 ADD PUSH1 0x0 SWAP1 SLOAD SWAP1 PUSH2 0x100 EXP SWAP1 DIV PUSH20 0xFFFFFFFFFFFFFFFFFFFFFFFFFFFFFFFFFFFFFFFF AND PUSH20 0xFFFFFFFFFFFFFFFFFFFFFFFFFFFFFFFFFFFFFFFF AND PUSH20 0xFFFFFFFFFFFFFFFFFFFFFFFFFFFFFFFFFFFFFFFF AND DUP2 MSTORE PUSH1 0x20 ADD PUSH1 0x0 DUP3 ADD PUSH1 0x14 SWAP1 SLOAD SWAP1 PUSH2 0x100 EXP SWAP1 DIV PUSH1 0x7 SIGNEXTEND PUSH1 0x7 SIGNEXTEND PUSH1 0x7 SIGNEXTEND DUP2 MSTORE PUSH1 0x20 ADD PUSH1 0x0 DUP3 ADD PUSH1 0x1C SWAP1 SLOAD SWAP1 PUSH2 0x100 EXP SWAP1 DIV PUSH1 0xFF AND ISZERO ISZERO ISZERO ISZERO DUP2 MSTORE PUSH1 0x20 ADD PUSH1 0x1 DUP3 ADD PUSH1 0x0 SWAP1 SLOAD SWAP1 PUSH2 0x100 EXP SWAP1 DIV PUSH20 0xFFFFFFFFFFFFFFFFFFFFFFFFFFFFFFFFFFFFFFFF AND PUSH20 0xFFFFFFFFFFFFFFFFFFFFFFFFFFFFFFFFFFFFFFFF AND PUSH20 0xFFFFFFFFFFFFFFFFFFFFFFFFFFFFFFFFFFFFFFFF AND DUP2 MSTORE PUSH1 0x20 ADD PUSH1 0x2 DUP3 ADD DUP1 SLOAD PUSH2 0x6E0 SWAP1 PUSH2 0x2B14 JUMP JUMPDEST DUP1 PUSH1 0x1F ADD PUSH1 0x20 DUP1 SWAP2 DIV MUL PUSH1 0x20 ADD PUSH1 0x40 MLOAD SWAP1 DUP2 ADD PUSH1 0x40 MSTORE DUP1 SWAP3 SWAP2 SWAP1 DUP2 DUP2 MSTORE PUSH1 0x20 ADD DUP3 DUP1 SLOAD PUSH2 0x70C SWAP1 PUSH2 0x2B14 JUMP JUMPDEST DUP1 ISZERO PUSH2 0x759 JUMPI DUP1 PUSH1 0x1F LT PUSH2 0x72E JUMPI PUSH2 0x100 DUP1 DUP4 SLOAD DIV MUL DUP4 MSTORE SWAP2 PUSH1 0x20 ADD SWAP2 PUSH2 0x759 JUMP JUMPDEST DUP3 ADD SWAP2 SWAP1 PUSH1 0x0 MSTORE PUSH1 0x20 PUSH1 0x0 KECCAK256 SWAP1 JUMPDEST DUP2 SLOAD DUP2 MSTORE SWAP1 PUSH1 0x1 ADD SWAP1 PUSH1 0x20 ADD DUP1 DUP4 GT PUSH2 0x73C JUMPI DUP3 SWAP1 SUB PUSH1 0x1F AND DUP3 ADD SWAP2 JUMPDEST POP POP POP POP POP DUP2 MSTORE POP POP SWAP1 POP DUP1 SWAP2 POP POP SWAP2 SWAP1 POP JUMP JUMPDEST PUSH2 0x775 PUSH2 0x1EE4 JUMP JUMPDEST PUSH20 0xFFFFFFFFFFFFFFFFFFFFFFFFFFFFFFFFFFFFFFFF AND PUSH2 0x793 PUSH2 0x1245 JUMP JUMPDEST PUSH20 0xFFFFFFFFFFFFFFFFFFFFFFFFFFFFFFFFFFFFFFFF AND EQ PUSH2 0x7E9 JUMPI PUSH1 0x40 MLOAD PUSH32 0x8C379A000000000000000000000000000000000000000000000000000000000 DUP2 MSTORE PUSH1 0x4 ADD PUSH2 0x7E0 SWAP1 PUSH2 0x2935 JUMP JUMPDEST PUSH1 0x40 MLOAD DUP1 SWAP2 SUB SWAP1 REVERT JUMPDEST PUSH1 0x0 PUSH1 0x4 PUSH1 0x0 DUP4 PUSH20 0xFFFFFFFFFFFFFFFFFFFFFFFFFFFFFFFFFFFFFFFF AND PUSH20 0xFFFFFFFFFFFFFFFFFFFFFFFFFFFFFFFFFFFFFFFF AND DUP2 MSTORE PUSH1 0x20 ADD SWAP1 DUP2 MSTORE PUSH1 0x20 ADD PUSH1 0x0 KECCAK256 PUSH1 0x0 ADD PUSH1 0x14 SWAP1 SLOAD SWAP1 PUSH2 0x100 EXP SWAP1 DIV PUSH1 0x7 SIGNEXTEND SWAP1 POP PUSH1 0x0 PUSH1 0x4 PUSH1 0x0 DUP5 PUSH20 0xFFFFFFFFFFFFFFFFFFFFFFFFFFFFFFFFFFFFFFFF AND PUSH20 0xFFFFFFFFFFFFFFFFFFFFFFFFFFFFFFFFFFFFFFFF AND DUP2 MSTORE PUSH1 0x20 ADD SWAP1 DUP2 MSTORE PUSH1 0x20 ADD PUSH1 0x0 KECCAK256 PUSH1 0x2 ADD DUP1 SLOAD PUSH2 0x88C SWAP1 PUSH2 0x2B14 JUMP JUMPDEST DUP1 PUSH1 0x1F ADD PUSH1 0x20 DUP1 SWAP2 DIV MUL PUSH1 0x20 ADD PUSH1 0x40 MLOAD SWAP1 DUP2 ADD PUSH1 0x40 MSTORE DUP1 SWAP3 SWAP2 SWAP1 DUP2 DUP2 MSTORE PUSH1 0x20 ADD DUP3 DUP1 SLOAD PUSH2 0x8B8 SWAP1 PUSH2 0x2B14 JUMP JUMPDEST DUP1 ISZERO PUSH2 0x905 JUMPI DUP1 PUSH1 0x1F LT PUSH2 0x8DA JUMPI PUSH2 0x100 DUP1 DUP4 SLOAD DIV MUL DUP4 MSTORE SWAP2 PUSH1 0x20 ADD SWAP2 PUSH2 0x905 JUMP JUMPDEST DUP3 ADD SWAP2 SWAP1 PUSH1 0x0 MSTORE PUSH1 0x20 PUSH1 0x0 KECCAK256 SWAP1 JUMPDEST DUP2 SLOAD DUP2 MSTORE SWAP1 PUSH1 0x1 ADD SWAP1 PUSH1 0x20 ADD DUP1 DUP4 GT PUSH2 0x8E8 JUMPI DUP3 SWAP1 SUB PUSH1 0x1F AND DUP3 ADD SWAP2 JUMPDEST POP POP POP POP POP SWAP1 POP PUSH1 0x0 ISZERO ISZERO PUSH1 0x4 PUSH1 0x0 DUP6 PUSH20 0xFFFFFFFFFFFFFFFFFFFFFFFFFFFFFFFFFFFFFFFF AND PUSH20 0xFFFFFFFFFFFFFFFFFFFFFFFFFFFFFFFFFFFFFFFF AND DUP2 MSTORE PUSH1 0x20 ADD SWAP1 DUP2 MSTORE PUSH1 0x20 ADD PUSH1 0x0 KECCAK256 PUSH1 0x0 ADD PUSH1 0x1C SWAP1 SLOAD SWAP1 PUSH2 0x100 EXP SWAP1 DIV PUSH1 0xFF AND ISZERO ISZERO EQ PUSH2 0x9A2 JUMPI PUSH1 0x40 MLOAD PUSH32 0x8C379A000000000000000000000000000000000000000000000000000000000 DUP2 MSTORE PUSH1 0x4 ADD PUSH2 0x999 SWAP1 PUSH2 0x2975 JUMP JUMPDEST PUSH1 0x40 MLOAD DUP1 SWAP2 SUB SWAP1 REVERT JUMPDEST PUSH1 0x0 PUSH1 0x6 PUSH1 0x0 DUP5 PUSH1 0x7 SIGNEXTEND PUSH1 0x7 SIGNEXTEND DUP2 MSTORE PUSH1 0x20 ADD SWAP1 DUP2 MSTORE PUSH1 0x20 ADD PUSH1 0x0 KECCAK256 SWAP1 POP DUP1 DUP4 SWAP1 DUP1 PUSH1 0x1 DUP2 SLOAD ADD DUP1 DUP3 SSTORE DUP1 SWAP2 POP POP PUSH1 0x1 SWAP1 SUB SWAP1 PUSH1 0x0 MSTORE PUSH1 0x20 PUSH1 0x0 KECCAK256 SWAP1 PUSH1 0x4 SWAP2 DUP3 DUP3 DIV ADD SWAP2 SWAP1 MOD PUSH1 0x8 MUL SWAP1 SWAP2 SWAP1 SWAP2 SWAP1 SWAP2 PUSH2 0x100 EXP DUP2 SLOAD DUP2 PUSH8 0xFFFFFFFFFFFFFFFF MUL NOT AND SWAP1 DUP4 PUSH1 0x7 SIGNEXTEND PUSH8 0xFFFFFFFFFFFFFFFF AND MUL OR SWAP1 SSTORE POP PUSH1 0x40 MLOAD DUP1 PUSH1 0xA0 ADD PUSH1 0x40 MSTORE DUP1 DUP6 PUSH20 0xFFFFFFFFFFFFFFFFFFFFFFFFFFFFFFFFFFFFFFFF AND DUP2 MSTORE PUSH1 0x20 ADD DUP5 PUSH1 0x7 SIGNEXTEND DUP2 MSTORE PUSH1 0x20 ADD PUSH1 0x1 ISZERO ISZERO DUP2 MSTORE PUSH1 0x20 ADD CALLER PUSH20 0xFFFFFFFFFFFFFFFFFFFFFFFFFFFFFFFFFFFFFFFF AND DUP2 MSTORE PUSH1 0x20 ADD DUP4 DUP2 MSTORE POP PUSH1 0x4 PUSH1 0x0 DUP7 PUSH20 0xFFFFFFFFFFFFFFFFFFFFFFFFFFFFFFFFFFFFFFFF AND PUSH20 0xFFFFFFFFFFFFFFFFFFFFFFFFFFFFFFFFFFFFFFFF AND DUP2 MSTORE PUSH1 0x20 ADD SWAP1 DUP2 MSTORE PUSH1 0x20 ADD PUSH1 0x0 KECCAK256 PUSH1 0x0 DUP3 ADD MLOAD DUP2 PUSH1 0x0 ADD PUSH1 0x0 PUSH2 0x100 EXP DUP2 SLOAD DUP2 PUSH20 0xFFFFFFFFFFFFFFFFFFFFFFFFFFFFFFFFFFFFFFFF MUL NOT AND SWAP1 DUP4 PUSH20 0xFFFFFFFFFFFFFFFFFFFFFFFFFFFFFFFFFFFFFFFF AND MUL OR SWAP1 SSTORE POP PUSH1 0x20 DUP3 ADD MLOAD DUP2 PUSH1 0x0 ADD PUSH1 0x14 PUSH2 0x100 EXP DUP2 SLOAD DUP2 PUSH8 0xFFFFFFFFFFFFFFFF MUL NOT AND SWAP1 DUP4 PUSH1 0x7 SIGNEXTEND PUSH8 0xFFFFFFFFFFFFFFFF AND MUL OR SWAP1 SSTORE POP PUSH1 0x40 DUP3 ADD MLOAD DUP2 PUSH1 0x0 ADD PUSH1 0x1C PUSH2 0x100 EXP DUP2 SLOAD DUP2 PUSH1 0xFF MUL NOT AND SWAP1 DUP4 ISZERO ISZERO MUL OR SWAP1 SSTORE POP PUSH1 0x60 DUP3 ADD MLOAD DUP2 PUSH1 0x1 ADD PUSH1 0x0 PUSH2 0x100 EXP DUP2 SLOAD DUP2 PUSH20 0xFFFFFFFFFFFFFFFFFFFFFFFFFFFFFFFFFFFFFFFF MUL NOT AND SWAP1 DUP4 PUSH20 0xFFFFFFFFFFFFFFFFFFFFFFFFFFFFFFFFFFFFFFFF AND MUL OR SWAP1 SSTORE POP PUSH1 0x80 DUP3 ADD MLOAD DUP2 PUSH1 0x2 ADD SWAP1 DUP1 MLOAD SWAP1 PUSH1 0x20 ADD SWAP1 PUSH2 0xBAB SWAP3 SWAP2 SWAP1 PUSH2 0x2172 JUMP JUMPDEST POP SWAP1 POP POP PUSH32 0xC86C0F4D7DCFCA9A81352087D1DD1BDE720D362E74AB52722809CC8C31766277 DUP4 DUP6 CALLER PUSH1 0x40 MLOAD PUSH2 0xBE2 SWAP4 SWAP3 SWAP2 SWAP1 PUSH2 0x285E JUMP JUMPDEST PUSH1 0x40 MLOAD DUP1 SWAP2 SUB SWAP1 LOG1 POP POP POP POP JUMP JUMPDEST PUSH1 0x0 PUSH2 0xBFB CALLER PUSH2 0x598 JUMP JUMPDEST SWAP1 POP CALLER PUSH20 0xFFFFFFFFFFFFFFFFFFFFFFFFFFFFFFFFFFFFFFFF AND DUP2 PUSH1 0x0 ADD MLOAD PUSH20 0xFFFFFFFFFFFFFFFFFFFFFFFFFFFFFFFFFFFFFFFF AND EQ PUSH2 0xC6F JUMPI PUSH1 0x40 MLOAD PUSH32 0x8C379A000000000000000000000000000000000000000000000000000000000 DUP2 MSTORE PUSH1 0x4 ADD PUSH2 0xC66 SWAP1 PUSH2 0x2915 JUMP JUMPDEST PUSH1 0x40 MLOAD DUP1 SWAP2 SUB SWAP1 REVERT JUMPDEST DUP2 DUP2 PUSH1 0x80 ADD DUP2 SWAP1 MSTORE POP DUP1 PUSH1 0x4 PUSH1 0x0 CALLER PUSH20 0xFFFFFFFFFFFFFFFFFFFFFFFFFFFFFFFFFFFFFFFF AND PUSH20 0xFFFFFFFFFFFFFFFFFFFFFFFFFFFFFFFFFFFFFFFF AND DUP2 MSTORE PUSH1 0x20 ADD SWAP1 DUP2 MSTORE PUSH1 0x20 ADD PUSH1 0x0 KECCAK256 PUSH1 0x0 DUP3 ADD MLOAD DUP2 PUSH1 0x0 ADD PUSH1 0x0 PUSH2 0x100 EXP DUP2 SLOAD DUP2 PUSH20 0xFFFFFFFFFFFFFFFFFFFFFFFFFFFFFFFFFFFFFFFF MUL NOT AND SWAP1 DUP4 PUSH20 0xFFFFFFFFFFFFFFFFFFFFFFFFFFFFFFFFFFFFFFFF AND MUL OR SWAP1 SSTORE POP PUSH1 0x20 DUP3 ADD MLOAD DUP2 PUSH1 0x0 ADD PUSH1 0x14 PUSH2 0x100 EXP DUP2 SLOAD DUP2 PUSH8 0xFFFFFFFFFFFFFFFF MUL NOT AND SWAP1 DUP4 PUSH1 0x7 SIGNEXTEND PUSH8 0xFFFFFFFFFFFFFFFF AND MUL OR SWAP1 SSTORE POP PUSH1 0x40 DUP3 ADD MLOAD DUP2 PUSH1 0x0 ADD PUSH1 0x1C PUSH2 0x100 EXP DUP2 SLOAD DUP2 PUSH1 0xFF MUL NOT AND SWAP1 DUP4 ISZERO ISZERO MUL OR SWAP1 SSTORE POP PUSH1 0x60 DUP3 ADD MLOAD DUP2 PUSH1 0x1 ADD PUSH1 0x0 PUSH2 0x100 EXP DUP2 SLOAD DUP2 PUSH20 0xFFFFFFFFFFFFFFFFFFFFFFFFFFFFFFFFFFFFFFFF MUL NOT AND SWAP1 DUP4 PUSH20 0xFFFFFFFFFFFFFFFFFFFFFFFFFFFFFFFFFFFFFFFF AND MUL OR SWAP1 SSTORE POP PUSH1 0x80 DUP3 ADD MLOAD DUP2 PUSH1 0x2 ADD SWAP1 DUP1 MLOAD SWAP1 PUSH1 0x20 ADD SWAP1 PUSH2 0xDB4 SWAP3 SWAP2 SWAP1 PUSH2 0x2172 JUMP JUMPDEST POP SWAP1 POP POP POP POP JUMP JUMPDEST PUSH1 0x0 PUSH1 0x1 SLOAD SWAP1 POP SWAP1 JUMP JUMPDEST PUSH1 0x5 DUP2 DUP1 MLOAD PUSH1 0x20 DUP2 ADD DUP3 ADD DUP1 MLOAD DUP5 DUP3 MSTORE PUSH1 0x20 DUP4 ADD PUSH1 0x20 DUP6 ADD KECCAK256 DUP2 DUP4 MSTORE DUP1 SWAP6 POP POP POP POP POP POP PUSH1 0x0 SWAP2 POP SLOAD SWAP1 PUSH2 0x100 EXP SWAP1 DIV PUSH20 0xFFFFFFFFFFFFFFFFFFFFFFFFFFFFFFFFFFFFFFFF AND DUP2 JUMP JUMPDEST PUSH1 0x0 PUSH2 0xE1A DUP4 PUSH2 0x555 JUMP JUMPDEST SWAP1 POP PUSH1 0x0 PUSH2 0xE27 DUP3 PUSH2 0x598 JUMP JUMPDEST SWAP1 POP PUSH1 0x0 PUSH2 0xE34 DUP5 PUSH2 0x555 JUMP JUMPDEST SWAP1 POP PUSH1 0x0 PUSH2 0xE41 DUP3 PUSH2 0x598 JUMP JUMPDEST SWAP1 POP POP POP POP POP POP POP JUMP JUMPDEST PUSH2 0xE53 PUSH2 0x1EE4 JUMP JUMPDEST PUSH20 0xFFFFFFFFFFFFFFFFFFFFFFFFFFFFFFFFFFFFFFFF AND PUSH2 0xE71 PUSH2 0x1245 JUMP JUMPDEST PUSH20 0xFFFFFFFFFFFFFFFFFFFFFFFFFFFFFFFFFFFFFFFF AND EQ PUSH2 0xEC7 JUMPI PUSH1 0x40 MLOAD PUSH32 0x8C379A000000000000000000000000000000000000000000000000000000000 DUP2 MSTORE PUSH1 0x4 ADD PUSH2 0xEBE SWAP1 PUSH2 0x2935 JUMP JUMPDEST PUSH1 0x40 MLOAD DUP1 SWAP2 SUB SWAP1 REVERT JUMPDEST PUSH1 0x0 PUSH1 0x4 PUSH1 0x0 DUP4 PUSH20 0xFFFFFFFFFFFFFFFFFFFFFFFFFFFFFFFFFFFFFFFF AND PUSH20 0xFFFFFFFFFFFFFFFFFFFFFFFFFFFFFFFFFFFFFFFF AND DUP2 MSTORE PUSH1 0x20 ADD SWAP1 DUP2 MSTORE PUSH1 0x20 ADD PUSH1 0x0 KECCAK256 PUSH1 0x0 ADD PUSH1 0x14 SWAP1 SLOAD SWAP1 PUSH2 0x100 EXP SWAP1 DIV PUSH1 0x7 SIGNEXTEND SWAP1 POP PUSH1 0x0 PUSH1 0x4 PUSH1 0x0 DUP5 PUSH20 0xFFFFFFFFFFFFFFFFFFFFFFFFFFFFFFFFFFFFFFFF AND PUSH20 0xFFFFFFFFFFFFFFFFFFFFFFFFFFFFFFFFFFFFFFFF AND DUP2 MSTORE PUSH1 0x20 ADD SWAP1 DUP2 MSTORE PUSH1 0x20 ADD PUSH1 0x0 KECCAK256 PUSH1 0x2 ADD DUP1 SLOAD PUSH2 0xF6A SWAP1 PUSH2 0x2B14 JUMP JUMPDEST DUP1 PUSH1 0x1F ADD PUSH1 0x20 DUP1 SWAP2 DIV MUL PUSH1 0x20 ADD PUSH1 0x40 MLOAD SWAP1 DUP2 ADD PUSH1 0x40 MSTORE DUP1 SWAP3 SWAP2 SWAP1 DUP2 DUP2 MSTORE PUSH1 0x20 ADD DUP3 DUP1 SLOAD PUSH2 0xF96 SWAP1 PUSH2 0x2B14 JUMP JUMPDEST DUP1 ISZERO PUSH2 0xFE3 JUMPI DUP1 PUSH1 0x1F LT PUSH2 0xFB8 JUMPI PUSH2 0x100 DUP1 DUP4 SLOAD DIV MUL DUP4 MSTORE SWAP2 PUSH1 0x20 ADD SWAP2 PUSH2 0xFE3 JUMP JUMPDEST DUP3 ADD SWAP2 SWAP1 PUSH1 0x0 MSTORE PUSH1 0x20 PUSH1 0x0 KECCAK256 SWAP1 JUMPDEST DUP2 SLOAD DUP2 MSTORE SWAP1 PUSH1 0x1 ADD SWAP1 PUSH1 0x20 ADD DUP1 DUP4 GT PUSH2 0xFC6 JUMPI DUP3 SWAP1 SUB PUSH1 0x1F AND DUP3 ADD SWAP2 JUMPDEST POP POP POP POP POP SWAP1 POP PUSH1 0x0 CHAINID SWAP1 POP PUSH1 0x4 DUP2 EQ PUSH2 0x1032 JUMPI PUSH1 0x40 MLOAD PUSH32 0x8C379A000000000000000000000000000000000000000000000000000000000 DUP2 MSTORE PUSH1 0x4 ADD PUSH2 0x1029 SWAP1 PUSH2 0x2955 JUMP JUMPDEST PUSH1 0x40 MLOAD DUP1 SWAP2 SUB SWAP1 REVERT JUMPDEST PUSH1 0x4 PUSH1 0x0 DUP6 PUSH20 0xFFFFFFFFFFFFFFFFFFFFFFFFFFFFFFFFFFFFFFFF AND PUSH20 0xFFFFFFFFFFFFFFFFFFFFFFFFFFFFFFFFFFFFFFFF AND DUP2 MSTORE PUSH1 0x20 ADD SWAP1 DUP2 MSTORE PUSH1 0x20 ADD PUSH1 0x0 KECCAK256 PUSH1 0x0 DUP1 DUP3 ADD PUSH1 0x0 PUSH2 0x100 EXP DUP2 SLOAD SWAP1 PUSH20 0xFFFFFFFFFFFFFFFFFFFFFFFFFFFFFFFFFFFFFFFF MUL NOT AND SWAP1 SSTORE PUSH1 0x0 DUP3 ADD PUSH1 0x14 PUSH2 0x100 EXP DUP2 SLOAD SWAP1 PUSH8 0xFFFFFFFFFFFFFFFF MUL NOT AND SWAP1 SSTORE PUSH1 0x0 DUP3 ADD PUSH1 0x1C PUSH2 0x100 EXP DUP2 SLOAD SWAP1 PUSH1 0xFF MUL NOT AND SWAP1 SSTORE PUSH1 0x1 DUP3 ADD PUSH1 0x0 PUSH2 0x100 EXP DUP2 SLOAD SWAP1 PUSH20 0xFFFFFFFFFFFFFFFFFFFFFFFFFFFFFFFFFFFFFFFF MUL NOT AND SWAP1 SSTORE PUSH1 0x2 DUP3 ADD PUSH1 0x0 PUSH2 0x10FF SWAP2 SWAP1 PUSH2 0x21F8 JUMP JUMPDEST POP POP PUSH1 0x3 PUSH1 0x0 DUP5 PUSH1 0x7 SIGNEXTEND PUSH1 0x7 SIGNEXTEND DUP2 MSTORE PUSH1 0x20 ADD SWAP1 DUP2 MSTORE PUSH1 0x20 ADD PUSH1 0x0 KECCAK256 PUSH1 0x0 PUSH2 0x100 EXP DUP2 SLOAD SWAP1 PUSH20 0xFFFFFFFFFFFFFFFFFFFFFFFFFFFFFFFFFFFFFFFF MUL NOT AND SWAP1 SSTORE PUSH1 0x5 DUP3 PUSH1 0x40 MLOAD PUSH2 0x114D SWAP2 SWAP1 PUSH2 0x2750 JUMP JUMPDEST SWAP1 DUP2 MSTORE PUSH1 0x20 ADD PUSH1 0x40 MLOAD DUP1 SWAP2 SUB SWAP1 KECCAK256 PUSH1 0x0 PUSH2 0x100 EXP DUP2 SLOAD SWAP1 PUSH20 0xFFFFFFFFFFFFFFFFFFFFFFFFFFFFFFFFFFFFFFFF MUL NOT AND SWAP1 SSTORE PUSH32 0x15DE234DA64D7247B81F8ECAC83B1D657B0ECAD3085534FBC525BC9CA4560FC DUP4 DUP6 PUSH1 0x40 MLOAD PUSH2 0x11AF SWAP3 SWAP2 SWAP1 PUSH2 0x280C JUMP JUMPDEST PUSH1 0x40 MLOAD DUP1 SWAP2 SUB SWAP1 LOG1 POP POP POP POP JUMP JUMPDEST PUSH2 0x11C5 PUSH2 0x1EE4 JUMP JUMPDEST PUSH20 0xFFFFFFFFFFFFFFFFFFFFFFFFFFFFFFFFFFFFFFFF AND PUSH2 0x11E3 PUSH2 0x1245 JUMP JUMPDEST PUSH20 0xFFFFFFFFFFFFFFFFFFFFFFFFFFFFFFFFFFFFFFFF AND EQ PUSH2 0x1239 JUMPI PUSH1 0x40 MLOAD PUSH32 0x8C379A000000000000000000000000000000000000000000000000000000000 DUP2 MSTORE PUSH1 0x4 ADD PUSH2 0x1230 SWAP1 PUSH2 0x2935 JUMP JUMPDEST PUSH1 0x40 MLOAD DUP1 SWAP2 SUB SWAP1 REVERT JUMPDEST PUSH2 0x1243 PUSH1 0x0 PUSH2 0x1EEC JUMP JUMPDEST JUMP JUMPDEST PUSH1 0x0 DUP1 PUSH1 0x0 SWAP1 SLOAD SWAP1 PUSH2 0x100 EXP SWAP1 DIV PUSH20 0xFFFFFFFFFFFFFFFFFFFFFFFFFFFFFFFFFFFFFFFF AND SWAP1 POP SWAP1 JUMP JUMPDEST PUSH1 0x3 PUSH1 0x20 MSTORE DUP1 PUSH1 0x0 MSTORE PUSH1 0x40 PUSH1 0x0 KECCAK256 PUSH1 0x0 SWAP2 POP SLOAD SWAP1 PUSH2 0x100 EXP SWAP1 DIV PUSH20 0xFFFFFFFFFFFFFFFFFFFFFFFFFFFFFFFFFFFFFFFF AND DUP2 JUMP JUMPDEST PUSH2 0x12A9 PUSH2 0x1EE4 JUMP JUMPDEST PUSH20 0xFFFFFFFFFFFFFFFFFFFFFFFFFFFFFFFFFFFFFFFF AND PUSH2 0x12C7 PUSH2 0x1245 JUMP JUMPDEST PUSH20 0xFFFFFFFFFFFFFFFFFFFFFFFFFFFFFFFFFFFFFFFF AND EQ PUSH2 0x131D JUMPI PUSH1 0x40 MLOAD PUSH32 0x8C379A000000000000000000000000000000000000000000000000000000000 DUP2 MSTORE PUSH1 0x4 ADD PUSH2 0x1314 SWAP1 PUSH2 0x2935 JUMP JUMPDEST PUSH1 0x40 MLOAD DUP1 SWAP2 SUB SWAP1 REVERT JUMPDEST PUSH1 0x0 PUSH1 0x4 PUSH1 0x0 DUP4 PUSH20 0xFFFFFFFFFFFFFFFFFFFFFFFFFFFFFFFFFFFFFFFF AND PUSH20 0xFFFFFFFFFFFFFFFFFFFFFFFFFFFFFFFFFFFFFFFF AND DUP2 MSTORE PUSH1 0x20 ADD SWAP1 DUP2 MSTORE PUSH1 0x20 ADD PUSH1 0x0 KECCAK256 PUSH1 0x0 ADD PUSH1 0x14 SWAP1 SLOAD SWAP1 PUSH2 0x100 EXP SWAP1 DIV PUSH1 0x7 SIGNEXTEND SWAP1 POP PUSH1 0x0 PUSH1 0x4 PUSH1 0x0 DUP5 PUSH20 0xFFFFFFFFFFFFFFFFFFFFFFFFFFFFFFFFFFFFFFFF AND PUSH20 0xFFFFFFFFFFFFFFFFFFFFFFFFFFFFFFFFFFFFFFFF AND DUP2 MSTORE PUSH1 0x20 ADD SWAP1 DUP2 MSTORE PUSH1 0x20 ADD PUSH1 0x0 KECCAK256 PUSH1 0x2 ADD DUP1 SLOAD PUSH2 0x13C0 SWAP1 PUSH2 0x2B14 JUMP JUMPDEST DUP1 PUSH1 0x1F ADD PUSH1 0x20 DUP1 SWAP2 DIV MUL PUSH1 0x20 ADD PUSH1 0x40 MLOAD SWAP1 DUP2 ADD PUSH1 0x40 MSTORE DUP1 SWAP3 SWAP2 SWAP1 DUP2 DUP2 MSTORE PUSH1 0x20 ADD DUP3 DUP1 SLOAD PUSH2 0x13EC SWAP1 PUSH2 0x2B14 JUMP JUMPDEST DUP1 ISZERO PUSH2 0x1439 JUMPI DUP1 PUSH1 0x1F LT PUSH2 0x140E JUMPI PUSH2 0x100 DUP1 DUP4 SLOAD DIV MUL DUP4 MSTORE SWAP2 PUSH1 0x20 ADD SWAP2 PUSH2 0x1439 JUMP JUMPDEST DUP3 ADD SWAP2 SWAP1 PUSH1 0x0 MSTORE PUSH1 0x20 PUSH1 0x0 KECCAK256 SWAP1 JUMPDEST DUP2 SLOAD DUP2 MSTORE SWAP1 PUSH1 0x1 ADD SWAP1 PUSH1 0x20 ADD DUP1 DUP4 GT PUSH2 0x141C JUMPI DUP3 SWAP1 SUB PUSH1 0x1F AND DUP3 ADD SWAP2 JUMPDEST POP POP POP POP POP SWAP1 POP PUSH1 0x0 ISZERO ISZERO PUSH1 0x4 PUSH1 0x0 DUP6 PUSH20 0xFFFFFFFFFFFFFFFFFFFFFFFFFFFFFFFFFFFFFFFF AND PUSH20 0xFFFFFFFFFFFFFFFFFFFFFFFFFFFFFFFFFFFFFFFF AND DUP2 MSTORE PUSH1 0x20 ADD SWAP1 DUP2 MSTORE PUSH1 0x20 ADD PUSH1 0x0 KECCAK256 PUSH1 0x0 ADD PUSH1 0x1C SWAP1 SLOAD SWAP1 PUSH2 0x100 EXP SWAP1 DIV PUSH1 0xFF AND ISZERO ISZERO EQ PUSH2 0x14D6 JUMPI PUSH1 0x40 MLOAD PUSH32 0x8C379A000000000000000000000000000000000000000000000000000000000 DUP2 MSTORE PUSH1 0x4 ADD PUSH2 0x14CD SWAP1 PUSH2 0x2975 JUMP JUMPDEST PUSH1 0x40 MLOAD DUP1 SWAP2 SUB SWAP1 REVERT JUMPDEST PUSH1 0x4 PUSH1 0x0 DUP5 PUSH20 0xFFFFFFFFFFFFFFFFFFFFFFFFFFFFFFFFFFFFFFFF AND PUSH20 0xFFFFFFFFFFFFFFFFFFFFFFFFFFFFFFFFFFFFFFFF AND DUP2 MSTORE PUSH1 0x20 ADD SWAP1 DUP2 MSTORE PUSH1 0x20 ADD PUSH1 0x0 KECCAK256 PUSH1 0x0 DUP1 DUP3 ADD PUSH1 0x0 PUSH2 0x100 EXP DUP2 SLOAD SWAP1 PUSH20 0xFFFFFFFFFFFFFFFFFFFFFFFFFFFFFFFFFFFFFFFF MUL NOT AND SWAP1 SSTORE PUSH1 0x0 DUP3 ADD PUSH1 0x14 PUSH2 0x100 EXP DUP2 SLOAD SWAP1 PUSH8 0xFFFFFFFFFFFFFFFF MUL NOT AND SWAP1 SSTORE PUSH1 0x0 DUP3 ADD PUSH1 0x1C PUSH2 0x100 EXP DUP2 SLOAD SWAP1 PUSH1 0xFF MUL NOT AND SWAP1 SSTORE PUSH1 0x1 DUP3 ADD PUSH1 0x0 PUSH2 0x100 EXP DUP2 SLOAD SWAP1 PUSH20 0xFFFFFFFFFFFFFFFFFFFFFFFFFFFFFFFFFFFFFFFF MUL NOT AND SWAP1 SSTORE PUSH1 0x2 DUP3 ADD PUSH1 0x0 PUSH2 0x15A3 SWAP2 SWAP1 PUSH2 0x21F8 JUMP JUMPDEST POP POP PUSH1 0x3 PUSH1 0x0 DUP4 PUSH1 0x7 SIGNEXTEND PUSH1 0x7 SIGNEXTEND DUP2 MSTORE PUSH1 0x20 ADD SWAP1 DUP2 MSTORE PUSH1 0x20 ADD PUSH1 0x0 KECCAK256 PUSH1 0x0 PUSH2 0x100 EXP DUP2 SLOAD SWAP1 PUSH20 0xFFFFFFFFFFFFFFFFFFFFFFFFFFFFFFFFFFFFFFFF MUL NOT AND SWAP1 SSTORE PUSH1 0x5 DUP2 PUSH1 0x40 MLOAD PUSH2 0x15F1 SWAP2 SWAP1 PUSH2 0x2750 JUMP JUMPDEST SWAP1 DUP2 MSTORE PUSH1 0x20 ADD PUSH1 0x40 MLOAD DUP1 SWAP2 SUB SWAP1 KECCAK256 PUSH1 0x0 PUSH2 0x100 EXP DUP2 SLOAD SWAP1 PUSH20 0xFFFFFFFFFFFFFFFFFFFFFFFFFFFFFFFFFFFFFFFF MUL NOT AND SWAP1 SSTORE PUSH32 0x15DE234DA64D7247B81F8ECAC83B1D657B0ECAD3085534FBC525BC9CA4560FC DUP3 DUP5 PUSH1 0x40 MLOAD PUSH2 0x1653 SWAP3 SWAP2 SWAP1 PUSH2 0x280C JUMP JUMPDEST PUSH1 0x40 MLOAD DUP1 SWAP2 SUB SWAP1 LOG1 POP POP POP JUMP JUMPDEST PUSH1 0x7 PUSH1 0x20 MSTORE DUP2 PUSH1 0x0 MSTORE PUSH1 0x40 PUSH1 0x0 KECCAK256 DUP2 DUP2 SLOAD DUP2 LT PUSH2 0x167C JUMPI PUSH1 0x0 DUP1 REVERT JUMPDEST SWAP1 PUSH1 0x0 MSTORE PUSH1 0x20 PUSH1 0x0 KECCAK256 SWAP1 PUSH1 0x4 SWAP2 DUP3 DUP3 DIV ADD SWAP2 SWAP1 MOD PUSH1 0x8 MUL SWAP2 POP SWAP2 POP SWAP1 SLOAD SWAP1 PUSH2 0x100 EXP SWAP1 DIV PUSH1 0x7 SIGNEXTEND DUP2 JUMP JUMPDEST PUSH2 0x16AE PUSH2 0x2112 JUMP JUMPDEST PUSH1 0x0 PUSH2 0x16B9 DUP4 PUSH2 0x18CF JUMP JUMPDEST SWAP1 POP PUSH1 0x0 PUSH1 0x4 PUSH1 0x0 DUP4 PUSH20 0xFFFFFFFFFFFFFFFFFFFFFFFFFFFFFFFFFFFFFFFF AND PUSH20 0xFFFFFFFFFFFFFFFFFFFFFFFFFFFFFFFFFFFFFFFF AND DUP2 MSTORE PUSH1 0x20 ADD SWAP1 DUP2 MSTORE PUSH1 0x20 ADD PUSH1 0x0 KECCAK256 PUSH1 0x40 MLOAD DUP1 PUSH1 0xA0 ADD PUSH1 0x40 MSTORE SWAP1 DUP2 PUSH1 0x0 DUP3 ADD PUSH1 0x0 SWAP1 SLOAD SWAP1 PUSH2 0x100 EXP SWAP1 DIV PUSH20 0xFFFFFFFFFFFFFFFFFFFFFFFFFFFFFFFFFFFFFFFF AND PUSH20 0xFFFFFFFFFFFFFFFFFFFFFFFFFFFFFFFFFFFFFFFF AND PUSH20 0xFFFFFFFFFFFFFFFFFFFFFFFFFFFFFFFFFFFFFFFF AND DUP2 MSTORE PUSH1 0x20 ADD PUSH1 0x0 DUP3 ADD PUSH1 0x14 SWAP1 SLOAD SWAP1 PUSH2 0x100 EXP SWAP1 DIV PUSH1 0x7 SIGNEXTEND PUSH1 0x7 SIGNEXTEND PUSH1 0x7 SIGNEXTEND DUP2 MSTORE PUSH1 0x20 ADD PUSH1 0x0 DUP3 ADD PUSH1 0x1C SWAP1 SLOAD SWAP1 PUSH2 0x100 EXP SWAP1 DIV PUSH1 0xFF AND ISZERO ISZERO ISZERO ISZERO DUP2 MSTORE PUSH1 0x20 ADD PUSH1 0x1 DUP3 ADD PUSH1 0x0 SWAP1 SLOAD SWAP1 PUSH2 0x100 EXP SWAP1 DIV PUSH20 0xFFFFFFFFFFFFFFFFFFFFFFFFFFFFFFFFFFFFFFFF AND PUSH20 0xFFFFFFFFFFFFFFFFFFFFFFFFFFFFFFFFFFFFFFFF AND PUSH20 0xFFFFFFFFFFFFFFFFFFFFFFFFFFFFFFFFFFFFFFFF AND DUP2 MSTORE PUSH1 0x20 ADD PUSH1 0x2 DUP3 ADD DUP1 SLOAD PUSH2 0x17FB SWAP1 PUSH2 0x2B14 JUMP JUMPDEST DUP1 PUSH1 0x1F ADD PUSH1 0x20 DUP1 SWAP2 DIV MUL PUSH1 0x20 ADD PUSH1 0x40 MLOAD SWAP1 DUP2 ADD PUSH1 0x40 MSTORE DUP1 SWAP3 SWAP2 SWAP1 DUP2 DUP2 MSTORE PUSH1 0x20 ADD DUP3 DUP1 SLOAD PUSH2 0x1827 SWAP1 PUSH2 0x2B14 JUMP JUMPDEST DUP1 ISZERO PUSH2 0x1874 JUMPI DUP1 PUSH1 0x1F LT PUSH2 0x1849 JUMPI PUSH2 0x100 DUP1 DUP4 SLOAD DIV MUL DUP4 MSTORE SWAP2 PUSH1 0x20 ADD SWAP2 PUSH2 0x1874 JUMP JUMPDEST DUP3 ADD SWAP2 SWAP1 PUSH1 0x0 MSTORE PUSH1 0x20 PUSH1 0x0 KECCAK256 SWAP1 JUMPDEST DUP2 SLOAD DUP2 MSTORE SWAP1 PUSH1 0x1 ADD SWAP1 PUSH1 0x20 ADD DUP1 DUP4 GT PUSH2 0x1857 JUMPI DUP3 SWAP1 SUB PUSH1 0x1F AND DUP3 ADD SWAP2 JUMPDEST POP POP POP POP POP DUP2 MSTORE POP POP SWAP1 POP DUP1 SWAP3 POP POP POP SWAP2 SWAP1 POP JUMP JUMPDEST PUSH1 0x6 PUSH1 0x20 MSTORE DUP2 PUSH1 0x0 MSTORE PUSH1 0x40 PUSH1 0x0 KECCAK256 DUP2 DUP2 SLOAD DUP2 LT PUSH2 0x18A5 JUMPI PUSH1 0x0 DUP1 REVERT JUMPDEST SWAP1 PUSH1 0x0 MSTORE PUSH1 0x20 PUSH1 0x0 KECCAK256 SWAP1 PUSH1 0x4 SWAP2 DUP3 DUP3 DIV ADD SWAP2 SWAP1 MOD PUSH1 0x8 MUL SWAP2 POP SWAP2 POP SWAP1 SLOAD SWAP1 PUSH2 0x100 EXP SWAP1 DIV PUSH1 0x7 SIGNEXTEND DUP2 JUMP JUMPDEST PUSH1 0x0 PUSH1 0x5 DUP3 PUSH1 0x40 MLOAD PUSH2 0x18E1 SWAP2 SWAP1 PUSH2 0x2750 JUMP JUMPDEST SWAP1 DUP2 MSTORE PUSH1 0x20 ADD PUSH1 0x40 MLOAD DUP1 SWAP2 SUB SWAP1 KECCAK256 PUSH1 0x0 SWAP1 SLOAD SWAP1 PUSH2 0x100 EXP SWAP1 DIV PUSH20 0xFFFFFFFFFFFFFFFFFFFFFFFFFFFFFFFFFFFFFFFF AND SWAP1 POP SWAP2 SWAP1 POP JUMP JUMPDEST PUSH2 0x191F PUSH2 0x1EE4 JUMP JUMPDEST PUSH20 0xFFFFFFFFFFFFFFFFFFFFFFFFFFFFFFFFFFFFFFFF AND PUSH2 0x193D PUSH2 0x1245 JUMP JUMPDEST PUSH20 0xFFFFFFFFFFFFFFFFFFFFFFFFFFFFFFFFFFFFFFFF AND EQ PUSH2 0x1993 JUMPI PUSH1 0x40 MLOAD PUSH32 0x8C379A000000000000000000000000000000000000000000000000000000000 DUP2 MSTORE PUSH1 0x4 ADD PUSH2 0x198A SWAP1 PUSH2 0x2935 JUMP JUMPDEST PUSH1 0x40 MLOAD DUP1 SWAP2 SUB SWAP1 REVERT JUMPDEST DUP1 PUSH1 0x1 DUP2 SWAP1 SSTORE POP POP JUMP JUMPDEST PUSH1 0x0 CALLER SWAP1 POP PUSH2 0x19AD DUP4 DUP3 DUP5 PUSH2 0x1FB0 JUMP JUMPDEST PUSH1 0x1 SLOAD CALLVALUE EQ PUSH2 0x19F1 JUMPI PUSH1 0x40 MLOAD PUSH32 0x8C379A000000000000000000000000000000000000000000000000000000000 DUP2 MSTORE PUSH1 0x4 ADD PUSH2 0x19E8 SWAP1 PUSH2 0x28F5 JUMP JUMPDEST PUSH1 0x40 MLOAD DUP1 SWAP2 SUB SWAP1 REVERT JUMPDEST PUSH1 0x40 MLOAD DUP1 PUSH1 0xA0 ADD PUSH1 0x40 MSTORE DUP1 DUP3 PUSH20 0xFFFFFFFFFFFFFFFFFFFFFFFFFFFFFFFFFFFFFFFF AND DUP2 MSTORE PUSH1 0x20 ADD DUP5 PUSH1 0x7 SIGNEXTEND DUP2 MSTORE PUSH1 0x20 ADD PUSH1 0x0 ISZERO ISZERO DUP2 MSTORE PUSH1 0x20 ADD PUSH1 0x0 PUSH20 0xFFFFFFFFFFFFFFFFFFFFFFFFFFFFFFFFFFFFFFFF AND DUP2 MSTORE PUSH1 0x20 ADD DUP4 DUP2 MSTORE POP PUSH1 0x4 PUSH1 0x0 CALLER PUSH20 0xFFFFFFFFFFFFFFFFFFFFFFFFFFFFFFFFFFFFFFFF AND PUSH20 0xFFFFFFFFFFFFFFFFFFFFFFFFFFFFFFFFFFFFFFFF AND DUP2 MSTORE PUSH1 0x20 ADD SWAP1 DUP2 MSTORE PUSH1 0x20 ADD PUSH1 0x0 KECCAK256 PUSH1 0x0 DUP3 ADD MLOAD DUP2 PUSH1 0x0 ADD PUSH1 0x0 PUSH2 0x100 EXP DUP2 SLOAD DUP2 PUSH20 0xFFFFFFFFFFFFFFFFFFFFFFFFFFFFFFFFFFFFFFFF MUL NOT AND SWAP1 DUP4 PUSH20 0xFFFFFFFFFFFFFFFFFFFFFFFFFFFFFFFFFFFFFFFF AND MUL OR SWAP1 SSTORE POP PUSH1 0x20 DUP3 ADD MLOAD DUP2 PUSH1 0x0 ADD PUSH1 0x14 PUSH2 0x100 EXP DUP2 SLOAD DUP2 PUSH8 0xFFFFFFFFFFFFFFFF MUL NOT AND SWAP1 DUP4 PUSH1 0x7 SIGNEXTEND PUSH8 0xFFFFFFFFFFFFFFFF AND MUL OR SWAP1 SSTORE POP PUSH1 0x40 DUP3 ADD MLOAD DUP2 PUSH1 0x0 ADD PUSH1 0x1C PUSH2 0x100 EXP DUP2 SLOAD DUP2 PUSH1 0xFF MUL NOT AND SWAP1 DUP4 ISZERO ISZERO MUL OR SWAP1 SSTORE POP PUSH1 0x60 DUP3 ADD MLOAD DUP2 PUSH1 0x1 ADD PUSH1 0x0 PUSH2 0x100 EXP DUP2 SLOAD DUP2 PUSH20 0xFFFFFFFFFFFFFFFFFFFFFFFFFFFFFFFFFFFFFFFF MUL NOT AND SWAP1 DUP4 PUSH20 0xFFFFFFFFFFFFFFFFFFFFFFFFFFFFFFFFFFFFFFFF AND MUL OR SWAP1 SSTORE POP PUSH1 0x80 DUP3 ADD MLOAD DUP2 PUSH1 0x2 ADD SWAP1 DUP1 MLOAD SWAP1 PUSH1 0x20 ADD SWAP1 PUSH2 0x1B86 SWAP3 SWAP2 SWAP1 PUSH2 0x2172 JUMP JUMPDEST POP SWAP1 POP POP PUSH32 0xCB042D04619E497175F63CE8EC9B9127CB0BF344FACC37DB4FE8492C2ECFBB9E DUP4 CALLER PUSH1 0x40 MLOAD PUSH2 0x1BBB SWAP3 SWAP2 SWAP1 PUSH2 0x2835 JUMP JUMPDEST PUSH1 0x40 MLOAD DUP1 SWAP2 SUB SWAP1 LOG1 DUP3 PUSH1 0x7 SIGNEXTEND PUSH32 0x2D329F0D038DED94203A58E5BE2F2F41B14CBBC49CC1F89443696606F104658C CALLER PUSH1 0x40 MLOAD PUSH2 0x1BF6 SWAP2 SWAP1 PUSH2 0x277C JUMP JUMPDEST PUSH1 0x40 MLOAD DUP1 SWAP2 SUB SWAP1 LOG2 PUSH1 0x0 PUSH1 0x2 PUSH1 0x0 SWAP1 SLOAD SWAP1 PUSH2 0x100 EXP SWAP1 DIV PUSH20 0xFFFFFFFFFFFFFFFFFFFFFFFFFFFFFFFFFFFFFFFF AND PUSH20 0xFFFFFFFFFFFFFFFFFFFFFFFFFFFFFFFFFFFFFFFF AND PUSH1 0x1 SLOAD PUSH1 0x40 MLOAD PUSH2 0x1C48 SWAP1 PUSH2 0x2767 JUMP JUMPDEST PUSH1 0x0 PUSH1 0x40 MLOAD DUP1 DUP4 SUB DUP2 DUP6 DUP8 GAS CALL SWAP3 POP POP POP RETURNDATASIZE DUP1 PUSH1 0x0 DUP2 EQ PUSH2 0x1C85 JUMPI PUSH1 0x40 MLOAD SWAP2 POP PUSH1 0x1F NOT PUSH1 0x3F RETURNDATASIZE ADD AND DUP3 ADD PUSH1 0x40 MSTORE RETURNDATASIZE DUP3 MSTORE RETURNDATASIZE PUSH1 0x0 PUSH1 0x20 DUP5 ADD RETURNDATACOPY PUSH2 0x1C8A JUMP JUMPDEST PUSH1 0x60 SWAP2 POP JUMPDEST POP POP SWAP1 POP DUP1 PUSH2 0x1CCE JUMPI PUSH1 0x40 MLOAD PUSH32 0x8C379A000000000000000000000000000000000000000000000000000000000 DUP2 MSTORE PUSH1 0x4 ADD PUSH2 0x1CC5 SWAP1 PUSH2 0x28B5 JUMP JUMPDEST PUSH1 0x40 MLOAD DUP1 SWAP2 SUB SWAP1 REVERT JUMPDEST POP POP POP POP JUMP JUMPDEST PUSH1 0x4 PUSH1 0x20 MSTORE DUP1 PUSH1 0x0 MSTORE PUSH1 0x40 PUSH1 0x0 KECCAK256 PUSH1 0x0 SWAP2 POP SWAP1 POP DUP1 PUSH1 0x0 ADD PUSH1 0x0 SWAP1 SLOAD SWAP1 PUSH2 0x100 EXP SWAP1 DIV PUSH20 0xFFFFFFFFFFFFFFFFFFFFFFFFFFFFFFFFFFFFFFFF AND SWAP1 DUP1 PUSH1 0x0 ADD PUSH1 0x14 SWAP1 SLOAD SWAP1 PUSH2 0x100 EXP SWAP1 DIV PUSH1 0x7 SIGNEXTEND SWAP1 DUP1 PUSH1 0x0 ADD PUSH1 0x1C SWAP1 SLOAD SWAP1 PUSH2 0x100 EXP SWAP1 DIV PUSH1 0xFF AND SWAP1 DUP1 PUSH1 0x1 ADD PUSH1 0x0 SWAP1 SLOAD SWAP1 PUSH2 0x100 EXP SWAP1 DIV PUSH20 0xFFFFFFFFFFFFFFFFFFFFFFFFFFFFFFFFFFFFFFFF AND SWAP1 DUP1 PUSH1 0x2 ADD DUP1 SLOAD PUSH2 0x1D69 SWAP1 PUSH2 0x2B14 JUMP JUMPDEST DUP1 PUSH1 0x1F ADD PUSH1 0x20 DUP1 SWAP2 DIV MUL PUSH1 0x20 ADD PUSH1 0x40 MLOAD SWAP1 DUP2 ADD PUSH1 0x40 MSTORE DUP1 SWAP3 SWAP2 SWAP1 DUP2 DUP2 MSTORE PUSH1 0x20 ADD DUP3 DUP1 SLOAD PUSH2 0x1D95 SWAP1 PUSH2 0x2B14 JUMP JUMPDEST DUP1 ISZERO PUSH2 0x1DE2 JUMPI DUP1 PUSH1 0x1F LT PUSH2 0x1DB7 JUMPI PUSH2 0x100 DUP1 DUP4 SLOAD DIV MUL DUP4 MSTORE SWAP2 PUSH1 0x20 ADD SWAP2 PUSH2 0x1DE2 JUMP JUMPDEST DUP3 ADD SWAP2 SWAP1 PUSH1 0x0 MSTORE PUSH1 0x20 PUSH1 0x0 KECCAK256 SWAP1 JUMPDEST DUP2 SLOAD DUP2 MSTORE SWAP1 PUSH1 0x1 ADD SWAP1 PUSH1 0x20 ADD DUP1 DUP4 GT PUSH2 0x1DC5 JUMPI DUP3 SWAP1 SUB PUSH1 0x1F AND DUP3 ADD SWAP2 JUMPDEST POP POP POP POP POP SWAP1 POP DUP6 JUMP JUMPDEST PUSH2 0x1DF4 PUSH2 0x1EE4 JUMP JUMPDEST PUSH20 0xFFFFFFFFFFFFFFFFFFFFFFFFFFFFFFFFFFFFFFFF AND PUSH2 0x1E12 PUSH2 0x1245 JUMP JUMPDEST PUSH20 0xFFFFFFFFFFFFFFFFFFFFFFFFFFFFFFFFFFFFFFFF AND EQ PUSH2 0x1E68 JUMPI PUSH1 0x40 MLOAD PUSH32 0x8C379A000000000000000000000000000000000000000000000000000000000 DUP2 MSTORE PUSH1 0x4 ADD PUSH2 0x1E5F SWAP1 PUSH2 0x2935 JUMP JUMPDEST PUSH1 0x40 MLOAD DUP1 SWAP2 SUB SWAP1 REVERT JUMPDEST PUSH1 0x0 PUSH20 0xFFFFFFFFFFFFFFFFFFFFFFFFFFFFFFFFFFFFFFFF AND DUP2 PUSH20 0xFFFFFFFFFFFFFFFFFFFFFFFFFFFFFFFFFFFFFFFF AND EQ ISZERO PUSH2 0x1ED8 JUMPI PUSH1 0x40 MLOAD PUSH32 0x8C379A000000000000000000000000000000000000000000000000000000000 DUP2 MSTORE PUSH1 0x4 ADD PUSH2 0x1ECF SWAP1 PUSH2 0x2895 JUMP JUMPDEST PUSH1 0x40 MLOAD DUP1 SWAP2 SUB SWAP1 REVERT JUMPDEST PUSH2 0x1EE1 DUP2 PUSH2 0x1EEC JUMP JUMPDEST POP JUMP JUMPDEST PUSH1 0x0 CALLER SWAP1 POP SWAP1 JUMP JUMPDEST PUSH1 0x0 DUP1 PUSH1 0x0 SWAP1 SLOAD SWAP1 PUSH2 0x100 EXP SWAP1 DIV PUSH20 0xFFFFFFFFFFFFFFFFFFFFFFFFFFFFFFFFFFFFFFFF AND SWAP1 POP DUP2 PUSH1 0x0 DUP1 PUSH2 0x100 EXP DUP2 SLOAD DUP2 PUSH20 0xFFFFFFFFFFFFFFFFFFFFFFFFFFFFFFFFFFFFFFFF MUL NOT AND SWAP1 DUP4 PUSH20 0xFFFFFFFFFFFFFFFFFFFFFFFFFFFFFFFFFFFFFFFF AND MUL OR SWAP1 SSTORE POP DUP2 PUSH20 0xFFFFFFFFFFFFFFFFFFFFFFFFFFFFFFFFFFFFFFFF AND DUP2 PUSH20 0xFFFFFFFFFFFFFFFFFFFFFFFFFFFFFFFFFFFFFFFF AND PUSH32 0x8BE0079C531659141344CD1FD0A4F28419497F9722A3DAAFE3B4186F6B6457E0 PUSH1 0x40 MLOAD PUSH1 0x40 MLOAD DUP1 SWAP2 SUB SWAP1 LOG3 POP POP JUMP JUMPDEST PUSH1 0x0 PUSH20 0xFFFFFFFFFFFFFFFFFFFFFFFFFFFFFFFFFFFFFFFF AND PUSH1 0x3 PUSH1 0x0 DUP6 PUSH1 0x7 SIGNEXTEND PUSH1 0x7 SIGNEXTEND DUP2 MSTORE PUSH1 0x20 ADD SWAP1 DUP2 MSTORE PUSH1 0x20 ADD PUSH1 0x0 KECCAK256 PUSH1 0x0 SWAP1 SLOAD SWAP1 PUSH2 0x100 EXP SWAP1 DIV PUSH20 0xFFFFFFFFFFFFFFFFFFFFFFFFFFFFFFFFFFFFFFFF AND PUSH20 0xFFFFFFFFFFFFFFFFFFFFFFFFFFFFFFFFFFFFFFFF AND EQ PUSH2 0x2058 JUMPI PUSH1 0x40 MLOAD PUSH32 0x8C379A000000000000000000000000000000000000000000000000000000000 DUP2 MSTORE PUSH1 0x4 ADD PUSH2 0x204F SWAP1 PUSH2 0x28D5 JUMP JUMPDEST PUSH1 0x40 MLOAD DUP1 SWAP2 SUB SWAP1 REVERT JUMPDEST DUP2 PUSH1 0x3 PUSH1 0x0 DUP6 PUSH1 0x7 SIGNEXTEND PUSH1 0x7 SIGNEXTEND DUP2 MSTORE PUSH1 0x20 ADD SWAP1 DUP2 MSTORE PUSH1 0x20 ADD PUSH1 0x0 KECCAK256 PUSH1 0x0 PUSH2 0x100 EXP DUP2 SLOAD DUP2 PUSH20 0xFFFFFFFFFFFFFFFFFFFFFFFFFFFFFFFFFFFFFFFF MUL NOT AND SWAP1 DUP4 PUSH20 0xFFFFFFFFFFFFFFFFFFFFFFFFFFFFFFFFFFFFFFFF AND MUL OR SWAP1 SSTORE POP DUP2 PUSH1 0x5 DUP3 PUSH1 0x40 MLOAD PUSH2 0x20C1 SWAP2 SWAP1 PUSH2 0x2750 JUMP JUMPDEST SWAP1 DUP2 MSTORE PUSH1 0x20 ADD PUSH1 0x40 MLOAD DUP1 SWAP2 SUB SWAP1 KECCAK256 PUSH1 0x0 PUSH2 0x100 EXP DUP2 SLOAD DUP2 PUSH20 0xFFFFFFFFFFFFFFFFFFFFFFFFFFFFFFFFFFFFFFFF MUL NOT AND SWAP1 DUP4 PUSH20 0xFFFFFFFFFFFFFFFFFFFFFFFFFFFFFFFFFFFFFFFF AND MUL OR SWAP1 SSTORE POP POP POP POP JUMP JUMPDEST PUSH1 0x40 MLOAD DUP1 PUSH1 0xA0 ADD PUSH1 0x40 MSTORE DUP1 PUSH1 0x0 PUSH20 0xFFFFFFFFFFFFFFFFFFFFFFFFFFFFFFFFFFFFFFFF AND DUP2 MSTORE PUSH1 0x20 ADD PUSH1 0x0 PUSH1 0x7 SIGNEXTEND DUP2 MSTORE PUSH1 0x20 ADD PUSH1 0x0 ISZERO ISZERO DUP2 MSTORE PUSH1 0x20 ADD PUSH1 0x0 PUSH20 0xFFFFFFFFFFFFFFFFFFFFFFFFFFFFFFFFFFFFFFFF AND DUP2 MSTORE PUSH1 0x20 ADD PUSH1 0x60 DUP2 MSTORE POP SWAP1 JUMP JUMPDEST DUP3 DUP1 SLOAD PUSH2 0x217E SWAP1 PUSH2 0x2B14 JUMP JUMPDEST SWAP1 PUSH1 0x0 MSTORE PUSH1 0x20 PUSH1 0x0 KECCAK256 SWAP1 PUSH1 0x1F ADD PUSH1 0x20 SWAP1 DIV DUP2 ADD SWAP3 DUP3 PUSH2 0x21A0 JUMPI PUSH1 0x0 DUP6 SSTORE PUSH2 0x21E7 JUMP JUMPDEST DUP3 PUSH1 0x1F LT PUSH2 0x21B9 JUMPI DUP1 MLOAD PUSH1 0xFF NOT AND DUP4 DUP1 ADD OR DUP6 SSTORE PUSH2 0x21E7 JUMP JUMPDEST DUP3 DUP1 ADD PUSH1 0x1 ADD DUP6 SSTORE DUP3 ISZERO PUSH2 0x21E7 JUMPI SWAP2 DUP3 ADD JUMPDEST DUP3 DUP2 GT ISZERO PUSH2 0x21E6 JUMPI DUP3 MLOAD DUP3 SSTORE SWAP2 PUSH1 0x20 ADD SWAP2 SWAP1 PUSH1 0x1 ADD SWAP1 PUSH2 0x21CB JUMP JUMPDEST JUMPDEST POP SWAP1 POP PUSH2 0x21F4 SWAP2 SWAP1 PUSH2 0x2238 JUMP JUMPDEST POP SWAP1 JUMP JUMPDEST POP DUP1 SLOAD PUSH2 0x2204 SWAP1 PUSH2 0x2B14 JUMP JUMPDEST PUSH1 0x0 DUP3 SSTORE DUP1 PUSH1 0x1F LT PUSH2 0x2216 JUMPI POP PUSH2 0x2235 JUMP JUMPDEST PUSH1 0x1F ADD PUSH1 0x20 SWAP1 DIV SWAP1 PUSH1 0x0 MSTORE PUSH1 0x20 PUSH1 0x0 KECCAK256 SWAP1 DUP2 ADD SWAP1 PUSH2 0x2234 SWAP2 SWAP1 PUSH2 0x2238 JUMP JUMPDEST JUMPDEST POP JUMP JUMPDEST JUMPDEST DUP1 DUP3 GT ISZERO PUSH2 0x2251 JUMPI PUSH1 0x0 DUP2 PUSH1 0x0 SWAP1 SSTORE POP PUSH1 0x1 ADD PUSH2 0x2239 JUMP JUMPDEST POP SWAP1 JUMP JUMPDEST PUSH1 0x0 PUSH2 0x2268 PUSH2 0x2263 DUP5 PUSH2 0x29F7 JUMP JUMPDEST PUSH2 0x29D2 JUMP JUMPDEST SWAP1 POP DUP3 DUP2 MSTORE PUSH1 0x20 DUP2 ADD DUP5 DUP5 DUP5 ADD GT ISZERO PUSH2 0x2280 JUMPI PUSH1 0x0 DUP1 REVERT JUMPDEST PUSH2 0x228B DUP5 DUP3 DUP6 PUSH2 0x2AD2 JUMP JUMPDEST POP SWAP4 SWAP3 POP POP POP JUMP JUMPDEST PUSH1 0x0 DUP2 CALLDATALOAD SWAP1 POP PUSH2 0x22A2 DUP2 PUSH2 0x2DC9 JUMP JUMPDEST SWAP3 SWAP2 POP POP JUMP JUMPDEST PUSH1 0x0 DUP2 CALLDATALOAD SWAP1 POP PUSH2 0x22B7 DUP2 PUSH2 0x2DE0 JUMP JUMPDEST SWAP3 SWAP2 POP POP JUMP JUMPDEST PUSH1 0x0 DUP3 PUSH1 0x1F DUP4 ADD SLT PUSH2 0x22CE JUMPI PUSH1 0x0 DUP1 REVERT JUMPDEST DUP2 CALLDATALOAD PUSH2 0x22DE DUP5 DUP3 PUSH1 0x20 DUP7 ADD PUSH2 0x2255 JUMP JUMPDEST SWAP2 POP POP SWAP3 SWAP2 POP POP JUMP JUMPDEST PUSH1 0x0 DUP2 CALLDATALOAD SWAP1 POP PUSH2 0x22F6 DUP2 PUSH2 0x2DF7 JUMP JUMPDEST SWAP3 SWAP2 POP POP JUMP JUMPDEST PUSH1 0x0 PUSH1 0x20 DUP3 DUP5 SUB SLT ISZERO PUSH2 0x230E JUMPI PUSH1 0x0 DUP1 REVERT JUMPDEST PUSH1 0x0 PUSH2 0x231C DUP5 DUP3 DUP6 ADD PUSH2 0x2293 JUMP JUMPDEST SWAP2 POP POP SWAP3 SWAP2 POP POP JUMP JUMPDEST PUSH1 0x0 PUSH1 0x20 DUP3 DUP5 SUB SLT ISZERO PUSH2 0x2337 JUMPI PUSH1 0x0 DUP1 REVERT JUMPDEST PUSH1 0x0 PUSH2 0x2345 DUP5 DUP3 DUP6 ADD PUSH2 0x22A8 JUMP JUMPDEST SWAP2 POP POP SWAP3 SWAP2 POP POP JUMP JUMPDEST PUSH1 0x0 DUP1 PUSH1 0x40 DUP4 DUP6 SUB SLT ISZERO PUSH2 0x2361 JUMPI PUSH1 0x0 DUP1 REVERT JUMPDEST PUSH1 0x0 PUSH2 0x236F DUP6 DUP3 DUP7 ADD PUSH2 0x22A8 JUMP JUMPDEST SWAP3 POP POP PUSH1 0x20 PUSH2 0x2380 DUP6 DUP3 DUP7 ADD PUSH2 0x22A8 JUMP JUMPDEST SWAP2 POP POP SWAP3 POP SWAP3 SWAP1 POP JUMP JUMPDEST PUSH1 0x0 DUP1 PUSH1 0x40 DUP4 DUP6 SUB SLT ISZERO PUSH2 0x239D JUMPI PUSH1 0x0 DUP1 REVERT JUMPDEST PUSH1 0x0 PUSH2 0x23AB DUP6 DUP3 DUP7 ADD PUSH2 0x22A8 JUMP JUMPDEST SWAP3 POP POP PUSH1 0x20 DUP4 ADD CALLDATALOAD PUSH8 0xFFFFFFFFFFFFFFFF DUP2 GT ISZERO PUSH2 0x23C8 JUMPI PUSH1 0x0 DUP1 REVERT JUMPDEST PUSH2 0x23D4 DUP6 DUP3 DUP7 ADD PUSH2 0x22BD JUMP JUMPDEST SWAP2 POP POP SWAP3 POP SWAP3 SWAP1 POP JUMP JUMPDEST PUSH1 0x0 DUP1 PUSH1 0x40 DUP4 DUP6 SUB SLT ISZERO PUSH2 0x23F1 JUMPI PUSH1 0x0 DUP1 REVERT JUMPDEST PUSH1 0x0 PUSH2 0x23FF DUP6 DUP3 DUP7 ADD PUSH2 0x22A8 JUMP JUMPDEST SWAP3 POP POP PUSH1 0x20 PUSH2 0x2410 DUP6 DUP3 DUP7 ADD PUSH2 0x22E7 JUMP JUMPDEST SWAP2 POP POP SWAP3 POP SWAP3 SWAP1 POP JUMP JUMPDEST PUSH1 0x0 PUSH1 0x20 DUP3 DUP5 SUB SLT ISZERO PUSH2 0x242C JUMPI PUSH1 0x0 DUP1 REVERT JUMPDEST PUSH1 0x0 DUP3 ADD CALLDATALOAD PUSH8 0xFFFFFFFFFFFFFFFF DUP2 GT ISZERO PUSH2 0x2446 JUMPI PUSH1 0x0 DUP1 REVERT JUMPDEST PUSH2 0x2452 DUP5 DUP3 DUP6 ADD PUSH2 0x22BD JUMP JUMPDEST SWAP2 POP POP SWAP3 SWAP2 POP POP JUMP JUMPDEST PUSH1 0x0 PUSH1 0x20 DUP3 DUP5 SUB SLT ISZERO PUSH2 0x246D JUMPI PUSH1 0x0 DUP1 REVERT JUMPDEST PUSH1 0x0 PUSH2 0x247B DUP5 DUP3 DUP6 ADD PUSH2 0x22E7 JUMP JUMPDEST SWAP2 POP POP SWAP3 SWAP2 POP POP JUMP JUMPDEST PUSH2 0x248D DUP2 PUSH2 0x2A6B JUMP JUMPDEST DUP3 MSTORE POP POP JUMP JUMPDEST PUSH2 0x249C DUP2 PUSH2 0x2A6B JUMP JUMPDEST DUP3 MSTORE POP POP JUMP JUMPDEST PUSH2 0x24AB DUP2 PUSH2 0x2A7D JUMP JUMPDEST DUP3 MSTORE POP POP JUMP JUMPDEST PUSH2 0x24BA DUP2 PUSH2 0x2A7D JUMP JUMPDEST DUP3 MSTORE POP POP JUMP JUMPDEST PUSH2 0x24C9 DUP2 PUSH2 0x2AC0 JUMP JUMPDEST DUP3 MSTORE POP POP JUMP JUMPDEST PUSH2 0x24D8 DUP2 PUSH2 0x2A89 JUMP JUMPDEST DUP3 MSTORE POP POP JUMP JUMPDEST PUSH2 0x24E7 DUP2 PUSH2 0x2A89 JUMP JUMPDEST DUP3 MSTORE POP POP JUMP JUMPDEST PUSH1 0x0 PUSH2 0x24F8 DUP3 PUSH2 0x2A28 JUMP JUMPDEST PUSH2 0x2502 DUP2 DUP6 PUSH2 0x2A3E JUMP JUMPDEST SWAP4 POP PUSH2 0x2512 DUP2 DUP6 PUSH1 0x20 DUP7 ADD PUSH2 0x2AE1 JUMP JUMPDEST PUSH2 0x251B DUP2 PUSH2 0x2BD5 JUMP JUMPDEST DUP5 ADD SWAP2 POP POP SWAP3 SWAP2 POP POP JUMP JUMPDEST PUSH1 0x0 PUSH2 0x2531 DUP3 PUSH2 0x2A28 JUMP JUMPDEST PUSH2 0x253B DUP2 DUP6 PUSH2 0x2A4F JUMP JUMPDEST SWAP4 POP PUSH2 0x254B DUP2 DUP6 PUSH1 0x20 DUP7 ADD PUSH2 0x2AE1 JUMP JUMPDEST PUSH2 0x2554 DUP2 PUSH2 0x2BD5 JUMP JUMPDEST DUP5 ADD SWAP2 POP POP SWAP3 SWAP2 POP POP JUMP JUMPDEST PUSH1 0x0 PUSH2 0x256A DUP3 PUSH2 0x2A28 JUMP JUMPDEST PUSH2 0x2574 DUP2 DUP6 PUSH2 0x2A60 JUMP JUMPDEST SWAP4 POP PUSH2 0x2584 DUP2 DUP6 PUSH1 0x20 DUP7 ADD PUSH2 0x2AE1 JUMP JUMPDEST DUP1 DUP5 ADD SWAP2 POP POP SWAP3 SWAP2 POP POP JUMP JUMPDEST PUSH1 0x0 PUSH2 0x259D PUSH1 0x26 DUP4 PUSH2 0x2A4F JUMP JUMPDEST SWAP2 POP PUSH2 0x25A8 DUP3 PUSH2 0x2BE6 JUMP JUMPDEST PUSH1 0x40 DUP3 ADD SWAP1 POP SWAP2 SWAP1 POP JUMP JUMPDEST PUSH1 0x0 PUSH2 0x25C0 PUSH1 0x16 DUP4 PUSH2 0x2A4F JUMP JUMPDEST SWAP2 POP PUSH2 0x25CB DUP3 PUSH2 0x2C35 JUMP JUMPDEST PUSH1 0x20 DUP3 ADD SWAP1 POP SWAP2 SWAP1 POP JUMP JUMPDEST PUSH1 0x0 PUSH2 0x25E3 PUSH1 0x30 DUP4 PUSH2 0x2A4F JUMP JUMPDEST SWAP2 POP PUSH2 0x25EE DUP3 PUSH2 0x2C5E JUMP JUMPDEST PUSH1 0x40 DUP3 ADD SWAP1 POP SWAP2 SWAP1 POP JUMP JUMPDEST PUSH1 0x0 PUSH2 0x2606 PUSH1 0x18 DUP4 PUSH2 0x2A4F JUMP JUMPDEST SWAP2 POP PUSH2 0x2611 DUP3 PUSH2 0x2CAD JUMP JUMPDEST PUSH1 0x20 DUP3 ADD SWAP1 POP SWAP2 SWAP1 POP JUMP JUMPDEST PUSH1 0x0 PUSH2 0x2629 PUSH1 0x1F DUP4 PUSH2 0x2A4F JUMP JUMPDEST SWAP2 POP PUSH2 0x2634 DUP3 PUSH2 0x2CD6 JUMP JUMPDEST PUSH1 0x20 DUP3 ADD SWAP1 POP SWAP2 SWAP1 POP JUMP JUMPDEST PUSH1 0x0 PUSH2 0x264C PUSH1 0x20 DUP4 PUSH2 0x2A4F JUMP JUMPDEST SWAP2 POP PUSH2 0x2657 DUP3 PUSH2 0x2CFF JUMP JUMPDEST PUSH1 0x20 DUP3 ADD SWAP1 POP SWAP2 SWAP1 POP JUMP JUMPDEST PUSH1 0x0 PUSH2 0x266F PUSH1 0x25 DUP4 PUSH2 0x2A4F JUMP JUMPDEST SWAP2 POP PUSH2 0x267A DUP3 PUSH2 0x2D28 JUMP JUMPDEST PUSH1 0x40 DUP3 ADD SWAP1 POP SWAP2 SWAP1 POP JUMP JUMPDEST PUSH1 0x0 PUSH2 0x2692 PUSH1 0x25 DUP4 PUSH2 0x2A4F JUMP JUMPDEST SWAP2 POP PUSH2 0x269D DUP3 PUSH2 0x2D77 JUMP JUMPDEST PUSH1 0x40 DUP3 ADD SWAP1 POP SWAP2 SWAP1 POP JUMP JUMPDEST PUSH1 0x0 PUSH2 0x26B5 PUSH1 0x0 DUP4 PUSH2 0x2A33 JUMP JUMPDEST SWAP2 POP PUSH2 0x26C0 DUP3 PUSH2 0x2DC6 JUMP JUMPDEST PUSH1 0x0 DUP3 ADD SWAP1 POP SWAP2 SWAP1 POP JUMP JUMPDEST PUSH1 0x0 PUSH1 0xA0 DUP4 ADD PUSH1 0x0 DUP4 ADD MLOAD PUSH2 0x26E3 PUSH1 0x0 DUP7 ADD DUP3 PUSH2 0x2484 JUMP JUMPDEST POP PUSH1 0x20 DUP4 ADD MLOAD PUSH2 0x26F6 PUSH1 0x20 DUP7 ADD DUP3 PUSH2 0x24CF JUMP JUMPDEST POP PUSH1 0x40 DUP4 ADD MLOAD PUSH2 0x2709 PUSH1 0x40 DUP7 ADD DUP3 PUSH2 0x24A2 JUMP JUMPDEST POP PUSH1 0x60 DUP4 ADD MLOAD PUSH2 0x271C PUSH1 0x60 DUP7 ADD DUP3 PUSH2 0x2484 JUMP JUMPDEST POP PUSH1 0x80 DUP4 ADD MLOAD DUP5 DUP3 SUB PUSH1 0x80 DUP7 ADD MSTORE PUSH2 0x2734 DUP3 DUP3 PUSH2 0x24ED JUMP JUMPDEST SWAP2 POP POP DUP1 SWAP2 POP POP SWAP3 SWAP2 POP POP JUMP JUMPDEST PUSH2 0x274A DUP2 PUSH2 0x2AB6 JUMP JUMPDEST DUP3 MSTORE POP POP JUMP JUMPDEST PUSH1 0x0 PUSH2 0x275C DUP3 DUP5 PUSH2 0x255F JUMP JUMPDEST SWAP2 POP DUP2 SWAP1 POP SWAP3 SWAP2 POP POP JUMP JUMPDEST PUSH1 0x0 PUSH2 0x2772 DUP3 PUSH2 0x26A8 JUMP JUMPDEST SWAP2 POP DUP2 SWAP1 POP SWAP2 SWAP1 POP JUMP JUMPDEST PUSH1 0x0 PUSH1 0x20 DUP3 ADD SWAP1 POP PUSH2 0x2791 PUSH1 0x0 DUP4 ADD DUP5 PUSH2 0x2493 JUMP JUMPDEST SWAP3 SWAP2 POP POP JUMP JUMPDEST PUSH1 0x0 PUSH1 0xA0 DUP3 ADD SWAP1 POP PUSH2 0x27AC PUSH1 0x0 DUP4 ADD DUP9 PUSH2 0x2493 JUMP JUMPDEST PUSH2 0x27B9 PUSH1 0x20 DUP4 ADD DUP8 PUSH2 0x24DE JUMP JUMPDEST PUSH2 0x27C6 PUSH1 0x40 DUP4 ADD DUP7 PUSH2 0x24B1 JUMP JUMPDEST PUSH2 0x27D3 PUSH1 0x60 DUP4 ADD DUP6 PUSH2 0x2493 JUMP JUMPDEST DUP2 DUP2 SUB PUSH1 0x80 DUP4 ADD MSTORE PUSH2 0x27E5 DUP2 DUP5 PUSH2 0x2526 JUMP JUMPDEST SWAP1 POP SWAP7 SWAP6 POP POP POP POP POP POP JUMP JUMPDEST PUSH1 0x0 PUSH1 0x20 DUP3 ADD SWAP1 POP PUSH2 0x2806 PUSH1 0x0 DUP4 ADD DUP5 PUSH2 0x24DE JUMP JUMPDEST SWAP3 SWAP2 POP POP JUMP JUMPDEST PUSH1 0x0 PUSH1 0x40 DUP3 ADD SWAP1 POP PUSH2 0x2821 PUSH1 0x0 DUP4 ADD DUP6 PUSH2 0x24C0 JUMP JUMPDEST PUSH2 0x282E PUSH1 0x20 DUP4 ADD DUP5 PUSH2 0x2493 JUMP JUMPDEST SWAP4 SWAP3 POP POP POP JUMP JUMPDEST PUSH1 0x0 PUSH1 0x40 DUP3 ADD SWAP1 POP PUSH2 0x284A PUSH1 0x0 DUP4 ADD DUP6 PUSH2 0x24DE JUMP JUMPDEST PUSH2 0x2857 PUSH1 0x20 DUP4 ADD DUP5 PUSH2 0x2493 JUMP JUMPDEST SWAP4 SWAP3 POP POP POP JUMP JUMPDEST PUSH1 0x0 PUSH1 0x60 DUP3 ADD SWAP1 POP PUSH2 0x2873 PUSH1 0x0 DUP4 ADD DUP7 PUSH2 0x24C0 JUMP JUMPDEST PUSH2 0x2880 PUSH1 0x20 DUP4 ADD DUP6 PUSH2 0x2493 JUMP JUMPDEST PUSH2 0x288D PUSH1 0x40 DUP4 ADD DUP5 PUSH2 0x2493 JUMP JUMPDEST SWAP5 SWAP4 POP POP POP POP JUMP JUMPDEST PUSH1 0x0 PUSH1 0x20 DUP3 ADD SWAP1 POP DUP2 DUP2 SUB PUSH1 0x0 DUP4 ADD MSTORE PUSH2 0x28AE DUP2 PUSH2 0x2590 JUMP JUMPDEST SWAP1 POP SWAP2 SWAP1 POP JUMP JUMPDEST PUSH1 0x0 PUSH1 0x20 DUP3 ADD SWAP1 POP DUP2 DUP2 SUB PUSH1 0x0 DUP4 ADD MSTORE PUSH2 0x28CE DUP2 PUSH2 0x25B3 JUMP JUMPDEST SWAP1 POP SWAP2 SWAP1 POP JUMP JUMPDEST PUSH1 0x0 PUSH1 0x20 DUP3 ADD SWAP1 POP DUP2 DUP2 SUB PUSH1 0x0 DUP4 ADD MSTORE PUSH2 0x28EE DUP2 PUSH2 0x25D6 JUMP JUMPDEST SWAP1 POP SWAP2 SWAP1 POP JUMP JUMPDEST PUSH1 0x0 PUSH1 0x20 DUP3 ADD SWAP1 POP DUP2 DUP2 SUB PUSH1 0x0 DUP4 ADD MSTORE PUSH2 0x290E DUP2 PUSH2 0x25F9 JUMP JUMPDEST SWAP1 POP SWAP2 SWAP1 POP JUMP JUMPDEST PUSH1 0x0 PUSH1 0x20 DUP3 ADD SWAP1 POP DUP2 DUP2 SUB PUSH1 0x0 DUP4 ADD MSTORE PUSH2 0x292E DUP2 PUSH2 0x261C JUMP JUMPDEST SWAP1 POP SWAP2 SWAP1 POP JUMP JUMPDEST PUSH1 0x0 PUSH1 0x20 DUP3 ADD SWAP1 POP DUP2 DUP2 SUB PUSH1 0x0 DUP4 ADD MSTORE PUSH2 0x294E DUP2 PUSH2 0x263F JUMP JUMPDEST SWAP1 POP SWAP2 SWAP1 POP JUMP JUMPDEST PUSH1 0x0 PUSH1 0x20 DUP3 ADD SWAP1 POP DUP2 DUP2 SUB PUSH1 0x0 DUP4 ADD MSTORE PUSH2 0x296E DUP2 PUSH2 0x2662 JUMP JUMPDEST SWAP1 POP SWAP2 SWAP1 POP JUMP JUMPDEST PUSH1 0x0 PUSH1 0x20 DUP3 ADD SWAP1 POP DUP2 DUP2 SUB PUSH1 0x0 DUP4 ADD MSTORE PUSH2 0x298E DUP2 PUSH2 0x2685 JUMP JUMPDEST SWAP1 POP SWAP2 SWAP1 POP JUMP JUMPDEST PUSH1 0x0 PUSH1 0x20 DUP3 ADD SWAP1 POP DUP2 DUP2 SUB PUSH1 0x0 DUP4 ADD MSTORE PUSH2 0x29AF DUP2 DUP5 PUSH2 0x26CB JUMP JUMPDEST SWAP1 POP SWAP3 SWAP2 POP POP JUMP JUMPDEST PUSH1 0x0 PUSH1 0x20 DUP3 ADD SWAP1 POP PUSH2 0x29CC PUSH1 0x0 DUP4 ADD DUP5 PUSH2 0x2741 JUMP JUMPDEST SWAP3 SWAP2 POP POP JUMP JUMPDEST PUSH1 0x0 PUSH2 0x29DC PUSH2 0x29ED JUMP JUMPDEST SWAP1 POP PUSH2 0x29E8 DUP3 DUP3 PUSH2 0x2B46 JUMP JUMPDEST SWAP2 SWAP1 POP JUMP JUMPDEST PUSH1 0x0 PUSH1 0x40 MLOAD SWAP1 POP SWAP1 JUMP JUMPDEST PUSH1 0x0 PUSH8 0xFFFFFFFFFFFFFFFF DUP3 GT ISZERO PUSH2 0x2A12 JUMPI PUSH2 0x2A11 PUSH2 0x2BA6 JUMP JUMPDEST JUMPDEST PUSH2 0x2A1B DUP3 PUSH2 0x2BD5 JUMP JUMPDEST SWAP1 POP PUSH1 0x20 DUP2 ADD SWAP1 POP SWAP2 SWAP1 POP JUMP JUMPDEST PUSH1 0x0 DUP2 MLOAD SWAP1 POP SWAP2 SWAP1 POP JUMP JUMPDEST PUSH1 0x0 DUP2 SWAP1 POP SWAP3 SWAP2 POP POP JUMP JUMPDEST PUSH1 0x0 DUP3 DUP3 MSTORE PUSH1 0x20 DUP3 ADD SWAP1 POP SWAP3 SWAP2 POP POP JUMP JUMPDEST PUSH1 0x0 DUP3 DUP3 MSTORE PUSH1 0x20 DUP3 ADD SWAP1 POP SWAP3 SWAP2 POP POP JUMP JUMPDEST PUSH1 0x0 DUP2 SWAP1 POP SWAP3 SWAP2 POP POP JUMP JUMPDEST PUSH1 0x0 PUSH2 0x2A76 DUP3 PUSH2 0x2A96 JUMP JUMPDEST SWAP1 POP SWAP2 SWAP1 POP JUMP JUMPDEST PUSH1 0x0 DUP2 ISZERO ISZERO SWAP1 POP SWAP2 SWAP1 POP JUMP JUMPDEST PUSH1 0x0 DUP2 PUSH1 0x7 SIGNEXTEND SWAP1 POP SWAP2 SWAP1 POP JUMP JUMPDEST PUSH1 0x0 PUSH20 0xFFFFFFFFFFFFFFFFFFFFFFFFFFFFFFFFFFFFFFFF DUP3 AND SWAP1 POP SWAP2 SWAP1 POP JUMP JUMPDEST PUSH1 0x0 DUP2 SWAP1 POP SWAP2 SWAP1 POP JUMP JUMPDEST PUSH1 0x0 PUSH2 0x2ACB DUP3 PUSH2 0x2A89 JUMP JUMPDEST SWAP1 POP SWAP2 SWAP1 POP JUMP JUMPDEST DUP3 DUP2 DUP4 CALLDATACOPY PUSH1 0x0 DUP4 DUP4 ADD MSTORE POP POP POP JUMP JUMPDEST PUSH1 0x0 JUMPDEST DUP4 DUP2 LT ISZERO PUSH2 0x2AFF JUMPI DUP1 DUP3 ADD MLOAD DUP2 DUP5 ADD MSTORE PUSH1 0x20 DUP2 ADD SWAP1 POP PUSH2 0x2AE4 JUMP JUMPDEST DUP4 DUP2 GT ISZERO PUSH2 0x2B0E JUMPI PUSH1 0x0 DUP5 DUP5 ADD MSTORE JUMPDEST POP POP POP POP JUMP JUMPDEST PUSH1 0x0 PUSH1 0x2 DUP3 DIV SWAP1 POP PUSH1 0x1 DUP3 AND DUP1 PUSH2 0x2B2C JUMPI PUSH1 0x7F DUP3 AND SWAP2 POP JUMPDEST PUSH1 0x20 DUP3 LT DUP2 EQ ISZERO PUSH2 0x2B40 JUMPI PUSH2 0x2B3F PUSH2 0x2B77 JUMP JUMPDEST JUMPDEST POP SWAP2 SWAP1 POP JUMP JUMPDEST PUSH2 0x2B4F DUP3 PUSH2 0x2BD5 JUMP JUMPDEST DUP2 ADD DUP2 DUP2 LT PUSH8 0xFFFFFFFFFFFFFFFF DUP3 GT OR ISZERO PUSH2 0x2B6E JUMPI PUSH2 0x2B6D PUSH2 0x2BA6 JUMP JUMPDEST JUMPDEST DUP1 PUSH1 0x40 MSTORE POP POP POP JUMP JUMPDEST PUSH32 0x4E487B7100000000000000000000000000000000000000000000000000000000 PUSH1 0x0 MSTORE PUSH1 0x22 PUSH1 0x4 MSTORE PUSH1 0x24 PUSH1 0x0 REVERT JUMPDEST PUSH32 0x4E487B7100000000000000000000000000000000000000000000000000000000 PUSH1 0x0 MSTORE PUSH1 0x41 PUSH1 0x4 MSTORE PUSH1 0x24 PUSH1 0x0 REVERT JUMPDEST PUSH1 0x0 PUSH1 0x1F NOT PUSH1 0x1F DUP4 ADD AND SWAP1 POP SWAP2 SWAP1 POP JUMP JUMPDEST PUSH32 0x4F776E61626C653A206E6577206F776E657220697320746865207A65726F2061 PUSH1 0x0 DUP3 ADD MSTORE PUSH32 0x6464726573730000000000000000000000000000000000000000000000000000 PUSH1 0x20 DUP3 ADD MSTORE POP JUMP JUMPDEST PUSH32 0x556E61626C6520746F207472616E736665722066656500000000000000000000 PUSH1 0x0 DUP3 ADD MSTORE POP JUMP JUMPDEST PUSH32 0x54686572652773206164647265737320636F6E6E656374656420746F20746861 PUSH1 0x0 DUP3 ADD MSTORE PUSH32 0x7420544720494420616C72656164792E00000000000000000000000000000000 PUSH1 0x20 DUP3 ADD MSTORE POP JUMP JUMPDEST PUSH32 0x50617373706F727420666565206973206E6F7420706169640000000000000000 PUSH1 0x0 DUP3 ADD MSTORE POP JUMP JUMPDEST PUSH32 0x796F7520646F6E2774206E6F77206F776E207468697320757365726E616D6500 PUSH1 0x0 DUP3 ADD MSTORE POP JUMP JUMPDEST PUSH32 0x4F776E61626C653A2063616C6C6572206973206E6F7420746865206F776E6572 PUSH1 0x0 DUP3 ADD MSTORE POP JUMP JUMPDEST PUSH32 0x746869732066756E6374696F6E20776F726B2773206F6E6C7920666F72207465 PUSH1 0x0 DUP3 ADD MSTORE PUSH32 0x73746E6574000000000000000000000000000000000000000000000000000000 PUSH1 0x20 DUP3 ADD MSTORE POP JUMP JUMPDEST PUSH32 0x616C726561647920617070726F766564204F5220646F206E6F74206578697374 PUSH1 0x0 DUP3 ADD MSTORE PUSH32 0x7320796574000000000000000000000000000000000000000000000000000000 PUSH1 0x20 DUP3 ADD MSTORE POP JUMP JUMPDEST POP JUMP JUMPDEST PUSH2 0x2DD2 DUP2 PUSH2 0x2A6B JUMP JUMPDEST DUP2 EQ PUSH2 0x2DDD JUMPI PUSH1 0x0 DUP1 REVERT JUMPDEST POP JUMP JUMPDEST PUSH2 0x2DE9 DUP2 PUSH2 0x2A89 JUMP JUMPDEST DUP2 EQ PUSH2 0x2DF4 JUMPI PUSH1 0x0 DUP1 REVERT JUMPDEST POP JUMP JUMPDEST PUSH2 0x2E00 DUP2 PUSH2 0x2AB6 JUMP JUMPDEST DUP2 EQ PUSH2 0x2E0B JUMPI PUSH1 0x0 DUP1 REVERT JUMPDEST POP JUMP INVALID LOG2 PUSH5 0x6970667358 0x22 SLT KECCAK256 LOG2 0xEC DUP16 DUP11 0xEE DELEGATECALL SWAP4 0xB8 INVALID 0xE4 0xE9 ADDMOD 0xD4 DUP5 RETURNDATASIZE MULMOD 0x2A BLOCKHASH 0xE6 0xEA 0xA8 0xCB PUSH16 0x640AF4BB0E453DF4F664736F6C634300 ADDMOD DIV STOP CALLER "
        },
        "methodIdentifiers": {
          "ApplyForPassport(int64,string)": "d5998aeb",
          "ApprovePassport(address)": "1755e9e6",
          "DeclinePassport(address)": "9421da61",
          "DeletePassport(address)": "65104afc",
          "GetOwner()": "0ae50a39",
          "GetPassportByAddress(address)": "1423ea07",
          "GetPassportByNickName(string)": "b25047c2",
          "GetPassportFee()": "48dc1561",
          "GetPassportWalletByID(int64)": "0c2fc6e3",
          "GetWalletByNickName(string)": "d2114e18",
          "ITrustTo(int64,int64)": "5e292757",
          "SetPassportFee(uint256)": "d2125bd2",
          "UpdateUserName(string)": "21e6531d",
          "itrust_to_global(int64,uint256)": "cbfee179",
          "owner()": "8da5cb5b",
          "passports(address)": "e37c132b",
          "renounceOwnership()": "715018a6",
          "tgIdToAddress(int64)": "9413c642",
          "transferOwnership(address)": "f2fde38b",
          "trusted_by_global(int64,uint256)": "b1eea0a5",
          "username_wallets(string)": "59cca93b"
        }
      }
    }
  }
}