{
  "contracts/TGPassport.sol": {
    "TGPassport": {
      "abi": [
        {
          "inputs": [],
          "stateMutability": "nonpayable",
          "type": "constructor"
        },
        {
          "anonymous": false,
          "inputs": [
            {
              "indexed": true,
              "internalType": "address",
              "name": "previousOwner",
              "type": "address"
            },
            {
              "indexed": true,
              "internalType": "address",
              "name": "newOwner",
              "type": "address"
            }
          ],
          "name": "OwnershipTransferred",
          "type": "event"
        },
        {
          "anonymous": false,
          "inputs": [
            {
              "indexed": false,
              "internalType": "int64",
              "name": "applyerTg",
              "type": "int64"
            },
            {
              "indexed": false,
              "internalType": "address",
              "name": "wallet_address",
              "type": "address"
            }
          ],
          "name": "passportApplied",
          "type": "event"
        },
        {
          "anonymous": false,
          "inputs": [
            {
              "indexed": true,
              "internalType": "int64",
              "name": "applyerTg",
              "type": "int64"
            },
            {
              "indexed": false,
              "internalType": "address",
              "name": "wallet_address",
              "type": "address"
            }
          ],
          "name": "passportAppliedIndexed",
          "type": "event"
        },
        {
          "anonymous": false,
          "inputs": [
            {
              "indexed": false,
              "internalType": "int64",
              "name": "applyerTg",
              "type": "int64"
            },
            {
              "indexed": false,
              "internalType": "address",
              "name": "wallet_address",
              "type": "address"
            },
            {
              "indexed": false,
              "internalType": "address",
              "name": "issuer",
              "type": "address"
            }
          ],
          "name": "passportApproved",
          "type": "event"
        },
        {
          "anonymous": false,
          "inputs": [
            {
              "indexed": false,
              "internalType": "int64",
              "name": "applyerTg",
              "type": "int64"
            },
            {
              "indexed": false,
              "internalType": "address",
              "name": "wallet",
              "type": "address"
            }
          ],
          "name": "passportDenied",
          "type": "event"
        },
        {
          "anonymous": false,
          "inputs": [
            {
              "indexed": false,
              "internalType": "int64",
              "name": "from",
              "type": "int64"
            },
            {
              "indexed": true,
              "internalType": "int64",
              "name": "to",
              "type": "int64"
            }
          ],
          "name": "trustedIndexed",
          "type": "event"
        },
        {
          "anonymous": false,
          "inputs": [
            {
              "indexed": false,
              "internalType": "int64",
              "name": "from",
              "type": "int64"
            },
            {
              "indexed": true,
              "internalType": "int64",
              "name": "to",
              "type": "int64"
            }
          ],
          "name": "untrustedIndexed",
          "type": "event"
        },
        {
          "inputs": [
            {
              "internalType": "int64",
              "name": "applyerTg",
              "type": "int64"
            },
            {
              "internalType": "string",
              "name": "user_name_",
              "type": "string"
            }
          ],
          "name": "ApplyForPassport",
          "outputs": [],
          "stateMutability": "payable",
          "type": "function"
        },
        {
          "inputs": [
            {
              "internalType": "address",
              "name": "passportToApprove",
              "type": "address"
            }
          ],
          "name": "ApprovePassport",
          "outputs": [],
          "stateMutability": "nonpayable",
          "type": "function"
        },
        {
          "inputs": [
            {
              "internalType": "address",
              "name": "passportToDecline",
              "type": "address"
            }
          ],
          "name": "DeclinePassport",
          "outputs": [],
          "stateMutability": "nonpayable",
          "type": "function"
        },
        {
          "inputs": [
            {
              "internalType": "address",
              "name": "passportToDecline",
              "type": "address"
            }
          ],
          "name": "DeletePassport",
          "outputs": [],
          "stateMutability": "nonpayable",
          "type": "function"
        },
        {
          "inputs": [],
          "name": "GetOwner",
          "outputs": [
            {
              "internalType": "address",
              "name": "",
              "type": "address"
            }
          ],
          "stateMutability": "view",
          "type": "function"
        },
        {
          "inputs": [
            {
              "internalType": "address",
              "name": "user_wallet",
              "type": "address"
            }
          ],
          "name": "GetPassportByAddress",
          "outputs": [
            {
              "components": [
                {
                  "internalType": "address",
                  "name": "userAddress",
                  "type": "address"
                },
                {
                  "internalType": "int64",
                  "name": "tgId",
                  "type": "int64"
                },
                {
                  "internalType": "bool",
                  "name": "valid",
                  "type": "bool"
                },
                {
                  "internalType": "address",
                  "name": "validatorAddress",
                  "type": "address"
                },
                {
                  "internalType": "string",
                  "name": "userName",
                  "type": "string"
                }
              ],
              "internalType": "struct TGPassport.Passport",
              "name": "",
              "type": "tuple"
            }
          ],
          "stateMutability": "view",
          "type": "function"
        },
        {
          "inputs": [
            {
              "internalType": "string",
              "name": "user_name_",
              "type": "string"
            }
          ],
          "name": "GetPassportByNickName",
          "outputs": [
            {
              "components": [
                {
                  "internalType": "address",
                  "name": "userAddress",
                  "type": "address"
                },
                {
                  "internalType": "int64",
                  "name": "tgId",
                  "type": "int64"
                },
                {
                  "internalType": "bool",
                  "name": "valid",
                  "type": "bool"
                },
                {
                  "internalType": "address",
                  "name": "validatorAddress",
                  "type": "address"
                },
                {
                  "internalType": "string",
                  "name": "userName",
                  "type": "string"
                }
              ],
              "internalType": "struct TGPassport.Passport",
              "name": "",
              "type": "tuple"
            }
          ],
          "stateMutability": "view",
          "type": "function"
        },
        {
          "inputs": [
            {
              "internalType": "int64",
              "name": "tgId_",
              "type": "int64"
            }
          ],
          "name": "GetPassportByTgId",
          "outputs": [
            {
              "components": [
                {
                  "internalType": "address",
                  "name": "userAddress",
                  "type": "address"
                },
                {
                  "internalType": "int64",
                  "name": "tgId",
                  "type": "int64"
                },
                {
                  "internalType": "bool",
                  "name": "valid",
                  "type": "bool"
                },
                {
                  "internalType": "address",
                  "name": "validatorAddress",
                  "type": "address"
                },
                {
                  "internalType": "string",
                  "name": "userName",
                  "type": "string"
                }
              ],
              "internalType": "struct TGPassport.Passport",
              "name": "",
              "type": "tuple"
            }
          ],
          "stateMutability": "view",
          "type": "function"
        },
        {
          "inputs": [],
          "name": "GetPassportFee",
          "outputs": [
            {
              "internalType": "uint256",
              "name": "",
              "type": "uint256"
            }
          ],
          "stateMutability": "view",
          "type": "function"
        },
        {
          "inputs": [
            {
              "internalType": "int64",
              "name": "tgId_",
              "type": "int64"
            }
          ],
          "name": "GetPassportWalletByID",
          "outputs": [
            {
              "internalType": "address",
              "name": "",
              "type": "address"
            }
          ],
          "stateMutability": "view",
          "type": "function"
        },
        {
          "inputs": [
            {
              "internalType": "address",
              "name": "user_wallet",
              "type": "address"
            }
          ],
          "name": "GetTgIdByAddress",
          "outputs": [
            {
              "internalType": "int64",
              "name": "tgid",
              "type": "int64"
            }
          ],
          "stateMutability": "view",
          "type": "function"
        },
        {
          "inputs": [
            {
              "internalType": "int64",
              "name": "from",
              "type": "int64"
            },
            {
              "internalType": "int64",
              "name": "to",
              "type": "int64"
            }
          ],
          "name": "GetTrust",
          "outputs": [
            {
              "internalType": "bool",
              "name": "",
              "type": "bool"
            }
          ],
          "stateMutability": "view",
          "type": "function"
        },
        {
          "inputs": [
            {
              "internalType": "string",
              "name": "user_name_",
              "type": "string"
            }
          ],
          "name": "GetWalletByNickName",
          "outputs": [
            {
              "internalType": "address",
              "name": "",
              "type": "address"
            }
          ],
          "stateMutability": "view",
          "type": "function"
        },
        {
          "inputs": [
            {
              "internalType": "address",
              "name": "enemy_address",
              "type": "address"
            }
          ],
          "name": "INOTTrustAddress",
          "outputs": [],
          "stateMutability": "nonpayable",
          "type": "function"
        },
        {
          "inputs": [
            {
              "internalType": "string",
              "name": "my_username",
              "type": "string"
            },
            {
              "internalType": "string",
              "name": "enemy_name",
              "type": "string"
            }
          ],
          "name": "INOTTrustUsername",
          "outputs": [],
          "stateMutability": "nonpayable",
          "type": "function"
        },
        {
          "inputs": [
            {
              "internalType": "int64",
              "name": "from",
              "type": "int64"
            },
            {
              "internalType": "int64",
              "name": "to",
              "type": "int64"
            }
          ],
          "name": "INotTrustID",
          "outputs": [],
          "stateMutability": "nonpayable",
          "type": "function"
        },
        {
          "inputs": [
            {
              "internalType": "address",
              "name": "friend_address",
              "type": "address"
            }
          ],
          "name": "ITrustAddress",
          "outputs": [],
          "stateMutability": "nonpayable",
          "type": "function"
        },
        {
          "inputs": [
            {
              "internalType": "int64",
              "name": "from",
              "type": "int64"
            },
            {
              "internalType": "int64",
              "name": "to",
              "type": "int64"
            }
          ],
          "name": "ITrustID",
          "outputs": [],
          "stateMutability": "nonpayable",
          "type": "function"
        },
        {
          "inputs": [
            {
              "internalType": "string",
              "name": "my_username",
              "type": "string"
            },
            {
              "internalType": "string",
              "name": "friend_name",
              "type": "string"
            }
          ],
          "name": "ITrustUsername",
          "outputs": [],
          "stateMutability": "nonpayable",
          "type": "function"
        },
        {
          "inputs": [
            {
              "internalType": "uint256",
              "name": "passportFee_",
              "type": "uint256"
            }
          ],
          "name": "SetPassportFee",
          "outputs": [],
          "stateMutability": "nonpayable",
          "type": "function"
        },
        {
          "inputs": [
            {
              "internalType": "string",
              "name": "new_user_name_",
              "type": "string"
            }
          ],
          "name": "UpdateUserName",
          "outputs": [],
          "stateMutability": "nonpayable",
          "type": "function"
        },
        {
          "inputs": [
            {
              "internalType": "int64",
              "name": "",
              "type": "int64"
            },
            {
              "internalType": "uint256",
              "name": "",
              "type": "uint256"
            }
          ],
          "name": "opinion_changed",
          "outputs": [
            {
              "internalType": "int64",
              "name": "",
              "type": "int64"
            }
          ],
          "stateMutability": "view",
          "type": "function"
        },
        {
          "inputs": [],
          "name": "owner",
          "outputs": [
            {
              "internalType": "address",
              "name": "",
              "type": "address"
            }
          ],
          "stateMutability": "view",
          "type": "function"
        },
        {
          "inputs": [
            {
              "internalType": "address",
              "name": "",
              "type": "address"
            }
          ],
          "name": "passports",
          "outputs": [
            {
              "internalType": "address",
              "name": "userAddress",
              "type": "address"
            },
            {
              "internalType": "int64",
              "name": "tgId",
              "type": "int64"
            },
            {
              "internalType": "bool",
              "name": "valid",
              "type": "bool"
            },
            {
              "internalType": "address",
              "name": "validatorAddress",
              "type": "address"
            },
            {
              "internalType": "string",
              "name": "userName",
              "type": "string"
            }
          ],
          "stateMutability": "view",
          "type": "function"
        },
        {
          "inputs": [],
          "name": "renounceOwnership",
          "outputs": [],
          "stateMutability": "nonpayable",
          "type": "function"
        },
        {
          "inputs": [
            {
              "internalType": "int64",
              "name": "",
              "type": "int64"
            }
          ],
          "name": "tgIdToAddress",
          "outputs": [
            {
              "internalType": "address",
              "name": "",
              "type": "address"
            }
          ],
          "stateMutability": "view",
          "type": "function"
        },
        {
          "inputs": [
            {
              "internalType": "address",
              "name": "newOwner",
              "type": "address"
            }
          ],
          "name": "transferOwnership",
          "outputs": [],
          "stateMutability": "nonpayable",
          "type": "function"
        },
        {
          "inputs": [
            {
              "internalType": "int64",
              "name": "",
              "type": "int64"
            },
            {
              "internalType": "int64",
              "name": "",
              "type": "int64"
            }
          ],
          "name": "trust_global",
          "outputs": [
            {
              "internalType": "bool",
              "name": "",
              "type": "bool"
            }
          ],
          "stateMutability": "view",
          "type": "function"
        },
        {
          "inputs": [
            {
              "internalType": "string",
              "name": "",
              "type": "string"
            }
          ],
          "name": "username_wallets",
          "outputs": [
            {
              "internalType": "address",
              "name": "",
              "type": "address"
            }
          ],
          "stateMutability": "view",
          "type": "function"
        }
      ],
      "evm": {
        "bytecode": {
          "linkReferences": {},
          "object": "60806040523480156200001157600080fd5b5062000032620000266200009160201b60201c565b6200009960201b60201c565b6103e86001819055506200004b6200015d60201b60201c565b600260006101000a81548173ffffffffffffffffffffffffffffffffffffffff021916908373ffffffffffffffffffffffffffffffffffffffff16021790555062000186565b600033905090565b60008060009054906101000a900473ffffffffffffffffffffffffffffffffffffffff169050816000806101000a81548173ffffffffffffffffffffffffffffffffffffffff021916908373ffffffffffffffffffffffffffffffffffffffff1602179055508173ffffffffffffffffffffffffffffffffffffffff168173ffffffffffffffffffffffffffffffffffffffff167f8be0079c531659141344cd1fd0a4f28419497f9722a3daafe3b4186f6b6457e060405160405180910390a35050565b60008060009054906101000a900473ffffffffffffffffffffffffffffffffffffffff16905090565b613ef780620001966000396000f3fe6080604052600436106101c25760003560e01c806368789cea116100f7578063b25047c211610095578063dca2888411610064578063dca288841461068b578063e37c132b146106b4578063e5122bab146106f5578063f2fde38b1461071e576101c2565b8063b25047c2146105cc578063d2114e1814610609578063d2125bd214610646578063d5998aeb1461066f576101c2565b806387234689116100d157806387234689146105125780638da5cb5b1461053b5780639413c642146105665780639421da61146105a3576101c2565b806368789cea146104955780636a8ec05e146104be578063715018a6146104fb576101c2565b80634ac054bb116101645780635ddf30d01161013e5780635ddf30d0146103c957806361cabe37146103f257806365104afc1461042f57806365a5637e14610458576101c2565b80634ac054bb1461032657806359cca93b146103635780635c962dfc146103a0576101c2565b80631755e9e6116101a05780631755e9e61461026c57806321e6531d14610295578063239f60fa146102be57806348dc1561146102fb576101c2565b80630ae50a39146101c75780630c2fc6e3146101f25780631423ea071461022f575b600080fd5b3480156101d357600080fd5b506101dc610747565b6040516101e99190613647565b60405180910390f35b3480156101fe57600080fd5b5061021960048036038101906102149190613107565b610771565b6040516102269190613647565b60405180910390f35b34801561023b57600080fd5b50610256600480360381019061025191906130de565b6107b4565b60405161026391906138d2565b60405180910390f35b34801561027857600080fd5b50610293600480360381019061028e91906130de565b610989565b005b3480156102a157600080fd5b506102bc60048036038101906102b791906131fc565b610dd7565b005b3480156102ca57600080fd5b506102e560048036038101906102e09190613130565b610fa3565b6040516102f291906136bc565b60405180910390f35b34801561030757600080fd5b50610310610fd2565b60405161031d91906138f4565b60405180910390f35b34801561033257600080fd5b5061034d60048036038101906103489190613130565b610fdc565b60405161035a91906136bc565b60405180910390f35b34801561036f57600080fd5b5061038a600480360381019061038591906131fc565b611024565b6040516103979190613647565b60405180910390f35b3480156103ac57600080fd5b506103c760048036038101906103c29190613130565b61106d565b005b3480156103d557600080fd5b506103f060048036038101906103eb91906130de565b6111ac565b005b3480156103fe57600080fd5b50610419600480360381019061041491906130de565b61130c565b60405161042691906136d7565b60405180910390f35b34801561043b57600080fd5b50610456600480360381019061045191906130de565b611327565b005b34801561046457600080fd5b5061047f600480360381019061047a9190613107565b611699565b60405161048c91906138d2565b60405180910390f35b3480156104a157600080fd5b506104bc60048036038101906104b7919061323d565b61187c565b005b3480156104ca57600080fd5b506104e560048036038101906104e091906131c0565b611a94565b6040516104f291906136d7565b60405180910390f35b34801561050757600080fd5b50610510611ada565b005b34801561051e57600080fd5b506105396004803603810190610534919061323d565b611b62565b005b34801561054757600080fd5b50610550611d7a565b60405161055d9190613647565b60405180910390f35b34801561057257600080fd5b5061058d60048036038101906105889190613107565b611da3565b60405161059a9190613647565b60405180910390f35b3480156105af57600080fd5b506105ca60048036038101906105c591906130de565b611dd6565b005b3480156105d857600080fd5b506105f360048036038101906105ee91906131fc565b612195565b60405161060091906138d2565b60405180910390f35b34801561061557600080fd5b50610630600480360381019061062b91906131fc565b612378565b60405161063d9190613647565b60405180910390f35b34801561065257600080fd5b5061066d600480360381019061066891906132a9565b6123c0565b005b6106896004803603810190610684919061316c565b612446565b005b34801561069757600080fd5b506106b260048036038101906106ad9190613130565b61277d565b005b3480156106c057600080fd5b506106db60048036038101906106d691906130de565b6128bc565b6040516106ec959493929190613662565b60405180910390f35b34801561070157600080fd5b5061071c600480360381019061071791906130de565b6129d4565b005b34801561072a57600080fd5b50610745600480360381019061074091906130de565b612b34565b005b6000600260009054906101000a900473ffffffffffffffffffffffffffffffffffffffff16905090565b6000600360008360070b60070b815260200190815260200160002060009054906101000a900473ffffffffffffffffffffffffffffffffffffffff169050919050565b6107bc612ef4565b6000600460008473ffffffffffffffffffffffffffffffffffffffff1673ffffffffffffffffffffffffffffffffffffffff1681526020019081526020016000206040518060a00160405290816000820160009054906101000a900473ffffffffffffffffffffffffffffffffffffffff1673ffffffffffffffffffffffffffffffffffffffff1673ffffffffffffffffffffffffffffffffffffffff1681526020016000820160149054906101000a900460070b60070b60070b815260200160008201601c9054906101000a900460ff161515151581526020016001820160009054906101000a900473ffffffffffffffffffffffffffffffffffffffff1673ffffffffffffffffffffffffffffffffffffffff1673ffffffffffffffffffffffffffffffffffffffff1681526020016002820180546108fc90613a3f565b80601f016020809104026020016040519081016040528092919081815260200182805461092890613a3f565b80156109755780601f1061094a57610100808354040283529160200191610975565b820191906000526020600020905b81548152906001019060200180831161095857829003601f168201915b505050505081525050905080915050919050565b610991612c2c565b73ffffffffffffffffffffffffffffffffffffffff166109af611d7a565b73ffffffffffffffffffffffffffffffffffffffff1614610a05576040517f08c379a00000000000000000000000000000000000000000000000000000000081526004016109fc90613832565b60405180910390fd5b6000600460008373ffffffffffffffffffffffffffffffffffffffff1673ffffffffffffffffffffffffffffffffffffffff16815260200190815260200160002060000160149054906101000a900460070b90506000600460008473ffffffffffffffffffffffffffffffffffffffff1673ffffffffffffffffffffffffffffffffffffffff1681526020019081526020016000206002018054610aa890613a3f565b80601f0160208091040260200160405190810160405280929190818152602001828054610ad490613a3f565b8015610b215780601f10610af657610100808354040283529160200191610b21565b820191906000526020600020905b815481529060010190602001808311610b0457829003601f168201915b5050505050905060001515600460008573ffffffffffffffffffffffffffffffffffffffff1673ffffffffffffffffffffffffffffffffffffffff168152602001908152602001600020600001601c9054906101000a900460ff16151514610bbe576040517f08c379a0000000000000000000000000000000000000000000000000000000008152600401610bb5906138b2565b60405180910390fd5b60011515600660008460070b60070b815260200190815260200160002060008460070b60070b815260200190815260200160002060009054906101000a905050506040518060a001604052808473ffffffffffffffffffffffffffffffffffffffff1681526020018360070b81526020016001151581526020013373ffffffffffffffffffffffffffffffffffffffff16815260200182815250600460008573ffffffffffffffffffffffffffffffffffffffff1673ffffffffffffffffffffffffffffffffffffffff16815260200190815260200160002060008201518160000160006101000a81548173ffffffffffffffffffffffffffffffffffffffff021916908373ffffffffffffffffffffffffffffffffffffffff16021790555060208201518160000160146101000a81548167ffffffffffffffff021916908360070b67ffffffffffffffff160217905550604082015181600001601c6101000a81548160ff02191690831515021790555060608201518160010160006101000a81548173ffffffffffffffffffffffffffffffffffffffff021916908373ffffffffffffffffffffffffffffffffffffffff1602179055506080820151816002019080519060200190610d93929190612f54565b509050507fddda54aebd53f1c2d3f35d7107ddd15f71b313a804dda2179cded44927110cd0828433604051610dca9392919061371b565b60405180910390a1505050565b6000610de2336107b4565b90503373ffffffffffffffffffffffffffffffffffffffff16816000015173ffffffffffffffffffffffffffffffffffffffff1614610e56576040517f08c379a0000000000000000000000000000000000000000000000000000000008152600401610e4d906137f2565b60405180910390fd5b81816080018190525080600460003373ffffffffffffffffffffffffffffffffffffffff1673ffffffffffffffffffffffffffffffffffffffff16815260200190815260200160002060008201518160000160006101000a81548173ffffffffffffffffffffffffffffffffffffffff021916908373ffffffffffffffffffffffffffffffffffffffff16021790555060208201518160000160146101000a81548167ffffffffffffffff021916908360070b67ffffffffffffffff160217905550604082015181600001601c6101000a81548160ff02191690831515021790555060608201518160010160006101000a81548173ffffffffffffffffffffffffffffffffffffffff021916908373ffffffffffffffffffffffffffffffffffffffff1602179055506080820151816002019080519060200190610f9b929190612f54565b509050505050565b60066020528160005260406000206020528060005260406000206000915091509054906101000a900460ff1681565b6000600154905090565b6000600660008460070b60070b815260200190815260200160002060008360070b60070b815260200190815260200160002060009054906101000a900460ff16905092915050565b6005818051602081018201805184825260208301602085012081835280955050505050506000915054906101000a900473ffffffffffffffffffffffffffffffffffffffff1681565b600061107883611699565b90506000816000015190503373ffffffffffffffffffffffffffffffffffffffff168173ffffffffffffffffffffffffffffffffffffffff16146110f1576040517f08c379a00000000000000000000000000000000000000000000000000000000081526004016110e8906137d2565b60405180910390fd5b6110fb8484612c34565b600760008560070b60070b81526020019081526020016000208390806001815401808255809150506001900390600052602060002090600491828204019190066008029091909190916101000a81548167ffffffffffffffff021916908360070b67ffffffffffffffff1602179055508260070b7f72ea88320a14be91b677bb10d77500a955301d37422909c3ad479fcf35e100938560405161119e91906136d7565b60405180910390a250505050565b60006111b7336107b4565b90506000816000015190503373ffffffffffffffffffffffffffffffffffffffff168173ffffffffffffffffffffffffffffffffffffffff1614611230576040517f08c379a0000000000000000000000000000000000000000000000000000000008152600401611227906137d2565b60405180910390fd5b6000826020015190506000611244856107b4565b90506000816020015190506112598382612c34565b600760008460070b60070b81526020019081526020016000208190806001815401808255809150506001900390600052602060002090600491828204019190066008029091909190916101000a81548167ffffffffffffffff021916908360070b67ffffffffffffffff1602179055508060070b7f72ea88320a14be91b677bb10d77500a955301d37422909c3ad479fcf35e10093846040516112fc91906136d7565b60405180910390a2505050505050565b600080611318836107b4565b90508060200151915050919050565b61132f612c2c565b73ffffffffffffffffffffffffffffffffffffffff1661134d611d7a565b73ffffffffffffffffffffffffffffffffffffffff16146113a3576040517f08c379a000000000000000000000000000000000000000000000000000000000815260040161139a90613832565b60405180910390fd5b6000600460008373ffffffffffffffffffffffffffffffffffffffff1673ffffffffffffffffffffffffffffffffffffffff16815260200190815260200160002060000160149054906101000a900460070b90506000600460008473ffffffffffffffffffffffffffffffffffffffff1673ffffffffffffffffffffffffffffffffffffffff168152602001908152602001600020600201805461144690613a3f565b80601f016020809104026020016040519081016040528092919081815260200182805461147290613a3f565b80156114bf5780601f10611494576101008083540402835291602001916114bf565b820191906000526020600020905b8154815290600101906020018083116114a257829003601f168201915b5050505050905060004690506005811461150e576040517f08c379a000000000000000000000000000000000000000000000000000000000815260040161150590613872565b60405180910390fd5b600460008573ffffffffffffffffffffffffffffffffffffffff1673ffffffffffffffffffffffffffffffffffffffff168152602001908152602001600020600080820160006101000a81549073ffffffffffffffffffffffffffffffffffffffff02191690556000820160146101000a81549067ffffffffffffffff021916905560008201601c6101000a81549060ff02191690556001820160006101000a81549073ffffffffffffffffffffffffffffffffffffffff02191690556002820160006115db9190612fda565b5050600360008460070b60070b815260200190815260200160002060006101000a81549073ffffffffffffffffffffffffffffffffffffffff0219169055600582604051611629919061361b565b908152602001604051809103902060006101000a81549073ffffffffffffffffffffffffffffffffffffffff02191690557f0511bec3ed97c7099362d7e7b0ed4fe8afe6f448a0dcf73f258be48dceb302db838560405161168b9291906136f2565b60405180910390a150505050565b6116a1612ef4565b60006116ac83610771565b90506000600460008373ffffffffffffffffffffffffffffffffffffffff1673ffffffffffffffffffffffffffffffffffffffff1681526020019081526020016000206040518060a00160405290816000820160009054906101000a900473ffffffffffffffffffffffffffffffffffffffff1673ffffffffffffffffffffffffffffffffffffffff1673ffffffffffffffffffffffffffffffffffffffff1681526020016000820160149054906101000a900460070b60070b60070b815260200160008201601c9054906101000a900460ff161515151581526020016001820160009054906101000a900473ffffffffffffffffffffffffffffffffffffffff1673ffffffffffffffffffffffffffffffffffffffff1673ffffffffffffffffffffffffffffffffffffffff1681526020016002820180546117ee90613a3f565b80601f016020809104026020016040519081016040528092919081815260200182805461181a90613a3f565b80156118675780601f1061183c57610100808354040283529160200191611867565b820191906000526020600020905b81548152906001019060200180831161184a57829003601f168201915b50505050508152505090508092505050919050565b600061188783612195565b90506000816000015190503373ffffffffffffffffffffffffffffffffffffffff168173ffffffffffffffffffffffffffffffffffffffff1614611900576040517f08c379a00000000000000000000000000000000000000000000000000000000081526004016118f790613812565b60405180910390fd5b600082602001519050600061191485612195565b90506000816000015190506000826020015190508173ffffffffffffffffffffffffffffffffffffffff16600360008360070b60070b815260200190815260200160002060009054906101000a900473ffffffffffffffffffffffffffffffffffffffff1673ffffffffffffffffffffffffffffffffffffffff16146119cf576040517f08c379a00000000000000000000000000000000000000000000000000000000081526004016119c690613892565b60405180910390fd5b60008190506119de8582612c81565b600760008660070b60070b81526020019081526020016000208190806001815401808255809150506001900390600052602060002090600491828204019190066008029091909190916101000a81548167ffffffffffffffff021916908360070b67ffffffffffffffff1602179055508060070b7fc6910544ad28778f5982555eae73efab16f145f0e382250ac13db569707ca1cf86604051611a8191906136d7565b60405180910390a2505050505050505050565b60076020528160005260406000208181548110611ab057600080fd5b9060005260206000209060049182820401919006600802915091509054906101000a900460070b81565b611ae2612c2c565b73ffffffffffffffffffffffffffffffffffffffff16611b00611d7a565b73ffffffffffffffffffffffffffffffffffffffff1614611b56576040517f08c379a0000000000000000000000000000000000000000000000000000000008152600401611b4d90613832565b60405180910390fd5b611b606000612cce565b565b6000611b6d83612195565b90506000816000015190503373ffffffffffffffffffffffffffffffffffffffff168173ffffffffffffffffffffffffffffffffffffffff1614611be6576040517f08c379a0000000000000000000000000000000000000000000000000000000008152600401611bdd90613812565b60405180910390fd5b6000826020015190506000611bfa85612195565b90506000816000015190506000826020015190508173ffffffffffffffffffffffffffffffffffffffff16600360008360070b60070b815260200190815260200160002060009054906101000a900473ffffffffffffffffffffffffffffffffffffffff1673ffffffffffffffffffffffffffffffffffffffff1614611cb5576040517f08c379a0000000000000000000000000000000000000000000000000000000008152600401611cac90613852565b60405180910390fd5b6000819050611cc48582612c34565b600760008660070b60070b81526020019081526020016000208190806001815401808255809150506001900390600052602060002090600491828204019190066008029091909190916101000a81548167ffffffffffffffff021916908360070b67ffffffffffffffff1602179055508060070b7f72ea88320a14be91b677bb10d77500a955301d37422909c3ad479fcf35e1009386604051611d6791906136d7565b60405180910390a2505050505050505050565b60008060009054906101000a900473ffffffffffffffffffffffffffffffffffffffff16905090565b60036020528060005260406000206000915054906101000a900473ffffffffffffffffffffffffffffffffffffffff1681565b611dde612c2c565b73ffffffffffffffffffffffffffffffffffffffff16611dfc611d7a565b73ffffffffffffffffffffffffffffffffffffffff1614611e52576040517f08c379a0000000000000000000000000000000000000000000000000000000008152600401611e4990613832565b60405180910390fd5b6000600460008373ffffffffffffffffffffffffffffffffffffffff1673ffffffffffffffffffffffffffffffffffffffff16815260200190815260200160002060000160149054906101000a900460070b90506000600460008473ffffffffffffffffffffffffffffffffffffffff1673ffffffffffffffffffffffffffffffffffffffff1681526020019081526020016000206002018054611ef590613a3f565b80601f0160208091040260200160405190810160405280929190818152602001828054611f2190613a3f565b8015611f6e5780601f10611f4357610100808354040283529160200191611f6e565b820191906000526020600020905b815481529060010190602001808311611f5157829003601f168201915b5050505050905060001515600460008573ffffffffffffffffffffffffffffffffffffffff1673ffffffffffffffffffffffffffffffffffffffff168152602001908152602001600020600001601c9054906101000a900460ff1615151461200b576040517f08c379a0000000000000000000000000000000000000000000000000000000008152600401612002906138b2565b60405180910390fd5b600460008473ffffffffffffffffffffffffffffffffffffffff1673ffffffffffffffffffffffffffffffffffffffff168152602001908152602001600020600080820160006101000a81549073ffffffffffffffffffffffffffffffffffffffff02191690556000820160146101000a81549067ffffffffffffffff021916905560008201601c6101000a81549060ff02191690556001820160006101000a81549073ffffffffffffffffffffffffffffffffffffffff02191690556002820160006120d89190612fda565b5050600360008360070b60070b815260200190815260200160002060006101000a81549073ffffffffffffffffffffffffffffffffffffffff0219169055600581604051612126919061361b565b908152602001604051809103902060006101000a81549073ffffffffffffffffffffffffffffffffffffffff02191690557f0511bec3ed97c7099362d7e7b0ed4fe8afe6f448a0dcf73f258be48dceb302db82846040516121889291906136f2565b60405180910390a1505050565b61219d612ef4565b60006121a883612378565b90506000600460008373ffffffffffffffffffffffffffffffffffffffff1673ffffffffffffffffffffffffffffffffffffffff1681526020019081526020016000206040518060a00160405290816000820160009054906101000a900473ffffffffffffffffffffffffffffffffffffffff1673ffffffffffffffffffffffffffffffffffffffff1673ffffffffffffffffffffffffffffffffffffffff1681526020016000820160149054906101000a900460070b60070b60070b815260200160008201601c9054906101000a900460ff161515151581526020016001820160009054906101000a900473ffffffffffffffffffffffffffffffffffffffff1673ffffffffffffffffffffffffffffffffffffffff1673ffffffffffffffffffffffffffffffffffffffff1681526020016002820180546122ea90613a3f565b80601f016020809104026020016040519081016040528092919081815260200182805461231690613a3f565b80156123635780601f1061233857610100808354040283529160200191612363565b820191906000526020600020905b81548152906001019060200180831161234657829003601f168201915b50505050508152505090508092505050919050565b600060058260405161238a919061361b565b908152602001604051809103902060009054906101000a900473ffffffffffffffffffffffffffffffffffffffff169050919050565b6123c8612c2c565b73ffffffffffffffffffffffffffffffffffffffff166123e6611d7a565b73ffffffffffffffffffffffffffffffffffffffff161461243c576040517f08c379a000000000000000000000000000000000000000000000000000000000815260040161243390613832565b60405180910390fd5b8060018190555050565b6000339050612456838284612d92565b600154341461249a576040517f08c379a0000000000000000000000000000000000000000000000000000000008152600401612491906137b2565b60405180910390fd5b6040518060a001604052808273ffffffffffffffffffffffffffffffffffffffff1681526020018460070b8152602001600015158152602001600073ffffffffffffffffffffffffffffffffffffffff16815260200183815250600460003373ffffffffffffffffffffffffffffffffffffffff1673ffffffffffffffffffffffffffffffffffffffff16815260200190815260200160002060008201518160000160006101000a81548173ffffffffffffffffffffffffffffffffffffffff021916908373ffffffffffffffffffffffffffffffffffffffff16021790555060208201518160000160146101000a81548167ffffffffffffffff021916908360070b67ffffffffffffffff160217905550604082015181600001601c6101000a81548160ff02191690831515021790555060608201518160010160006101000a81548173ffffffffffffffffffffffffffffffffffffffff021916908373ffffffffffffffffffffffffffffffffffffffff160217905550608082015181600201908051906020019061262f929190612f54565b509050507fcb042d04619e497175f63ce8ec9b9127cb0bf344facc37db4fe8492c2ecfbb9e83336040516126649291906136f2565b60405180910390a18260070b7f2d329f0d038ded94203a58e5be2f2f41b14cbbc49cc1f89443696606f104658c3360405161269f9190613647565b60405180910390a26000600260009054906101000a900473ffffffffffffffffffffffffffffffffffffffff1673ffffffffffffffffffffffffffffffffffffffff166001546040516126f190613632565b60006040518083038185875af1925050503d806000811461272e576040519150601f19603f3d011682016040523d82523d6000602084013e612733565b606091505b5050905080612777576040517f08c379a000000000000000000000000000000000000000000000000000000000815260040161276e90613772565b60405180910390fd5b50505050565b600061278883611699565b90506000816000015190503373ffffffffffffffffffffffffffffffffffffffff168173ffffffffffffffffffffffffffffffffffffffff1614612801576040517f08c379a00000000000000000000000000000000000000000000000000000000081526004016127f8906137d2565b60405180910390fd5b61280b8484612c81565b600760008560070b60070b81526020019081526020016000208390806001815401808255809150506001900390600052602060002090600491828204019190066008029091909190916101000a81548167ffffffffffffffff021916908360070b67ffffffffffffffff1602179055508260070b7fc6910544ad28778f5982555eae73efab16f145f0e382250ac13db569707ca1cf856040516128ae91906136d7565b60405180910390a250505050565b60046020528060005260406000206000915090508060000160009054906101000a900473ffffffffffffffffffffffffffffffffffffffff16908060000160149054906101000a900460070b9080600001601c9054906101000a900460ff16908060010160009054906101000a900473ffffffffffffffffffffffffffffffffffffffff169080600201805461295190613a3f565b80601f016020809104026020016040519081016040528092919081815260200182805461297d90613a3f565b80156129ca5780601f1061299f576101008083540402835291602001916129ca565b820191906000526020600020905b8154815290600101906020018083116129ad57829003601f168201915b5050505050905085565b60006129df336107b4565b90506000816000015190503373ffffffffffffffffffffffffffffffffffffffff168173ffffffffffffffffffffffffffffffffffffffff1614612a58576040517f08c379a0000000000000000000000000000000000000000000000000000000008152600401612a4f906137d2565b60405180910390fd5b6000826020015190506000612a6c856107b4565b9050600081602001519050612a818382612c81565b600760008460070b60070b81526020019081526020016000208190806001815401808255809150506001900390600052602060002090600491828204019190066008029091909190916101000a81548167ffffffffffffffff021916908360070b67ffffffffffffffff1602179055508060070b7fc6910544ad28778f5982555eae73efab16f145f0e382250ac13db569707ca1cf84604051612b2491906136d7565b60405180910390a2505050505050565b612b3c612c2c565b73ffffffffffffffffffffffffffffffffffffffff16612b5a611d7a565b73ffffffffffffffffffffffffffffffffffffffff1614612bb0576040517f08c379a0000000000000000000000000000000000000000000000000000000008152600401612ba790613832565b60405180910390fd5b600073ffffffffffffffffffffffffffffffffffffffff168173ffffffffffffffffffffffffffffffffffffffff161415612c20576040517f08c379a0000000000000000000000000000000000000000000000000000000008152600401612c1790613752565b60405180910390fd5b612c2981612cce565b50565b600033905090565b6000600660008460070b60070b815260200190815260200160002060008360070b60070b815260200190815260200160002060006101000a81548160ff0219169083151502179055505050565b6001600660008460070b60070b815260200190815260200160002060008360070b60070b815260200190815260200160002060006101000a81548160ff0219169083151502179055505050565b60008060009054906101000a900473ffffffffffffffffffffffffffffffffffffffff169050816000806101000a81548173ffffffffffffffffffffffffffffffffffffffff021916908373ffffffffffffffffffffffffffffffffffffffff1602179055508173ffffffffffffffffffffffffffffffffffffffff168173ffffffffffffffffffffffffffffffffffffffff167f8be0079c531659141344cd1fd0a4f28419497f9722a3daafe3b4186f6b6457e060405160405180910390a35050565b600073ffffffffffffffffffffffffffffffffffffffff16600360008560070b60070b815260200190815260200160002060009054906101000a900473ffffffffffffffffffffffffffffffffffffffff1673ffffffffffffffffffffffffffffffffffffffff1614612e3a576040517f08c379a0000000000000000000000000000000000000000000000000000000008152600401612e3190613792565b60405180910390fd5b81600360008560070b60070b815260200190815260200160002060006101000a81548173ffffffffffffffffffffffffffffffffffffffff021916908373ffffffffffffffffffffffffffffffffffffffff16021790555081600582604051612ea3919061361b565b908152602001604051809103902060006101000a81548173ffffffffffffffffffffffffffffffffffffffff021916908373ffffffffffffffffffffffffffffffffffffffff160217905550505050565b6040518060a00160405280600073ffffffffffffffffffffffffffffffffffffffff168152602001600060070b8152602001600015158152602001600073ffffffffffffffffffffffffffffffffffffffff168152602001606081525090565b828054612f6090613a3f565b90600052602060002090601f016020900481019282612f825760008555612fc9565b82601f10612f9b57805160ff1916838001178555612fc9565b82800160010185558215612fc9579182015b82811115612fc8578251825591602001919060010190612fad565b5b509050612fd6919061301a565b5090565b508054612fe690613a3f565b6000825580601f10612ff85750613017565b601f016020900490600052602060002090810190613016919061301a565b5b50565b5b8082111561303357600081600090555060010161301b565b5090565b600061304a61304584613934565b61390f565b90508281526020810184848401111561306257600080fd5b61306d8482856139fd565b509392505050565b60008135905061308481613e7c565b92915050565b60008135905061309981613e93565b92915050565b600082601f8301126130b057600080fd5b81356130c0848260208601613037565b91505092915050565b6000813590506130d881613eaa565b92915050565b6000602082840312156130f057600080fd5b60006130fe84828501613075565b91505092915050565b60006020828403121561311957600080fd5b60006131278482850161308a565b91505092915050565b6000806040838503121561314357600080fd5b60006131518582860161308a565b92505060206131628582860161308a565b9150509250929050565b6000806040838503121561317f57600080fd5b600061318d8582860161308a565b925050602083013567ffffffffffffffff8111156131aa57600080fd5b6131b68582860161309f565b9150509250929050565b600080604083850312156131d357600080fd5b60006131e18582860161308a565b92505060206131f2858286016130c9565b9150509250929050565b60006020828403121561320e57600080fd5b600082013567ffffffffffffffff81111561322857600080fd5b6132348482850161309f565b91505092915050565b6000806040838503121561325057600080fd5b600083013567ffffffffffffffff81111561326a57600080fd5b6132768582860161309f565b925050602083013567ffffffffffffffff81111561329357600080fd5b61329f8582860161309f565b9150509250929050565b6000602082840312156132bb57600080fd5b60006132c9848285016130c9565b91505092915050565b6132db816139a8565b82525050565b6132ea816139a8565b82525050565b6132f9816139ba565b82525050565b613308816139ba565b82525050565b613317816139c6565b82525050565b613326816139c6565b82525050565b600061333782613965565b613341818561397b565b9350613351818560208601613a0c565b61335a81613b00565b840191505092915050565b600061337082613965565b61337a818561398c565b935061338a818560208601613a0c565b61339381613b00565b840191505092915050565b60006133a982613965565b6133b3818561399d565b93506133c3818560208601613a0c565b80840191505092915050565b60006133dc60268361398c565b91506133e782613b11565b604082019050919050565b60006133ff60168361398c565b915061340a82613b60565b602082019050919050565b600061342260308361398c565b915061342d82613b89565b604082019050919050565b600061344560188361398c565b915061345082613bd8565b602082019050919050565b600061346860408361398c565b915061347382613c01565b604082019050919050565b600061348b601f8361398c565b915061349682613c50565b602082019050919050565b60006134ae602c8361398c565b91506134b982613c79565b604082019050919050565b60006134d160208361398c565b91506134dc82613cc8565b602082019050919050565b60006134f4604a8361398c565b91506134ff82613cf1565b606082019050919050565b600061351760258361398c565b915061352282613d66565b604082019050919050565b600061353a60468361398c565b915061354582613db5565b606082019050919050565b600061355d60258361398c565b915061356882613e2a565b604082019050919050565b6000613580600083613970565b915061358b82613e79565b600082019050919050565b600060a0830160008301516135ae60008601826132d2565b5060208301516135c1602086018261330e565b5060408301516135d460408601826132f0565b5060608301516135e760608601826132d2565b50608083015184820360808601526135ff828261332c565b9150508091505092915050565b613615816139f3565b82525050565b6000613627828461339e565b915081905092915050565b600061363d82613573565b9150819050919050565b600060208201905061365c60008301846132e1565b92915050565b600060a08201905061367760008301886132e1565b613684602083018761331d565b61369160408301866132ff565b61369e60608301856132e1565b81810360808301526136b08184613365565b90509695505050505050565b60006020820190506136d160008301846132ff565b92915050565b60006020820190506136ec600083018461331d565b92915050565b6000604082019050613707600083018561331d565b61371460208301846132e1565b9392505050565b6000606082019050613730600083018661331d565b61373d60208301856132e1565b61374a60408301846132e1565b949350505050565b6000602082019050818103600083015261376b816133cf565b9050919050565b6000602082019050818103600083015261378b816133f2565b9050919050565b600060208201905081810360008301526137ab81613415565b9050919050565b600060208201905081810360008301526137cb81613438565b9050919050565b600060208201905081810360008301526137eb8161345b565b9050919050565b6000602082019050818103600083015261380b8161347e565b9050919050565b6000602082019050818103600083015261382b816134a1565b9050919050565b6000602082019050818103600083015261384b816134c4565b9050919050565b6000602082019050818103600083015261386b816134e7565b9050919050565b6000602082019050818103600083015261388b8161350a565b9050919050565b600060208201905081810360008301526138ab8161352d565b9050919050565b600060208201905081810360008301526138cb81613550565b9050919050565b600060208201905081810360008301526138ec8184613596565b905092915050565b6000602082019050613909600083018461360c565b92915050565b600061391961392a565b90506139258282613a71565b919050565b6000604051905090565b600067ffffffffffffffff82111561394f5761394e613ad1565b5b61395882613b00565b9050602081019050919050565b600081519050919050565b600081905092915050565b600082825260208201905092915050565b600082825260208201905092915050565b600081905092915050565b60006139b3826139d3565b9050919050565b60008115159050919050565b60008160070b9050919050565b600073ffffffffffffffffffffffffffffffffffffffff82169050919050565b6000819050919050565b82818337600083830152505050565b60005b83811015613a2a578082015181840152602081019050613a0f565b83811115613a39576000848401525b50505050565b60006002820490506001821680613a5757607f821691505b60208210811415613a6b57613a6a613aa2565b5b50919050565b613a7a82613b00565b810181811067ffffffffffffffff82111715613a9957613a98613ad1565b5b80604052505050565b7f4e487b7100000000000000000000000000000000000000000000000000000000600052602260045260246000fd5b7f4e487b7100000000000000000000000000000000000000000000000000000000600052604160045260246000fd5b6000601f19601f8301169050919050565b7f4f776e61626c653a206e6577206f776e657220697320746865207a65726f206160008201527f6464726573730000000000000000000000000000000000000000000000000000602082015250565b7f556e61626c6520746f207472616e736665722066656500000000000000000000600082015250565b7f54686572652773206164647265737320636f6e6e656374656420746f2074686160008201527f7420544720494420616c72656164792e00000000000000000000000000000000602082015250565b7f50617373706f727420666565206973206e6f7420706169640000000000000000600082015250565b7f596f75722063757272656e742061646472657373206d69736d6174636820776960008201527f746820796f7572207265676973747265642077616c6c65742061646472657373602082015250565b7f796f7520646f6e2774206e6f77206f776e207468697320757365726e616d6500600082015250565b7f596f75722063757272656e742061646472657373206d69736d6174636820776960008201527f746820796f757220746769640000000000000000000000000000000000000000602082015250565b7f4f776e61626c653a2063616c6c6572206973206e6f7420746865206f776e6572600082015250565b7f656e656d795f6e616d6520757365726e616d652f6964206d6973736d6174636860008201527f207769746820636f72726573706f646e696e6720616464726573732c20706f7360208201527f7369626c65206861636b00000000000000000000000000000000000000000000604082015250565b7f746869732066756e6374696f6e20776f726b2773206f6e6c7920666f7220746560008201527f73746e6574000000000000000000000000000000000000000000000000000000602082015250565b7f667269656e6420757365726e616d652f6964206d6973736d617463682077697460008201527f6820636f72726573706f646e696e6720616464726573732c20706f737369626c60208201527f65206861636b0000000000000000000000000000000000000000000000000000604082015250565b7f616c726561647920617070726f766564204f5220646f206e6f7420657869737460008201527f7320796574000000000000000000000000000000000000000000000000000000602082015250565b50565b613e85816139a8565b8114613e9057600080fd5b50565b613e9c816139c6565b8114613ea757600080fd5b50565b613eb3816139f3565b8114613ebe57600080fd5b5056fea2646970667358221220dc86398fac7352b09c7c805ac7f46321dbcaa910d3b1de3f39f5bd4dfdd6d5f064736f6c63430008040033",
          "opcodes": "PUSH1 0x80 PUSH1 0x40 MSTORE CALLVALUE DUP1 ISZERO PUSH3 0x11 JUMPI PUSH1 0x0 DUP1 REVERT JUMPDEST POP PUSH3 0x32 PUSH3 0x26 PUSH3 0x91 PUSH1 0x20 SHL PUSH1 0x20 SHR JUMP JUMPDEST PUSH3 0x99 PUSH1 0x20 SHL PUSH1 0x20 SHR JUMP JUMPDEST PUSH2 0x3E8 PUSH1 0x1 DUP2 SWAP1 SSTORE POP PUSH3 0x4B PUSH3 0x15D PUSH1 0x20 SHL PUSH1 0x20 SHR JUMP JUMPDEST PUSH1 0x2 PUSH1 0x0 PUSH2 0x100 EXP DUP2 SLOAD DUP2 PUSH20 0xFFFFFFFFFFFFFFFFFFFFFFFFFFFFFFFFFFFFFFFF MUL NOT AND SWAP1 DUP4 PUSH20 0xFFFFFFFFFFFFFFFFFFFFFFFFFFFFFFFFFFFFFFFF AND MUL OR SWAP1 SSTORE POP PUSH3 0x186 JUMP JUMPDEST PUSH1 0x0 CALLER SWAP1 POP SWAP1 JUMP JUMPDEST PUSH1 0x0 DUP1 PUSH1 0x0 SWAP1 SLOAD SWAP1 PUSH2 0x100 EXP SWAP1 DIV PUSH20 0xFFFFFFFFFFFFFFFFFFFFFFFFFFFFFFFFFFFFFFFF AND SWAP1 POP DUP2 PUSH1 0x0 DUP1 PUSH2 0x100 EXP DUP2 SLOAD DUP2 PUSH20 0xFFFFFFFFFFFFFFFFFFFFFFFFFFFFFFFFFFFFFFFF MUL NOT AND SWAP1 DUP4 PUSH20 0xFFFFFFFFFFFFFFFFFFFFFFFFFFFFFFFFFFFFFFFF AND MUL OR SWAP1 SSTORE POP DUP2 PUSH20 0xFFFFFFFFFFFFFFFFFFFFFFFFFFFFFFFFFFFFFFFF AND DUP2 PUSH20 0xFFFFFFFFFFFFFFFFFFFFFFFFFFFFFFFFFFFFFFFF AND PUSH32 0x8BE0079C531659141344CD1FD0A4F28419497F9722A3DAAFE3B4186F6B6457E0 PUSH1 0x40 MLOAD PUSH1 0x40 MLOAD DUP1 SWAP2 SUB SWAP1 LOG3 POP POP JUMP JUMPDEST PUSH1 0x0 DUP1 PUSH1 0x0 SWAP1 SLOAD SWAP1 PUSH2 0x100 EXP SWAP1 DIV PUSH20 0xFFFFFFFFFFFFFFFFFFFFFFFFFFFFFFFFFFFFFFFF AND SWAP1 POP SWAP1 JUMP JUMPDEST PUSH2 0x3EF7 DUP1 PUSH3 0x196 PUSH1 0x0 CODECOPY PUSH1 0x0 RETURN INVALID PUSH1 0x80 PUSH1 0x40 MSTORE PUSH1 0x4 CALLDATASIZE LT PUSH2 0x1C2 JUMPI PUSH1 0x0 CALLDATALOAD PUSH1 0xE0 SHR DUP1 PUSH4 0x68789CEA GT PUSH2 0xF7 JUMPI DUP1 PUSH4 0xB25047C2 GT PUSH2 0x95 JUMPI DUP1 PUSH4 0xDCA28884 GT PUSH2 0x64 JUMPI DUP1 PUSH4 0xDCA28884 EQ PUSH2 0x68B JUMPI DUP1 PUSH4 0xE37C132B EQ PUSH2 0x6B4 JUMPI DUP1 PUSH4 0xE5122BAB EQ PUSH2 0x6F5 JUMPI DUP1 PUSH4 0xF2FDE38B EQ PUSH2 0x71E JUMPI PUSH2 0x1C2 JUMP JUMPDEST DUP1 PUSH4 0xB25047C2 EQ PUSH2 0x5CC JUMPI DUP1 PUSH4 0xD2114E18 EQ PUSH2 0x609 JUMPI DUP1 PUSH4 0xD2125BD2 EQ PUSH2 0x646 JUMPI DUP1 PUSH4 0xD5998AEB EQ PUSH2 0x66F JUMPI PUSH2 0x1C2 JUMP JUMPDEST DUP1 PUSH4 0x87234689 GT PUSH2 0xD1 JUMPI DUP1 PUSH4 0x87234689 EQ PUSH2 0x512 JUMPI DUP1 PUSH4 0x8DA5CB5B EQ PUSH2 0x53B JUMPI DUP1 PUSH4 0x9413C642 EQ PUSH2 0x566 JUMPI DUP1 PUSH4 0x9421DA61 EQ PUSH2 0x5A3 JUMPI PUSH2 0x1C2 JUMP JUMPDEST DUP1 PUSH4 0x68789CEA EQ PUSH2 0x495 JUMPI DUP1 PUSH4 0x6A8EC05E EQ PUSH2 0x4BE JUMPI DUP1 PUSH4 0x715018A6 EQ PUSH2 0x4FB JUMPI PUSH2 0x1C2 JUMP JUMPDEST DUP1 PUSH4 0x4AC054BB GT PUSH2 0x164 JUMPI DUP1 PUSH4 0x5DDF30D0 GT PUSH2 0x13E JUMPI DUP1 PUSH4 0x5DDF30D0 EQ PUSH2 0x3C9 JUMPI DUP1 PUSH4 0x61CABE37 EQ PUSH2 0x3F2 JUMPI DUP1 PUSH4 0x65104AFC EQ PUSH2 0x42F JUMPI DUP1 PUSH4 0x65A5637E EQ PUSH2 0x458 JUMPI PUSH2 0x1C2 JUMP JUMPDEST DUP1 PUSH4 0x4AC054BB EQ PUSH2 0x326 JUMPI DUP1 PUSH4 0x59CCA93B EQ PUSH2 0x363 JUMPI DUP1 PUSH4 0x5C962DFC EQ PUSH2 0x3A0 JUMPI PUSH2 0x1C2 JUMP JUMPDEST DUP1 PUSH4 0x1755E9E6 GT PUSH2 0x1A0 JUMPI DUP1 PUSH4 0x1755E9E6 EQ PUSH2 0x26C JUMPI DUP1 PUSH4 0x21E6531D EQ PUSH2 0x295 JUMPI DUP1 PUSH4 0x239F60FA EQ PUSH2 0x2BE JUMPI DUP1 PUSH4 0x48DC1561 EQ PUSH2 0x2FB JUMPI PUSH2 0x1C2 JUMP JUMPDEST DUP1 PUSH4 0xAE50A39 EQ PUSH2 0x1C7 JUMPI DUP1 PUSH4 0xC2FC6E3 EQ PUSH2 0x1F2 JUMPI DUP1 PUSH4 0x1423EA07 EQ PUSH2 0x22F JUMPI JUMPDEST PUSH1 0x0 DUP1 REVERT JUMPDEST CALLVALUE DUP1 ISZERO PUSH2 0x1D3 JUMPI PUSH1 0x0 DUP1 REVERT JUMPDEST POP PUSH2 0x1DC PUSH2 0x747 JUMP JUMPDEST PUSH1 0x40 MLOAD PUSH2 0x1E9 SWAP2 SWAP1 PUSH2 0x3647 JUMP JUMPDEST PUSH1 0x40 MLOAD DUP1 SWAP2 SUB SWAP1 RETURN JUMPDEST CALLVALUE DUP1 ISZERO PUSH2 0x1FE JUMPI PUSH1 0x0 DUP1 REVERT JUMPDEST POP PUSH2 0x219 PUSH1 0x4 DUP1 CALLDATASIZE SUB DUP2 ADD SWAP1 PUSH2 0x214 SWAP2 SWAP1 PUSH2 0x3107 JUMP JUMPDEST PUSH2 0x771 JUMP JUMPDEST PUSH1 0x40 MLOAD PUSH2 0x226 SWAP2 SWAP1 PUSH2 0x3647 JUMP JUMPDEST PUSH1 0x40 MLOAD DUP1 SWAP2 SUB SWAP1 RETURN JUMPDEST CALLVALUE DUP1 ISZERO PUSH2 0x23B JUMPI PUSH1 0x0 DUP1 REVERT JUMPDEST POP PUSH2 0x256 PUSH1 0x4 DUP1 CALLDATASIZE SUB DUP2 ADD SWAP1 PUSH2 0x251 SWAP2 SWAP1 PUSH2 0x30DE JUMP JUMPDEST PUSH2 0x7B4 JUMP JUMPDEST PUSH1 0x40 MLOAD PUSH2 0x263 SWAP2 SWAP1 PUSH2 0x38D2 JUMP JUMPDEST PUSH1 0x40 MLOAD DUP1 SWAP2 SUB SWAP1 RETURN JUMPDEST CALLVALUE DUP1 ISZERO PUSH2 0x278 JUMPI PUSH1 0x0 DUP1 REVERT JUMPDEST POP PUSH2 0x293 PUSH1 0x4 DUP1 CALLDATASIZE SUB DUP2 ADD SWAP1 PUSH2 0x28E SWAP2 SWAP1 PUSH2 0x30DE JUMP JUMPDEST PUSH2 0x989 JUMP JUMPDEST STOP JUMPDEST CALLVALUE DUP1 ISZERO PUSH2 0x2A1 JUMPI PUSH1 0x0 DUP1 REVERT JUMPDEST POP PUSH2 0x2BC PUSH1 0x4 DUP1 CALLDATASIZE SUB DUP2 ADD SWAP1 PUSH2 0x2B7 SWAP2 SWAP1 PUSH2 0x31FC JUMP JUMPDEST PUSH2 0xDD7 JUMP JUMPDEST STOP JUMPDEST CALLVALUE DUP1 ISZERO PUSH2 0x2CA JUMPI PUSH1 0x0 DUP1 REVERT JUMPDEST POP PUSH2 0x2E5 PUSH1 0x4 DUP1 CALLDATASIZE SUB DUP2 ADD SWAP1 PUSH2 0x2E0 SWAP2 SWAP1 PUSH2 0x3130 JUMP JUMPDEST PUSH2 0xFA3 JUMP JUMPDEST PUSH1 0x40 MLOAD PUSH2 0x2F2 SWAP2 SWAP1 PUSH2 0x36BC JUMP JUMPDEST PUSH1 0x40 MLOAD DUP1 SWAP2 SUB SWAP1 RETURN JUMPDEST CALLVALUE DUP1 ISZERO PUSH2 0x307 JUMPI PUSH1 0x0 DUP1 REVERT JUMPDEST POP PUSH2 0x310 PUSH2 0xFD2 JUMP JUMPDEST PUSH1 0x40 MLOAD PUSH2 0x31D SWAP2 SWAP1 PUSH2 0x38F4 JUMP JUMPDEST PUSH1 0x40 MLOAD DUP1 SWAP2 SUB SWAP1 RETURN JUMPDEST CALLVALUE DUP1 ISZERO PUSH2 0x332 JUMPI PUSH1 0x0 DUP1 REVERT JUMPDEST POP PUSH2 0x34D PUSH1 0x4 DUP1 CALLDATASIZE SUB DUP2 ADD SWAP1 PUSH2 0x348 SWAP2 SWAP1 PUSH2 0x3130 JUMP JUMPDEST PUSH2 0xFDC JUMP JUMPDEST PUSH1 0x40 MLOAD PUSH2 0x35A SWAP2 SWAP1 PUSH2 0x36BC JUMP JUMPDEST PUSH1 0x40 MLOAD DUP1 SWAP2 SUB SWAP1 RETURN JUMPDEST CALLVALUE DUP1 ISZERO PUSH2 0x36F JUMPI PUSH1 0x0 DUP1 REVERT JUMPDEST POP PUSH2 0x38A PUSH1 0x4 DUP1 CALLDATASIZE SUB DUP2 ADD SWAP1 PUSH2 0x385 SWAP2 SWAP1 PUSH2 0x31FC JUMP JUMPDEST PUSH2 0x1024 JUMP JUMPDEST PUSH1 0x40 MLOAD PUSH2 0x397 SWAP2 SWAP1 PUSH2 0x3647 JUMP JUMPDEST PUSH1 0x40 MLOAD DUP1 SWAP2 SUB SWAP1 RETURN JUMPDEST CALLVALUE DUP1 ISZERO PUSH2 0x3AC JUMPI PUSH1 0x0 DUP1 REVERT JUMPDEST POP PUSH2 0x3C7 PUSH1 0x4 DUP1 CALLDATASIZE SUB DUP2 ADD SWAP1 PUSH2 0x3C2 SWAP2 SWAP1 PUSH2 0x3130 JUMP JUMPDEST PUSH2 0x106D JUMP JUMPDEST STOP JUMPDEST CALLVALUE DUP1 ISZERO PUSH2 0x3D5 JUMPI PUSH1 0x0 DUP1 REVERT JUMPDEST POP PUSH2 0x3F0 PUSH1 0x4 DUP1 CALLDATASIZE SUB DUP2 ADD SWAP1 PUSH2 0x3EB SWAP2 SWAP1 PUSH2 0x30DE JUMP JUMPDEST PUSH2 0x11AC JUMP JUMPDEST STOP JUMPDEST CALLVALUE DUP1 ISZERO PUSH2 0x3FE JUMPI PUSH1 0x0 DUP1 REVERT JUMPDEST POP PUSH2 0x419 PUSH1 0x4 DUP1 CALLDATASIZE SUB DUP2 ADD SWAP1 PUSH2 0x414 SWAP2 SWAP1 PUSH2 0x30DE JUMP JUMPDEST PUSH2 0x130C JUMP JUMPDEST PUSH1 0x40 MLOAD PUSH2 0x426 SWAP2 SWAP1 PUSH2 0x36D7 JUMP JUMPDEST PUSH1 0x40 MLOAD DUP1 SWAP2 SUB SWAP1 RETURN JUMPDEST CALLVALUE DUP1 ISZERO PUSH2 0x43B JUMPI PUSH1 0x0 DUP1 REVERT JUMPDEST POP PUSH2 0x456 PUSH1 0x4 DUP1 CALLDATASIZE SUB DUP2 ADD SWAP1 PUSH2 0x451 SWAP2 SWAP1 PUSH2 0x30DE JUMP JUMPDEST PUSH2 0x1327 JUMP JUMPDEST STOP JUMPDEST CALLVALUE DUP1 ISZERO PUSH2 0x464 JUMPI PUSH1 0x0 DUP1 REVERT JUMPDEST POP PUSH2 0x47F PUSH1 0x4 DUP1 CALLDATASIZE SUB DUP2 ADD SWAP1 PUSH2 0x47A SWAP2 SWAP1 PUSH2 0x3107 JUMP JUMPDEST PUSH2 0x1699 JUMP JUMPDEST PUSH1 0x40 MLOAD PUSH2 0x48C SWAP2 SWAP1 PUSH2 0x38D2 JUMP JUMPDEST PUSH1 0x40 MLOAD DUP1 SWAP2 SUB SWAP1 RETURN JUMPDEST CALLVALUE DUP1 ISZERO PUSH2 0x4A1 JUMPI PUSH1 0x0 DUP1 REVERT JUMPDEST POP PUSH2 0x4BC PUSH1 0x4 DUP1 CALLDATASIZE SUB DUP2 ADD SWAP1 PUSH2 0x4B7 SWAP2 SWAP1 PUSH2 0x323D JUMP JUMPDEST PUSH2 0x187C JUMP JUMPDEST STOP JUMPDEST CALLVALUE DUP1 ISZERO PUSH2 0x4CA JUMPI PUSH1 0x0 DUP1 REVERT JUMPDEST POP PUSH2 0x4E5 PUSH1 0x4 DUP1 CALLDATASIZE SUB DUP2 ADD SWAP1 PUSH2 0x4E0 SWAP2 SWAP1 PUSH2 0x31C0 JUMP JUMPDEST PUSH2 0x1A94 JUMP JUMPDEST PUSH1 0x40 MLOAD PUSH2 0x4F2 SWAP2 SWAP1 PUSH2 0x36D7 JUMP JUMPDEST PUSH1 0x40 MLOAD DUP1 SWAP2 SUB SWAP1 RETURN JUMPDEST CALLVALUE DUP1 ISZERO PUSH2 0x507 JUMPI PUSH1 0x0 DUP1 REVERT JUMPDEST POP PUSH2 0x510 PUSH2 0x1ADA JUMP JUMPDEST STOP JUMPDEST CALLVALUE DUP1 ISZERO PUSH2 0x51E JUMPI PUSH1 0x0 DUP1 REVERT JUMPDEST POP PUSH2 0x539 PUSH1 0x4 DUP1 CALLDATASIZE SUB DUP2 ADD SWAP1 PUSH2 0x534 SWAP2 SWAP1 PUSH2 0x323D JUMP JUMPDEST PUSH2 0x1B62 JUMP JUMPDEST STOP JUMPDEST CALLVALUE DUP1 ISZERO PUSH2 0x547 JUMPI PUSH1 0x0 DUP1 REVERT JUMPDEST POP PUSH2 0x550 PUSH2 0x1D7A JUMP JUMPDEST PUSH1 0x40 MLOAD PUSH2 0x55D SWAP2 SWAP1 PUSH2 0x3647 JUMP JUMPDEST PUSH1 0x40 MLOAD DUP1 SWAP2 SUB SWAP1 RETURN JUMPDEST CALLVALUE DUP1 ISZERO PUSH2 0x572 JUMPI PUSH1 0x0 DUP1 REVERT JUMPDEST POP PUSH2 0x58D PUSH1 0x4 DUP1 CALLDATASIZE SUB DUP2 ADD SWAP1 PUSH2 0x588 SWAP2 SWAP1 PUSH2 0x3107 JUMP JUMPDEST PUSH2 0x1DA3 JUMP JUMPDEST PUSH1 0x40 MLOAD PUSH2 0x59A SWAP2 SWAP1 PUSH2 0x3647 JUMP JUMPDEST PUSH1 0x40 MLOAD DUP1 SWAP2 SUB SWAP1 RETURN JUMPDEST CALLVALUE DUP1 ISZERO PUSH2 0x5AF JUMPI PUSH1 0x0 DUP1 REVERT JUMPDEST POP PUSH2 0x5CA PUSH1 0x4 DUP1 CALLDATASIZE SUB DUP2 ADD SWAP1 PUSH2 0x5C5 SWAP2 SWAP1 PUSH2 0x30DE JUMP JUMPDEST PUSH2 0x1DD6 JUMP JUMPDEST STOP JUMPDEST CALLVALUE DUP1 ISZERO PUSH2 0x5D8 JUMPI PUSH1 0x0 DUP1 REVERT JUMPDEST POP PUSH2 0x5F3 PUSH1 0x4 DUP1 CALLDATASIZE SUB DUP2 ADD SWAP1 PUSH2 0x5EE SWAP2 SWAP1 PUSH2 0x31FC JUMP JUMPDEST PUSH2 0x2195 JUMP JUMPDEST PUSH1 0x40 MLOAD PUSH2 0x600 SWAP2 SWAP1 PUSH2 0x38D2 JUMP JUMPDEST PUSH1 0x40 MLOAD DUP1 SWAP2 SUB SWAP1 RETURN JUMPDEST CALLVALUE DUP1 ISZERO PUSH2 0x615 JUMPI PUSH1 0x0 DUP1 REVERT JUMPDEST POP PUSH2 0x630 PUSH1 0x4 DUP1 CALLDATASIZE SUB DUP2 ADD SWAP1 PUSH2 0x62B SWAP2 SWAP1 PUSH2 0x31FC JUMP JUMPDEST PUSH2 0x2378 JUMP JUMPDEST PUSH1 0x40 MLOAD PUSH2 0x63D SWAP2 SWAP1 PUSH2 0x3647 JUMP JUMPDEST PUSH1 0x40 MLOAD DUP1 SWAP2 SUB SWAP1 RETURN JUMPDEST CALLVALUE DUP1 ISZERO PUSH2 0x652 JUMPI PUSH1 0x0 DUP1 REVERT JUMPDEST POP PUSH2 0x66D PUSH1 0x4 DUP1 CALLDATASIZE SUB DUP2 ADD SWAP1 PUSH2 0x668 SWAP2 SWAP1 PUSH2 0x32A9 JUMP JUMPDEST PUSH2 0x23C0 JUMP JUMPDEST STOP JUMPDEST PUSH2 0x689 PUSH1 0x4 DUP1 CALLDATASIZE SUB DUP2 ADD SWAP1 PUSH2 0x684 SWAP2 SWAP1 PUSH2 0x316C JUMP JUMPDEST PUSH2 0x2446 JUMP JUMPDEST STOP JUMPDEST CALLVALUE DUP1 ISZERO PUSH2 0x697 JUMPI PUSH1 0x0 DUP1 REVERT JUMPDEST POP PUSH2 0x6B2 PUSH1 0x4 DUP1 CALLDATASIZE SUB DUP2 ADD SWAP1 PUSH2 0x6AD SWAP2 SWAP1 PUSH2 0x3130 JUMP JUMPDEST PUSH2 0x277D JUMP JUMPDEST STOP JUMPDEST CALLVALUE DUP1 ISZERO PUSH2 0x6C0 JUMPI PUSH1 0x0 DUP1 REVERT JUMPDEST POP PUSH2 0x6DB PUSH1 0x4 DUP1 CALLDATASIZE SUB DUP2 ADD SWAP1 PUSH2 0x6D6 SWAP2 SWAP1 PUSH2 0x30DE JUMP JUMPDEST PUSH2 0x28BC JUMP JUMPDEST PUSH1 0x40 MLOAD PUSH2 0x6EC SWAP6 SWAP5 SWAP4 SWAP3 SWAP2 SWAP1 PUSH2 0x3662 JUMP JUMPDEST PUSH1 0x40 MLOAD DUP1 SWAP2 SUB SWAP1 RETURN JUMPDEST CALLVALUE DUP1 ISZERO PUSH2 0x701 JUMPI PUSH1 0x0 DUP1 REVERT JUMPDEST POP PUSH2 0x71C PUSH1 0x4 DUP1 CALLDATASIZE SUB DUP2 ADD SWAP1 PUSH2 0x717 SWAP2 SWAP1 PUSH2 0x30DE JUMP JUMPDEST PUSH2 0x29D4 JUMP JUMPDEST STOP JUMPDEST CALLVALUE DUP1 ISZERO PUSH2 0x72A JUMPI PUSH1 0x0 DUP1 REVERT JUMPDEST POP PUSH2 0x745 PUSH1 0x4 DUP1 CALLDATASIZE SUB DUP2 ADD SWAP1 PUSH2 0x740 SWAP2 SWAP1 PUSH2 0x30DE JUMP JUMPDEST PUSH2 0x2B34 JUMP JUMPDEST STOP JUMPDEST PUSH1 0x0 PUSH1 0x2 PUSH1 0x0 SWAP1 SLOAD SWAP1 PUSH2 0x100 EXP SWAP1 DIV PUSH20 0xFFFFFFFFFFFFFFFFFFFFFFFFFFFFFFFFFFFFFFFF AND SWAP1 POP SWAP1 JUMP JUMPDEST PUSH1 0x0 PUSH1 0x3 PUSH1 0x0 DUP4 PUSH1 0x7 SIGNEXTEND PUSH1 0x7 SIGNEXTEND DUP2 MSTORE PUSH1 0x20 ADD SWAP1 DUP2 MSTORE PUSH1 0x20 ADD PUSH1 0x0 KECCAK256 PUSH1 0x0 SWAP1 SLOAD SWAP1 PUSH2 0x100 EXP SWAP1 DIV PUSH20 0xFFFFFFFFFFFFFFFFFFFFFFFFFFFFFFFFFFFFFFFF AND SWAP1 POP SWAP2 SWAP1 POP JUMP JUMPDEST PUSH2 0x7BC PUSH2 0x2EF4 JUMP JUMPDEST PUSH1 0x0 PUSH1 0x4 PUSH1 0x0 DUP5 PUSH20 0xFFFFFFFFFFFFFFFFFFFFFFFFFFFFFFFFFFFFFFFF AND PUSH20 0xFFFFFFFFFFFFFFFFFFFFFFFFFFFFFFFFFFFFFFFF AND DUP2 MSTORE PUSH1 0x20 ADD SWAP1 DUP2 MSTORE PUSH1 0x20 ADD PUSH1 0x0 KECCAK256 PUSH1 0x40 MLOAD DUP1 PUSH1 0xA0 ADD PUSH1 0x40 MSTORE SWAP1 DUP2 PUSH1 0x0 DUP3 ADD PUSH1 0x0 SWAP1 SLOAD SWAP1 PUSH2 0x100 EXP SWAP1 DIV PUSH20 0xFFFFFFFFFFFFFFFFFFFFFFFFFFFFFFFFFFFFFFFF AND PUSH20 0xFFFFFFFFFFFFFFFFFFFFFFFFFFFFFFFFFFFFFFFF AND PUSH20 0xFFFFFFFFFFFFFFFFFFFFFFFFFFFFFFFFFFFFFFFF AND DUP2 MSTORE PUSH1 0x20 ADD PUSH1 0x0 DUP3 ADD PUSH1 0x14 SWAP1 SLOAD SWAP1 PUSH2 0x100 EXP SWAP1 DIV PUSH1 0x7 SIGNEXTEND PUSH1 0x7 SIGNEXTEND PUSH1 0x7 SIGNEXTEND DUP2 MSTORE PUSH1 0x20 ADD PUSH1 0x0 DUP3 ADD PUSH1 0x1C SWAP1 SLOAD SWAP1 PUSH2 0x100 EXP SWAP1 DIV PUSH1 0xFF AND ISZERO ISZERO ISZERO ISZERO DUP2 MSTORE PUSH1 0x20 ADD PUSH1 0x1 DUP3 ADD PUSH1 0x0 SWAP1 SLOAD SWAP1 PUSH2 0x100 EXP SWAP1 DIV PUSH20 0xFFFFFFFFFFFFFFFFFFFFFFFFFFFFFFFFFFFFFFFF AND PUSH20 0xFFFFFFFFFFFFFFFFFFFFFFFFFFFFFFFFFFFFFFFF AND PUSH20 0xFFFFFFFFFFFFFFFFFFFFFFFFFFFFFFFFFFFFFFFF AND DUP2 MSTORE PUSH1 0x20 ADD PUSH1 0x2 DUP3 ADD DUP1 SLOAD PUSH2 0x8FC SWAP1 PUSH2 0x3A3F JUMP JUMPDEST DUP1 PUSH1 0x1F ADD PUSH1 0x20 DUP1 SWAP2 DIV MUL PUSH1 0x20 ADD PUSH1 0x40 MLOAD SWAP1 DUP2 ADD PUSH1 0x40 MSTORE DUP1 SWAP3 SWAP2 SWAP1 DUP2 DUP2 MSTORE PUSH1 0x20 ADD DUP3 DUP1 SLOAD PUSH2 0x928 SWAP1 PUSH2 0x3A3F JUMP JUMPDEST DUP1 ISZERO PUSH2 0x975 JUMPI DUP1 PUSH1 0x1F LT PUSH2 0x94A JUMPI PUSH2 0x100 DUP1 DUP4 SLOAD DIV MUL DUP4 MSTORE SWAP2 PUSH1 0x20 ADD SWAP2 PUSH2 0x975 JUMP JUMPDEST DUP3 ADD SWAP2 SWAP1 PUSH1 0x0 MSTORE PUSH1 0x20 PUSH1 0x0 KECCAK256 SWAP1 JUMPDEST DUP2 SLOAD DUP2 MSTORE SWAP1 PUSH1 0x1 ADD SWAP1 PUSH1 0x20 ADD DUP1 DUP4 GT PUSH2 0x958 JUMPI DUP3 SWAP1 SUB PUSH1 0x1F AND DUP3 ADD SWAP2 JUMPDEST POP POP POP POP POP DUP2 MSTORE POP POP SWAP1 POP DUP1 SWAP2 POP POP SWAP2 SWAP1 POP JUMP JUMPDEST PUSH2 0x991 PUSH2 0x2C2C JUMP JUMPDEST PUSH20 0xFFFFFFFFFFFFFFFFFFFFFFFFFFFFFFFFFFFFFFFF AND PUSH2 0x9AF PUSH2 0x1D7A JUMP JUMPDEST PUSH20 0xFFFFFFFFFFFFFFFFFFFFFFFFFFFFFFFFFFFFFFFF AND EQ PUSH2 0xA05 JUMPI PUSH1 0x40 MLOAD PUSH32 0x8C379A000000000000000000000000000000000000000000000000000000000 DUP2 MSTORE PUSH1 0x4 ADD PUSH2 0x9FC SWAP1 PUSH2 0x3832 JUMP JUMPDEST PUSH1 0x40 MLOAD DUP1 SWAP2 SUB SWAP1 REVERT JUMPDEST PUSH1 0x0 PUSH1 0x4 PUSH1 0x0 DUP4 PUSH20 0xFFFFFFFFFFFFFFFFFFFFFFFFFFFFFFFFFFFFFFFF AND PUSH20 0xFFFFFFFFFFFFFFFFFFFFFFFFFFFFFFFFFFFFFFFF AND DUP2 MSTORE PUSH1 0x20 ADD SWAP1 DUP2 MSTORE PUSH1 0x20 ADD PUSH1 0x0 KECCAK256 PUSH1 0x0 ADD PUSH1 0x14 SWAP1 SLOAD SWAP1 PUSH2 0x100 EXP SWAP1 DIV PUSH1 0x7 SIGNEXTEND SWAP1 POP PUSH1 0x0 PUSH1 0x4 PUSH1 0x0 DUP5 PUSH20 0xFFFFFFFFFFFFFFFFFFFFFFFFFFFFFFFFFFFFFFFF AND PUSH20 0xFFFFFFFFFFFFFFFFFFFFFFFFFFFFFFFFFFFFFFFF AND DUP2 MSTORE PUSH1 0x20 ADD SWAP1 DUP2 MSTORE PUSH1 0x20 ADD PUSH1 0x0 KECCAK256 PUSH1 0x2 ADD DUP1 SLOAD PUSH2 0xAA8 SWAP1 PUSH2 0x3A3F JUMP JUMPDEST DUP1 PUSH1 0x1F ADD PUSH1 0x20 DUP1 SWAP2 DIV MUL PUSH1 0x20 ADD PUSH1 0x40 MLOAD SWAP1 DUP2 ADD PUSH1 0x40 MSTORE DUP1 SWAP3 SWAP2 SWAP1 DUP2 DUP2 MSTORE PUSH1 0x20 ADD DUP3 DUP1 SLOAD PUSH2 0xAD4 SWAP1 PUSH2 0x3A3F JUMP JUMPDEST DUP1 ISZERO PUSH2 0xB21 JUMPI DUP1 PUSH1 0x1F LT PUSH2 0xAF6 JUMPI PUSH2 0x100 DUP1 DUP4 SLOAD DIV MUL DUP4 MSTORE SWAP2 PUSH1 0x20 ADD SWAP2 PUSH2 0xB21 JUMP JUMPDEST DUP3 ADD SWAP2 SWAP1 PUSH1 0x0 MSTORE PUSH1 0x20 PUSH1 0x0 KECCAK256 SWAP1 JUMPDEST DUP2 SLOAD DUP2 MSTORE SWAP1 PUSH1 0x1 ADD SWAP1 PUSH1 0x20 ADD DUP1 DUP4 GT PUSH2 0xB04 JUMPI DUP3 SWAP1 SUB PUSH1 0x1F AND DUP3 ADD SWAP2 JUMPDEST POP POP POP POP POP SWAP1 POP PUSH1 0x0 ISZERO ISZERO PUSH1 0x4 PUSH1 0x0 DUP6 PUSH20 0xFFFFFFFFFFFFFFFFFFFFFFFFFFFFFFFFFFFFFFFF AND PUSH20 0xFFFFFFFFFFFFFFFFFFFFFFFFFFFFFFFFFFFFFFFF AND DUP2 MSTORE PUSH1 0x20 ADD SWAP1 DUP2 MSTORE PUSH1 0x20 ADD PUSH1 0x0 KECCAK256 PUSH1 0x0 ADD PUSH1 0x1C SWAP1 SLOAD SWAP1 PUSH2 0x100 EXP SWAP1 DIV PUSH1 0xFF AND ISZERO ISZERO EQ PUSH2 0xBBE JUMPI PUSH1 0x40 MLOAD PUSH32 0x8C379A000000000000000000000000000000000000000000000000000000000 DUP2 MSTORE PUSH1 0x4 ADD PUSH2 0xBB5 SWAP1 PUSH2 0x38B2 JUMP JUMPDEST PUSH1 0x40 MLOAD DUP1 SWAP2 SUB SWAP1 REVERT JUMPDEST PUSH1 0x1 ISZERO ISZERO PUSH1 0x6 PUSH1 0x0 DUP5 PUSH1 0x7 SIGNEXTEND PUSH1 0x7 SIGNEXTEND DUP2 MSTORE PUSH1 0x20 ADD SWAP1 DUP2 MSTORE PUSH1 0x20 ADD PUSH1 0x0 KECCAK256 PUSH1 0x0 DUP5 PUSH1 0x7 SIGNEXTEND PUSH1 0x7 SIGNEXTEND DUP2 MSTORE PUSH1 0x20 ADD SWAP1 DUP2 MSTORE PUSH1 0x20 ADD PUSH1 0x0 KECCAK256 PUSH1 0x0 SWAP1 SLOAD SWAP1 PUSH2 0x100 EXP SWAP1 POP POP POP PUSH1 0x40 MLOAD DUP1 PUSH1 0xA0 ADD PUSH1 0x40 MSTORE DUP1 DUP5 PUSH20 0xFFFFFFFFFFFFFFFFFFFFFFFFFFFFFFFFFFFFFFFF AND DUP2 MSTORE PUSH1 0x20 ADD DUP4 PUSH1 0x7 SIGNEXTEND DUP2 MSTORE PUSH1 0x20 ADD PUSH1 0x1 ISZERO ISZERO DUP2 MSTORE PUSH1 0x20 ADD CALLER PUSH20 0xFFFFFFFFFFFFFFFFFFFFFFFFFFFFFFFFFFFFFFFF AND DUP2 MSTORE PUSH1 0x20 ADD DUP3 DUP2 MSTORE POP PUSH1 0x4 PUSH1 0x0 DUP6 PUSH20 0xFFFFFFFFFFFFFFFFFFFFFFFFFFFFFFFFFFFFFFFF AND PUSH20 0xFFFFFFFFFFFFFFFFFFFFFFFFFFFFFFFFFFFFFFFF AND DUP2 MSTORE PUSH1 0x20 ADD SWAP1 DUP2 MSTORE PUSH1 0x20 ADD PUSH1 0x0 KECCAK256 PUSH1 0x0 DUP3 ADD MLOAD DUP2 PUSH1 0x0 ADD PUSH1 0x0 PUSH2 0x100 EXP DUP2 SLOAD DUP2 PUSH20 0xFFFFFFFFFFFFFFFFFFFFFFFFFFFFFFFFFFFFFFFF MUL NOT AND SWAP1 DUP4 PUSH20 0xFFFFFFFFFFFFFFFFFFFFFFFFFFFFFFFFFFFFFFFF AND MUL OR SWAP1 SSTORE POP PUSH1 0x20 DUP3 ADD MLOAD DUP2 PUSH1 0x0 ADD PUSH1 0x14 PUSH2 0x100 EXP DUP2 SLOAD DUP2 PUSH8 0xFFFFFFFFFFFFFFFF MUL NOT AND SWAP1 DUP4 PUSH1 0x7 SIGNEXTEND PUSH8 0xFFFFFFFFFFFFFFFF AND MUL OR SWAP1 SSTORE POP PUSH1 0x40 DUP3 ADD MLOAD DUP2 PUSH1 0x0 ADD PUSH1 0x1C PUSH2 0x100 EXP DUP2 SLOAD DUP2 PUSH1 0xFF MUL NOT AND SWAP1 DUP4 ISZERO ISZERO MUL OR SWAP1 SSTORE POP PUSH1 0x60 DUP3 ADD MLOAD DUP2 PUSH1 0x1 ADD PUSH1 0x0 PUSH2 0x100 EXP DUP2 SLOAD DUP2 PUSH20 0xFFFFFFFFFFFFFFFFFFFFFFFFFFFFFFFFFFFFFFFF MUL NOT AND SWAP1 DUP4 PUSH20 0xFFFFFFFFFFFFFFFFFFFFFFFFFFFFFFFFFFFFFFFF AND MUL OR SWAP1 SSTORE POP PUSH1 0x80 DUP3 ADD MLOAD DUP2 PUSH1 0x2 ADD SWAP1 DUP1 MLOAD SWAP1 PUSH1 0x20 ADD SWAP1 PUSH2 0xD93 SWAP3 SWAP2 SWAP1 PUSH2 0x2F54 JUMP JUMPDEST POP SWAP1 POP POP PUSH32 0xDDDA54AEBD53F1C2D3F35D7107DDD15F71B313A804DDA2179CDED44927110CD0 DUP3 DUP5 CALLER PUSH1 0x40 MLOAD PUSH2 0xDCA SWAP4 SWAP3 SWAP2 SWAP1 PUSH2 0x371B JUMP JUMPDEST PUSH1 0x40 MLOAD DUP1 SWAP2 SUB SWAP1 LOG1 POP POP POP JUMP JUMPDEST PUSH1 0x0 PUSH2 0xDE2 CALLER PUSH2 0x7B4 JUMP JUMPDEST SWAP1 POP CALLER PUSH20 0xFFFFFFFFFFFFFFFFFFFFFFFFFFFFFFFFFFFFFFFF AND DUP2 PUSH1 0x0 ADD MLOAD PUSH20 0xFFFFFFFFFFFFFFFFFFFFFFFFFFFFFFFFFFFFFFFF AND EQ PUSH2 0xE56 JUMPI PUSH1 0x40 MLOAD PUSH32 0x8C379A000000000000000000000000000000000000000000000000000000000 DUP2 MSTORE PUSH1 0x4 ADD PUSH2 0xE4D SWAP1 PUSH2 0x37F2 JUMP JUMPDEST PUSH1 0x40 MLOAD DUP1 SWAP2 SUB SWAP1 REVERT JUMPDEST DUP2 DUP2 PUSH1 0x80 ADD DUP2 SWAP1 MSTORE POP DUP1 PUSH1 0x4 PUSH1 0x0 CALLER PUSH20 0xFFFFFFFFFFFFFFFFFFFFFFFFFFFFFFFFFFFFFFFF AND PUSH20 0xFFFFFFFFFFFFFFFFFFFFFFFFFFFFFFFFFFFFFFFF AND DUP2 MSTORE PUSH1 0x20 ADD SWAP1 DUP2 MSTORE PUSH1 0x20 ADD PUSH1 0x0 KECCAK256 PUSH1 0x0 DUP3 ADD MLOAD DUP2 PUSH1 0x0 ADD PUSH1 0x0 PUSH2 0x100 EXP DUP2 SLOAD DUP2 PUSH20 0xFFFFFFFFFFFFFFFFFFFFFFFFFFFFFFFFFFFFFFFF MUL NOT AND SWAP1 DUP4 PUSH20 0xFFFFFFFFFFFFFFFFFFFFFFFFFFFFFFFFFFFFFFFF AND MUL OR SWAP1 SSTORE POP PUSH1 0x20 DUP3 ADD MLOAD DUP2 PUSH1 0x0 ADD PUSH1 0x14 PUSH2 0x100 EXP DUP2 SLOAD DUP2 PUSH8 0xFFFFFFFFFFFFFFFF MUL NOT AND SWAP1 DUP4 PUSH1 0x7 SIGNEXTEND PUSH8 0xFFFFFFFFFFFFFFFF AND MUL OR SWAP1 SSTORE POP PUSH1 0x40 DUP3 ADD MLOAD DUP2 PUSH1 0x0 ADD PUSH1 0x1C PUSH2 0x100 EXP DUP2 SLOAD DUP2 PUSH1 0xFF MUL NOT AND SWAP1 DUP4 ISZERO ISZERO MUL OR SWAP1 SSTORE POP PUSH1 0x60 DUP3 ADD MLOAD DUP2 PUSH1 0x1 ADD PUSH1 0x0 PUSH2 0x100 EXP DUP2 SLOAD DUP2 PUSH20 0xFFFFFFFFFFFFFFFFFFFFFFFFFFFFFFFFFFFFFFFF MUL NOT AND SWAP1 DUP4 PUSH20 0xFFFFFFFFFFFFFFFFFFFFFFFFFFFFFFFFFFFFFFFF AND MUL OR SWAP1 SSTORE POP PUSH1 0x80 DUP3 ADD MLOAD DUP2 PUSH1 0x2 ADD SWAP1 DUP1 MLOAD SWAP1 PUSH1 0x20 ADD SWAP1 PUSH2 0xF9B SWAP3 SWAP2 SWAP1 PUSH2 0x2F54 JUMP JUMPDEST POP SWAP1 POP POP POP POP JUMP JUMPDEST PUSH1 0x6 PUSH1 0x20 MSTORE DUP2 PUSH1 0x0 MSTORE PUSH1 0x40 PUSH1 0x0 KECCAK256 PUSH1 0x20 MSTORE DUP1 PUSH1 0x0 MSTORE PUSH1 0x40 PUSH1 0x0 KECCAK256 PUSH1 0x0 SWAP2 POP SWAP2 POP SWAP1 SLOAD SWAP1 PUSH2 0x100 EXP SWAP1 DIV PUSH1 0xFF AND DUP2 JUMP JUMPDEST PUSH1 0x0 PUSH1 0x1 SLOAD SWAP1 POP SWAP1 JUMP JUMPDEST PUSH1 0x0 PUSH1 0x6 PUSH1 0x0 DUP5 PUSH1 0x7 SIGNEXTEND PUSH1 0x7 SIGNEXTEND DUP2 MSTORE PUSH1 0x20 ADD SWAP1 DUP2 MSTORE PUSH1 0x20 ADD PUSH1 0x0 KECCAK256 PUSH1 0x0 DUP4 PUSH1 0x7 SIGNEXTEND PUSH1 0x7 SIGNEXTEND DUP2 MSTORE PUSH1 0x20 ADD SWAP1 DUP2 MSTORE PUSH1 0x20 ADD PUSH1 0x0 KECCAK256 PUSH1 0x0 SWAP1 SLOAD SWAP1 PUSH2 0x100 EXP SWAP1 DIV PUSH1 0xFF AND SWAP1 POP SWAP3 SWAP2 POP POP JUMP JUMPDEST PUSH1 0x5 DUP2 DUP1 MLOAD PUSH1 0x20 DUP2 ADD DUP3 ADD DUP1 MLOAD DUP5 DUP3 MSTORE PUSH1 0x20 DUP4 ADD PUSH1 0x20 DUP6 ADD KECCAK256 DUP2 DUP4 MSTORE DUP1 SWAP6 POP POP POP POP POP POP PUSH1 0x0 SWAP2 POP SLOAD SWAP1 PUSH2 0x100 EXP SWAP1 DIV PUSH20 0xFFFFFFFFFFFFFFFFFFFFFFFFFFFFFFFFFFFFFFFF AND DUP2 JUMP JUMPDEST PUSH1 0x0 PUSH2 0x1078 DUP4 PUSH2 0x1699 JUMP JUMPDEST SWAP1 POP PUSH1 0x0 DUP2 PUSH1 0x0 ADD MLOAD SWAP1 POP CALLER PUSH20 0xFFFFFFFFFFFFFFFFFFFFFFFFFFFFFFFFFFFFFFFF AND DUP2 PUSH20 0xFFFFFFFFFFFFFFFFFFFFFFFFFFFFFFFFFFFFFFFF AND EQ PUSH2 0x10F1 JUMPI PUSH1 0x40 MLOAD PUSH32 0x8C379A000000000000000000000000000000000000000000000000000000000 DUP2 MSTORE PUSH1 0x4 ADD PUSH2 0x10E8 SWAP1 PUSH2 0x37D2 JUMP JUMPDEST PUSH1 0x40 MLOAD DUP1 SWAP2 SUB SWAP1 REVERT JUMPDEST PUSH2 0x10FB DUP5 DUP5 PUSH2 0x2C34 JUMP JUMPDEST PUSH1 0x7 PUSH1 0x0 DUP6 PUSH1 0x7 SIGNEXTEND PUSH1 0x7 SIGNEXTEND DUP2 MSTORE PUSH1 0x20 ADD SWAP1 DUP2 MSTORE PUSH1 0x20 ADD PUSH1 0x0 KECCAK256 DUP4 SWAP1 DUP1 PUSH1 0x1 DUP2 SLOAD ADD DUP1 DUP3 SSTORE DUP1 SWAP2 POP POP PUSH1 0x1 SWAP1 SUB SWAP1 PUSH1 0x0 MSTORE PUSH1 0x20 PUSH1 0x0 KECCAK256 SWAP1 PUSH1 0x4 SWAP2 DUP3 DUP3 DIV ADD SWAP2 SWAP1 MOD PUSH1 0x8 MUL SWAP1 SWAP2 SWAP1 SWAP2 SWAP1 SWAP2 PUSH2 0x100 EXP DUP2 SLOAD DUP2 PUSH8 0xFFFFFFFFFFFFFFFF MUL NOT AND SWAP1 DUP4 PUSH1 0x7 SIGNEXTEND PUSH8 0xFFFFFFFFFFFFFFFF AND MUL OR SWAP1 SSTORE POP DUP3 PUSH1 0x7 SIGNEXTEND PUSH32 0x72EA88320A14BE91B677BB10D77500A955301D37422909C3AD479FCF35E10093 DUP6 PUSH1 0x40 MLOAD PUSH2 0x119E SWAP2 SWAP1 PUSH2 0x36D7 JUMP JUMPDEST PUSH1 0x40 MLOAD DUP1 SWAP2 SUB SWAP1 LOG2 POP POP POP POP JUMP JUMPDEST PUSH1 0x0 PUSH2 0x11B7 CALLER PUSH2 0x7B4 JUMP JUMPDEST SWAP1 POP PUSH1 0x0 DUP2 PUSH1 0x0 ADD MLOAD SWAP1 POP CALLER PUSH20 0xFFFFFFFFFFFFFFFFFFFFFFFFFFFFFFFFFFFFFFFF AND DUP2 PUSH20 0xFFFFFFFFFFFFFFFFFFFFFFFFFFFFFFFFFFFFFFFF AND EQ PUSH2 0x1230 JUMPI PUSH1 0x40 MLOAD PUSH32 0x8C379A000000000000000000000000000000000000000000000000000000000 DUP2 MSTORE PUSH1 0x4 ADD PUSH2 0x1227 SWAP1 PUSH2 0x37D2 JUMP JUMPDEST PUSH1 0x40 MLOAD DUP1 SWAP2 SUB SWAP1 REVERT JUMPDEST PUSH1 0x0 DUP3 PUSH1 0x20 ADD MLOAD SWAP1 POP PUSH1 0x0 PUSH2 0x1244 DUP6 PUSH2 0x7B4 JUMP JUMPDEST SWAP1 POP PUSH1 0x0 DUP2 PUSH1 0x20 ADD MLOAD SWAP1 POP PUSH2 0x1259 DUP4 DUP3 PUSH2 0x2C34 JUMP JUMPDEST PUSH1 0x7 PUSH1 0x0 DUP5 PUSH1 0x7 SIGNEXTEND PUSH1 0x7 SIGNEXTEND DUP2 MSTORE PUSH1 0x20 ADD SWAP1 DUP2 MSTORE PUSH1 0x20 ADD PUSH1 0x0 KECCAK256 DUP2 SWAP1 DUP1 PUSH1 0x1 DUP2 SLOAD ADD DUP1 DUP3 SSTORE DUP1 SWAP2 POP POP PUSH1 0x1 SWAP1 SUB SWAP1 PUSH1 0x0 MSTORE PUSH1 0x20 PUSH1 0x0 KECCAK256 SWAP1 PUSH1 0x4 SWAP2 DUP3 DUP3 DIV ADD SWAP2 SWAP1 MOD PUSH1 0x8 MUL SWAP1 SWAP2 SWAP1 SWAP2 SWAP1 SWAP2 PUSH2 0x100 EXP DUP2 SLOAD DUP2 PUSH8 0xFFFFFFFFFFFFFFFF MUL NOT AND SWAP1 DUP4 PUSH1 0x7 SIGNEXTEND PUSH8 0xFFFFFFFFFFFFFFFF AND MUL OR SWAP1 SSTORE POP DUP1 PUSH1 0x7 SIGNEXTEND PUSH32 0x72EA88320A14BE91B677BB10D77500A955301D37422909C3AD479FCF35E10093 DUP5 PUSH1 0x40 MLOAD PUSH2 0x12FC SWAP2 SWAP1 PUSH2 0x36D7 JUMP JUMPDEST PUSH1 0x40 MLOAD DUP1 SWAP2 SUB SWAP1 LOG2 POP POP POP POP POP POP JUMP JUMPDEST PUSH1 0x0 DUP1 PUSH2 0x1318 DUP4 PUSH2 0x7B4 JUMP JUMPDEST SWAP1 POP DUP1 PUSH1 0x20 ADD MLOAD SWAP2 POP POP SWAP2 SWAP1 POP JUMP JUMPDEST PUSH2 0x132F PUSH2 0x2C2C JUMP JUMPDEST PUSH20 0xFFFFFFFFFFFFFFFFFFFFFFFFFFFFFFFFFFFFFFFF AND PUSH2 0x134D PUSH2 0x1D7A JUMP JUMPDEST PUSH20 0xFFFFFFFFFFFFFFFFFFFFFFFFFFFFFFFFFFFFFFFF AND EQ PUSH2 0x13A3 JUMPI PUSH1 0x40 MLOAD PUSH32 0x8C379A000000000000000000000000000000000000000000000000000000000 DUP2 MSTORE PUSH1 0x4 ADD PUSH2 0x139A SWAP1 PUSH2 0x3832 JUMP JUMPDEST PUSH1 0x40 MLOAD DUP1 SWAP2 SUB SWAP1 REVERT JUMPDEST PUSH1 0x0 PUSH1 0x4 PUSH1 0x0 DUP4 PUSH20 0xFFFFFFFFFFFFFFFFFFFFFFFFFFFFFFFFFFFFFFFF AND PUSH20 0xFFFFFFFFFFFFFFFFFFFFFFFFFFFFFFFFFFFFFFFF AND DUP2 MSTORE PUSH1 0x20 ADD SWAP1 DUP2 MSTORE PUSH1 0x20 ADD PUSH1 0x0 KECCAK256 PUSH1 0x0 ADD PUSH1 0x14 SWAP1 SLOAD SWAP1 PUSH2 0x100 EXP SWAP1 DIV PUSH1 0x7 SIGNEXTEND SWAP1 POP PUSH1 0x0 PUSH1 0x4 PUSH1 0x0 DUP5 PUSH20 0xFFFFFFFFFFFFFFFFFFFFFFFFFFFFFFFFFFFFFFFF AND PUSH20 0xFFFFFFFFFFFFFFFFFFFFFFFFFFFFFFFFFFFFFFFF AND DUP2 MSTORE PUSH1 0x20 ADD SWAP1 DUP2 MSTORE PUSH1 0x20 ADD PUSH1 0x0 KECCAK256 PUSH1 0x2 ADD DUP1 SLOAD PUSH2 0x1446 SWAP1 PUSH2 0x3A3F JUMP JUMPDEST DUP1 PUSH1 0x1F ADD PUSH1 0x20 DUP1 SWAP2 DIV MUL PUSH1 0x20 ADD PUSH1 0x40 MLOAD SWAP1 DUP2 ADD PUSH1 0x40 MSTORE DUP1 SWAP3 SWAP2 SWAP1 DUP2 DUP2 MSTORE PUSH1 0x20 ADD DUP3 DUP1 SLOAD PUSH2 0x1472 SWAP1 PUSH2 0x3A3F JUMP JUMPDEST DUP1 ISZERO PUSH2 0x14BF JUMPI DUP1 PUSH1 0x1F LT PUSH2 0x1494 JUMPI PUSH2 0x100 DUP1 DUP4 SLOAD DIV MUL DUP4 MSTORE SWAP2 PUSH1 0x20 ADD SWAP2 PUSH2 0x14BF JUMP JUMPDEST DUP3 ADD SWAP2 SWAP1 PUSH1 0x0 MSTORE PUSH1 0x20 PUSH1 0x0 KECCAK256 SWAP1 JUMPDEST DUP2 SLOAD DUP2 MSTORE SWAP1 PUSH1 0x1 ADD SWAP1 PUSH1 0x20 ADD DUP1 DUP4 GT PUSH2 0x14A2 JUMPI DUP3 SWAP1 SUB PUSH1 0x1F AND DUP3 ADD SWAP2 JUMPDEST POP POP POP POP POP SWAP1 POP PUSH1 0x0 CHAINID SWAP1 POP PUSH1 0x5 DUP2 EQ PUSH2 0x150E JUMPI PUSH1 0x40 MLOAD PUSH32 0x8C379A000000000000000000000000000000000000000000000000000000000 DUP2 MSTORE PUSH1 0x4 ADD PUSH2 0x1505 SWAP1 PUSH2 0x3872 JUMP JUMPDEST PUSH1 0x40 MLOAD DUP1 SWAP2 SUB SWAP1 REVERT JUMPDEST PUSH1 0x4 PUSH1 0x0 DUP6 PUSH20 0xFFFFFFFFFFFFFFFFFFFFFFFFFFFFFFFFFFFFFFFF AND PUSH20 0xFFFFFFFFFFFFFFFFFFFFFFFFFFFFFFFFFFFFFFFF AND DUP2 MSTORE PUSH1 0x20 ADD SWAP1 DUP2 MSTORE PUSH1 0x20 ADD PUSH1 0x0 KECCAK256 PUSH1 0x0 DUP1 DUP3 ADD PUSH1 0x0 PUSH2 0x100 EXP DUP2 SLOAD SWAP1 PUSH20 0xFFFFFFFFFFFFFFFFFFFFFFFFFFFFFFFFFFFFFFFF MUL NOT AND SWAP1 SSTORE PUSH1 0x0 DUP3 ADD PUSH1 0x14 PUSH2 0x100 EXP DUP2 SLOAD SWAP1 PUSH8 0xFFFFFFFFFFFFFFFF MUL NOT AND SWAP1 SSTORE PUSH1 0x0 DUP3 ADD PUSH1 0x1C PUSH2 0x100 EXP DUP2 SLOAD SWAP1 PUSH1 0xFF MUL NOT AND SWAP1 SSTORE PUSH1 0x1 DUP3 ADD PUSH1 0x0 PUSH2 0x100 EXP DUP2 SLOAD SWAP1 PUSH20 0xFFFFFFFFFFFFFFFFFFFFFFFFFFFFFFFFFFFFFFFF MUL NOT AND SWAP1 SSTORE PUSH1 0x2 DUP3 ADD PUSH1 0x0 PUSH2 0x15DB SWAP2 SWAP1 PUSH2 0x2FDA JUMP JUMPDEST POP POP PUSH1 0x3 PUSH1 0x0 DUP5 PUSH1 0x7 SIGNEXTEND PUSH1 0x7 SIGNEXTEND DUP2 MSTORE PUSH1 0x20 ADD SWAP1 DUP2 MSTORE PUSH1 0x20 ADD PUSH1 0x0 KECCAK256 PUSH1 0x0 PUSH2 0x100 EXP DUP2 SLOAD SWAP1 PUSH20 0xFFFFFFFFFFFFFFFFFFFFFFFFFFFFFFFFFFFFFFFF MUL NOT AND SWAP1 SSTORE PUSH1 0x5 DUP3 PUSH1 0x40 MLOAD PUSH2 0x1629 SWAP2 SWAP1 PUSH2 0x361B JUMP JUMPDEST SWAP1 DUP2 MSTORE PUSH1 0x20 ADD PUSH1 0x40 MLOAD DUP1 SWAP2 SUB SWAP1 KECCAK256 PUSH1 0x0 PUSH2 0x100 EXP DUP2 SLOAD SWAP1 PUSH20 0xFFFFFFFFFFFFFFFFFFFFFFFFFFFFFFFFFFFFFFFF MUL NOT AND SWAP1 SSTORE PUSH32 0x511BEC3ED97C7099362D7E7B0ED4FE8AFE6F448A0DCF73F258BE48DCEB302DB DUP4 DUP6 PUSH1 0x40 MLOAD PUSH2 0x168B SWAP3 SWAP2 SWAP1 PUSH2 0x36F2 JUMP JUMPDEST PUSH1 0x40 MLOAD DUP1 SWAP2 SUB SWAP1 LOG1 POP POP POP POP JUMP JUMPDEST PUSH2 0x16A1 PUSH2 0x2EF4 JUMP JUMPDEST PUSH1 0x0 PUSH2 0x16AC DUP4 PUSH2 0x771 JUMP JUMPDEST SWAP1 POP PUSH1 0x0 PUSH1 0x4 PUSH1 0x0 DUP4 PUSH20 0xFFFFFFFFFFFFFFFFFFFFFFFFFFFFFFFFFFFFFFFF AND PUSH20 0xFFFFFFFFFFFFFFFFFFFFFFFFFFFFFFFFFFFFFFFF AND DUP2 MSTORE PUSH1 0x20 ADD SWAP1 DUP2 MSTORE PUSH1 0x20 ADD PUSH1 0x0 KECCAK256 PUSH1 0x40 MLOAD DUP1 PUSH1 0xA0 ADD PUSH1 0x40 MSTORE SWAP1 DUP2 PUSH1 0x0 DUP3 ADD PUSH1 0x0 SWAP1 SLOAD SWAP1 PUSH2 0x100 EXP SWAP1 DIV PUSH20 0xFFFFFFFFFFFFFFFFFFFFFFFFFFFFFFFFFFFFFFFF AND PUSH20 0xFFFFFFFFFFFFFFFFFFFFFFFFFFFFFFFFFFFFFFFF AND PUSH20 0xFFFFFFFFFFFFFFFFFFFFFFFFFFFFFFFFFFFFFFFF AND DUP2 MSTORE PUSH1 0x20 ADD PUSH1 0x0 DUP3 ADD PUSH1 0x14 SWAP1 SLOAD SWAP1 PUSH2 0x100 EXP SWAP1 DIV PUSH1 0x7 SIGNEXTEND PUSH1 0x7 SIGNEXTEND PUSH1 0x7 SIGNEXTEND DUP2 MSTORE PUSH1 0x20 ADD PUSH1 0x0 DUP3 ADD PUSH1 0x1C SWAP1 SLOAD SWAP1 PUSH2 0x100 EXP SWAP1 DIV PUSH1 0xFF AND ISZERO ISZERO ISZERO ISZERO DUP2 MSTORE PUSH1 0x20 ADD PUSH1 0x1 DUP3 ADD PUSH1 0x0 SWAP1 SLOAD SWAP1 PUSH2 0x100 EXP SWAP1 DIV PUSH20 0xFFFFFFFFFFFFFFFFFFFFFFFFFFFFFFFFFFFFFFFF AND PUSH20 0xFFFFFFFFFFFFFFFFFFFFFFFFFFFFFFFFFFFFFFFF AND PUSH20 0xFFFFFFFFFFFFFFFFFFFFFFFFFFFFFFFFFFFFFFFF AND DUP2 MSTORE PUSH1 0x20 ADD PUSH1 0x2 DUP3 ADD DUP1 SLOAD PUSH2 0x17EE SWAP1 PUSH2 0x3A3F JUMP JUMPDEST DUP1 PUSH1 0x1F ADD PUSH1 0x20 DUP1 SWAP2 DIV MUL PUSH1 0x20 ADD PUSH1 0x40 MLOAD SWAP1 DUP2 ADD PUSH1 0x40 MSTORE DUP1 SWAP3 SWAP2 SWAP1 DUP2 DUP2 MSTORE PUSH1 0x20 ADD DUP3 DUP1 SLOAD PUSH2 0x181A SWAP1 PUSH2 0x3A3F JUMP JUMPDEST DUP1 ISZERO PUSH2 0x1867 JUMPI DUP1 PUSH1 0x1F LT PUSH2 0x183C JUMPI PUSH2 0x100 DUP1 DUP4 SLOAD DIV MUL DUP4 MSTORE SWAP2 PUSH1 0x20 ADD SWAP2 PUSH2 0x1867 JUMP JUMPDEST DUP3 ADD SWAP2 SWAP1 PUSH1 0x0 MSTORE PUSH1 0x20 PUSH1 0x0 KECCAK256 SWAP1 JUMPDEST DUP2 SLOAD DUP2 MSTORE SWAP1 PUSH1 0x1 ADD SWAP1 PUSH1 0x20 ADD DUP1 DUP4 GT PUSH2 0x184A JUMPI DUP3 SWAP1 SUB PUSH1 0x1F AND DUP3 ADD SWAP2 JUMPDEST POP POP POP POP POP DUP2 MSTORE POP POP SWAP1 POP DUP1 SWAP3 POP POP POP SWAP2 SWAP1 POP JUMP JUMPDEST PUSH1 0x0 PUSH2 0x1887 DUP4 PUSH2 0x2195 JUMP JUMPDEST SWAP1 POP PUSH1 0x0 DUP2 PUSH1 0x0 ADD MLOAD SWAP1 POP CALLER PUSH20 0xFFFFFFFFFFFFFFFFFFFFFFFFFFFFFFFFFFFFFFFF AND DUP2 PUSH20 0xFFFFFFFFFFFFFFFFFFFFFFFFFFFFFFFFFFFFFFFF AND EQ PUSH2 0x1900 JUMPI PUSH1 0x40 MLOAD PUSH32 0x8C379A000000000000000000000000000000000000000000000000000000000 DUP2 MSTORE PUSH1 0x4 ADD PUSH2 0x18F7 SWAP1 PUSH2 0x3812 JUMP JUMPDEST PUSH1 0x40 MLOAD DUP1 SWAP2 SUB SWAP1 REVERT JUMPDEST PUSH1 0x0 DUP3 PUSH1 0x20 ADD MLOAD SWAP1 POP PUSH1 0x0 PUSH2 0x1914 DUP6 PUSH2 0x2195 JUMP JUMPDEST SWAP1 POP PUSH1 0x0 DUP2 PUSH1 0x0 ADD MLOAD SWAP1 POP PUSH1 0x0 DUP3 PUSH1 0x20 ADD MLOAD SWAP1 POP DUP2 PUSH20 0xFFFFFFFFFFFFFFFFFFFFFFFFFFFFFFFFFFFFFFFF AND PUSH1 0x3 PUSH1 0x0 DUP4 PUSH1 0x7 SIGNEXTEND PUSH1 0x7 SIGNEXTEND DUP2 MSTORE PUSH1 0x20 ADD SWAP1 DUP2 MSTORE PUSH1 0x20 ADD PUSH1 0x0 KECCAK256 PUSH1 0x0 SWAP1 SLOAD SWAP1 PUSH2 0x100 EXP SWAP1 DIV PUSH20 0xFFFFFFFFFFFFFFFFFFFFFFFFFFFFFFFFFFFFFFFF AND PUSH20 0xFFFFFFFFFFFFFFFFFFFFFFFFFFFFFFFFFFFFFFFF AND EQ PUSH2 0x19CF JUMPI PUSH1 0x40 MLOAD PUSH32 0x8C379A000000000000000000000000000000000000000000000000000000000 DUP2 MSTORE PUSH1 0x4 ADD PUSH2 0x19C6 SWAP1 PUSH2 0x3892 JUMP JUMPDEST PUSH1 0x40 MLOAD DUP1 SWAP2 SUB SWAP1 REVERT JUMPDEST PUSH1 0x0 DUP2 SWAP1 POP PUSH2 0x19DE DUP6 DUP3 PUSH2 0x2C81 JUMP JUMPDEST PUSH1 0x7 PUSH1 0x0 DUP7 PUSH1 0x7 SIGNEXTEND PUSH1 0x7 SIGNEXTEND DUP2 MSTORE PUSH1 0x20 ADD SWAP1 DUP2 MSTORE PUSH1 0x20 ADD PUSH1 0x0 KECCAK256 DUP2 SWAP1 DUP1 PUSH1 0x1 DUP2 SLOAD ADD DUP1 DUP3 SSTORE DUP1 SWAP2 POP POP PUSH1 0x1 SWAP1 SUB SWAP1 PUSH1 0x0 MSTORE PUSH1 0x20 PUSH1 0x0 KECCAK256 SWAP1 PUSH1 0x4 SWAP2 DUP3 DUP3 DIV ADD SWAP2 SWAP1 MOD PUSH1 0x8 MUL SWAP1 SWAP2 SWAP1 SWAP2 SWAP1 SWAP2 PUSH2 0x100 EXP DUP2 SLOAD DUP2 PUSH8 0xFFFFFFFFFFFFFFFF MUL NOT AND SWAP1 DUP4 PUSH1 0x7 SIGNEXTEND PUSH8 0xFFFFFFFFFFFFFFFF AND MUL OR SWAP1 SSTORE POP DUP1 PUSH1 0x7 SIGNEXTEND PUSH32 0xC6910544AD28778F5982555EAE73EFAB16F145F0E382250AC13DB569707CA1CF DUP7 PUSH1 0x40 MLOAD PUSH2 0x1A81 SWAP2 SWAP1 PUSH2 0x36D7 JUMP JUMPDEST PUSH1 0x40 MLOAD DUP1 SWAP2 SUB SWAP1 LOG2 POP POP POP POP POP POP POP POP POP JUMP JUMPDEST PUSH1 0x7 PUSH1 0x20 MSTORE DUP2 PUSH1 0x0 MSTORE PUSH1 0x40 PUSH1 0x0 KECCAK256 DUP2 DUP2 SLOAD DUP2 LT PUSH2 0x1AB0 JUMPI PUSH1 0x0 DUP1 REVERT JUMPDEST SWAP1 PUSH1 0x0 MSTORE PUSH1 0x20 PUSH1 0x0 KECCAK256 SWAP1 PUSH1 0x4 SWAP2 DUP3 DUP3 DIV ADD SWAP2 SWAP1 MOD PUSH1 0x8 MUL SWAP2 POP SWAP2 POP SWAP1 SLOAD SWAP1 PUSH2 0x100 EXP SWAP1 DIV PUSH1 0x7 SIGNEXTEND DUP2 JUMP JUMPDEST PUSH2 0x1AE2 PUSH2 0x2C2C JUMP JUMPDEST PUSH20 0xFFFFFFFFFFFFFFFFFFFFFFFFFFFFFFFFFFFFFFFF AND PUSH2 0x1B00 PUSH2 0x1D7A JUMP JUMPDEST PUSH20 0xFFFFFFFFFFFFFFFFFFFFFFFFFFFFFFFFFFFFFFFF AND EQ PUSH2 0x1B56 JUMPI PUSH1 0x40 MLOAD PUSH32 0x8C379A000000000000000000000000000000000000000000000000000000000 DUP2 MSTORE PUSH1 0x4 ADD PUSH2 0x1B4D SWAP1 PUSH2 0x3832 JUMP JUMPDEST PUSH1 0x40 MLOAD DUP1 SWAP2 SUB SWAP1 REVERT JUMPDEST PUSH2 0x1B60 PUSH1 0x0 PUSH2 0x2CCE JUMP JUMPDEST JUMP JUMPDEST PUSH1 0x0 PUSH2 0x1B6D DUP4 PUSH2 0x2195 JUMP JUMPDEST SWAP1 POP PUSH1 0x0 DUP2 PUSH1 0x0 ADD MLOAD SWAP1 POP CALLER PUSH20 0xFFFFFFFFFFFFFFFFFFFFFFFFFFFFFFFFFFFFFFFF AND DUP2 PUSH20 0xFFFFFFFFFFFFFFFFFFFFFFFFFFFFFFFFFFFFFFFF AND EQ PUSH2 0x1BE6 JUMPI PUSH1 0x40 MLOAD PUSH32 0x8C379A000000000000000000000000000000000000000000000000000000000 DUP2 MSTORE PUSH1 0x4 ADD PUSH2 0x1BDD SWAP1 PUSH2 0x3812 JUMP JUMPDEST PUSH1 0x40 MLOAD DUP1 SWAP2 SUB SWAP1 REVERT JUMPDEST PUSH1 0x0 DUP3 PUSH1 0x20 ADD MLOAD SWAP1 POP PUSH1 0x0 PUSH2 0x1BFA DUP6 PUSH2 0x2195 JUMP JUMPDEST SWAP1 POP PUSH1 0x0 DUP2 PUSH1 0x0 ADD MLOAD SWAP1 POP PUSH1 0x0 DUP3 PUSH1 0x20 ADD MLOAD SWAP1 POP DUP2 PUSH20 0xFFFFFFFFFFFFFFFFFFFFFFFFFFFFFFFFFFFFFFFF AND PUSH1 0x3 PUSH1 0x0 DUP4 PUSH1 0x7 SIGNEXTEND PUSH1 0x7 SIGNEXTEND DUP2 MSTORE PUSH1 0x20 ADD SWAP1 DUP2 MSTORE PUSH1 0x20 ADD PUSH1 0x0 KECCAK256 PUSH1 0x0 SWAP1 SLOAD SWAP1 PUSH2 0x100 EXP SWAP1 DIV PUSH20 0xFFFFFFFFFFFFFFFFFFFFFFFFFFFFFFFFFFFFFFFF AND PUSH20 0xFFFFFFFFFFFFFFFFFFFFFFFFFFFFFFFFFFFFFFFF AND EQ PUSH2 0x1CB5 JUMPI PUSH1 0x40 MLOAD PUSH32 0x8C379A000000000000000000000000000000000000000000000000000000000 DUP2 MSTORE PUSH1 0x4 ADD PUSH2 0x1CAC SWAP1 PUSH2 0x3852 JUMP JUMPDEST PUSH1 0x40 MLOAD DUP1 SWAP2 SUB SWAP1 REVERT JUMPDEST PUSH1 0x0 DUP2 SWAP1 POP PUSH2 0x1CC4 DUP6 DUP3 PUSH2 0x2C34 JUMP JUMPDEST PUSH1 0x7 PUSH1 0x0 DUP7 PUSH1 0x7 SIGNEXTEND PUSH1 0x7 SIGNEXTEND DUP2 MSTORE PUSH1 0x20 ADD SWAP1 DUP2 MSTORE PUSH1 0x20 ADD PUSH1 0x0 KECCAK256 DUP2 SWAP1 DUP1 PUSH1 0x1 DUP2 SLOAD ADD DUP1 DUP3 SSTORE DUP1 SWAP2 POP POP PUSH1 0x1 SWAP1 SUB SWAP1 PUSH1 0x0 MSTORE PUSH1 0x20 PUSH1 0x0 KECCAK256 SWAP1 PUSH1 0x4 SWAP2 DUP3 DUP3 DIV ADD SWAP2 SWAP1 MOD PUSH1 0x8 MUL SWAP1 SWAP2 SWAP1 SWAP2 SWAP1 SWAP2 PUSH2 0x100 EXP DUP2 SLOAD DUP2 PUSH8 0xFFFFFFFFFFFFFFFF MUL NOT AND SWAP1 DUP4 PUSH1 0x7 SIGNEXTEND PUSH8 0xFFFFFFFFFFFFFFFF AND MUL OR SWAP1 SSTORE POP DUP1 PUSH1 0x7 SIGNEXTEND PUSH32 0x72EA88320A14BE91B677BB10D77500A955301D37422909C3AD479FCF35E10093 DUP7 PUSH1 0x40 MLOAD PUSH2 0x1D67 SWAP2 SWAP1 PUSH2 0x36D7 JUMP JUMPDEST PUSH1 0x40 MLOAD DUP1 SWAP2 SUB SWAP1 LOG2 POP POP POP POP POP POP POP POP POP JUMP JUMPDEST PUSH1 0x0 DUP1 PUSH1 0x0 SWAP1 SLOAD SWAP1 PUSH2 0x100 EXP SWAP1 DIV PUSH20 0xFFFFFFFFFFFFFFFFFFFFFFFFFFFFFFFFFFFFFFFF AND SWAP1 POP SWAP1 JUMP JUMPDEST PUSH1 0x3 PUSH1 0x20 MSTORE DUP1 PUSH1 0x0 MSTORE PUSH1 0x40 PUSH1 0x0 KECCAK256 PUSH1 0x0 SWAP2 POP SLOAD SWAP1 PUSH2 0x100 EXP SWAP1 DIV PUSH20 0xFFFFFFFFFFFFFFFFFFFFFFFFFFFFFFFFFFFFFFFF AND DUP2 JUMP JUMPDEST PUSH2 0x1DDE PUSH2 0x2C2C JUMP JUMPDEST PUSH20 0xFFFFFFFFFFFFFFFFFFFFFFFFFFFFFFFFFFFFFFFF AND PUSH2 0x1DFC PUSH2 0x1D7A JUMP JUMPDEST PUSH20 0xFFFFFFFFFFFFFFFFFFFFFFFFFFFFFFFFFFFFFFFF AND EQ PUSH2 0x1E52 JUMPI PUSH1 0x40 MLOAD PUSH32 0x8C379A000000000000000000000000000000000000000000000000000000000 DUP2 MSTORE PUSH1 0x4 ADD PUSH2 0x1E49 SWAP1 PUSH2 0x3832 JUMP JUMPDEST PUSH1 0x40 MLOAD DUP1 SWAP2 SUB SWAP1 REVERT JUMPDEST PUSH1 0x0 PUSH1 0x4 PUSH1 0x0 DUP4 PUSH20 0xFFFFFFFFFFFFFFFFFFFFFFFFFFFFFFFFFFFFFFFF AND PUSH20 0xFFFFFFFFFFFFFFFFFFFFFFFFFFFFFFFFFFFFFFFF AND DUP2 MSTORE PUSH1 0x20 ADD SWAP1 DUP2 MSTORE PUSH1 0x20 ADD PUSH1 0x0 KECCAK256 PUSH1 0x0 ADD PUSH1 0x14 SWAP1 SLOAD SWAP1 PUSH2 0x100 EXP SWAP1 DIV PUSH1 0x7 SIGNEXTEND SWAP1 POP PUSH1 0x0 PUSH1 0x4 PUSH1 0x0 DUP5 PUSH20 0xFFFFFFFFFFFFFFFFFFFFFFFFFFFFFFFFFFFFFFFF AND PUSH20 0xFFFFFFFFFFFFFFFFFFFFFFFFFFFFFFFFFFFFFFFF AND DUP2 MSTORE PUSH1 0x20 ADD SWAP1 DUP2 MSTORE PUSH1 0x20 ADD PUSH1 0x0 KECCAK256 PUSH1 0x2 ADD DUP1 SLOAD PUSH2 0x1EF5 SWAP1 PUSH2 0x3A3F JUMP JUMPDEST DUP1 PUSH1 0x1F ADD PUSH1 0x20 DUP1 SWAP2 DIV MUL PUSH1 0x20 ADD PUSH1 0x40 MLOAD SWAP1 DUP2 ADD PUSH1 0x40 MSTORE DUP1 SWAP3 SWAP2 SWAP1 DUP2 DUP2 MSTORE PUSH1 0x20 ADD DUP3 DUP1 SLOAD PUSH2 0x1F21 SWAP1 PUSH2 0x3A3F JUMP JUMPDEST DUP1 ISZERO PUSH2 0x1F6E JUMPI DUP1 PUSH1 0x1F LT PUSH2 0x1F43 JUMPI PUSH2 0x100 DUP1 DUP4 SLOAD DIV MUL DUP4 MSTORE SWAP2 PUSH1 0x20 ADD SWAP2 PUSH2 0x1F6E JUMP JUMPDEST DUP3 ADD SWAP2 SWAP1 PUSH1 0x0 MSTORE PUSH1 0x20 PUSH1 0x0 KECCAK256 SWAP1 JUMPDEST DUP2 SLOAD DUP2 MSTORE SWAP1 PUSH1 0x1 ADD SWAP1 PUSH1 0x20 ADD DUP1 DUP4 GT PUSH2 0x1F51 JUMPI DUP3 SWAP1 SUB PUSH1 0x1F AND DUP3 ADD SWAP2 JUMPDEST POP POP POP POP POP SWAP1 POP PUSH1 0x0 ISZERO ISZERO PUSH1 0x4 PUSH1 0x0 DUP6 PUSH20 0xFFFFFFFFFFFFFFFFFFFFFFFFFFFFFFFFFFFFFFFF AND PUSH20 0xFFFFFFFFFFFFFFFFFFFFFFFFFFFFFFFFFFFFFFFF AND DUP2 MSTORE PUSH1 0x20 ADD SWAP1 DUP2 MSTORE PUSH1 0x20 ADD PUSH1 0x0 KECCAK256 PUSH1 0x0 ADD PUSH1 0x1C SWAP1 SLOAD SWAP1 PUSH2 0x100 EXP SWAP1 DIV PUSH1 0xFF AND ISZERO ISZERO EQ PUSH2 0x200B JUMPI PUSH1 0x40 MLOAD PUSH32 0x8C379A000000000000000000000000000000000000000000000000000000000 DUP2 MSTORE PUSH1 0x4 ADD PUSH2 0x2002 SWAP1 PUSH2 0x38B2 JUMP JUMPDEST PUSH1 0x40 MLOAD DUP1 SWAP2 SUB SWAP1 REVERT JUMPDEST PUSH1 0x4 PUSH1 0x0 DUP5 PUSH20 0xFFFFFFFFFFFFFFFFFFFFFFFFFFFFFFFFFFFFFFFF AND PUSH20 0xFFFFFFFFFFFFFFFFFFFFFFFFFFFFFFFFFFFFFFFF AND DUP2 MSTORE PUSH1 0x20 ADD SWAP1 DUP2 MSTORE PUSH1 0x20 ADD PUSH1 0x0 KECCAK256 PUSH1 0x0 DUP1 DUP3 ADD PUSH1 0x0 PUSH2 0x100 EXP DUP2 SLOAD SWAP1 PUSH20 0xFFFFFFFFFFFFFFFFFFFFFFFFFFFFFFFFFFFFFFFF MUL NOT AND SWAP1 SSTORE PUSH1 0x0 DUP3 ADD PUSH1 0x14 PUSH2 0x100 EXP DUP2 SLOAD SWAP1 PUSH8 0xFFFFFFFFFFFFFFFF MUL NOT AND SWAP1 SSTORE PUSH1 0x0 DUP3 ADD PUSH1 0x1C PUSH2 0x100 EXP DUP2 SLOAD SWAP1 PUSH1 0xFF MUL NOT AND SWAP1 SSTORE PUSH1 0x1 DUP3 ADD PUSH1 0x0 PUSH2 0x100 EXP DUP2 SLOAD SWAP1 PUSH20 0xFFFFFFFFFFFFFFFFFFFFFFFFFFFFFFFFFFFFFFFF MUL NOT AND SWAP1 SSTORE PUSH1 0x2 DUP3 ADD PUSH1 0x0 PUSH2 0x20D8 SWAP2 SWAP1 PUSH2 0x2FDA JUMP JUMPDEST POP POP PUSH1 0x3 PUSH1 0x0 DUP4 PUSH1 0x7 SIGNEXTEND PUSH1 0x7 SIGNEXTEND DUP2 MSTORE PUSH1 0x20 ADD SWAP1 DUP2 MSTORE PUSH1 0x20 ADD PUSH1 0x0 KECCAK256 PUSH1 0x0 PUSH2 0x100 EXP DUP2 SLOAD SWAP1 PUSH20 0xFFFFFFFFFFFFFFFFFFFFFFFFFFFFFFFFFFFFFFFF MUL NOT AND SWAP1 SSTORE PUSH1 0x5 DUP2 PUSH1 0x40 MLOAD PUSH2 0x2126 SWAP2 SWAP1 PUSH2 0x361B JUMP JUMPDEST SWAP1 DUP2 MSTORE PUSH1 0x20 ADD PUSH1 0x40 MLOAD DUP1 SWAP2 SUB SWAP1 KECCAK256 PUSH1 0x0 PUSH2 0x100 EXP DUP2 SLOAD SWAP1 PUSH20 0xFFFFFFFFFFFFFFFFFFFFFFFFFFFFFFFFFFFFFFFF MUL NOT AND SWAP1 SSTORE PUSH32 0x511BEC3ED97C7099362D7E7B0ED4FE8AFE6F448A0DCF73F258BE48DCEB302DB DUP3 DUP5 PUSH1 0x40 MLOAD PUSH2 0x2188 SWAP3 SWAP2 SWAP1 PUSH2 0x36F2 JUMP JUMPDEST PUSH1 0x40 MLOAD DUP1 SWAP2 SUB SWAP1 LOG1 POP POP POP JUMP JUMPDEST PUSH2 0x219D PUSH2 0x2EF4 JUMP JUMPDEST PUSH1 0x0 PUSH2 0x21A8 DUP4 PUSH2 0x2378 JUMP JUMPDEST SWAP1 POP PUSH1 0x0 PUSH1 0x4 PUSH1 0x0 DUP4 PUSH20 0xFFFFFFFFFFFFFFFFFFFFFFFFFFFFFFFFFFFFFFFF AND PUSH20 0xFFFFFFFFFFFFFFFFFFFFFFFFFFFFFFFFFFFFFFFF AND DUP2 MSTORE PUSH1 0x20 ADD SWAP1 DUP2 MSTORE PUSH1 0x20 ADD PUSH1 0x0 KECCAK256 PUSH1 0x40 MLOAD DUP1 PUSH1 0xA0 ADD PUSH1 0x40 MSTORE SWAP1 DUP2 PUSH1 0x0 DUP3 ADD PUSH1 0x0 SWAP1 SLOAD SWAP1 PUSH2 0x100 EXP SWAP1 DIV PUSH20 0xFFFFFFFFFFFFFFFFFFFFFFFFFFFFFFFFFFFFFFFF AND PUSH20 0xFFFFFFFFFFFFFFFFFFFFFFFFFFFFFFFFFFFFFFFF AND PUSH20 0xFFFFFFFFFFFFFFFFFFFFFFFFFFFFFFFFFFFFFFFF AND DUP2 MSTORE PUSH1 0x20 ADD PUSH1 0x0 DUP3 ADD PUSH1 0x14 SWAP1 SLOAD SWAP1 PUSH2 0x100 EXP SWAP1 DIV PUSH1 0x7 SIGNEXTEND PUSH1 0x7 SIGNEXTEND PUSH1 0x7 SIGNEXTEND DUP2 MSTORE PUSH1 0x20 ADD PUSH1 0x0 DUP3 ADD PUSH1 0x1C SWAP1 SLOAD SWAP1 PUSH2 0x100 EXP SWAP1 DIV PUSH1 0xFF AND ISZERO ISZERO ISZERO ISZERO DUP2 MSTORE PUSH1 0x20 ADD PUSH1 0x1 DUP3 ADD PUSH1 0x0 SWAP1 SLOAD SWAP1 PUSH2 0x100 EXP SWAP1 DIV PUSH20 0xFFFFFFFFFFFFFFFFFFFFFFFFFFFFFFFFFFFFFFFF AND PUSH20 0xFFFFFFFFFFFFFFFFFFFFFFFFFFFFFFFFFFFFFFFF AND PUSH20 0xFFFFFFFFFFFFFFFFFFFFFFFFFFFFFFFFFFFFFFFF AND DUP2 MSTORE PUSH1 0x20 ADD PUSH1 0x2 DUP3 ADD DUP1 SLOAD PUSH2 0x22EA SWAP1 PUSH2 0x3A3F JUMP JUMPDEST DUP1 PUSH1 0x1F ADD PUSH1 0x20 DUP1 SWAP2 DIV MUL PUSH1 0x20 ADD PUSH1 0x40 MLOAD SWAP1 DUP2 ADD PUSH1 0x40 MSTORE DUP1 SWAP3 SWAP2 SWAP1 DUP2 DUP2 MSTORE PUSH1 0x20 ADD DUP3 DUP1 SLOAD PUSH2 0x2316 SWAP1 PUSH2 0x3A3F JUMP JUMPDEST DUP1 ISZERO PUSH2 0x2363 JUMPI DUP1 PUSH1 0x1F LT PUSH2 0x2338 JUMPI PUSH2 0x100 DUP1 DUP4 SLOAD DIV MUL DUP4 MSTORE SWAP2 PUSH1 0x20 ADD SWAP2 PUSH2 0x2363 JUMP JUMPDEST DUP3 ADD SWAP2 SWAP1 PUSH1 0x0 MSTORE PUSH1 0x20 PUSH1 0x0 KECCAK256 SWAP1 JUMPDEST DUP2 SLOAD DUP2 MSTORE SWAP1 PUSH1 0x1 ADD SWAP1 PUSH1 0x20 ADD DUP1 DUP4 GT PUSH2 0x2346 JUMPI DUP3 SWAP1 SUB PUSH1 0x1F AND DUP3 ADD SWAP2 JUMPDEST POP POP POP POP POP DUP2 MSTORE POP POP SWAP1 POP DUP1 SWAP3 POP POP POP SWAP2 SWAP1 POP JUMP JUMPDEST PUSH1 0x0 PUSH1 0x5 DUP3 PUSH1 0x40 MLOAD PUSH2 0x238A SWAP2 SWAP1 PUSH2 0x361B JUMP JUMPDEST SWAP1 DUP2 MSTORE PUSH1 0x20 ADD PUSH1 0x40 MLOAD DUP1 SWAP2 SUB SWAP1 KECCAK256 PUSH1 0x0 SWAP1 SLOAD SWAP1 PUSH2 0x100 EXP SWAP1 DIV PUSH20 0xFFFFFFFFFFFFFFFFFFFFFFFFFFFFFFFFFFFFFFFF AND SWAP1 POP SWAP2 SWAP1 POP JUMP JUMPDEST PUSH2 0x23C8 PUSH2 0x2C2C JUMP JUMPDEST PUSH20 0xFFFFFFFFFFFFFFFFFFFFFFFFFFFFFFFFFFFFFFFF AND PUSH2 0x23E6 PUSH2 0x1D7A JUMP JUMPDEST PUSH20 0xFFFFFFFFFFFFFFFFFFFFFFFFFFFFFFFFFFFFFFFF AND EQ PUSH2 0x243C JUMPI PUSH1 0x40 MLOAD PUSH32 0x8C379A000000000000000000000000000000000000000000000000000000000 DUP2 MSTORE PUSH1 0x4 ADD PUSH2 0x2433 SWAP1 PUSH2 0x3832 JUMP JUMPDEST PUSH1 0x40 MLOAD DUP1 SWAP2 SUB SWAP1 REVERT JUMPDEST DUP1 PUSH1 0x1 DUP2 SWAP1 SSTORE POP POP JUMP JUMPDEST PUSH1 0x0 CALLER SWAP1 POP PUSH2 0x2456 DUP4 DUP3 DUP5 PUSH2 0x2D92 JUMP JUMPDEST PUSH1 0x1 SLOAD CALLVALUE EQ PUSH2 0x249A JUMPI PUSH1 0x40 MLOAD PUSH32 0x8C379A000000000000000000000000000000000000000000000000000000000 DUP2 MSTORE PUSH1 0x4 ADD PUSH2 0x2491 SWAP1 PUSH2 0x37B2 JUMP JUMPDEST PUSH1 0x40 MLOAD DUP1 SWAP2 SUB SWAP1 REVERT JUMPDEST PUSH1 0x40 MLOAD DUP1 PUSH1 0xA0 ADD PUSH1 0x40 MSTORE DUP1 DUP3 PUSH20 0xFFFFFFFFFFFFFFFFFFFFFFFFFFFFFFFFFFFFFFFF AND DUP2 MSTORE PUSH1 0x20 ADD DUP5 PUSH1 0x7 SIGNEXTEND DUP2 MSTORE PUSH1 0x20 ADD PUSH1 0x0 ISZERO ISZERO DUP2 MSTORE PUSH1 0x20 ADD PUSH1 0x0 PUSH20 0xFFFFFFFFFFFFFFFFFFFFFFFFFFFFFFFFFFFFFFFF AND DUP2 MSTORE PUSH1 0x20 ADD DUP4 DUP2 MSTORE POP PUSH1 0x4 PUSH1 0x0 CALLER PUSH20 0xFFFFFFFFFFFFFFFFFFFFFFFFFFFFFFFFFFFFFFFF AND PUSH20 0xFFFFFFFFFFFFFFFFFFFFFFFFFFFFFFFFFFFFFFFF AND DUP2 MSTORE PUSH1 0x20 ADD SWAP1 DUP2 MSTORE PUSH1 0x20 ADD PUSH1 0x0 KECCAK256 PUSH1 0x0 DUP3 ADD MLOAD DUP2 PUSH1 0x0 ADD PUSH1 0x0 PUSH2 0x100 EXP DUP2 SLOAD DUP2 PUSH20 0xFFFFFFFFFFFFFFFFFFFFFFFFFFFFFFFFFFFFFFFF MUL NOT AND SWAP1 DUP4 PUSH20 0xFFFFFFFFFFFFFFFFFFFFFFFFFFFFFFFFFFFFFFFF AND MUL OR SWAP1 SSTORE POP PUSH1 0x20 DUP3 ADD MLOAD DUP2 PUSH1 0x0 ADD PUSH1 0x14 PUSH2 0x100 EXP DUP2 SLOAD DUP2 PUSH8 0xFFFFFFFFFFFFFFFF MUL NOT AND SWAP1 DUP4 PUSH1 0x7 SIGNEXTEND PUSH8 0xFFFFFFFFFFFFFFFF AND MUL OR SWAP1 SSTORE POP PUSH1 0x40 DUP3 ADD MLOAD DUP2 PUSH1 0x0 ADD PUSH1 0x1C PUSH2 0x100 EXP DUP2 SLOAD DUP2 PUSH1 0xFF MUL NOT AND SWAP1 DUP4 ISZERO ISZERO MUL OR SWAP1 SSTORE POP PUSH1 0x60 DUP3 ADD MLOAD DUP2 PUSH1 0x1 ADD PUSH1 0x0 PUSH2 0x100 EXP DUP2 SLOAD DUP2 PUSH20 0xFFFFFFFFFFFFFFFFFFFFFFFFFFFFFFFFFFFFFFFF MUL NOT AND SWAP1 DUP4 PUSH20 0xFFFFFFFFFFFFFFFFFFFFFFFFFFFFFFFFFFFFFFFF AND MUL OR SWAP1 SSTORE POP PUSH1 0x80 DUP3 ADD MLOAD DUP2 PUSH1 0x2 ADD SWAP1 DUP1 MLOAD SWAP1 PUSH1 0x20 ADD SWAP1 PUSH2 0x262F SWAP3 SWAP2 SWAP1 PUSH2 0x2F54 JUMP JUMPDEST POP SWAP1 POP POP PUSH32 0xCB042D04619E497175F63CE8EC9B9127CB0BF344FACC37DB4FE8492C2ECFBB9E DUP4 CALLER PUSH1 0x40 MLOAD PUSH2 0x2664 SWAP3 SWAP2 SWAP1 PUSH2 0x36F2 JUMP JUMPDEST PUSH1 0x40 MLOAD DUP1 SWAP2 SUB SWAP1 LOG1 DUP3 PUSH1 0x7 SIGNEXTEND PUSH32 0x2D329F0D038DED94203A58E5BE2F2F41B14CBBC49CC1F89443696606F104658C CALLER PUSH1 0x40 MLOAD PUSH2 0x269F SWAP2 SWAP1 PUSH2 0x3647 JUMP JUMPDEST PUSH1 0x40 MLOAD DUP1 SWAP2 SUB SWAP1 LOG2 PUSH1 0x0 PUSH1 0x2 PUSH1 0x0 SWAP1 SLOAD SWAP1 PUSH2 0x100 EXP SWAP1 DIV PUSH20 0xFFFFFFFFFFFFFFFFFFFFFFFFFFFFFFFFFFFFFFFF AND PUSH20 0xFFFFFFFFFFFFFFFFFFFFFFFFFFFFFFFFFFFFFFFF AND PUSH1 0x1 SLOAD PUSH1 0x40 MLOAD PUSH2 0x26F1 SWAP1 PUSH2 0x3632 JUMP JUMPDEST PUSH1 0x0 PUSH1 0x40 MLOAD DUP1 DUP4 SUB DUP2 DUP6 DUP8 GAS CALL SWAP3 POP POP POP RETURNDATASIZE DUP1 PUSH1 0x0 DUP2 EQ PUSH2 0x272E JUMPI PUSH1 0x40 MLOAD SWAP2 POP PUSH1 0x1F NOT PUSH1 0x3F RETURNDATASIZE ADD AND DUP3 ADD PUSH1 0x40 MSTORE RETURNDATASIZE DUP3 MSTORE RETURNDATASIZE PUSH1 0x0 PUSH1 0x20 DUP5 ADD RETURNDATACOPY PUSH2 0x2733 JUMP JUMPDEST PUSH1 0x60 SWAP2 POP JUMPDEST POP POP SWAP1 POP DUP1 PUSH2 0x2777 JUMPI PUSH1 0x40 MLOAD PUSH32 0x8C379A000000000000000000000000000000000000000000000000000000000 DUP2 MSTORE PUSH1 0x4 ADD PUSH2 0x276E SWAP1 PUSH2 0x3772 JUMP JUMPDEST PUSH1 0x40 MLOAD DUP1 SWAP2 SUB SWAP1 REVERT JUMPDEST POP POP POP POP JUMP JUMPDEST PUSH1 0x0 PUSH2 0x2788 DUP4 PUSH2 0x1699 JUMP JUMPDEST SWAP1 POP PUSH1 0x0 DUP2 PUSH1 0x0 ADD MLOAD SWAP1 POP CALLER PUSH20 0xFFFFFFFFFFFFFFFFFFFFFFFFFFFFFFFFFFFFFFFF AND DUP2 PUSH20 0xFFFFFFFFFFFFFFFFFFFFFFFFFFFFFFFFFFFFFFFF AND EQ PUSH2 0x2801 JUMPI PUSH1 0x40 MLOAD PUSH32 0x8C379A000000000000000000000000000000000000000000000000000000000 DUP2 MSTORE PUSH1 0x4 ADD PUSH2 0x27F8 SWAP1 PUSH2 0x37D2 JUMP JUMPDEST PUSH1 0x40 MLOAD DUP1 SWAP2 SUB SWAP1 REVERT JUMPDEST PUSH2 0x280B DUP5 DUP5 PUSH2 0x2C81 JUMP JUMPDEST PUSH1 0x7 PUSH1 0x0 DUP6 PUSH1 0x7 SIGNEXTEND PUSH1 0x7 SIGNEXTEND DUP2 MSTORE PUSH1 0x20 ADD SWAP1 DUP2 MSTORE PUSH1 0x20 ADD PUSH1 0x0 KECCAK256 DUP4 SWAP1 DUP1 PUSH1 0x1 DUP2 SLOAD ADD DUP1 DUP3 SSTORE DUP1 SWAP2 POP POP PUSH1 0x1 SWAP1 SUB SWAP1 PUSH1 0x0 MSTORE PUSH1 0x20 PUSH1 0x0 KECCAK256 SWAP1 PUSH1 0x4 SWAP2 DUP3 DUP3 DIV ADD SWAP2 SWAP1 MOD PUSH1 0x8 MUL SWAP1 SWAP2 SWAP1 SWAP2 SWAP1 SWAP2 PUSH2 0x100 EXP DUP2 SLOAD DUP2 PUSH8 0xFFFFFFFFFFFFFFFF MUL NOT AND SWAP1 DUP4 PUSH1 0x7 SIGNEXTEND PUSH8 0xFFFFFFFFFFFFFFFF AND MUL OR SWAP1 SSTORE POP DUP3 PUSH1 0x7 SIGNEXTEND PUSH32 0xC6910544AD28778F5982555EAE73EFAB16F145F0E382250AC13DB569707CA1CF DUP6 PUSH1 0x40 MLOAD PUSH2 0x28AE SWAP2 SWAP1 PUSH2 0x36D7 JUMP JUMPDEST PUSH1 0x40 MLOAD DUP1 SWAP2 SUB SWAP1 LOG2 POP POP POP POP JUMP JUMPDEST PUSH1 0x4 PUSH1 0x20 MSTORE DUP1 PUSH1 0x0 MSTORE PUSH1 0x40 PUSH1 0x0 KECCAK256 PUSH1 0x0 SWAP2 POP SWAP1 POP DUP1 PUSH1 0x0 ADD PUSH1 0x0 SWAP1 SLOAD SWAP1 PUSH2 0x100 EXP SWAP1 DIV PUSH20 0xFFFFFFFFFFFFFFFFFFFFFFFFFFFFFFFFFFFFFFFF AND SWAP1 DUP1 PUSH1 0x0 ADD PUSH1 0x14 SWAP1 SLOAD SWAP1 PUSH2 0x100 EXP SWAP1 DIV PUSH1 0x7 SIGNEXTEND SWAP1 DUP1 PUSH1 0x0 ADD PUSH1 0x1C SWAP1 SLOAD SWAP1 PUSH2 0x100 EXP SWAP1 DIV PUSH1 0xFF AND SWAP1 DUP1 PUSH1 0x1 ADD PUSH1 0x0 SWAP1 SLOAD SWAP1 PUSH2 0x100 EXP SWAP1 DIV PUSH20 0xFFFFFFFFFFFFFFFFFFFFFFFFFFFFFFFFFFFFFFFF AND SWAP1 DUP1 PUSH1 0x2 ADD DUP1 SLOAD PUSH2 0x2951 SWAP1 PUSH2 0x3A3F JUMP JUMPDEST DUP1 PUSH1 0x1F ADD PUSH1 0x20 DUP1 SWAP2 DIV MUL PUSH1 0x20 ADD PUSH1 0x40 MLOAD SWAP1 DUP2 ADD PUSH1 0x40 MSTORE DUP1 SWAP3 SWAP2 SWAP1 DUP2 DUP2 MSTORE PUSH1 0x20 ADD DUP3 DUP1 SLOAD PUSH2 0x297D SWAP1 PUSH2 0x3A3F JUMP JUMPDEST DUP1 ISZERO PUSH2 0x29CA JUMPI DUP1 PUSH1 0x1F LT PUSH2 0x299F JUMPI PUSH2 0x100 DUP1 DUP4 SLOAD DIV MUL DUP4 MSTORE SWAP2 PUSH1 0x20 ADD SWAP2 PUSH2 0x29CA JUMP JUMPDEST DUP3 ADD SWAP2 SWAP1 PUSH1 0x0 MSTORE PUSH1 0x20 PUSH1 0x0 KECCAK256 SWAP1 JUMPDEST DUP2 SLOAD DUP2 MSTORE SWAP1 PUSH1 0x1 ADD SWAP1 PUSH1 0x20 ADD DUP1 DUP4 GT PUSH2 0x29AD JUMPI DUP3 SWAP1 SUB PUSH1 0x1F AND DUP3 ADD SWAP2 JUMPDEST POP POP POP POP POP SWAP1 POP DUP6 JUMP JUMPDEST PUSH1 0x0 PUSH2 0x29DF CALLER PUSH2 0x7B4 JUMP JUMPDEST SWAP1 POP PUSH1 0x0 DUP2 PUSH1 0x0 ADD MLOAD SWAP1 POP CALLER PUSH20 0xFFFFFFFFFFFFFFFFFFFFFFFFFFFFFFFFFFFFFFFF AND DUP2 PUSH20 0xFFFFFFFFFFFFFFFFFFFFFFFFFFFFFFFFFFFFFFFF AND EQ PUSH2 0x2A58 JUMPI PUSH1 0x40 MLOAD PUSH32 0x8C379A000000000000000000000000000000000000000000000000000000000 DUP2 MSTORE PUSH1 0x4 ADD PUSH2 0x2A4F SWAP1 PUSH2 0x37D2 JUMP JUMPDEST PUSH1 0x40 MLOAD DUP1 SWAP2 SUB SWAP1 REVERT JUMPDEST PUSH1 0x0 DUP3 PUSH1 0x20 ADD MLOAD SWAP1 POP PUSH1 0x0 PUSH2 0x2A6C DUP6 PUSH2 0x7B4 JUMP JUMPDEST SWAP1 POP PUSH1 0x0 DUP2 PUSH1 0x20 ADD MLOAD SWAP1 POP PUSH2 0x2A81 DUP4 DUP3 PUSH2 0x2C81 JUMP JUMPDEST PUSH1 0x7 PUSH1 0x0 DUP5 PUSH1 0x7 SIGNEXTEND PUSH1 0x7 SIGNEXTEND DUP2 MSTORE PUSH1 0x20 ADD SWAP1 DUP2 MSTORE PUSH1 0x20 ADD PUSH1 0x0 KECCAK256 DUP2 SWAP1 DUP1 PUSH1 0x1 DUP2 SLOAD ADD DUP1 DUP3 SSTORE DUP1 SWAP2 POP POP PUSH1 0x1 SWAP1 SUB SWAP1 PUSH1 0x0 MSTORE PUSH1 0x20 PUSH1 0x0 KECCAK256 SWAP1 PUSH1 0x4 SWAP2 DUP3 DUP3 DIV ADD SWAP2 SWAP1 MOD PUSH1 0x8 MUL SWAP1 SWAP2 SWAP1 SWAP2 SWAP1 SWAP2 PUSH2 0x100 EXP DUP2 SLOAD DUP2 PUSH8 0xFFFFFFFFFFFFFFFF MUL NOT AND SWAP1 DUP4 PUSH1 0x7 SIGNEXTEND PUSH8 0xFFFFFFFFFFFFFFFF AND MUL OR SWAP1 SSTORE POP DUP1 PUSH1 0x7 SIGNEXTEND PUSH32 0xC6910544AD28778F5982555EAE73EFAB16F145F0E382250AC13DB569707CA1CF DUP5 PUSH1 0x40 MLOAD PUSH2 0x2B24 SWAP2 SWAP1 PUSH2 0x36D7 JUMP JUMPDEST PUSH1 0x40 MLOAD DUP1 SWAP2 SUB SWAP1 LOG2 POP POP POP POP POP POP JUMP JUMPDEST PUSH2 0x2B3C PUSH2 0x2C2C JUMP JUMPDEST PUSH20 0xFFFFFFFFFFFFFFFFFFFFFFFFFFFFFFFFFFFFFFFF AND PUSH2 0x2B5A PUSH2 0x1D7A JUMP JUMPDEST PUSH20 0xFFFFFFFFFFFFFFFFFFFFFFFFFFFFFFFFFFFFFFFF AND EQ PUSH2 0x2BB0 JUMPI PUSH1 0x40 MLOAD PUSH32 0x8C379A000000000000000000000000000000000000000000000000000000000 DUP2 MSTORE PUSH1 0x4 ADD PUSH2 0x2BA7 SWAP1 PUSH2 0x3832 JUMP JUMPDEST PUSH1 0x40 MLOAD DUP1 SWAP2 SUB SWAP1 REVERT JUMPDEST PUSH1 0x0 PUSH20 0xFFFFFFFFFFFFFFFFFFFFFFFFFFFFFFFFFFFFFFFF AND DUP2 PUSH20 0xFFFFFFFFFFFFFFFFFFFFFFFFFFFFFFFFFFFFFFFF AND EQ ISZERO PUSH2 0x2C20 JUMPI PUSH1 0x40 MLOAD PUSH32 0x8C379A000000000000000000000000000000000000000000000000000000000 DUP2 MSTORE PUSH1 0x4 ADD PUSH2 0x2C17 SWAP1 PUSH2 0x3752 JUMP JUMPDEST PUSH1 0x40 MLOAD DUP1 SWAP2 SUB SWAP1 REVERT JUMPDEST PUSH2 0x2C29 DUP2 PUSH2 0x2CCE JUMP JUMPDEST POP JUMP JUMPDEST PUSH1 0x0 CALLER SWAP1 POP SWAP1 JUMP JUMPDEST PUSH1 0x0 PUSH1 0x6 PUSH1 0x0 DUP5 PUSH1 0x7 SIGNEXTEND PUSH1 0x7 SIGNEXTEND DUP2 MSTORE PUSH1 0x20 ADD SWAP1 DUP2 MSTORE PUSH1 0x20 ADD PUSH1 0x0 KECCAK256 PUSH1 0x0 DUP4 PUSH1 0x7 SIGNEXTEND PUSH1 0x7 SIGNEXTEND DUP2 MSTORE PUSH1 0x20 ADD SWAP1 DUP2 MSTORE PUSH1 0x20 ADD PUSH1 0x0 KECCAK256 PUSH1 0x0 PUSH2 0x100 EXP DUP2 SLOAD DUP2 PUSH1 0xFF MUL NOT AND SWAP1 DUP4 ISZERO ISZERO MUL OR SWAP1 SSTORE POP POP POP JUMP JUMPDEST PUSH1 0x1 PUSH1 0x6 PUSH1 0x0 DUP5 PUSH1 0x7 SIGNEXTEND PUSH1 0x7 SIGNEXTEND DUP2 MSTORE PUSH1 0x20 ADD SWAP1 DUP2 MSTORE PUSH1 0x20 ADD PUSH1 0x0 KECCAK256 PUSH1 0x0 DUP4 PUSH1 0x7 SIGNEXTEND PUSH1 0x7 SIGNEXTEND DUP2 MSTORE PUSH1 0x20 ADD SWAP1 DUP2 MSTORE PUSH1 0x20 ADD PUSH1 0x0 KECCAK256 PUSH1 0x0 PUSH2 0x100 EXP DUP2 SLOAD DUP2 PUSH1 0xFF MUL NOT AND SWAP1 DUP4 ISZERO ISZERO MUL OR SWAP1 SSTORE POP POP POP JUMP JUMPDEST PUSH1 0x0 DUP1 PUSH1 0x0 SWAP1 SLOAD SWAP1 PUSH2 0x100 EXP SWAP1 DIV PUSH20 0xFFFFFFFFFFFFFFFFFFFFFFFFFFFFFFFFFFFFFFFF AND SWAP1 POP DUP2 PUSH1 0x0 DUP1 PUSH2 0x100 EXP DUP2 SLOAD DUP2 PUSH20 0xFFFFFFFFFFFFFFFFFFFFFFFFFFFFFFFFFFFFFFFF MUL NOT AND SWAP1 DUP4 PUSH20 0xFFFFFFFFFFFFFFFFFFFFFFFFFFFFFFFFFFFFFFFF AND MUL OR SWAP1 SSTORE POP DUP2 PUSH20 0xFFFFFFFFFFFFFFFFFFFFFFFFFFFFFFFFFFFFFFFF AND DUP2 PUSH20 0xFFFFFFFFFFFFFFFFFFFFFFFFFFFFFFFFFFFFFFFF AND PUSH32 0x8BE0079C531659141344CD1FD0A4F28419497F9722A3DAAFE3B4186F6B6457E0 PUSH1 0x40 MLOAD PUSH1 0x40 MLOAD DUP1 SWAP2 SUB SWAP1 LOG3 POP POP JUMP JUMPDEST PUSH1 0x0 PUSH20 0xFFFFFFFFFFFFFFFFFFFFFFFFFFFFFFFFFFFFFFFF AND PUSH1 0x3 PUSH1 0x0 DUP6 PUSH1 0x7 SIGNEXTEND PUSH1 0x7 SIGNEXTEND DUP2 MSTORE PUSH1 0x20 ADD SWAP1 DUP2 MSTORE PUSH1 0x20 ADD PUSH1 0x0 KECCAK256 PUSH1 0x0 SWAP1 SLOAD SWAP1 PUSH2 0x100 EXP SWAP1 DIV PUSH20 0xFFFFFFFFFFFFFFFFFFFFFFFFFFFFFFFFFFFFFFFF AND PUSH20 0xFFFFFFFFFFFFFFFFFFFFFFFFFFFFFFFFFFFFFFFF AND EQ PUSH2 0x2E3A JUMPI PUSH1 0x40 MLOAD PUSH32 0x8C379A000000000000000000000000000000000000000000000000000000000 DUP2 MSTORE PUSH1 0x4 ADD PUSH2 0x2E31 SWAP1 PUSH2 0x3792 JUMP JUMPDEST PUSH1 0x40 MLOAD DUP1 SWAP2 SUB SWAP1 REVERT JUMPDEST DUP2 PUSH1 0x3 PUSH1 0x0 DUP6 PUSH1 0x7 SIGNEXTEND PUSH1 0x7 SIGNEXTEND DUP2 MSTORE PUSH1 0x20 ADD SWAP1 DUP2 MSTORE PUSH1 0x20 ADD PUSH1 0x0 KECCAK256 PUSH1 0x0 PUSH2 0x100 EXP DUP2 SLOAD DUP2 PUSH20 0xFFFFFFFFFFFFFFFFFFFFFFFFFFFFFFFFFFFFFFFF MUL NOT AND SWAP1 DUP4 PUSH20 0xFFFFFFFFFFFFFFFFFFFFFFFFFFFFFFFFFFFFFFFF AND MUL OR SWAP1 SSTORE POP DUP2 PUSH1 0x5 DUP3 PUSH1 0x40 MLOAD PUSH2 0x2EA3 SWAP2 SWAP1 PUSH2 0x361B JUMP JUMPDEST SWAP1 DUP2 MSTORE PUSH1 0x20 ADD PUSH1 0x40 MLOAD DUP1 SWAP2 SUB SWAP1 KECCAK256 PUSH1 0x0 PUSH2 0x100 EXP DUP2 SLOAD DUP2 PUSH20 0xFFFFFFFFFFFFFFFFFFFFFFFFFFFFFFFFFFFFFFFF MUL NOT AND SWAP1 DUP4 PUSH20 0xFFFFFFFFFFFFFFFFFFFFFFFFFFFFFFFFFFFFFFFF AND MUL OR SWAP1 SSTORE POP POP POP POP JUMP JUMPDEST PUSH1 0x40 MLOAD DUP1 PUSH1 0xA0 ADD PUSH1 0x40 MSTORE DUP1 PUSH1 0x0 PUSH20 0xFFFFFFFFFFFFFFFFFFFFFFFFFFFFFFFFFFFFFFFF AND DUP2 MSTORE PUSH1 0x20 ADD PUSH1 0x0 PUSH1 0x7 SIGNEXTEND DUP2 MSTORE PUSH1 0x20 ADD PUSH1 0x0 ISZERO ISZERO DUP2 MSTORE PUSH1 0x20 ADD PUSH1 0x0 PUSH20 0xFFFFFFFFFFFFFFFFFFFFFFFFFFFFFFFFFFFFFFFF AND DUP2 MSTORE PUSH1 0x20 ADD PUSH1 0x60 DUP2 MSTORE POP SWAP1 JUMP JUMPDEST DUP3 DUP1 SLOAD PUSH2 0x2F60 SWAP1 PUSH2 0x3A3F JUMP JUMPDEST SWAP1 PUSH1 0x0 MSTORE PUSH1 0x20 PUSH1 0x0 KECCAK256 SWAP1 PUSH1 0x1F ADD PUSH1 0x20 SWAP1 DIV DUP2 ADD SWAP3 DUP3 PUSH2 0x2F82 JUMPI PUSH1 0x0 DUP6 SSTORE PUSH2 0x2FC9 JUMP JUMPDEST DUP3 PUSH1 0x1F LT PUSH2 0x2F9B JUMPI DUP1 MLOAD PUSH1 0xFF NOT AND DUP4 DUP1 ADD OR DUP6 SSTORE PUSH2 0x2FC9 JUMP JUMPDEST DUP3 DUP1 ADD PUSH1 0x1 ADD DUP6 SSTORE DUP3 ISZERO PUSH2 0x2FC9 JUMPI SWAP2 DUP3 ADD JUMPDEST DUP3 DUP2 GT ISZERO PUSH2 0x2FC8 JUMPI DUP3 MLOAD DUP3 SSTORE SWAP2 PUSH1 0x20 ADD SWAP2 SWAP1 PUSH1 0x1 ADD SWAP1 PUSH2 0x2FAD JUMP JUMPDEST JUMPDEST POP SWAP1 POP PUSH2 0x2FD6 SWAP2 SWAP1 PUSH2 0x301A JUMP JUMPDEST POP SWAP1 JUMP JUMPDEST POP DUP1 SLOAD PUSH2 0x2FE6 SWAP1 PUSH2 0x3A3F JUMP JUMPDEST PUSH1 0x0 DUP3 SSTORE DUP1 PUSH1 0x1F LT PUSH2 0x2FF8 JUMPI POP PUSH2 0x3017 JUMP JUMPDEST PUSH1 0x1F ADD PUSH1 0x20 SWAP1 DIV SWAP1 PUSH1 0x0 MSTORE PUSH1 0x20 PUSH1 0x0 KECCAK256 SWAP1 DUP2 ADD SWAP1 PUSH2 0x3016 SWAP2 SWAP1 PUSH2 0x301A JUMP JUMPDEST JUMPDEST POP JUMP JUMPDEST JUMPDEST DUP1 DUP3 GT ISZERO PUSH2 0x3033 JUMPI PUSH1 0x0 DUP2 PUSH1 0x0 SWAP1 SSTORE POP PUSH1 0x1 ADD PUSH2 0x301B JUMP JUMPDEST POP SWAP1 JUMP JUMPDEST PUSH1 0x0 PUSH2 0x304A PUSH2 0x3045 DUP5 PUSH2 0x3934 JUMP JUMPDEST PUSH2 0x390F JUMP JUMPDEST SWAP1 POP DUP3 DUP2 MSTORE PUSH1 0x20 DUP2 ADD DUP5 DUP5 DUP5 ADD GT ISZERO PUSH2 0x3062 JUMPI PUSH1 0x0 DUP1 REVERT JUMPDEST PUSH2 0x306D DUP5 DUP3 DUP6 PUSH2 0x39FD JUMP JUMPDEST POP SWAP4 SWAP3 POP POP POP JUMP JUMPDEST PUSH1 0x0 DUP2 CALLDATALOAD SWAP1 POP PUSH2 0x3084 DUP2 PUSH2 0x3E7C JUMP JUMPDEST SWAP3 SWAP2 POP POP JUMP JUMPDEST PUSH1 0x0 DUP2 CALLDATALOAD SWAP1 POP PUSH2 0x3099 DUP2 PUSH2 0x3E93 JUMP JUMPDEST SWAP3 SWAP2 POP POP JUMP JUMPDEST PUSH1 0x0 DUP3 PUSH1 0x1F DUP4 ADD SLT PUSH2 0x30B0 JUMPI PUSH1 0x0 DUP1 REVERT JUMPDEST DUP2 CALLDATALOAD PUSH2 0x30C0 DUP5 DUP3 PUSH1 0x20 DUP7 ADD PUSH2 0x3037 JUMP JUMPDEST SWAP2 POP POP SWAP3 SWAP2 POP POP JUMP JUMPDEST PUSH1 0x0 DUP2 CALLDATALOAD SWAP1 POP PUSH2 0x30D8 DUP2 PUSH2 0x3EAA JUMP JUMPDEST SWAP3 SWAP2 POP POP JUMP JUMPDEST PUSH1 0x0 PUSH1 0x20 DUP3 DUP5 SUB SLT ISZERO PUSH2 0x30F0 JUMPI PUSH1 0x0 DUP1 REVERT JUMPDEST PUSH1 0x0 PUSH2 0x30FE DUP5 DUP3 DUP6 ADD PUSH2 0x3075 JUMP JUMPDEST SWAP2 POP POP SWAP3 SWAP2 POP POP JUMP JUMPDEST PUSH1 0x0 PUSH1 0x20 DUP3 DUP5 SUB SLT ISZERO PUSH2 0x3119 JUMPI PUSH1 0x0 DUP1 REVERT JUMPDEST PUSH1 0x0 PUSH2 0x3127 DUP5 DUP3 DUP6 ADD PUSH2 0x308A JUMP JUMPDEST SWAP2 POP POP SWAP3 SWAP2 POP POP JUMP JUMPDEST PUSH1 0x0 DUP1 PUSH1 0x40 DUP4 DUP6 SUB SLT ISZERO PUSH2 0x3143 JUMPI PUSH1 0x0 DUP1 REVERT JUMPDEST PUSH1 0x0 PUSH2 0x3151 DUP6 DUP3 DUP7 ADD PUSH2 0x308A JUMP JUMPDEST SWAP3 POP POP PUSH1 0x20 PUSH2 0x3162 DUP6 DUP3 DUP7 ADD PUSH2 0x308A JUMP JUMPDEST SWAP2 POP POP SWAP3 POP SWAP3 SWAP1 POP JUMP JUMPDEST PUSH1 0x0 DUP1 PUSH1 0x40 DUP4 DUP6 SUB SLT ISZERO PUSH2 0x317F JUMPI PUSH1 0x0 DUP1 REVERT JUMPDEST PUSH1 0x0 PUSH2 0x318D DUP6 DUP3 DUP7 ADD PUSH2 0x308A JUMP JUMPDEST SWAP3 POP POP PUSH1 0x20 DUP4 ADD CALLDATALOAD PUSH8 0xFFFFFFFFFFFFFFFF DUP2 GT ISZERO PUSH2 0x31AA JUMPI PUSH1 0x0 DUP1 REVERT JUMPDEST PUSH2 0x31B6 DUP6 DUP3 DUP7 ADD PUSH2 0x309F JUMP JUMPDEST SWAP2 POP POP SWAP3 POP SWAP3 SWAP1 POP JUMP JUMPDEST PUSH1 0x0 DUP1 PUSH1 0x40 DUP4 DUP6 SUB SLT ISZERO PUSH2 0x31D3 JUMPI PUSH1 0x0 DUP1 REVERT JUMPDEST PUSH1 0x0 PUSH2 0x31E1 DUP6 DUP3 DUP7 ADD PUSH2 0x308A JUMP JUMPDEST SWAP3 POP POP PUSH1 0x20 PUSH2 0x31F2 DUP6 DUP3 DUP7 ADD PUSH2 0x30C9 JUMP JUMPDEST SWAP2 POP POP SWAP3 POP SWAP3 SWAP1 POP JUMP JUMPDEST PUSH1 0x0 PUSH1 0x20 DUP3 DUP5 SUB SLT ISZERO PUSH2 0x320E JUMPI PUSH1 0x0 DUP1 REVERT JUMPDEST PUSH1 0x0 DUP3 ADD CALLDATALOAD PUSH8 0xFFFFFFFFFFFFFFFF DUP2 GT ISZERO PUSH2 0x3228 JUMPI PUSH1 0x0 DUP1 REVERT JUMPDEST PUSH2 0x3234 DUP5 DUP3 DUP6 ADD PUSH2 0x309F JUMP JUMPDEST SWAP2 POP POP SWAP3 SWAP2 POP POP JUMP JUMPDEST PUSH1 0x0 DUP1 PUSH1 0x40 DUP4 DUP6 SUB SLT ISZERO PUSH2 0x3250 JUMPI PUSH1 0x0 DUP1 REVERT JUMPDEST PUSH1 0x0 DUP4 ADD CALLDATALOAD PUSH8 0xFFFFFFFFFFFFFFFF DUP2 GT ISZERO PUSH2 0x326A JUMPI PUSH1 0x0 DUP1 REVERT JUMPDEST PUSH2 0x3276 DUP6 DUP3 DUP7 ADD PUSH2 0x309F JUMP JUMPDEST SWAP3 POP POP PUSH1 0x20 DUP4 ADD CALLDATALOAD PUSH8 0xFFFFFFFFFFFFFFFF DUP2 GT ISZERO PUSH2 0x3293 JUMPI PUSH1 0x0 DUP1 REVERT JUMPDEST PUSH2 0x329F DUP6 DUP3 DUP7 ADD PUSH2 0x309F JUMP JUMPDEST SWAP2 POP POP SWAP3 POP SWAP3 SWAP1 POP JUMP JUMPDEST PUSH1 0x0 PUSH1 0x20 DUP3 DUP5 SUB SLT ISZERO PUSH2 0x32BB JUMPI PUSH1 0x0 DUP1 REVERT JUMPDEST PUSH1 0x0 PUSH2 0x32C9 DUP5 DUP3 DUP6 ADD PUSH2 0x30C9 JUMP JUMPDEST SWAP2 POP POP SWAP3 SWAP2 POP POP JUMP JUMPDEST PUSH2 0x32DB DUP2 PUSH2 0x39A8 JUMP JUMPDEST DUP3 MSTORE POP POP JUMP JUMPDEST PUSH2 0x32EA DUP2 PUSH2 0x39A8 JUMP JUMPDEST DUP3 MSTORE POP POP JUMP JUMPDEST PUSH2 0x32F9 DUP2 PUSH2 0x39BA JUMP JUMPDEST DUP3 MSTORE POP POP JUMP JUMPDEST PUSH2 0x3308 DUP2 PUSH2 0x39BA JUMP JUMPDEST DUP3 MSTORE POP POP JUMP JUMPDEST PUSH2 0x3317 DUP2 PUSH2 0x39C6 JUMP JUMPDEST DUP3 MSTORE POP POP JUMP JUMPDEST PUSH2 0x3326 DUP2 PUSH2 0x39C6 JUMP JUMPDEST DUP3 MSTORE POP POP JUMP JUMPDEST PUSH1 0x0 PUSH2 0x3337 DUP3 PUSH2 0x3965 JUMP JUMPDEST PUSH2 0x3341 DUP2 DUP6 PUSH2 0x397B JUMP JUMPDEST SWAP4 POP PUSH2 0x3351 DUP2 DUP6 PUSH1 0x20 DUP7 ADD PUSH2 0x3A0C JUMP JUMPDEST PUSH2 0x335A DUP2 PUSH2 0x3B00 JUMP JUMPDEST DUP5 ADD SWAP2 POP POP SWAP3 SWAP2 POP POP JUMP JUMPDEST PUSH1 0x0 PUSH2 0x3370 DUP3 PUSH2 0x3965 JUMP JUMPDEST PUSH2 0x337A DUP2 DUP6 PUSH2 0x398C JUMP JUMPDEST SWAP4 POP PUSH2 0x338A DUP2 DUP6 PUSH1 0x20 DUP7 ADD PUSH2 0x3A0C JUMP JUMPDEST PUSH2 0x3393 DUP2 PUSH2 0x3B00 JUMP JUMPDEST DUP5 ADD SWAP2 POP POP SWAP3 SWAP2 POP POP JUMP JUMPDEST PUSH1 0x0 PUSH2 0x33A9 DUP3 PUSH2 0x3965 JUMP JUMPDEST PUSH2 0x33B3 DUP2 DUP6 PUSH2 0x399D JUMP JUMPDEST SWAP4 POP PUSH2 0x33C3 DUP2 DUP6 PUSH1 0x20 DUP7 ADD PUSH2 0x3A0C JUMP JUMPDEST DUP1 DUP5 ADD SWAP2 POP POP SWAP3 SWAP2 POP POP JUMP JUMPDEST PUSH1 0x0 PUSH2 0x33DC PUSH1 0x26 DUP4 PUSH2 0x398C JUMP JUMPDEST SWAP2 POP PUSH2 0x33E7 DUP3 PUSH2 0x3B11 JUMP JUMPDEST PUSH1 0x40 DUP3 ADD SWAP1 POP SWAP2 SWAP1 POP JUMP JUMPDEST PUSH1 0x0 PUSH2 0x33FF PUSH1 0x16 DUP4 PUSH2 0x398C JUMP JUMPDEST SWAP2 POP PUSH2 0x340A DUP3 PUSH2 0x3B60 JUMP JUMPDEST PUSH1 0x20 DUP3 ADD SWAP1 POP SWAP2 SWAP1 POP JUMP JUMPDEST PUSH1 0x0 PUSH2 0x3422 PUSH1 0x30 DUP4 PUSH2 0x398C JUMP JUMPDEST SWAP2 POP PUSH2 0x342D DUP3 PUSH2 0x3B89 JUMP JUMPDEST PUSH1 0x40 DUP3 ADD SWAP1 POP SWAP2 SWAP1 POP JUMP JUMPDEST PUSH1 0x0 PUSH2 0x3445 PUSH1 0x18 DUP4 PUSH2 0x398C JUMP JUMPDEST SWAP2 POP PUSH2 0x3450 DUP3 PUSH2 0x3BD8 JUMP JUMPDEST PUSH1 0x20 DUP3 ADD SWAP1 POP SWAP2 SWAP1 POP JUMP JUMPDEST PUSH1 0x0 PUSH2 0x3468 PUSH1 0x40 DUP4 PUSH2 0x398C JUMP JUMPDEST SWAP2 POP PUSH2 0x3473 DUP3 PUSH2 0x3C01 JUMP JUMPDEST PUSH1 0x40 DUP3 ADD SWAP1 POP SWAP2 SWAP1 POP JUMP JUMPDEST PUSH1 0x0 PUSH2 0x348B PUSH1 0x1F DUP4 PUSH2 0x398C JUMP JUMPDEST SWAP2 POP PUSH2 0x3496 DUP3 PUSH2 0x3C50 JUMP JUMPDEST PUSH1 0x20 DUP3 ADD SWAP1 POP SWAP2 SWAP1 POP JUMP JUMPDEST PUSH1 0x0 PUSH2 0x34AE PUSH1 0x2C DUP4 PUSH2 0x398C JUMP JUMPDEST SWAP2 POP PUSH2 0x34B9 DUP3 PUSH2 0x3C79 JUMP JUMPDEST PUSH1 0x40 DUP3 ADD SWAP1 POP SWAP2 SWAP1 POP JUMP JUMPDEST PUSH1 0x0 PUSH2 0x34D1 PUSH1 0x20 DUP4 PUSH2 0x398C JUMP JUMPDEST SWAP2 POP PUSH2 0x34DC DUP3 PUSH2 0x3CC8 JUMP JUMPDEST PUSH1 0x20 DUP3 ADD SWAP1 POP SWAP2 SWAP1 POP JUMP JUMPDEST PUSH1 0x0 PUSH2 0x34F4 PUSH1 0x4A DUP4 PUSH2 0x398C JUMP JUMPDEST SWAP2 POP PUSH2 0x34FF DUP3 PUSH2 0x3CF1 JUMP JUMPDEST PUSH1 0x60 DUP3 ADD SWAP1 POP SWAP2 SWAP1 POP JUMP JUMPDEST PUSH1 0x0 PUSH2 0x3517 PUSH1 0x25 DUP4 PUSH2 0x398C JUMP JUMPDEST SWAP2 POP PUSH2 0x3522 DUP3 PUSH2 0x3D66 JUMP JUMPDEST PUSH1 0x40 DUP3 ADD SWAP1 POP SWAP2 SWAP1 POP JUMP JUMPDEST PUSH1 0x0 PUSH2 0x353A PUSH1 0x46 DUP4 PUSH2 0x398C JUMP JUMPDEST SWAP2 POP PUSH2 0x3545 DUP3 PUSH2 0x3DB5 JUMP JUMPDEST PUSH1 0x60 DUP3 ADD SWAP1 POP SWAP2 SWAP1 POP JUMP JUMPDEST PUSH1 0x0 PUSH2 0x355D PUSH1 0x25 DUP4 PUSH2 0x398C JUMP JUMPDEST SWAP2 POP PUSH2 0x3568 DUP3 PUSH2 0x3E2A JUMP JUMPDEST PUSH1 0x40 DUP3 ADD SWAP1 POP SWAP2 SWAP1 POP JUMP JUMPDEST PUSH1 0x0 PUSH2 0x3580 PUSH1 0x0 DUP4 PUSH2 0x3970 JUMP JUMPDEST SWAP2 POP PUSH2 0x358B DUP3 PUSH2 0x3E79 JUMP JUMPDEST PUSH1 0x0 DUP3 ADD SWAP1 POP SWAP2 SWAP1 POP JUMP JUMPDEST PUSH1 0x0 PUSH1 0xA0 DUP4 ADD PUSH1 0x0 DUP4 ADD MLOAD PUSH2 0x35AE PUSH1 0x0 DUP7 ADD DUP3 PUSH2 0x32D2 JUMP JUMPDEST POP PUSH1 0x20 DUP4 ADD MLOAD PUSH2 0x35C1 PUSH1 0x20 DUP7 ADD DUP3 PUSH2 0x330E JUMP JUMPDEST POP PUSH1 0x40 DUP4 ADD MLOAD PUSH2 0x35D4 PUSH1 0x40 DUP7 ADD DUP3 PUSH2 0x32F0 JUMP JUMPDEST POP PUSH1 0x60 DUP4 ADD MLOAD PUSH2 0x35E7 PUSH1 0x60 DUP7 ADD DUP3 PUSH2 0x32D2 JUMP JUMPDEST POP PUSH1 0x80 DUP4 ADD MLOAD DUP5 DUP3 SUB PUSH1 0x80 DUP7 ADD MSTORE PUSH2 0x35FF DUP3 DUP3 PUSH2 0x332C JUMP JUMPDEST SWAP2 POP POP DUP1 SWAP2 POP POP SWAP3 SWAP2 POP POP JUMP JUMPDEST PUSH2 0x3615 DUP2 PUSH2 0x39F3 JUMP JUMPDEST DUP3 MSTORE POP POP JUMP JUMPDEST PUSH1 0x0 PUSH2 0x3627 DUP3 DUP5 PUSH2 0x339E JUMP JUMPDEST SWAP2 POP DUP2 SWAP1 POP SWAP3 SWAP2 POP POP JUMP JUMPDEST PUSH1 0x0 PUSH2 0x363D DUP3 PUSH2 0x3573 JUMP JUMPDEST SWAP2 POP DUP2 SWAP1 POP SWAP2 SWAP1 POP JUMP JUMPDEST PUSH1 0x0 PUSH1 0x20 DUP3 ADD SWAP1 POP PUSH2 0x365C PUSH1 0x0 DUP4 ADD DUP5 PUSH2 0x32E1 JUMP JUMPDEST SWAP3 SWAP2 POP POP JUMP JUMPDEST PUSH1 0x0 PUSH1 0xA0 DUP3 ADD SWAP1 POP PUSH2 0x3677 PUSH1 0x0 DUP4 ADD DUP9 PUSH2 0x32E1 JUMP JUMPDEST PUSH2 0x3684 PUSH1 0x20 DUP4 ADD DUP8 PUSH2 0x331D JUMP JUMPDEST PUSH2 0x3691 PUSH1 0x40 DUP4 ADD DUP7 PUSH2 0x32FF JUMP JUMPDEST PUSH2 0x369E PUSH1 0x60 DUP4 ADD DUP6 PUSH2 0x32E1 JUMP JUMPDEST DUP2 DUP2 SUB PUSH1 0x80 DUP4 ADD MSTORE PUSH2 0x36B0 DUP2 DUP5 PUSH2 0x3365 JUMP JUMPDEST SWAP1 POP SWAP7 SWAP6 POP POP POP POP POP POP JUMP JUMPDEST PUSH1 0x0 PUSH1 0x20 DUP3 ADD SWAP1 POP PUSH2 0x36D1 PUSH1 0x0 DUP4 ADD DUP5 PUSH2 0x32FF JUMP JUMPDEST SWAP3 SWAP2 POP POP JUMP JUMPDEST PUSH1 0x0 PUSH1 0x20 DUP3 ADD SWAP1 POP PUSH2 0x36EC PUSH1 0x0 DUP4 ADD DUP5 PUSH2 0x331D JUMP JUMPDEST SWAP3 SWAP2 POP POP JUMP JUMPDEST PUSH1 0x0 PUSH1 0x40 DUP3 ADD SWAP1 POP PUSH2 0x3707 PUSH1 0x0 DUP4 ADD DUP6 PUSH2 0x331D JUMP JUMPDEST PUSH2 0x3714 PUSH1 0x20 DUP4 ADD DUP5 PUSH2 0x32E1 JUMP JUMPDEST SWAP4 SWAP3 POP POP POP JUMP JUMPDEST PUSH1 0x0 PUSH1 0x60 DUP3 ADD SWAP1 POP PUSH2 0x3730 PUSH1 0x0 DUP4 ADD DUP7 PUSH2 0x331D JUMP JUMPDEST PUSH2 0x373D PUSH1 0x20 DUP4 ADD DUP6 PUSH2 0x32E1 JUMP JUMPDEST PUSH2 0x374A PUSH1 0x40 DUP4 ADD DUP5 PUSH2 0x32E1 JUMP JUMPDEST SWAP5 SWAP4 POP POP POP POP JUMP JUMPDEST PUSH1 0x0 PUSH1 0x20 DUP3 ADD SWAP1 POP DUP2 DUP2 SUB PUSH1 0x0 DUP4 ADD MSTORE PUSH2 0x376B DUP2 PUSH2 0x33CF JUMP JUMPDEST SWAP1 POP SWAP2 SWAP1 POP JUMP JUMPDEST PUSH1 0x0 PUSH1 0x20 DUP3 ADD SWAP1 POP DUP2 DUP2 SUB PUSH1 0x0 DUP4 ADD MSTORE PUSH2 0x378B DUP2 PUSH2 0x33F2 JUMP JUMPDEST SWAP1 POP SWAP2 SWAP1 POP JUMP JUMPDEST PUSH1 0x0 PUSH1 0x20 DUP3 ADD SWAP1 POP DUP2 DUP2 SUB PUSH1 0x0 DUP4 ADD MSTORE PUSH2 0x37AB DUP2 PUSH2 0x3415 JUMP JUMPDEST SWAP1 POP SWAP2 SWAP1 POP JUMP JUMPDEST PUSH1 0x0 PUSH1 0x20 DUP3 ADD SWAP1 POP DUP2 DUP2 SUB PUSH1 0x0 DUP4 ADD MSTORE PUSH2 0x37CB DUP2 PUSH2 0x3438 JUMP JUMPDEST SWAP1 POP SWAP2 SWAP1 POP JUMP JUMPDEST PUSH1 0x0 PUSH1 0x20 DUP3 ADD SWAP1 POP DUP2 DUP2 SUB PUSH1 0x0 DUP4 ADD MSTORE PUSH2 0x37EB DUP2 PUSH2 0x345B JUMP JUMPDEST SWAP1 POP SWAP2 SWAP1 POP JUMP JUMPDEST PUSH1 0x0 PUSH1 0x20 DUP3 ADD SWAP1 POP DUP2 DUP2 SUB PUSH1 0x0 DUP4 ADD MSTORE PUSH2 0x380B DUP2 PUSH2 0x347E JUMP JUMPDEST SWAP1 POP SWAP2 SWAP1 POP JUMP JUMPDEST PUSH1 0x0 PUSH1 0x20 DUP3 ADD SWAP1 POP DUP2 DUP2 SUB PUSH1 0x0 DUP4 ADD MSTORE PUSH2 0x382B DUP2 PUSH2 0x34A1 JUMP JUMPDEST SWAP1 POP SWAP2 SWAP1 POP JUMP JUMPDEST PUSH1 0x0 PUSH1 0x20 DUP3 ADD SWAP1 POP DUP2 DUP2 SUB PUSH1 0x0 DUP4 ADD MSTORE PUSH2 0x384B DUP2 PUSH2 0x34C4 JUMP JUMPDEST SWAP1 POP SWAP2 SWAP1 POP JUMP JUMPDEST PUSH1 0x0 PUSH1 0x20 DUP3 ADD SWAP1 POP DUP2 DUP2 SUB PUSH1 0x0 DUP4 ADD MSTORE PUSH2 0x386B DUP2 PUSH2 0x34E7 JUMP JUMPDEST SWAP1 POP SWAP2 SWAP1 POP JUMP JUMPDEST PUSH1 0x0 PUSH1 0x20 DUP3 ADD SWAP1 POP DUP2 DUP2 SUB PUSH1 0x0 DUP4 ADD MSTORE PUSH2 0x388B DUP2 PUSH2 0x350A JUMP JUMPDEST SWAP1 POP SWAP2 SWAP1 POP JUMP JUMPDEST PUSH1 0x0 PUSH1 0x20 DUP3 ADD SWAP1 POP DUP2 DUP2 SUB PUSH1 0x0 DUP4 ADD MSTORE PUSH2 0x38AB DUP2 PUSH2 0x352D JUMP JUMPDEST SWAP1 POP SWAP2 SWAP1 POP JUMP JUMPDEST PUSH1 0x0 PUSH1 0x20 DUP3 ADD SWAP1 POP DUP2 DUP2 SUB PUSH1 0x0 DUP4 ADD MSTORE PUSH2 0x38CB DUP2 PUSH2 0x3550 JUMP JUMPDEST SWAP1 POP SWAP2 SWAP1 POP JUMP JUMPDEST PUSH1 0x0 PUSH1 0x20 DUP3 ADD SWAP1 POP DUP2 DUP2 SUB PUSH1 0x0 DUP4 ADD MSTORE PUSH2 0x38EC DUP2 DUP5 PUSH2 0x3596 JUMP JUMPDEST SWAP1 POP SWAP3 SWAP2 POP POP JUMP JUMPDEST PUSH1 0x0 PUSH1 0x20 DUP3 ADD SWAP1 POP PUSH2 0x3909 PUSH1 0x0 DUP4 ADD DUP5 PUSH2 0x360C JUMP JUMPDEST SWAP3 SWAP2 POP POP JUMP JUMPDEST PUSH1 0x0 PUSH2 0x3919 PUSH2 0x392A JUMP JUMPDEST SWAP1 POP PUSH2 0x3925 DUP3 DUP3 PUSH2 0x3A71 JUMP JUMPDEST SWAP2 SWAP1 POP JUMP JUMPDEST PUSH1 0x0 PUSH1 0x40 MLOAD SWAP1 POP SWAP1 JUMP JUMPDEST PUSH1 0x0 PUSH8 0xFFFFFFFFFFFFFFFF DUP3 GT ISZERO PUSH2 0x394F JUMPI PUSH2 0x394E PUSH2 0x3AD1 JUMP JUMPDEST JUMPDEST PUSH2 0x3958 DUP3 PUSH2 0x3B00 JUMP JUMPDEST SWAP1 POP PUSH1 0x20 DUP2 ADD SWAP1 POP SWAP2 SWAP1 POP JUMP JUMPDEST PUSH1 0x0 DUP2 MLOAD SWAP1 POP SWAP2 SWAP1 POP JUMP JUMPDEST PUSH1 0x0 DUP2 SWAP1 POP SWAP3 SWAP2 POP POP JUMP JUMPDEST PUSH1 0x0 DUP3 DUP3 MSTORE PUSH1 0x20 DUP3 ADD SWAP1 POP SWAP3 SWAP2 POP POP JUMP JUMPDEST PUSH1 0x0 DUP3 DUP3 MSTORE PUSH1 0x20 DUP3 ADD SWAP1 POP SWAP3 SWAP2 POP POP JUMP JUMPDEST PUSH1 0x0 DUP2 SWAP1 POP SWAP3 SWAP2 POP POP JUMP JUMPDEST PUSH1 0x0 PUSH2 0x39B3 DUP3 PUSH2 0x39D3 JUMP JUMPDEST SWAP1 POP SWAP2 SWAP1 POP JUMP JUMPDEST PUSH1 0x0 DUP2 ISZERO ISZERO SWAP1 POP SWAP2 SWAP1 POP JUMP JUMPDEST PUSH1 0x0 DUP2 PUSH1 0x7 SIGNEXTEND SWAP1 POP SWAP2 SWAP1 POP JUMP JUMPDEST PUSH1 0x0 PUSH20 0xFFFFFFFFFFFFFFFFFFFFFFFFFFFFFFFFFFFFFFFF DUP3 AND SWAP1 POP SWAP2 SWAP1 POP JUMP JUMPDEST PUSH1 0x0 DUP2 SWAP1 POP SWAP2 SWAP1 POP JUMP JUMPDEST DUP3 DUP2 DUP4 CALLDATACOPY PUSH1 0x0 DUP4 DUP4 ADD MSTORE POP POP POP JUMP JUMPDEST PUSH1 0x0 JUMPDEST DUP4 DUP2 LT ISZERO PUSH2 0x3A2A JUMPI DUP1 DUP3 ADD MLOAD DUP2 DUP5 ADD MSTORE PUSH1 0x20 DUP2 ADD SWAP1 POP PUSH2 0x3A0F JUMP JUMPDEST DUP4 DUP2 GT ISZERO PUSH2 0x3A39 JUMPI PUSH1 0x0 DUP5 DUP5 ADD MSTORE JUMPDEST POP POP POP POP JUMP JUMPDEST PUSH1 0x0 PUSH1 0x2 DUP3 DIV SWAP1 POP PUSH1 0x1 DUP3 AND DUP1 PUSH2 0x3A57 JUMPI PUSH1 0x7F DUP3 AND SWAP2 POP JUMPDEST PUSH1 0x20 DUP3 LT DUP2 EQ ISZERO PUSH2 0x3A6B JUMPI PUSH2 0x3A6A PUSH2 0x3AA2 JUMP JUMPDEST JUMPDEST POP SWAP2 SWAP1 POP JUMP JUMPDEST PUSH2 0x3A7A DUP3 PUSH2 0x3B00 JUMP JUMPDEST DUP2 ADD DUP2 DUP2 LT PUSH8 0xFFFFFFFFFFFFFFFF DUP3 GT OR ISZERO PUSH2 0x3A99 JUMPI PUSH2 0x3A98 PUSH2 0x3AD1 JUMP JUMPDEST JUMPDEST DUP1 PUSH1 0x40 MSTORE POP POP POP JUMP JUMPDEST PUSH32 0x4E487B7100000000000000000000000000000000000000000000000000000000 PUSH1 0x0 MSTORE PUSH1 0x22 PUSH1 0x4 MSTORE PUSH1 0x24 PUSH1 0x0 REVERT JUMPDEST PUSH32 0x4E487B7100000000000000000000000000000000000000000000000000000000 PUSH1 0x0 MSTORE PUSH1 0x41 PUSH1 0x4 MSTORE PUSH1 0x24 PUSH1 0x0 REVERT JUMPDEST PUSH1 0x0 PUSH1 0x1F NOT PUSH1 0x1F DUP4 ADD AND SWAP1 POP SWAP2 SWAP1 POP JUMP JUMPDEST PUSH32 0x4F776E61626C653A206E6577206F776E657220697320746865207A65726F2061 PUSH1 0x0 DUP3 ADD MSTORE PUSH32 0x6464726573730000000000000000000000000000000000000000000000000000 PUSH1 0x20 DUP3 ADD MSTORE POP JUMP JUMPDEST PUSH32 0x556E61626C6520746F207472616E736665722066656500000000000000000000 PUSH1 0x0 DUP3 ADD MSTORE POP JUMP JUMPDEST PUSH32 0x54686572652773206164647265737320636F6E6E656374656420746F20746861 PUSH1 0x0 DUP3 ADD MSTORE PUSH32 0x7420544720494420616C72656164792E00000000000000000000000000000000 PUSH1 0x20 DUP3 ADD MSTORE POP JUMP JUMPDEST PUSH32 0x50617373706F727420666565206973206E6F7420706169640000000000000000 PUSH1 0x0 DUP3 ADD MSTORE POP JUMP JUMPDEST PUSH32 0x596F75722063757272656E742061646472657373206D69736D61746368207769 PUSH1 0x0 DUP3 ADD MSTORE PUSH32 0x746820796F7572207265676973747265642077616C6C65742061646472657373 PUSH1 0x20 DUP3 ADD MSTORE POP JUMP JUMPDEST PUSH32 0x796F7520646F6E2774206E6F77206F776E207468697320757365726E616D6500 PUSH1 0x0 DUP3 ADD MSTORE POP JUMP JUMPDEST PUSH32 0x596F75722063757272656E742061646472657373206D69736D61746368207769 PUSH1 0x0 DUP3 ADD MSTORE PUSH32 0x746820796F757220746769640000000000000000000000000000000000000000 PUSH1 0x20 DUP3 ADD MSTORE POP JUMP JUMPDEST PUSH32 0x4F776E61626C653A2063616C6C6572206973206E6F7420746865206F776E6572 PUSH1 0x0 DUP3 ADD MSTORE POP JUMP JUMPDEST PUSH32 0x656E656D795F6E616D6520757365726E616D652F6964206D6973736D61746368 PUSH1 0x0 DUP3 ADD MSTORE PUSH32 0x207769746820636F72726573706F646E696E6720616464726573732C20706F73 PUSH1 0x20 DUP3 ADD MSTORE PUSH32 0x7369626C65206861636B00000000000000000000000000000000000000000000 PUSH1 0x40 DUP3 ADD MSTORE POP JUMP JUMPDEST PUSH32 0x746869732066756E6374696F6E20776F726B2773206F6E6C7920666F72207465 PUSH1 0x0 DUP3 ADD MSTORE PUSH32 0x73746E6574000000000000000000000000000000000000000000000000000000 PUSH1 0x20 DUP3 ADD MSTORE POP JUMP JUMPDEST PUSH32 0x667269656E6420757365726E616D652F6964206D6973736D6174636820776974 PUSH1 0x0 DUP3 ADD MSTORE PUSH32 0x6820636F72726573706F646E696E6720616464726573732C20706F737369626C PUSH1 0x20 DUP3 ADD MSTORE PUSH32 0x65206861636B0000000000000000000000000000000000000000000000000000 PUSH1 0x40 DUP3 ADD MSTORE POP JUMP JUMPDEST PUSH32 0x616C726561647920617070726F766564204F5220646F206E6F74206578697374 PUSH1 0x0 DUP3 ADD MSTORE PUSH32 0x7320796574000000000000000000000000000000000000000000000000000000 PUSH1 0x20 DUP3 ADD MSTORE POP JUMP JUMPDEST POP JUMP JUMPDEST PUSH2 0x3E85 DUP2 PUSH2 0x39A8 JUMP JUMPDEST DUP2 EQ PUSH2 0x3E90 JUMPI PUSH1 0x0 DUP1 REVERT JUMPDEST POP JUMP JUMPDEST PUSH2 0x3E9C DUP2 PUSH2 0x39C6 JUMP JUMPDEST DUP2 EQ PUSH2 0x3EA7 JUMPI PUSH1 0x0 DUP1 REVERT JUMPDEST POP JUMP JUMPDEST PUSH2 0x3EB3 DUP2 PUSH2 0x39F3 JUMP JUMPDEST DUP2 EQ PUSH2 0x3EBE JUMPI PUSH1 0x0 DUP1 REVERT JUMPDEST POP JUMP INVALID LOG2 PUSH5 0x6970667358 0x22 SLT KECCAK256 0xDC DUP7 CODECOPY DUP16 0xAC PUSH20 0x52B09C7C805AC7F46321DBCAA910D3B1DE3F39F5 0xBD 0x4D REVERT 0xD6 0xD5 CREATE PUSH5 0x736F6C6343 STOP ADDMOD DIV STOP CALLER "
        },
        "methodIdentifiers": {
          "ApplyForPassport(int64,string)": "d5998aeb",
          "ApprovePassport(address)": "1755e9e6",
          "DeclinePassport(address)": "9421da61",
          "DeletePassport(address)": "65104afc",
          "GetOwner()": "0ae50a39",
          "GetPassportByAddress(address)": "1423ea07",
          "GetPassportByNickName(string)": "b25047c2",
          "GetPassportByTgId(int64)": "65a5637e",
          "GetPassportFee()": "48dc1561",
          "GetPassportWalletByID(int64)": "0c2fc6e3",
          "GetTgIdByAddress(address)": "61cabe37",
          "GetTrust(int64,int64)": "4ac054bb",
          "GetWalletByNickName(string)": "d2114e18",
          "INOTTrustAddress(address)": "5ddf30d0",
          "INOTTrustUsername(string,string)": "87234689",
          "INotTrustID(int64,int64)": "5c962dfc",
          "ITrustAddress(address)": "e5122bab",
          "ITrustID(int64,int64)": "dca28884",
          "ITrustUsername(string,string)": "68789cea",
          "SetPassportFee(uint256)": "d2125bd2",
          "UpdateUserName(string)": "21e6531d",
          "opinion_changed(int64,uint256)": "6a8ec05e",
          "owner()": "8da5cb5b",
          "passports(address)": "e37c132b",
          "renounceOwnership()": "715018a6",
          "tgIdToAddress(int64)": "9413c642",
          "transferOwnership(address)": "f2fde38b",
          "trust_global(int64,int64)": "239f60fa",
          "username_wallets(string)": "59cca93b"
        }
      }
    }
  }
}