{
  "_format": "hh-sol-artifact-1",
  "contractName": "Union",
  "sourceName": "contracts/Union.sol",
  "abi": [
    {
      "inputs": [
        {
          "internalType": "address",
          "name": "passportContract_",
          "type": "address"
        }
      ],
      "stateMutability": "nonpayable",
      "type": "constructor"
    },
    {
      "anonymous": false,
      "inputs": [
        {
          "indexed": false,
          "internalType": "int64",
          "name": "chat_id",
          "type": "int64"
        },
        {
          "indexed": false,
          "internalType": "int64",
          "name": "applier_id",
          "type": "int64"
        },
        {
          "indexed": false,
          "internalType": "address",
          "name": "multy_wallet_address",
          "type": "address"
        },
        {
          "indexed": false,
          "internalType": "enum Union.VotingType",
          "name": "vote_type",
          "type": "uint8"
        },
        {
          "indexed": false,
          "internalType": "address",
          "name": "voting_token_address",
          "type": "address"
        },
        {
          "indexed": false,
          "internalType": "string",
          "name": "group_name",
          "type": "string"
        }
      ],
      "name": "ApplicationForJoin",
      "type": "event"
    },
    {
      "anonymous": false,
      "inputs": [
        {
          "indexed": true,
          "internalType": "int64",
          "name": "chat_id",
          "type": "int64"
        },
        {
          "indexed": false,
          "internalType": "int64",
          "name": "applier_id",
          "type": "int64"
        },
        {
          "indexed": false,
          "internalType": "address",
          "name": "multy_wallet_address",
          "type": "address"
        },
        {
          "indexed": false,
          "internalType": "enum Union.VotingType",
          "name": "vote_type",
          "type": "uint8"
        },
        {
          "indexed": false,
          "internalType": "address",
          "name": "voting_token_address",
          "type": "address"
        },
        {
          "indexed": false,
          "internalType": "string",
          "name": "group_name",
          "type": "string"
        }
      ],
      "name": "ApplicationForJoinIndexed",
      "type": "event"
    },
    {
      "anonymous": false,
      "inputs": [
        {
          "indexed": false,
          "internalType": "int256",
          "name": "chat_id",
          "type": "int256"
        },
        {
          "indexed": false,
          "internalType": "address",
          "name": "multy_wallet_address",
          "type": "address"
        },
        {
          "indexed": false,
          "internalType": "enum Union.VotingType",
          "name": "vote_type",
          "type": "uint8"
        },
        {
          "indexed": false,
          "internalType": "address",
          "name": "voting_token_address",
          "type": "address"
        },
        {
          "indexed": false,
          "internalType": "string",
          "name": "group_name",
          "type": "string"
        }
      ],
      "name": "ApprovedJoin",
      "type": "event"
    },
    {
      "anonymous": false,
      "inputs": [
        {
          "indexed": false,
          "internalType": "int256",
          "name": "chat_id",
          "type": "int256"
        },
        {
          "indexed": false,
          "internalType": "address",
          "name": "multy_wallet_address",
          "type": "address"
        },
        {
          "indexed": false,
          "internalType": "enum Union.VotingType",
          "name": "vote_type",
          "type": "uint8"
        },
        {
          "indexed": false,
          "internalType": "address",
          "name": "voting_token_address",
          "type": "address"
        },
        {
          "indexed": false,
          "internalType": "string",
          "name": "group_name",
          "type": "string"
        }
      ],
      "name": "DeclinedApplication",
      "type": "event"
    },
    {
      "anonymous": false,
      "inputs": [
        {
          "indexed": true,
          "internalType": "address",
          "name": "previousOwner",
          "type": "address"
        },
        {
          "indexed": true,
          "internalType": "address",
          "name": "newOwner",
          "type": "address"
        }
      ],
      "name": "OwnershipTransferred",
      "type": "event"
    },
    {
      "inputs": [
        {
          "internalType": "int64",
          "name": "applyerTg",
          "type": "int64"
        },
        {
          "internalType": "int64",
          "name": "daoTg",
          "type": "int64"
        },
        {
          "internalType": "address",
          "name": "dao_",
          "type": "address"
        },
        {
          "internalType": "enum Union.VotingType",
          "name": "votingType_",
          "type": "uint8"
        },
        {
          "internalType": "address",
          "name": "votingTokenContract_",
          "type": "address"
        },
        {
          "internalType": "string",
          "name": "dao_name_",
          "type": "string"
        }
      ],
      "name": "ApplyForUnion",
      "outputs": [],
      "stateMutability": "payable",
      "type": "function"
    },
    {
      "inputs": [
        {
          "internalType": "address",
          "name": "daoAddress",
          "type": "address"
        }
      ],
      "name": "ApproveJoin",
      "outputs": [],
      "stateMutability": "nonpayable",
      "type": "function"
    },
    {
      "inputs": [
        {
          "internalType": "uint256",
          "name": "",
          "type": "uint256"
        }
      ],
      "name": "Chat_id_array",
      "outputs": [
        {
          "internalType": "int64",
          "name": "",
          "type": "int64"
        }
      ],
      "stateMutability": "view",
      "type": "function"
    },
    {
      "inputs": [
        {
          "internalType": "address",
          "name": "daoAddress",
          "type": "address"
        }
      ],
      "name": "DeclineJoin",
      "outputs": [],
      "stateMutability": "nonpayable",
      "type": "function"
    },
    {
      "inputs": [
        {
          "internalType": "int64",
          "name": "",
          "type": "int64"
        }
      ],
      "name": "daoAddresses",
      "outputs": [
        {
          "internalType": "address",
          "name": "",
          "type": "address"
        }
      ],
      "stateMutability": "view",
      "type": "function"
    },
    {
      "inputs": [
        {
          "internalType": "address",
          "name": "",
          "type": "address"
        }
      ],
      "name": "daos",
      "outputs": [
        {
          "internalType": "address",
          "name": "chatOwnerAddress",
          "type": "address"
        },
        {
          "internalType": "int64",
          "name": "tgId",
          "type": "int64"
        },
        {
          "internalType": "bool",
          "name": "valid",
          "type": "bool"
        },
        {
          "internalType": "address",
          "name": "multisigAddress",
          "type": "address"
        },
        {
          "internalType": "enum Union.VotingType",
          "name": "votingType",
          "type": "uint8"
        },
        {
          "internalType": "address",
          "name": "votingToken",
          "type": "address"
        },
        {
          "internalType": "string",
          "name": "group_name",
          "type": "string"
        }
      ],
      "stateMutability": "view",
      "type": "function"
    },
    {
      "inputs": [
        {
          "internalType": "int64",
          "name": "chat_id",
          "type": "int64"
        }
      ],
      "name": "getDaoAddressbyChatId",
      "outputs": [
        {
          "internalType": "address",
          "name": "",
          "type": "address"
        }
      ],
      "stateMutability": "view",
      "type": "function"
    },
    {
      "inputs": [],
      "name": "getDaoCount",
      "outputs": [
        {
          "internalType": "uint256",
          "name": "",
          "type": "uint256"
        }
      ],
      "stateMutability": "view",
      "type": "function"
    },
    {
      "inputs": [],
      "name": "owner",
      "outputs": [
        {
          "internalType": "address",
          "name": "",
          "type": "address"
        }
      ],
      "stateMutability": "view",
      "type": "function"
    },
    {
      "inputs": [],
      "name": "renounceOwnership",
      "outputs": [],
      "stateMutability": "nonpayable",
      "type": "function"
    },
    {
      "inputs": [],
      "name": "tgpassport",
      "outputs": [
        {
          "internalType": "contract TGPassport",
          "name": "",
          "type": "address"
        }
      ],
      "stateMutability": "view",
      "type": "function"
    },
    {
      "inputs": [
        {
          "internalType": "address",
          "name": "newOwner",
          "type": "address"
        }
      ],
      "name": "transferOwnership",
      "outputs": [],
      "stateMutability": "nonpayable",
      "type": "function"
    }
  ],
  "bytecode": "0x6080604052620000146200013060201b60201c565b600260006101000a81548173ffffffffffffffffffffffffffffffffffffffff021916908373ffffffffffffffffffffffffffffffffffffffff1602179055503480156200006157600080fd5b5060405162002c5038038062002c5083398181016040528101906200008791906200023c565b620000a76200009b6200015960201b60201c565b6200016160201b60201c565b80600760006101000a81548173ffffffffffffffffffffffffffffffffffffffff021916908373ffffffffffffffffffffffffffffffffffffffff16021790555080600860006101000a81548173ffffffffffffffffffffffffffffffffffffffff021916908373ffffffffffffffffffffffffffffffffffffffff16021790555050620002b6565b60008060009054906101000a900473ffffffffffffffffffffffffffffffffffffffff16905090565b600033905090565b60008060009054906101000a900473ffffffffffffffffffffffffffffffffffffffff169050816000806101000a81548173ffffffffffffffffffffffffffffffffffffffff021916908373ffffffffffffffffffffffffffffffffffffffff1602179055508173ffffffffffffffffffffffffffffffffffffffff168173ffffffffffffffffffffffffffffffffffffffff167f8be0079c531659141344cd1fd0a4f28419497f9722a3daafe3b4186f6b6457e060405160405180910390a35050565b60008151905062000236816200029c565b92915050565b6000602082840312156200024f57600080fd5b60006200025f8482850162000225565b91505092915050565b600062000275826200027c565b9050919050565b600073ffffffffffffffffffffffffffffffffffffffff82169050919050565b620002a78162000268565b8114620002b357600080fd5b50565b61298a80620002c66000396000f3fe6080604052600436106100a75760003560e01c8063c25f3cf611610064578063c25f3cf614610187578063d4d8f892146101ca578063d698b364146101f5578063d6b2da8e14610232578063e57bede41461026f578063f2fde38b146102ac576100a7565b806336b9f727146100ac578063715018a6146100d55780637527d5a1146100ec5780638da5cb5b14610117578063ad8f866014610142578063b9f7076f1461016b575b600080fd5b3480156100b857600080fd5b506100d360048036038101906100ce9190611dd7565b6102d5565b005b3480156100e157600080fd5b506100ea6107de565b005b3480156100f857600080fd5b50610101610866565b60405161010e9190612244565b60405180910390f35b34801561012357600080fd5b5061012c61088c565b6040516101399190612198565b60405180910390f35b34801561014e57600080fd5b5061016960048036038101906101649190611dd7565b6108b5565b005b61018560048036038101906101809190611e7b565b610ec9565b005b34801561019357600080fd5b506101ae60048036038101906101a99190611dd7565b6115d0565b6040516101c197969594939291906121b3565b60405180910390f35b3480156101d657600080fd5b506101df611721565b6040516101ec919061243c565b60405180910390f35b34801561020157600080fd5b5061021c60048036038101906102179190611f1c565b611732565b604051610229919061225f565b60405180910390f35b34801561023e57600080fd5b5061025960048036038101906102549190611e52565b611769565b6040516102669190612198565b60405180910390f35b34801561027b57600080fd5b5061029660048036038101906102919190611e52565b61179c565b6040516102a39190612198565b60405180910390f35b3480156102b857600080fd5b506102d360048036038101906102ce9190611dd7565b6117e4565b005b6102dd6118dc565b73ffffffffffffffffffffffffffffffffffffffff166102fb61088c565b73ffffffffffffffffffffffffffffffffffffffff1614610351576040517f08c379a0000000000000000000000000000000000000000000000000000000008152600401610348906123fc565b60405180910390fd5b6000600660008373ffffffffffffffffffffffffffffffffffffffff1673ffffffffffffffffffffffffffffffffffffffff1681526020019081526020016000206040518060e00160405290816000820160009054906101000a900473ffffffffffffffffffffffffffffffffffffffff1673ffffffffffffffffffffffffffffffffffffffff1673ffffffffffffffffffffffffffffffffffffffff1681526020016000820160149054906101000a900460070b60070b60070b815260200160008201601c9054906101000a900460ff161515151581526020016001820160009054906101000a900473ffffffffffffffffffffffffffffffffffffffff1673ffffffffffffffffffffffffffffffffffffffff1673ffffffffffffffffffffffffffffffffffffffff1681526020016001820160149054906101000a900460ff1660028111156104cc577f4e487b7100000000000000000000000000000000000000000000000000000000600052602160045260246000fd5b6002811115610504577f4e487b7100000000000000000000000000000000000000000000000000000000600052602160045260246000fd5b81526020016002820160009054906101000a900473ffffffffffffffffffffffffffffffffffffffff1673ffffffffffffffffffffffffffffffffffffffff1673ffffffffffffffffffffffffffffffffffffffff16815260200160038201805461056e906125ff565b80601f016020809104026020016040519081016040528092919081815260200182805461059a906125ff565b80156105e75780601f106105bc576101008083540402835291602001916105e7565b820191906000526020600020905b8154815290600101906020018083116105ca57829003601f168201915b505050505081525050905060001515816040015115151461063d576040517f08c379a00000000000000000000000000000000000000000000000000000000081526004016106349061241c565b60405180910390fd5b600660008373ffffffffffffffffffffffffffffffffffffffff1673ffffffffffffffffffffffffffffffffffffffff168152602001908152602001600020600080820160006101000a81549073ffffffffffffffffffffffffffffffffffffffff02191690556000820160146101000a81549067ffffffffffffffff021916905560008201601c6101000a81549060ff02191690556001820160006101000a81549073ffffffffffffffffffffffffffffffffffffffff02191690556001820160146101000a81549060ff02191690556002820160006101000a81549073ffffffffffffffffffffffffffffffffffffffff02191690556003820160006107459190611be4565b505060036000826020015160070b60070b815260200190815260200160002060006101000a81549073ffffffffffffffffffffffffffffffffffffffff02191690557fd06e11c55c5f21676305517c655a0188744d3bee09361e15470276872d56a0b98160200151826060015183608001518460a001518560c001516040516107d295949392919061227a565b60405180910390a15050565b6107e66118dc565b73ffffffffffffffffffffffffffffffffffffffff1661080461088c565b73ffffffffffffffffffffffffffffffffffffffff161461085a576040517f08c379a0000000000000000000000000000000000000000000000000000000008152600401610851906123fc565b60405180910390fd5b61086460006118e4565b565b600860009054906101000a900473ffffffffffffffffffffffffffffffffffffffff1681565b60008060009054906101000a900473ffffffffffffffffffffffffffffffffffffffff16905090565b6108bd6118dc565b73ffffffffffffffffffffffffffffffffffffffff166108db61088c565b73ffffffffffffffffffffffffffffffffffffffff1614610931576040517f08c379a0000000000000000000000000000000000000000000000000000000008152600401610928906123fc565b60405180910390fd5b6000600660008373ffffffffffffffffffffffffffffffffffffffff1673ffffffffffffffffffffffffffffffffffffffff1681526020019081526020016000206040518060e00160405290816000820160009054906101000a900473ffffffffffffffffffffffffffffffffffffffff1673ffffffffffffffffffffffffffffffffffffffff1673ffffffffffffffffffffffffffffffffffffffff1681526020016000820160149054906101000a900460070b60070b60070b815260200160008201601c9054906101000a900460ff161515151581526020016001820160009054906101000a900473ffffffffffffffffffffffffffffffffffffffff1673ffffffffffffffffffffffffffffffffffffffff1673ffffffffffffffffffffffffffffffffffffffff1681526020016001820160149054906101000a900460ff166002811115610aac577f4e487b7100000000000000000000000000000000000000000000000000000000600052602160045260246000fd5b6002811115610ae4577f4e487b7100000000000000000000000000000000000000000000000000000000600052602160045260246000fd5b81526020016002820160009054906101000a900473ffffffffffffffffffffffffffffffffffffffff1673ffffffffffffffffffffffffffffffffffffffff1673ffffffffffffffffffffffffffffffffffffffff168152602001600382018054610b4e906125ff565b80601f0160208091040260200160405190810160405280929190818152602001828054610b7a906125ff565b8015610bc75780601f10610b9c57610100808354040283529160200191610bc7565b820191906000526020600020905b815481529060010190602001808311610baa57829003601f168201915b5050505050815250509050600015158160400151151514610c1d576040517f08c379a0000000000000000000000000000000000000000000000000000000008152600401610c149061241c565b60405180910390fd5b600181604001901515908115158152505080600660008473ffffffffffffffffffffffffffffffffffffffff1673ffffffffffffffffffffffffffffffffffffffff16815260200190815260200160002060008201518160000160006101000a81548173ffffffffffffffffffffffffffffffffffffffff021916908373ffffffffffffffffffffffffffffffffffffffff16021790555060208201518160000160146101000a81548167ffffffffffffffff021916908360070b67ffffffffffffffff160217905550604082015181600001601c6101000a81548160ff02191690831515021790555060608201518160010160006101000a81548173ffffffffffffffffffffffffffffffffffffffff021916908373ffffffffffffffffffffffffffffffffffffffff16021790555060808201518160010160146101000a81548160ff02191690836002811115610d9f577f4e487b7100000000000000000000000000000000000000000000000000000000600052602160045260246000fd5b021790555060a08201518160020160006101000a81548173ffffffffffffffffffffffffffffffffffffffff021916908373ffffffffffffffffffffffffffffffffffffffff16021790555060c0820151816003019080519060200190610e07929190611c24565b50905050610e1560056119a8565b6004816020015190806001815401808255809150506001900390600052602060002090600491828204019190066008029091909190916101000a81548167ffffffffffffffff021916908360070b67ffffffffffffffff1602179055507f19c3744c2d10eda4d05b727f02a712a414539c26678f5f988d98f9635afcac288160200151826060015183608001518460a001518560c00151604051610ebd95949392919061227a565b60405180910390a15050565b6000600860009054906101000a900473ffffffffffffffffffffffffffffffffffffffff1673ffffffffffffffffffffffffffffffffffffffff16630c2fc6e3886040518263ffffffff1660e01b8152600401610f26919061225f565b60206040518083038186803b158015610f3e57600080fd5b505afa158015610f52573d6000803e3d6000fd5b505050506040513d601f19601f82011682018060405250810190610f769190611e00565b90503373ffffffffffffffffffffffffffffffffffffffff168173ffffffffffffffffffffffffffffffffffffffff1614610fe6576040517f08c379a0000000000000000000000000000000000000000000000000000000008152600401610fdd9061233c565b60405180910390fd5b600073ffffffffffffffffffffffffffffffffffffffff16600360008860070b60070b815260200190815260200160002060009054906101000a900473ffffffffffffffffffffffffffffffffffffffff1673ffffffffffffffffffffffffffffffffffffffff161461108e576040517f08c379a0000000000000000000000000000000000000000000000000000000008152600401611085906123bc565b60405180910390fd5b84600360008860070b60070b815260200190815260200160002060006101000a81548173ffffffffffffffffffffffffffffffffffffffff021916908373ffffffffffffffffffffffffffffffffffffffff16021790555060006110f285856119be565b9050600115158115151461113b576040517f08c379a0000000000000000000000000000000000000000000000000000000008152600401611132906123dc565b60405180910390fd5b600860009054906101000a900473ffffffffffffffffffffffffffffffffffffffff1673ffffffffffffffffffffffffffffffffffffffff166348dc15616040518163ffffffff1660e01b815260040160206040518083038186803b1580156111a357600080fd5b505afa1580156111b7573d6000803e3d6000fd5b505050506040513d601f19601f820116820180604052508101906111db9190611f45565b6001819055506040518060e001604052803373ffffffffffffffffffffffffffffffffffffffff1681526020018860070b81526020016000151581526020018773ffffffffffffffffffffffffffffffffffffffff16815260200186600281111561126f577f4e487b7100000000000000000000000000000000000000000000000000000000600052602160045260246000fd5b81526020018573ffffffffffffffffffffffffffffffffffffffff16815260200184815250600660008873ffffffffffffffffffffffffffffffffffffffff1673ffffffffffffffffffffffffffffffffffffffff16815260200190815260200160002060008201518160000160006101000a81548173ffffffffffffffffffffffffffffffffffffffff021916908373ffffffffffffffffffffffffffffffffffffffff16021790555060208201518160000160146101000a81548167ffffffffffffffff021916908360070b67ffffffffffffffff160217905550604082015181600001601c6101000a81548160ff02191690831515021790555060608201518160010160006101000a81548173ffffffffffffffffffffffffffffffffffffffff021916908373ffffffffffffffffffffffffffffffffffffffff16021790555060808201518160010160146101000a81548160ff02191690836002811115611404577f4e487b7100000000000000000000000000000000000000000000000000000000600052602160045260246000fd5b021790555060a08201518160020160006101000a81548173ffffffffffffffffffffffffffffffffffffffff021916908373ffffffffffffffffffffffffffffffffffffffff16021790555060c082015181600301908051906020019061146c929190611c24565b509050506000600260009054906101000a900473ffffffffffffffffffffffffffffffffffffffff1673ffffffffffffffffffffffffffffffffffffffff166001546040516114ba90612183565b60006040518083038185875af1925050503d80600081146114f7576040519150601f19603f3d011682016040523d82523d6000602084013e6114fc565b606091505b5050905080611540576040517f08c379a00000000000000000000000000000000000000000000000000000000081526004016115379061237c565b60405180910390fd5b6001543414611584576040517f08c379a000000000000000000000000000000000000000000000000000000000815260040161157b9061239c565b60405180910390fd5b7f0ae33dac4eb1cdcaf489d2a9a56c45d17257612cad7c531513d4e425951349e2888a898989896040516115bd969594939291906122d4565b60405180910390a1505050505050505050565b60066020528060005260406000206000915090508060000160009054906101000a900473ffffffffffffffffffffffffffffffffffffffff16908060000160149054906101000a900460070b9080600001601c9054906101000a900460ff16908060010160009054906101000a900473ffffffffffffffffffffffffffffffffffffffff16908060010160149054906101000a900460ff16908060020160009054906101000a900473ffffffffffffffffffffffffffffffffffffffff169080600301805461169e906125ff565b80601f01602080910402602001604051908101604052809291908181526020018280546116ca906125ff565b80156117175780601f106116ec57610100808354040283529160200191611717565b820191906000526020600020905b8154815290600101906020018083116116fa57829003601f168201915b5050505050905087565b600061172d6005611bd6565b905090565b6004818154811061174257600080fd5b9060005260206000209060049182820401919006600802915054906101000a900460070b81565b60036020528060005260406000206000915054906101000a900473ffffffffffffffffffffffffffffffffffffffff1681565b600080600360008460070b60070b815260200190815260200160002060009054906101000a900473ffffffffffffffffffffffffffffffffffffffff16905080915050919050565b6117ec6118dc565b73ffffffffffffffffffffffffffffffffffffffff1661180a61088c565b73ffffffffffffffffffffffffffffffffffffffff1614611860576040517f08c379a0000000000000000000000000000000000000000000000000000000008152600401611857906123fc565b60405180910390fd5b600073ffffffffffffffffffffffffffffffffffffffff168173ffffffffffffffffffffffffffffffffffffffff1614156118d0576040517f08c379a00000000000000000000000000000000000000000000000000000000081526004016118c79061235c565b60405180910390fd5b6118d9816118e4565b50565b600033905090565b60008060009054906101000a900473ffffffffffffffffffffffffffffffffffffffff169050816000806101000a81548173ffffffffffffffffffffffffffffffffffffffff021916908373ffffffffffffffffffffffffffffffffffffffff1602179055508173ffffffffffffffffffffffffffffffffffffffff168173ffffffffffffffffffffffffffffffffffffffff167f8be0079c531659141344cd1fd0a4f28419497f9722a3daafe3b4186f6b6457e060405160405180910390a35050565b6001816000016000828254019250508190555050565b60006002808111156119f9577f4e487b7100000000000000000000000000000000000000000000000000000000600052602160045260246000fd5b836002811115611a32577f4e487b7100000000000000000000000000000000000000000000000000000000600052602160045260246000fd5b1415611acf578173ffffffffffffffffffffffffffffffffffffffff166301ffc9a763780e9d6360e01b6040518263ffffffff1660e01b8152600401611a789190612229565b60206040518083038186803b158015611a9057600080fd5b505afa158015611aa4573d6000803e3d6000fd5b505050506040513d601f19601f82011682018060405250810190611ac89190611e29565b9050611bd0565b60006002811115611b09577f4e487b7100000000000000000000000000000000000000000000000000000000600052602160045260246000fd5b836002811115611b42577f4e487b7100000000000000000000000000000000000000000000000000000000600052602160045260246000fd5b1415611bcf5760128273ffffffffffffffffffffffffffffffffffffffff1663313ce5676040518163ffffffff1660e01b815260040160206040518083038186803b158015611b9057600080fd5b505afa158015611ba4573d6000803e3d6000fd5b505050506040513d601f19601f82011682018060405250810190611bc89190611f6e565b60ff161490505b5b92915050565b600081600001549050919050565b508054611bf0906125ff565b6000825580601f10611c025750611c21565b601f016020900490600052602060002090810190611c209190611caa565b5b50565b828054611c30906125ff565b90600052602060002090601f016020900481019282611c525760008555611c99565b82601f10611c6b57805160ff1916838001178555611c99565b82800160010185558215611c99579182015b82811115611c98578251825591602001919060010190611c7d565b5b509050611ca69190611caa565b5090565b5b80821115611cc3576000816000905550600101611cab565b5090565b6000611cda611cd58461247c565b612457565b905082815260208101848484011115611cf257600080fd5b611cfd8482856125bd565b509392505050565b600081359050611d14816128d1565b92915050565b600081519050611d29816128d1565b92915050565b600081519050611d3e816128e8565b92915050565b600081359050611d53816128ff565b92915050565b600081359050611d688161290f565b92915050565b600082601f830112611d7f57600080fd5b8135611d8f848260208601611cc7565b91505092915050565b600081359050611da781612926565b92915050565b600081519050611dbc81612926565b92915050565b600081519050611dd18161293d565b92915050565b600060208284031215611de957600080fd5b6000611df784828501611d05565b91505092915050565b600060208284031215611e1257600080fd5b6000611e2084828501611d1a565b91505092915050565b600060208284031215611e3b57600080fd5b6000611e4984828501611d2f565b91505092915050565b600060208284031215611e6457600080fd5b6000611e7284828501611d59565b91505092915050565b60008060008060008060c08789031215611e9457600080fd5b6000611ea289828a01611d59565b9650506020611eb389828a01611d59565b9550506040611ec489828a01611d05565b9450506060611ed589828a01611d44565b9350506080611ee689828a01611d05565b92505060a087013567ffffffffffffffff811115611f0357600080fd5b611f0f89828a01611d6e565b9150509295509295509295565b600060208284031215611f2e57600080fd5b6000611f3c84828501611d98565b91505092915050565b600060208284031215611f5757600080fd5b6000611f6584828501611dad565b91505092915050565b600060208284031215611f8057600080fd5b6000611f8e84828501611dc2565b91505092915050565b611fa0816124d4565b82525050565b611faf816124e6565b82525050565b611fbe816124f2565b82525050565b611fcd81612575565b82525050565b611fdc81612599565b82525050565b611feb816125ab565b82525050565b611ffa81612531565b82525050565b600061200b826124ad565b61201581856124c3565b93506120258185602086016125cc565b61202e816126ef565b840191505092915050565b6000612046601d836124c3565b915061205182612700565b602082019050919050565b60006120696026836124c3565b915061207482612729565b604082019050919050565b600061208c6016836124c3565b915061209782612778565b602082019050919050565b60006120af6018836124c3565b91506120ba826127a1565b602082019050919050565b60006120d2601c836124c3565b91506120dd826127ca565b602082019050919050565b60006120f5602f836124c3565b9150612100826127f3565b604082019050919050565b60006121186020836124c3565b915061212382612842565b602082019050919050565b600061213b6000836124b8565b91506121468261286b565b600082019050919050565b600061215e6032836124c3565b91506121698261286e565b604082019050919050565b61217d8161255e565b82525050565b600061218e8261212e565b9150819050919050565b60006020820190506121ad6000830184611f97565b92915050565b600060e0820190506121c8600083018a611f97565b6121d56020830189611ff1565b6121e26040830188611fa6565b6121ef6060830187611f97565b6121fc6080830186611fd3565b61220960a0830185611f97565b81810360c083015261221b8184612000565b905098975050505050505050565b600060208201905061223e6000830184611fb5565b92915050565b60006020820190506122596000830184611fc4565b92915050565b60006020820190506122746000830184611ff1565b92915050565b600060a08201905061228f6000830188611fe2565b61229c6020830187611f97565b6122a96040830186611fd3565b6122b66060830185611f97565b81810360808301526122c88184612000565b90509695505050505050565b600060c0820190506122e96000830189611ff1565b6122f66020830188611ff1565b6123036040830187611f97565b6123106060830186611fd3565b61231d6080830185611f97565b81810360a083015261232f8184612000565b9050979650505050505050565b6000602082019050818103600083015261235581612039565b9050919050565b600060208201905081810360008301526123758161205c565b9050919050565b600060208201905081810360008301526123958161207f565b9050919050565b600060208201905081810360008301526123b5816120a2565b9050919050565b600060208201905081810360008301526123d5816120c5565b9050919050565b600060208201905081810360008301526123f5816120e8565b9050919050565b600060208201905081810360008301526124158161210b565b9050919050565b6000602082019050818103600083015261243581612151565b9050919050565b60006020820190506124516000830184612174565b92915050565b6000612461612472565b905061246d8282612631565b919050565b6000604051905090565b600067ffffffffffffffff821115612497576124966126c0565b5b6124a0826126ef565b9050602081019050919050565b600081519050919050565b600081905092915050565b600082825260208201905092915050565b60006124df8261253e565b9050919050565b60008115159050919050565b60007fffffffff0000000000000000000000000000000000000000000000000000000082169050919050565b600081905061252c826128bd565b919050565b60008160070b9050919050565b600073ffffffffffffffffffffffffffffffffffffffff82169050919050565b6000819050919050565b600060ff82169050919050565b600061258082612587565b9050919050565b60006125928261253e565b9050919050565b60006125a48261251e565b9050919050565b60006125b682612531565b9050919050565b82818337600083830152505050565b60005b838110156125ea5780820151818401526020810190506125cf565b838111156125f9576000848401525b50505050565b6000600282049050600182168061261757607f821691505b6020821081141561262b5761262a612691565b5b50919050565b61263a826126ef565b810181811067ffffffffffffffff82111715612659576126586126c0565b5b80604052505050565b7f4e487b7100000000000000000000000000000000000000000000000000000000600052602160045260246000fd5b7f4e487b7100000000000000000000000000000000000000000000000000000000600052602260045260246000fd5b7f4e487b7100000000000000000000000000000000000000000000000000000000600052604160045260246000fd5b6000601f19601f8301169050919050565b7f5573657220646964206e6f742072656769737472656420696e20544750000000600082015250565b7f4f776e61626c653a206e6577206f776e657220697320746865207a65726f206160008201527f6464726573730000000000000000000000000000000000000000000000000000602082015250565b7f556e61626c6520746f207472616e736665722066656500000000000000000000600082015250565b7f50617373706f727420666565206973206e6f7420706169640000000000000000600082015250565b7f746869732063686174207467696420616c72656164792074616b656e00000000600082015250565b7f436f6e747261637420646f6573206e6f74206d61746368207769746820636f7260008201527f726573706f6e64696e6720747970650000000000000000000000000000000000602082015250565b7f4f776e61626c653a2063616c6c6572206973206e6f7420746865206f776e6572600082015250565b50565b7f616c726561647920686173206265656e20617070726f766564204f522064696460008201527f6e2774206170706c69656420617420616c6c0000000000000000000000000000602082015250565b600381106128ce576128cd612662565b5b50565b6128da816124d4565b81146128e557600080fd5b50565b6128f1816124e6565b81146128fc57600080fd5b50565b6003811061290c57600080fd5b50565b61291881612531565b811461292357600080fd5b50565b61292f8161255e565b811461293a57600080fd5b50565b61294681612568565b811461295157600080fd5b5056fea2646970667358221220c657a2d280ee827ea0efbd3709b496373afd18bc4bfb84a40edfd11eb57f22d964736f6c63430008040033",
  "linkReferences": {},
  "deployedLinkReferences": {}
}