{
  "_format": "hh-sol-artifact-1",
  "contractName": "Union",
  "sourceName": "contracts/Union.sol",
  "abi": [
    {
      "inputs": [
        {
          "internalType": "address",
          "name": "passportContract_",
          "type": "address"
        }
      ],
      "stateMutability": "nonpayable",
      "type": "constructor"
    },
    {
      "anonymous": false,
      "inputs": [
        {
          "indexed": false,
          "internalType": "int64",
          "name": "chat_id",
          "type": "int64"
        },
        {
          "indexed": false,
          "internalType": "int64",
          "name": "applier_id",
          "type": "int64"
        },
        {
          "indexed": false,
          "internalType": "address",
          "name": "multy_wallet_address",
          "type": "address"
        },
        {
          "indexed": false,
          "internalType": "enum Union.VotingType",
          "name": "vote_type",
          "type": "uint8"
        },
        {
          "indexed": false,
          "internalType": "address",
          "name": "voting_token_address",
          "type": "address"
        },
        {
          "indexed": false,
          "internalType": "string",
          "name": "group_name",
          "type": "string"
        }
      ],
      "name": "ApplicationForJoin",
      "type": "event"
    },
    {
      "anonymous": false,
      "inputs": [
        {
          "indexed": true,
          "internalType": "int64",
          "name": "chat_id",
          "type": "int64"
        },
        {
          "indexed": false,
          "internalType": "int64",
          "name": "applier_id",
          "type": "int64"
        },
        {
          "indexed": false,
          "internalType": "address",
          "name": "multy_wallet_address",
          "type": "address"
        },
        {
          "indexed": false,
          "internalType": "enum Union.VotingType",
          "name": "vote_type",
          "type": "uint8"
        },
        {
          "indexed": false,
          "internalType": "address",
          "name": "voting_token_address",
          "type": "address"
        },
        {
          "indexed": false,
          "internalType": "string",
          "name": "group_name",
          "type": "string"
        }
      ],
      "name": "ApplicationForJoinIndexed",
      "type": "event"
    },
    {
      "anonymous": false,
      "inputs": [
        {
          "indexed": false,
          "internalType": "int256",
          "name": "chat_id",
          "type": "int256"
        },
        {
          "indexed": false,
          "internalType": "address",
          "name": "multy_wallet_address",
          "type": "address"
        },
        {
          "indexed": false,
          "internalType": "enum Union.VotingType",
          "name": "vote_type",
          "type": "uint8"
        },
        {
          "indexed": false,
          "internalType": "address",
          "name": "voting_token_address",
          "type": "address"
        },
        {
          "indexed": false,
          "internalType": "string",
          "name": "group_name",
          "type": "string"
        }
      ],
      "name": "ApprovedJoin",
      "type": "event"
    },
    {
      "anonymous": false,
      "inputs": [
        {
          "indexed": false,
          "internalType": "int256",
          "name": "chat_id",
          "type": "int256"
        },
        {
          "indexed": false,
          "internalType": "address",
          "name": "multy_wallet_address",
          "type": "address"
        },
        {
          "indexed": false,
          "internalType": "enum Union.VotingType",
          "name": "vote_type",
          "type": "uint8"
        },
        {
          "indexed": false,
          "internalType": "address",
          "name": "voting_token_address",
          "type": "address"
        },
        {
          "indexed": false,
          "internalType": "string",
          "name": "group_name",
          "type": "string"
        }
      ],
      "name": "DeclinedApplication",
      "type": "event"
    },
    {
      "anonymous": false,
      "inputs": [
        {
          "indexed": true,
          "internalType": "address",
          "name": "previousOwner",
          "type": "address"
        },
        {
          "indexed": true,
          "internalType": "address",
          "name": "newOwner",
          "type": "address"
        }
      ],
      "name": "OwnershipTransferred",
      "type": "event"
    },
    {
      "anonymous": false,
      "inputs": [
        {
          "indexed": true,
          "internalType": "bytes32",
          "name": "role",
          "type": "bytes32"
        },
        {
          "indexed": true,
          "internalType": "bytes32",
          "name": "previousAdminRole",
          "type": "bytes32"
        },
        {
          "indexed": true,
          "internalType": "bytes32",
          "name": "newAdminRole",
          "type": "bytes32"
        }
      ],
      "name": "RoleAdminChanged",
      "type": "event"
    },
    {
      "anonymous": false,
      "inputs": [
        {
          "indexed": true,
          "internalType": "bytes32",
          "name": "role",
          "type": "bytes32"
        },
        {
          "indexed": true,
          "internalType": "address",
          "name": "account",
          "type": "address"
        },
        {
          "indexed": true,
          "internalType": "address",
          "name": "sender",
          "type": "address"
        }
      ],
      "name": "RoleGranted",
      "type": "event"
    },
    {
      "anonymous": false,
      "inputs": [
        {
          "indexed": true,
          "internalType": "bytes32",
          "name": "role",
          "type": "bytes32"
        },
        {
          "indexed": true,
          "internalType": "address",
          "name": "account",
          "type": "address"
        },
        {
          "indexed": true,
          "internalType": "address",
          "name": "sender",
          "type": "address"
        }
      ],
      "name": "RoleRevoked",
      "type": "event"
    },
    {
      "inputs": [
        {
          "internalType": "int64",
          "name": "applyerTg",
          "type": "int64"
        },
        {
          "internalType": "int64",
          "name": "daoTg",
          "type": "int64"
        },
        {
          "internalType": "address",
          "name": "dao_",
          "type": "address"
        },
        {
          "internalType": "enum Union.VotingType",
          "name": "votingType_",
          "type": "uint8"
        },
        {
          "internalType": "address",
          "name": "votingTokenContract_",
          "type": "address"
        },
        {
          "internalType": "string",
          "name": "dao_name_",
          "type": "string"
        }
      ],
      "name": "ApplyForUnion",
      "outputs": [],
      "stateMutability": "payable",
      "type": "function"
    },
    {
      "inputs": [
        {
          "internalType": "address",
          "name": "daoAddress",
          "type": "address"
        }
      ],
      "name": "ApproveJoin",
      "outputs": [],
      "stateMutability": "nonpayable",
      "type": "function"
    },
    {
      "inputs": [
        {
          "internalType": "uint256",
          "name": "",
          "type": "uint256"
        }
      ],
      "name": "Chat_id_array",
      "outputs": [
        {
          "internalType": "int64",
          "name": "",
          "type": "int64"
        }
      ],
      "stateMutability": "view",
      "type": "function"
    },
    {
      "inputs": [],
      "name": "DEFAULT_ADMIN_ROLE",
      "outputs": [
        {
          "internalType": "bytes32",
          "name": "",
          "type": "bytes32"
        }
      ],
      "stateMutability": "view",
      "type": "function"
    },
    {
      "inputs": [
        {
          "internalType": "address",
          "name": "daoAddress",
          "type": "address"
        }
      ],
      "name": "DeclineJoin",
      "outputs": [],
      "stateMutability": "nonpayable",
      "type": "function"
    },
    {
      "inputs": [
        {
          "internalType": "int64",
          "name": "",
          "type": "int64"
        }
      ],
      "name": "daoAddresses",
      "outputs": [
        {
          "internalType": "address",
          "name": "",
          "type": "address"
        }
      ],
      "stateMutability": "view",
      "type": "function"
    },
    {
      "inputs": [
        {
          "internalType": "address",
          "name": "",
          "type": "address"
        }
      ],
      "name": "daos",
      "outputs": [
        {
          "internalType": "address",
          "name": "chatOwnerAddress",
          "type": "address"
        },
        {
          "internalType": "int64",
          "name": "tgId",
          "type": "int64"
        },
        {
          "internalType": "bool",
          "name": "valid",
          "type": "bool"
        },
        {
          "internalType": "address",
          "name": "multisigAddress",
          "type": "address"
        },
        {
          "internalType": "enum Union.VotingType",
          "name": "votingType",
          "type": "uint8"
        },
        {
          "internalType": "address",
          "name": "votingToken",
          "type": "address"
        },
        {
          "internalType": "string",
          "name": "group_name",
          "type": "string"
        }
      ],
      "stateMutability": "view",
      "type": "function"
    },
    {
      "inputs": [
        {
          "internalType": "int64",
          "name": "chat_id",
          "type": "int64"
        }
      ],
      "name": "getDaoAddressbyChatId",
      "outputs": [
        {
          "internalType": "address",
          "name": "",
          "type": "address"
        }
      ],
      "stateMutability": "view",
      "type": "function"
    },
    {
      "inputs": [],
      "name": "getDaoCount",
      "outputs": [
        {
          "internalType": "uint256",
          "name": "",
          "type": "uint256"
        }
      ],
      "stateMutability": "view",
      "type": "function"
    },
    {
      "inputs": [],
      "name": "getModeratorIdentifier",
      "outputs": [
        {
          "internalType": "bytes32",
          "name": "",
          "type": "bytes32"
        }
      ],
      "stateMutability": "pure",
      "type": "function"
    },
    {
      "inputs": [
        {
          "internalType": "bytes32",
          "name": "role",
          "type": "bytes32"
        }
      ],
      "name": "getRoleAdmin",
      "outputs": [
        {
          "internalType": "bytes32",
          "name": "",
          "type": "bytes32"
        }
      ],
      "stateMutability": "view",
      "type": "function"
    },
    {
      "inputs": [
        {
          "internalType": "bytes32",
          "name": "role",
          "type": "bytes32"
        },
        {
          "internalType": "address",
          "name": "account",
          "type": "address"
        }
      ],
      "name": "grantRole",
      "outputs": [],
      "stateMutability": "nonpayable",
      "type": "function"
    },
    {
      "inputs": [
        {
          "internalType": "bytes32",
          "name": "role",
          "type": "bytes32"
        },
        {
          "internalType": "address",
          "name": "account",
          "type": "address"
        }
      ],
      "name": "hasRole",
      "outputs": [
        {
          "internalType": "bool",
          "name": "",
          "type": "bool"
        }
      ],
      "stateMutability": "view",
      "type": "function"
    },
    {
      "inputs": [],
      "name": "moderator",
      "outputs": [
        {
          "internalType": "bytes32",
          "name": "",
          "type": "bytes32"
        }
      ],
      "stateMutability": "view",
      "type": "function"
    },
    {
      "inputs": [],
      "name": "owner",
      "outputs": [
        {
          "internalType": "address",
          "name": "",
          "type": "address"
        }
      ],
      "stateMutability": "view",
      "type": "function"
    },
    {
      "inputs": [],
      "name": "renounceOwnership",
      "outputs": [],
      "stateMutability": "nonpayable",
      "type": "function"
    },
    {
      "inputs": [
        {
          "internalType": "bytes32",
          "name": "role",
          "type": "bytes32"
        },
        {
          "internalType": "address",
          "name": "account",
          "type": "address"
        }
      ],
      "name": "renounceRole",
      "outputs": [],
      "stateMutability": "nonpayable",
      "type": "function"
    },
    {
      "inputs": [
        {
          "internalType": "bytes32",
          "name": "role",
          "type": "bytes32"
        },
        {
          "internalType": "address",
          "name": "account",
          "type": "address"
        }
      ],
      "name": "revokeRole",
      "outputs": [],
      "stateMutability": "nonpayable",
      "type": "function"
    },
    {
      "inputs": [
        {
          "internalType": "bytes4",
          "name": "interfaceId",
          "type": "bytes4"
        }
      ],
      "name": "supportsInterface",
      "outputs": [
        {
          "internalType": "bool",
          "name": "",
          "type": "bool"
        }
      ],
      "stateMutability": "view",
      "type": "function"
    },
    {
      "inputs": [],
      "name": "tgpassport",
      "outputs": [
        {
          "internalType": "contract TGPassport",
          "name": "",
          "type": "address"
        }
      ],
      "stateMutability": "view",
      "type": "function"
    },
    {
      "inputs": [
        {
          "internalType": "address",
          "name": "newOwner",
          "type": "address"
        }
      ],
      "name": "transferOwnership",
      "outputs": [],
      "stateMutability": "nonpayable",
      "type": "function"
    }
  ],
  "bytecode": "0x6080604052620000146200022060201b60201c565b600360006101000a81548173ffffffffffffffffffffffffffffffffffffffff021916908373ffffffffffffffffffffffffffffffffffffffff16021790555073383a9e83e36796106eac11e8c2fbe8b92ff46d3a600460006101000a81548173ffffffffffffffffffffffffffffffffffffffff021916908373ffffffffffffffffffffffffffffffffffffffff160217905550348015620000b657600080fd5b5060405162003d3938038062003d398339818101604052810190620000dc919062000488565b620000fc620000f06200024960201b60201c565b6200025160201b60201c565b80600960006101000a81548173ffffffffffffffffffffffffffffffffffffffff021916908373ffffffffffffffffffffffffffffffffffffffff16021790555080600a60006101000a81548173ffffffffffffffffffffffffffffffffffffffff021916908373ffffffffffffffffffffffffffffffffffffffff160217905550620001936000801b336200031560201b60201c565b620001c57fcea62fe6ecc79e221c545bf918f804693c542ead2549e37c2bb9baa66ee2e157336200031560201b60201c565b620002197fcea62fe6ecc79e221c545bf918f804693c542ead2549e37c2bb9baa66ee2e157600460009054906101000a900473ffffffffffffffffffffffffffffffffffffffff166200031560201b60201c565b5062000502565b60008060009054906101000a900473ffffffffffffffffffffffffffffffffffffffff16905090565b600033905090565b60008060009054906101000a900473ffffffffffffffffffffffffffffffffffffffff169050816000806101000a81548173ffffffffffffffffffffffffffffffffffffffff021916908373ffffffffffffffffffffffffffffffffffffffff1602179055508173ffffffffffffffffffffffffffffffffffffffff168173ffffffffffffffffffffffffffffffffffffffff167f8be0079c531659141344cd1fd0a4f28419497f9722a3daafe3b4186f6b6457e060405160405180910390a35050565b6200032782826200040660201b60201c565b6200040257600180600084815260200190815260200160002060000160008373ffffffffffffffffffffffffffffffffffffffff1673ffffffffffffffffffffffffffffffffffffffff16815260200190815260200160002060006101000a81548160ff021916908315150217905550620003a76200024960201b60201c565b73ffffffffffffffffffffffffffffffffffffffff168173ffffffffffffffffffffffffffffffffffffffff16837f2f8788117e7eff1d82e926ec794901d17c78024a50270940304540a733656f0d60405160405180910390a45b5050565b60006001600084815260200190815260200160002060000160008373ffffffffffffffffffffffffffffffffffffffff1673ffffffffffffffffffffffffffffffffffffffff16815260200190815260200160002060009054906101000a900460ff16905092915050565b6000815190506200048281620004e8565b92915050565b6000602082840312156200049b57600080fd5b6000620004ab8482850162000471565b91505092915050565b6000620004c182620004c8565b9050919050565b600073ffffffffffffffffffffffffffffffffffffffff82169050919050565b620004f381620004b4565b8114620004ff57600080fd5b50565b61382780620005126000396000f3fe60806040526004361061012a5760003560e01c806391d14854116100ab578063d4d8f8921161006f578063d4d8f892146103d7578063d547741f14610402578063d698b3641461042b578063d6b2da8e14610468578063e57bede4146104a5578063f2fde38b146104e25761012a565b806391d14854146102e7578063a217fddf14610324578063ad8f86601461034f578063b9f7076f14610378578063c25f3cf6146103945761012a565b806338743904116100f257806338743904146102245780635d1ce88f1461024f578063715018a61461027a5780637527d5a1146102915780638da5cb5b146102bc5761012a565b806301ffc9a71461012f578063248a9ca31461016c5780632f2ff15d146101a957806336568abe146101d257806336b9f727146101fb575b600080fd5b34801561013b57600080fd5b50610156600480360381019061015191906128b8565b61050b565b6040516101639190612dbe565b60405180910390f35b34801561017857600080fd5b50610193600480360381019061018e9190612853565b610585565b6040516101a09190612dd9565b60405180910390f35b3480156101b557600080fd5b506101d060048036038101906101cb919061287c565b6105a5565b005b3480156101de57600080fd5b506101f960048036038101906101f4919061287c565b6105ce565b005b34801561020757600080fd5b50610222600480360381019061021d91906127d8565b610651565b005b34801561023057600080fd5b50610239610b11565b6040516102469190612dd9565b60405180910390f35b34801561025b57600080fd5b50610264610b35565b6040516102719190612dd9565b60405180910390f35b34801561028657600080fd5b5061028f610b5d565b005b34801561029d57600080fd5b506102a6610be5565b6040516102b39190612e0f565b60405180910390f35b3480156102c857600080fd5b506102d1610c0b565b6040516102de9190612d2d565b60405180910390f35b3480156102f357600080fd5b5061030e6004803603810190610309919061287c565b610c34565b60405161031b9190612dbe565b60405180910390f35b34801561033057600080fd5b50610339610c9f565b6040516103469190612dd9565b60405180910390f35b34801561035b57600080fd5b50610376600480360381019061037191906127d8565b610ca6565b005b610392600480360381019061038d919061290a565b611271565b005b3480156103a057600080fd5b506103bb60048036038101906103b691906127d8565b6119bb565b6040516103ce9796959493929190612d48565b60405180910390f35b3480156103e357600080fd5b506103ec611b0c565b6040516103f991906130c3565b60405180910390f35b34801561040e57600080fd5b506104296004803603810190610424919061287c565b611b1d565b005b34801561043757600080fd5b50610452600480360381019061044d91906129ab565b611b46565b60405161045f9190612e2a565b60405180910390f35b34801561047457600080fd5b5061048f600480360381019061048a91906128e1565b611b7d565b60405161049c9190612d2d565b60405180910390f35b3480156104b157600080fd5b506104cc60048036038101906104c791906128e1565b611bb0565b6040516104d99190612d2d565b60405180910390f35b3480156104ee57600080fd5b50610509600480360381019061050491906127d8565b611bf8565b005b60007f7965db0b000000000000000000000000000000000000000000000000000000007bffffffffffffffffffffffffffffffffffffffffffffffffffffffff1916827bffffffffffffffffffffffffffffffffffffffffffffffffffffffff1916148061057e575061057d82611cf0565b5b9050919050565b600060016000838152602001908152602001600020600101549050919050565b6105ae82610585565b6105bf816105ba611d5a565b611d62565b6105c98383611dff565b505050565b6105d6611d5a565b73ffffffffffffffffffffffffffffffffffffffff168173ffffffffffffffffffffffffffffffffffffffff1614610643576040517f08c379a000000000000000000000000000000000000000000000000000000000815260040161063a906130a3565b60405180910390fd5b61064d8282611edf565b5050565b7fcea62fe6ecc79e221c545bf918f804693c542ead2549e37c2bb9baa66ee2e1576106838161067e611d5a565b611d62565b6000600860008473ffffffffffffffffffffffffffffffffffffffff1673ffffffffffffffffffffffffffffffffffffffff1681526020019081526020016000206040518060e00160405290816000820160009054906101000a900473ffffffffffffffffffffffffffffffffffffffff1673ffffffffffffffffffffffffffffffffffffffff1673ffffffffffffffffffffffffffffffffffffffff1681526020016000820160149054906101000a900460070b60070b60070b815260200160008201601c9054906101000a900460ff161515151581526020016001820160009054906101000a900473ffffffffffffffffffffffffffffffffffffffff1673ffffffffffffffffffffffffffffffffffffffff1673ffffffffffffffffffffffffffffffffffffffff1681526020016001820160149054906101000a900460ff1660028111156107fe577f4e487b7100000000000000000000000000000000000000000000000000000000600052602160045260246000fd5b6002811115610836577f4e487b7100000000000000000000000000000000000000000000000000000000600052602160045260246000fd5b81526020016002820160009054906101000a900473ffffffffffffffffffffffffffffffffffffffff1673ffffffffffffffffffffffffffffffffffffffff1673ffffffffffffffffffffffffffffffffffffffff1681526020016003820180546108a090613375565b80601f01602080910402602001604051908101604052809291908181526020018280546108cc90613375565b80156109195780601f106108ee57610100808354040283529160200191610919565b820191906000526020600020905b8154815290600101906020018083116108fc57829003601f168201915b505050505081525050905060001515816040015115151461096f576040517f08c379a000000000000000000000000000000000000000000000000000000000815260040161096690613083565b60405180910390fd5b600860008473ffffffffffffffffffffffffffffffffffffffff1673ffffffffffffffffffffffffffffffffffffffff168152602001908152602001600020600080820160006101000a81549073ffffffffffffffffffffffffffffffffffffffff02191690556000820160146101000a81549067ffffffffffffffff021916905560008201601c6101000a81549060ff02191690556001820160006101000a81549073ffffffffffffffffffffffffffffffffffffffff02191690556001820160146101000a81549060ff02191690556002820160006101000a81549073ffffffffffffffffffffffffffffffffffffffff0219169055600382016000610a7791906125bb565b505060056000826020015160070b60070b815260200190815260200160002060006101000a81549073ffffffffffffffffffffffffffffffffffffffff02191690557fd06e11c55c5f21676305517c655a0188744d3bee09361e15470276872d56a0b98160200151826060015183608001518460a001518560c00151604051610b04959493929190612e45565b60405180910390a1505050565b7fcea62fe6ecc79e221c545bf918f804693c542ead2549e37c2bb9baa66ee2e15781565b60007fcea62fe6ecc79e221c545bf918f804693c542ead2549e37c2bb9baa66ee2e157905090565b610b65611d5a565b73ffffffffffffffffffffffffffffffffffffffff16610b83610c0b565b73ffffffffffffffffffffffffffffffffffffffff1614610bd9576040517f08c379a0000000000000000000000000000000000000000000000000000000008152600401610bd090613063565b60405180910390fd5b610be36000611fc1565b565b600a60009054906101000a900473ffffffffffffffffffffffffffffffffffffffff1681565b60008060009054906101000a900473ffffffffffffffffffffffffffffffffffffffff16905090565b60006001600084815260200190815260200160002060000160008373ffffffffffffffffffffffffffffffffffffffff1673ffffffffffffffffffffffffffffffffffffffff16815260200190815260200160002060009054906101000a900460ff16905092915050565b6000801b81565b7fcea62fe6ecc79e221c545bf918f804693c542ead2549e37c2bb9baa66ee2e157610cd881610cd3611d5a565b611d62565b6000600860008473ffffffffffffffffffffffffffffffffffffffff1673ffffffffffffffffffffffffffffffffffffffff1681526020019081526020016000206040518060e00160405290816000820160009054906101000a900473ffffffffffffffffffffffffffffffffffffffff1673ffffffffffffffffffffffffffffffffffffffff1673ffffffffffffffffffffffffffffffffffffffff1681526020016000820160149054906101000a900460070b60070b60070b815260200160008201601c9054906101000a900460ff161515151581526020016001820160009054906101000a900473ffffffffffffffffffffffffffffffffffffffff1673ffffffffffffffffffffffffffffffffffffffff1673ffffffffffffffffffffffffffffffffffffffff1681526020016001820160149054906101000a900460ff166002811115610e53577f4e487b7100000000000000000000000000000000000000000000000000000000600052602160045260246000fd5b6002811115610e8b577f4e487b7100000000000000000000000000000000000000000000000000000000600052602160045260246000fd5b81526020016002820160009054906101000a900473ffffffffffffffffffffffffffffffffffffffff1673ffffffffffffffffffffffffffffffffffffffff1673ffffffffffffffffffffffffffffffffffffffff168152602001600382018054610ef590613375565b80601f0160208091040260200160405190810160405280929190818152602001828054610f2190613375565b8015610f6e5780601f10610f4357610100808354040283529160200191610f6e565b820191906000526020600020905b815481529060010190602001808311610f5157829003601f168201915b5050505050815250509050600015158160400151151514610fc4576040517f08c379a0000000000000000000000000000000000000000000000000000000008152600401610fbb90613083565b60405180910390fd5b600181604001901515908115158152505080600860008573ffffffffffffffffffffffffffffffffffffffff1673ffffffffffffffffffffffffffffffffffffffff16815260200190815260200160002060008201518160000160006101000a81548173ffffffffffffffffffffffffffffffffffffffff021916908373ffffffffffffffffffffffffffffffffffffffff16021790555060208201518160000160146101000a81548167ffffffffffffffff021916908360070b67ffffffffffffffff160217905550604082015181600001601c6101000a81548160ff02191690831515021790555060608201518160010160006101000a81548173ffffffffffffffffffffffffffffffffffffffff021916908373ffffffffffffffffffffffffffffffffffffffff16021790555060808201518160010160146101000a81548160ff02191690836002811115611146577f4e487b7100000000000000000000000000000000000000000000000000000000600052602160045260246000fd5b021790555060a08201518160020160006101000a81548173ffffffffffffffffffffffffffffffffffffffff021916908373ffffffffffffffffffffffffffffffffffffffff16021790555060c08201518160030190805190602001906111ae9291906125fb565b509050506111bc6007612085565b6006816020015190806001815401808255809150506001900390600052602060002090600491828204019190066008029091909190916101000a81548167ffffffffffffffff021916908360070b67ffffffffffffffff1602179055507f19c3744c2d10eda4d05b727f02a712a414539c26678f5f988d98f9635afcac288160200151826060015183608001518460a001518560c00151604051611264959493929190612e45565b60405180910390a1505050565b6000600a60009054906101000a900473ffffffffffffffffffffffffffffffffffffffff1673ffffffffffffffffffffffffffffffffffffffff16630c2fc6e3886040518263ffffffff1660e01b81526004016112ce9190612e2a565b60206040518083038186803b1580156112e657600080fd5b505afa1580156112fa573d6000803e3d6000fd5b505050506040513d601f19601f8201168201806040525081019061131e9190612801565b90503373ffffffffffffffffffffffffffffffffffffffff168173ffffffffffffffffffffffffffffffffffffffff161461138e576040517f08c379a000000000000000000000000000000000000000000000000000000000815260040161138590612fa3565b60405180910390fd5b600073ffffffffffffffffffffffffffffffffffffffff16600560008860070b60070b815260200190815260200160002060009054906101000a900473ffffffffffffffffffffffffffffffffffffffff1673ffffffffffffffffffffffffffffffffffffffff1614611436576040517f08c379a000000000000000000000000000000000000000000000000000000000815260040161142d90613023565b60405180910390fd5b84600560008860070b60070b815260200190815260200160002060006101000a81548173ffffffffffffffffffffffffffffffffffffffff021916908373ffffffffffffffffffffffffffffffffffffffff160217905550600061149a858561209b565b905060011515811515146114e3576040517f08c379a00000000000000000000000000000000000000000000000000000000081526004016114da90613043565b60405180910390fd5b600a60009054906101000a900473ffffffffffffffffffffffffffffffffffffffff1673ffffffffffffffffffffffffffffffffffffffff166348dc15616040518163ffffffff1660e01b815260040160206040518083038186803b15801561154b57600080fd5b505afa15801561155f573d6000803e3d6000fd5b505050506040513d601f19601f8201168201806040525081019061158391906129d4565b6002819055506040518060e001604052803373ffffffffffffffffffffffffffffffffffffffff1681526020018860070b81526020016000151581526020018773ffffffffffffffffffffffffffffffffffffffff168152602001866002811115611617577f4e487b7100000000000000000000000000000000000000000000000000000000600052602160045260246000fd5b81526020018573ffffffffffffffffffffffffffffffffffffffff16815260200184815250600860008873ffffffffffffffffffffffffffffffffffffffff1673ffffffffffffffffffffffffffffffffffffffff16815260200190815260200160002060008201518160000160006101000a81548173ffffffffffffffffffffffffffffffffffffffff021916908373ffffffffffffffffffffffffffffffffffffffff16021790555060208201518160000160146101000a81548167ffffffffffffffff021916908360070b67ffffffffffffffff160217905550604082015181600001601c6101000a81548160ff02191690831515021790555060608201518160010160006101000a81548173ffffffffffffffffffffffffffffffffffffffff021916908373ffffffffffffffffffffffffffffffffffffffff16021790555060808201518160010160146101000a81548160ff021916908360028111156117ac577f4e487b7100000000000000000000000000000000000000000000000000000000600052602160045260246000fd5b021790555060a08201518160020160006101000a81548173ffffffffffffffffffffffffffffffffffffffff021916908373ffffffffffffffffffffffffffffffffffffffff16021790555060c08201518160030190805190602001906118149291906125fb565b509050506000600360009054906101000a900473ffffffffffffffffffffffffffffffffffffffff1673ffffffffffffffffffffffffffffffffffffffff1660025460405161186290612cde565b60006040518083038185875af1925050503d806000811461189f576040519150601f19603f3d011682016040523d82523d6000602084013e6118a4565b606091505b50509050806118e8576040517f08c379a00000000000000000000000000000000000000000000000000000000081526004016118df90612fe3565b60405180910390fd5b600254341461192c576040517f08c379a000000000000000000000000000000000000000000000000000000000815260040161192390613003565b60405180910390fd5b7f0ae33dac4eb1cdcaf489d2a9a56c45d17257612cad7c531513d4e425951349e2888a8989898960405161196596959493929190612ef9565b60405180910390a18760070b7fefcac77603ca996faafa29a1d72a90249e186f4a4af6ad89434b18a66b6e9cd98a898989896040516119a8959493929190612e9f565b60405180910390a2505050505050505050565b60086020528060005260406000206000915090508060000160009054906101000a900473ffffffffffffffffffffffffffffffffffffffff16908060000160149054906101000a900460070b9080600001601c9054906101000a900460ff16908060010160009054906101000a900473ffffffffffffffffffffffffffffffffffffffff16908060010160149054906101000a900460ff16908060020160009054906101000a900473ffffffffffffffffffffffffffffffffffffffff1690806003018054611a8990613375565b80601f0160208091040260200160405190810160405280929190818152602001828054611ab590613375565b8015611b025780601f10611ad757610100808354040283529160200191611b02565b820191906000526020600020905b815481529060010190602001808311611ae557829003601f168201915b5050505050905087565b6000611b1860076122b3565b905090565b611b2682610585565b611b3781611b32611d5a565b611d62565b611b418383611edf565b505050565b60068181548110611b5657600080fd5b9060005260206000209060049182820401919006600802915054906101000a900460070b81565b60056020528060005260406000206000915054906101000a900473ffffffffffffffffffffffffffffffffffffffff1681565b600080600560008460070b60070b815260200190815260200160002060009054906101000a900473ffffffffffffffffffffffffffffffffffffffff16905080915050919050565b611c00611d5a565b73ffffffffffffffffffffffffffffffffffffffff16611c1e610c0b565b73ffffffffffffffffffffffffffffffffffffffff1614611c74576040517f08c379a0000000000000000000000000000000000000000000000000000000008152600401611c6b90613063565b60405180910390fd5b600073ffffffffffffffffffffffffffffffffffffffff168173ffffffffffffffffffffffffffffffffffffffff161415611ce4576040517f08c379a0000000000000000000000000000000000000000000000000000000008152600401611cdb90612fc3565b60405180910390fd5b611ced81611fc1565b50565b60007f01ffc9a7000000000000000000000000000000000000000000000000000000007bffffffffffffffffffffffffffffffffffffffffffffffffffffffff1916827bffffffffffffffffffffffffffffffffffffffffffffffffffffffff1916149050919050565b600033905090565b611d6c8282610c34565b611dfb57611d918173ffffffffffffffffffffffffffffffffffffffff1660146122c1565b611d9f8360001c60206122c1565b604051602001611db0929190612cf3565b6040516020818303038152906040526040517f08c379a0000000000000000000000000000000000000000000000000000000008152600401611df29190612f61565b60405180910390fd5b5050565b611e098282610c34565b611edb57600180600084815260200190815260200160002060000160008373ffffffffffffffffffffffffffffffffffffffff1673ffffffffffffffffffffffffffffffffffffffff16815260200190815260200160002060006101000a81548160ff021916908315150217905550611e80611d5a565b73ffffffffffffffffffffffffffffffffffffffff168173ffffffffffffffffffffffffffffffffffffffff16837f2f8788117e7eff1d82e926ec794901d17c78024a50270940304540a733656f0d60405160405180910390a45b5050565b611ee98282610c34565b15611fbd5760006001600084815260200190815260200160002060000160008373ffffffffffffffffffffffffffffffffffffffff1673ffffffffffffffffffffffffffffffffffffffff16815260200190815260200160002060006101000a81548160ff021916908315150217905550611f62611d5a565b73ffffffffffffffffffffffffffffffffffffffff168173ffffffffffffffffffffffffffffffffffffffff16837ff6391f5c32d9c69d2a47ea670b442974b53935d1edc7fd64eb21e047a839171b60405160405180910390a45b5050565b60008060009054906101000a900473ffffffffffffffffffffffffffffffffffffffff169050816000806101000a81548173ffffffffffffffffffffffffffffffffffffffff021916908373ffffffffffffffffffffffffffffffffffffffff1602179055508173ffffffffffffffffffffffffffffffffffffffff168173ffffffffffffffffffffffffffffffffffffffff167f8be0079c531659141344cd1fd0a4f28419497f9722a3daafe3b4186f6b6457e060405160405180910390a35050565b6001816000016000828254019250508190555050565b60006002808111156120d6577f4e487b7100000000000000000000000000000000000000000000000000000000600052602160045260246000fd5b83600281111561210f577f4e487b7100000000000000000000000000000000000000000000000000000000600052602160045260246000fd5b14156121ac578173ffffffffffffffffffffffffffffffffffffffff166301ffc9a763780e9d6360e01b6040518263ffffffff1660e01b81526004016121559190612df4565b60206040518083038186803b15801561216d57600080fd5b505afa158015612181573d6000803e3d6000fd5b505050506040513d601f19601f820116820180604052508101906121a5919061282a565b90506122ad565b600060028111156121e6577f4e487b7100000000000000000000000000000000000000000000000000000000600052602160045260246000fd5b83600281111561221f577f4e487b7100000000000000000000000000000000000000000000000000000000600052602160045260246000fd5b14156122ac5760128273ffffffffffffffffffffffffffffffffffffffff1663313ce5676040518163ffffffff1660e01b815260040160206040518083038186803b15801561226d57600080fd5b505afa158015612281573d6000803e3d6000fd5b505050506040513d601f19601f820116820180604052508101906122a591906129fd565b60ff161490505b5b92915050565b600081600001549050919050565b6060600060028360026122d491906131bc565b6122de9190613166565b67ffffffffffffffff81111561231d577f4e487b7100000000000000000000000000000000000000000000000000000000600052604160045260246000fd5b6040519080825280601f01601f19166020018201604052801561234f5781602001600182028036833780820191505090505b5090507f3000000000000000000000000000000000000000000000000000000000000000816000815181106123ad577f4e487b7100000000000000000000000000000000000000000000000000000000600052603260045260246000fd5b60200101907effffffffffffffffffffffffffffffffffffffffffffffffffffffffffffff1916908160001a9053507f780000000000000000000000000000000000000000000000000000000000000081600181518110612437577f4e487b7100000000000000000000000000000000000000000000000000000000600052603260045260246000fd5b60200101907effffffffffffffffffffffffffffffffffffffffffffffffffffffffffffff1916908160001a9053506000600184600261247791906131bc565b6124819190613166565b90505b600181111561256d577f3031323334353637383961626364656600000000000000000000000000000000600f8616601081106124e9577f4e487b7100000000000000000000000000000000000000000000000000000000600052603260045260246000fd5b1a60f81b828281518110612526577f4e487b7100000000000000000000000000000000000000000000000000000000600052603260045260246000fd5b60200101907effffffffffffffffffffffffffffffffffffffffffffffffffffffffffffff1916908160001a905350600485901c9450806125669061334b565b9050612484565b50600084146125b1576040517f08c379a00000000000000000000000000000000000000000000000000000000081526004016125a890612f83565b60405180910390fd5b8091505092915050565b5080546125c790613375565b6000825580601f106125d957506125f8565b601f0160209004906000526020600020908101906125f79190612681565b5b50565b82805461260790613375565b90600052602060002090601f0160209004810192826126295760008555612670565b82601f1061264257805160ff1916838001178555612670565b82800160010185558215612670579182015b8281111561266f578251825591602001919060010190612654565b5b50905061267d9190612681565b5090565b5b8082111561269a576000816000905550600101612682565b5090565b60006126b16126ac84613103565b6130de565b9050828152602081018484840111156126c957600080fd5b6126d4848285613309565b509392505050565b6000813590506126eb81613740565b92915050565b60008151905061270081613740565b92915050565b60008151905061271581613757565b92915050565b60008135905061272a8161376e565b92915050565b60008135905061273f81613785565b92915050565b6000813590506127548161379c565b92915050565b600081359050612769816137ac565b92915050565b600082601f83011261278057600080fd5b813561279084826020860161269e565b91505092915050565b6000813590506127a8816137c3565b92915050565b6000815190506127bd816137c3565b92915050565b6000815190506127d2816137da565b92915050565b6000602082840312156127ea57600080fd5b60006127f8848285016126dc565b91505092915050565b60006020828403121561281357600080fd5b6000612821848285016126f1565b91505092915050565b60006020828403121561283c57600080fd5b600061284a84828501612706565b91505092915050565b60006020828403121561286557600080fd5b60006128738482850161271b565b91505092915050565b6000806040838503121561288f57600080fd5b600061289d8582860161271b565b92505060206128ae858286016126dc565b9150509250929050565b6000602082840312156128ca57600080fd5b60006128d884828501612730565b91505092915050565b6000602082840312156128f357600080fd5b60006129018482850161275a565b91505092915050565b60008060008060008060c0878903121561292357600080fd5b600061293189828a0161275a565b965050602061294289828a0161275a565b955050604061295389828a016126dc565b945050606061296489828a01612745565b935050608061297589828a016126dc565b92505060a087013567ffffffffffffffff81111561299257600080fd5b61299e89828a0161276f565b9150509295509295509295565b6000602082840312156129bd57600080fd5b60006129cb84828501612799565b91505092915050565b6000602082840312156129e657600080fd5b60006129f4848285016127ae565b91505092915050565b600060208284031215612a0f57600080fd5b6000612a1d848285016127c3565b91505092915050565b612a2f81613216565b82525050565b612a3e81613228565b82525050565b612a4d81613234565b82525050565b612a5c8161323e565b82525050565b612a6b816132c1565b82525050565b612a7a816132e5565b82525050565b612a89816132f7565b82525050565b612a988161327d565b82525050565b6000612aa982613134565b612ab3818561314a565b9350612ac3818560208601613318565b612acc81613494565b840191505092915050565b6000612ae282613134565b612aec818561315b565b9350612afc818560208601613318565b80840191505092915050565b6000612b1560208361314a565b9150612b20826134a5565b602082019050919050565b6000612b38601d8361314a565b9150612b43826134ce565b602082019050919050565b6000612b5b60268361314a565b9150612b66826134f7565b604082019050919050565b6000612b7e60168361314a565b9150612b8982613546565b602082019050919050565b6000612ba160188361314a565b9150612bac8261356f565b602082019050919050565b6000612bc4601c8361314a565b9150612bcf82613598565b602082019050919050565b6000612be7602f8361314a565b9150612bf2826135c1565b604082019050919050565b6000612c0a60208361314a565b9150612c1582613610565b602082019050919050565b6000612c2d60008361313f565b9150612c3882613639565b600082019050919050565b6000612c5060178361315b565b9150612c5b8261363c565b601782019050919050565b6000612c7360328361314a565b9150612c7e82613665565b604082019050919050565b6000612c9660118361315b565b9150612ca1826136b4565b601182019050919050565b6000612cb9602f8361314a565b9150612cc4826136dd565b604082019050919050565b612cd8816132aa565b82525050565b6000612ce982612c20565b9150819050919050565b6000612cfe82612c43565b9150612d0a8285612ad7565b9150612d1582612c89565b9150612d218284612ad7565b91508190509392505050565b6000602082019050612d426000830184612a26565b92915050565b600060e082019050612d5d600083018a612a26565b612d6a6020830189612a8f565b612d776040830188612a35565b612d846060830187612a26565b612d916080830186612a71565b612d9e60a0830185612a26565b81810360c0830152612db08184612a9e565b905098975050505050505050565b6000602082019050612dd36000830184612a35565b92915050565b6000602082019050612dee6000830184612a44565b92915050565b6000602082019050612e096000830184612a53565b92915050565b6000602082019050612e246000830184612a62565b92915050565b6000602082019050612e3f6000830184612a8f565b92915050565b600060a082019050612e5a6000830188612a80565b612e676020830187612a26565b612e746040830186612a71565b612e816060830185612a26565b8181036080830152612e938184612a9e565b90509695505050505050565b600060a082019050612eb46000830188612a8f565b612ec16020830187612a26565b612ece6040830186612a71565b612edb6060830185612a26565b8181036080830152612eed8184612a9e565b90509695505050505050565b600060c082019050612f0e6000830189612a8f565b612f1b6020830188612a8f565b612f286040830187612a26565b612f356060830186612a71565b612f426080830185612a26565b81810360a0830152612f548184612a9e565b9050979650505050505050565b60006020820190508181036000830152612f7b8184612a9e565b905092915050565b60006020820190508181036000830152612f9c81612b08565b9050919050565b60006020820190508181036000830152612fbc81612b2b565b9050919050565b60006020820190508181036000830152612fdc81612b4e565b9050919050565b60006020820190508181036000830152612ffc81612b71565b9050919050565b6000602082019050818103600083015261301c81612b94565b9050919050565b6000602082019050818103600083015261303c81612bb7565b9050919050565b6000602082019050818103600083015261305c81612bda565b9050919050565b6000602082019050818103600083015261307c81612bfd565b9050919050565b6000602082019050818103600083015261309c81612c66565b9050919050565b600060208201905081810360008301526130bc81612cac565b9050919050565b60006020820190506130d86000830184612ccf565b92915050565b60006130e86130f9565b90506130f482826133a7565b919050565b6000604051905090565b600067ffffffffffffffff82111561311e5761311d613465565b5b61312782613494565b9050602081019050919050565b600081519050919050565b600081905092915050565b600082825260208201905092915050565b600081905092915050565b6000613171826132aa565b915061317c836132aa565b9250827fffffffffffffffffffffffffffffffffffffffffffffffffffffffffffffffff038211156131b1576131b06133d8565b5b828201905092915050565b60006131c7826132aa565b91506131d2836132aa565b9250817fffffffffffffffffffffffffffffffffffffffffffffffffffffffffffffffff048311821515161561320b5761320a6133d8565b5b828202905092915050565b60006132218261328a565b9050919050565b60008115159050919050565b6000819050919050565b60007fffffffff0000000000000000000000000000000000000000000000000000000082169050919050565b60008190506132788261372c565b919050565b60008160070b9050919050565b600073ffffffffffffffffffffffffffffffffffffffff82169050919050565b6000819050919050565b600060ff82169050919050565b60006132cc826132d3565b9050919050565b60006132de8261328a565b9050919050565b60006132f08261326a565b9050919050565b60006133028261327d565b9050919050565b82818337600083830152505050565b60005b8381101561333657808201518184015260208101905061331b565b83811115613345576000848401525b50505050565b6000613356826132aa565b9150600082141561336a576133696133d8565b5b600182039050919050565b6000600282049050600182168061338d57607f821691505b602082108114156133a1576133a0613436565b5b50919050565b6133b082613494565b810181811067ffffffffffffffff821117156133cf576133ce613465565b5b80604052505050565b7f4e487b7100000000000000000000000000000000000000000000000000000000600052601160045260246000fd5b7f4e487b7100000000000000000000000000000000000000000000000000000000600052602160045260246000fd5b7f4e487b7100000000000000000000000000000000000000000000000000000000600052602260045260246000fd5b7f4e487b7100000000000000000000000000000000000000000000000000000000600052604160045260246000fd5b6000601f19601f8301169050919050565b7f537472696e67733a20686578206c656e67746820696e73756666696369656e74600082015250565b7f5573657220646964206e6f742072656769737472656420696e20544750000000600082015250565b7f4f776e61626c653a206e6577206f776e657220697320746865207a65726f206160008201527f6464726573730000000000000000000000000000000000000000000000000000602082015250565b7f556e61626c6520746f207472616e736665722066656500000000000000000000600082015250565b7f50617373706f727420666565206973206e6f7420706169640000000000000000600082015250565b7f746869732063686174207467696420616c72656164792074616b656e00000000600082015250565b7f436f6e747261637420646f6573206e6f74206d61746368207769746820636f7260008201527f726573706f6e64696e6720747970650000000000000000000000000000000000602082015250565b7f4f776e61626c653a2063616c6c6572206973206e6f7420746865206f776e6572600082015250565b50565b7f416363657373436f6e74726f6c3a206163636f756e7420000000000000000000600082015250565b7f616c726561647920686173206265656e20617070726f766564204f522064696460008201527f6e2774206170706c69656420617420616c6c0000000000000000000000000000602082015250565b7f206973206d697373696e6720726f6c6520000000000000000000000000000000600082015250565b7f416363657373436f6e74726f6c3a2063616e206f6e6c792072656e6f756e636560008201527f20726f6c657320666f722073656c660000000000000000000000000000000000602082015250565b6003811061373d5761373c613407565b5b50565b61374981613216565b811461375457600080fd5b50565b61376081613228565b811461376b57600080fd5b50565b61377781613234565b811461378257600080fd5b50565b61378e8161323e565b811461379957600080fd5b50565b600381106137a957600080fd5b50565b6137b58161327d565b81146137c057600080fd5b50565b6137cc816132aa565b81146137d757600080fd5b50565b6137e3816132b4565b81146137ee57600080fd5b5056fea264697066735822122030e1ba95a9d2bfe3a4d55d1e19379bc5e93117750d284dc084a397076ad7025464736f6c63430008040033",
  "linkReferences": {},
  "deployedLinkReferences": {}
}