{
  "_format": "hh-sol-artifact-1",
  "contractName": "TGPassport",
  "sourceName": "contracts/TGPassport.sol",
  "abi": [
    {
      "inputs": [],
      "stateMutability": "nonpayable",
      "type": "constructor"
    },
    {
      "anonymous": false,
      "inputs": [
        {
          "indexed": true,
          "internalType": "address",
          "name": "previousOwner",
          "type": "address"
        },
        {
          "indexed": true,
          "internalType": "address",
          "name": "newOwner",
          "type": "address"
        }
      ],
      "name": "OwnershipTransferred",
      "type": "event"
    },
    {
      "anonymous": false,
      "inputs": [
        {
          "indexed": false,
          "internalType": "int64",
          "name": "applyerTg",
          "type": "int64"
        },
        {
          "indexed": false,
          "internalType": "address",
          "name": "wallet_address",
          "type": "address"
        }
      ],
      "name": "passportApplied",
      "type": "event"
    },
    {
      "anonymous": false,
      "inputs": [
        {
          "indexed": true,
          "internalType": "int64",
          "name": "applyerTg",
          "type": "int64"
        },
        {
          "indexed": false,
          "internalType": "address",
          "name": "wallet_address",
          "type": "address"
        }
      ],
      "name": "passportAppliedIndexed",
      "type": "event"
    },
    {
      "anonymous": false,
      "inputs": [
        {
          "indexed": false,
          "internalType": "int64",
          "name": "applyerTg",
          "type": "int64"
        },
        {
          "indexed": false,
          "internalType": "address",
          "name": "wallet_address",
          "type": "address"
        },
        {
          "indexed": false,
          "internalType": "address",
          "name": "issuer",
          "type": "address"
        }
      ],
      "name": "passportApproved",
      "type": "event"
    },
    {
      "anonymous": false,
      "inputs": [
        {
          "indexed": false,
          "internalType": "int64",
          "name": "applyerTg",
          "type": "int64"
        },
        {
          "indexed": false,
          "internalType": "address",
          "name": "wallet",
          "type": "address"
        }
      ],
      "name": "passportDenied",
      "type": "event"
    },
    {
      "anonymous": false,
      "inputs": [
        {
          "indexed": false,
          "internalType": "int64",
          "name": "from",
          "type": "int64"
        },
        {
          "indexed": true,
          "internalType": "int64",
          "name": "to",
          "type": "int64"
        }
      ],
      "name": "trustedIndexed",
      "type": "event"
    },
    {
      "anonymous": false,
      "inputs": [
        {
          "indexed": false,
          "internalType": "int64",
          "name": "from",
          "type": "int64"
        },
        {
          "indexed": true,
          "internalType": "int64",
          "name": "to",
          "type": "int64"
        }
      ],
      "name": "untrustedIndexed",
      "type": "event"
    },
    {
      "inputs": [
        {
          "internalType": "int64",
          "name": "applyerTg",
          "type": "int64"
        },
        {
          "internalType": "string",
          "name": "user_name_",
          "type": "string"
        }
      ],
      "name": "ApplyForPassport",
      "outputs": [],
      "stateMutability": "payable",
      "type": "function"
    },
    {
      "inputs": [
        {
          "internalType": "address",
          "name": "passportToApprove",
          "type": "address"
        }
      ],
      "name": "ApprovePassport",
      "outputs": [],
      "stateMutability": "nonpayable",
      "type": "function"
    },
    {
      "inputs": [
        {
          "internalType": "address",
          "name": "passportToDecline",
          "type": "address"
        }
      ],
      "name": "DeclinePassport",
      "outputs": [],
      "stateMutability": "nonpayable",
      "type": "function"
    },
    {
      "inputs": [
        {
          "internalType": "address",
          "name": "passportToDecline",
          "type": "address"
        }
      ],
      "name": "DeletePassport",
      "outputs": [],
      "stateMutability": "nonpayable",
      "type": "function"
    },
    {
      "inputs": [],
      "name": "GetOwner",
      "outputs": [
        {
          "internalType": "address",
          "name": "",
          "type": "address"
        }
      ],
      "stateMutability": "view",
      "type": "function"
    },
    {
      "inputs": [
        {
          "internalType": "address",
          "name": "user_wallet",
          "type": "address"
        }
      ],
      "name": "GetPassportByAddress",
      "outputs": [
        {
          "components": [
            {
              "internalType": "address",
              "name": "userAddress",
              "type": "address"
            },
            {
              "internalType": "int64",
              "name": "tgId",
              "type": "int64"
            },
            {
              "internalType": "bool",
              "name": "valid",
              "type": "bool"
            },
            {
              "internalType": "address",
              "name": "validatorAddress",
              "type": "address"
            },
            {
              "internalType": "string",
              "name": "userName",
              "type": "string"
            }
          ],
          "internalType": "struct TGPassport.Passport",
          "name": "",
          "type": "tuple"
        }
      ],
      "stateMutability": "view",
      "type": "function"
    },
    {
      "inputs": [
        {
          "internalType": "string",
          "name": "user_name_",
          "type": "string"
        }
      ],
      "name": "GetPassportByNickName",
      "outputs": [
        {
          "components": [
            {
              "internalType": "address",
              "name": "userAddress",
              "type": "address"
            },
            {
              "internalType": "int64",
              "name": "tgId",
              "type": "int64"
            },
            {
              "internalType": "bool",
              "name": "valid",
              "type": "bool"
            },
            {
              "internalType": "address",
              "name": "validatorAddress",
              "type": "address"
            },
            {
              "internalType": "string",
              "name": "userName",
              "type": "string"
            }
          ],
          "internalType": "struct TGPassport.Passport",
          "name": "",
          "type": "tuple"
        }
      ],
      "stateMutability": "view",
      "type": "function"
    },
    {
      "inputs": [
        {
          "internalType": "int64",
          "name": "tgId_",
          "type": "int64"
        }
      ],
      "name": "GetPassportByTgId",
      "outputs": [
        {
          "components": [
            {
              "internalType": "address",
              "name": "userAddress",
              "type": "address"
            },
            {
              "internalType": "int64",
              "name": "tgId",
              "type": "int64"
            },
            {
              "internalType": "bool",
              "name": "valid",
              "type": "bool"
            },
            {
              "internalType": "address",
              "name": "validatorAddress",
              "type": "address"
            },
            {
              "internalType": "string",
              "name": "userName",
              "type": "string"
            }
          ],
          "internalType": "struct TGPassport.Passport",
          "name": "",
          "type": "tuple"
        }
      ],
      "stateMutability": "view",
      "type": "function"
    },
    {
      "inputs": [],
      "name": "GetPassportFee",
      "outputs": [
        {
          "internalType": "uint256",
          "name": "",
          "type": "uint256"
        }
      ],
      "stateMutability": "view",
      "type": "function"
    },
    {
      "inputs": [
        {
          "internalType": "int64",
          "name": "tgId_",
          "type": "int64"
        }
      ],
      "name": "GetPassportWalletByID",
      "outputs": [
        {
          "internalType": "address",
          "name": "",
          "type": "address"
        }
      ],
      "stateMutability": "view",
      "type": "function"
    },
    {
      "inputs": [
        {
          "internalType": "address",
          "name": "user_wallet",
          "type": "address"
        }
      ],
      "name": "GetTgIdByAddress",
      "outputs": [
        {
          "internalType": "int64",
          "name": "tgid",
          "type": "int64"
        }
      ],
      "stateMutability": "view",
      "type": "function"
    },
    {
      "inputs": [
        {
          "internalType": "int64",
          "name": "from",
          "type": "int64"
        },
        {
          "internalType": "int64",
          "name": "to",
          "type": "int64"
        }
      ],
      "name": "GetTrust",
      "outputs": [
        {
          "internalType": "bool",
          "name": "",
          "type": "bool"
        }
      ],
      "stateMutability": "view",
      "type": "function"
    },
    {
      "inputs": [
        {
          "internalType": "string",
          "name": "user_name_",
          "type": "string"
        }
      ],
      "name": "GetWalletByNickName",
      "outputs": [
        {
          "internalType": "address",
          "name": "",
          "type": "address"
        }
      ],
      "stateMutability": "view",
      "type": "function"
    },
    {
      "inputs": [
        {
          "internalType": "address",
          "name": "enemy_address",
          "type": "address"
        }
      ],
      "name": "INOTTrustAddress",
      "outputs": [],
      "stateMutability": "nonpayable",
      "type": "function"
    },
    {
      "inputs": [
        {
          "internalType": "string",
          "name": "my_username",
          "type": "string"
        },
        {
          "internalType": "string",
          "name": "enemy_name",
          "type": "string"
        }
      ],
      "name": "INOTTrustUsername",
      "outputs": [],
      "stateMutability": "nonpayable",
      "type": "function"
    },
    {
      "inputs": [
        {
          "internalType": "int64",
          "name": "from",
          "type": "int64"
        },
        {
          "internalType": "int64",
          "name": "to",
          "type": "int64"
        }
      ],
      "name": "INotTrustID",
      "outputs": [],
      "stateMutability": "nonpayable",
      "type": "function"
    },
    {
      "inputs": [
        {
          "internalType": "address",
          "name": "friend_address",
          "type": "address"
        }
      ],
      "name": "ITrustAddress",
      "outputs": [],
      "stateMutability": "nonpayable",
      "type": "function"
    },
    {
      "inputs": [
        {
          "internalType": "int64",
          "name": "from",
          "type": "int64"
        },
        {
          "internalType": "int64",
          "name": "to",
          "type": "int64"
        }
      ],
      "name": "ITrustID",
      "outputs": [],
      "stateMutability": "nonpayable",
      "type": "function"
    },
    {
      "inputs": [
        {
          "internalType": "string",
          "name": "my_username",
          "type": "string"
        },
        {
          "internalType": "string",
          "name": "friend_name",
          "type": "string"
        }
      ],
      "name": "ITrustUsername",
      "outputs": [],
      "stateMutability": "nonpayable",
      "type": "function"
    },
    {
      "inputs": [
        {
          "internalType": "uint256",
          "name": "passportFee_",
          "type": "uint256"
        }
      ],
      "name": "SetPassportFee",
      "outputs": [],
      "stateMutability": "nonpayable",
      "type": "function"
    },
    {
      "inputs": [
        {
          "internalType": "string",
          "name": "new_user_name_",
          "type": "string"
        }
      ],
      "name": "UpdateUserName",
      "outputs": [],
      "stateMutability": "nonpayable",
      "type": "function"
    },
    {
      "inputs": [
        {
          "internalType": "int64",
          "name": "",
          "type": "int64"
        },
        {
          "internalType": "uint256",
          "name": "",
          "type": "uint256"
        }
      ],
      "name": "opinion_changed",
      "outputs": [
        {
          "internalType": "int64",
          "name": "",
          "type": "int64"
        }
      ],
      "stateMutability": "view",
      "type": "function"
    },
    {
      "inputs": [],
      "name": "owner",
      "outputs": [
        {
          "internalType": "address",
          "name": "",
          "type": "address"
        }
      ],
      "stateMutability": "view",
      "type": "function"
    },
    {
      "inputs": [
        {
          "internalType": "address",
          "name": "",
          "type": "address"
        }
      ],
      "name": "passports",
      "outputs": [
        {
          "internalType": "address",
          "name": "userAddress",
          "type": "address"
        },
        {
          "internalType": "int64",
          "name": "tgId",
          "type": "int64"
        },
        {
          "internalType": "bool",
          "name": "valid",
          "type": "bool"
        },
        {
          "internalType": "address",
          "name": "validatorAddress",
          "type": "address"
        },
        {
          "internalType": "string",
          "name": "userName",
          "type": "string"
        }
      ],
      "stateMutability": "view",
      "type": "function"
    },
    {
      "inputs": [],
      "name": "renounceOwnership",
      "outputs": [],
      "stateMutability": "nonpayable",
      "type": "function"
    },
    {
      "inputs": [
        {
          "internalType": "int64",
          "name": "",
          "type": "int64"
        }
      ],
      "name": "tgIdToAddress",
      "outputs": [
        {
          "internalType": "address",
          "name": "",
          "type": "address"
        }
      ],
      "stateMutability": "view",
      "type": "function"
    },
    {
      "inputs": [
        {
          "internalType": "address",
          "name": "newOwner",
          "type": "address"
        }
      ],
      "name": "transferOwnership",
      "outputs": [],
      "stateMutability": "nonpayable",
      "type": "function"
    },
    {
      "inputs": [
        {
          "internalType": "int64",
          "name": "",
          "type": "int64"
        },
        {
          "internalType": "int64",
          "name": "",
          "type": "int64"
        }
      ],
      "name": "trust_global",
      "outputs": [
        {
          "internalType": "bool",
          "name": "",
          "type": "bool"
        }
      ],
      "stateMutability": "view",
      "type": "function"
    },
    {
      "inputs": [
        {
          "internalType": "string",
          "name": "",
          "type": "string"
        }
      ],
      "name": "username_wallets",
      "outputs": [
        {
          "internalType": "address",
          "name": "",
          "type": "address"
        }
      ],
      "stateMutability": "view",
      "type": "function"
    }
  ],
  "bytecode": "0x60806040523480156200001157600080fd5b5062000032620000266200009160201b60201c565b6200009960201b60201c565b6103e86001819055506200004b6200015d60201b60201c565b600260006101000a81548173ffffffffffffffffffffffffffffffffffffffff021916908373ffffffffffffffffffffffffffffffffffffffff16021790555062000186565b600033905090565b60008060009054906101000a900473ffffffffffffffffffffffffffffffffffffffff169050816000806101000a81548173ffffffffffffffffffffffffffffffffffffffff021916908373ffffffffffffffffffffffffffffffffffffffff1602179055508173ffffffffffffffffffffffffffffffffffffffff168173ffffffffffffffffffffffffffffffffffffffff167f8be0079c531659141344cd1fd0a4f28419497f9722a3daafe3b4186f6b6457e060405160405180910390a35050565b60008060009054906101000a900473ffffffffffffffffffffffffffffffffffffffff16905090565b613ef780620001966000396000f3fe6080604052600436106101c25760003560e01c806368789cea116100f7578063b25047c211610095578063dca2888411610064578063dca288841461068b578063e37c132b146106b4578063e5122bab146106f5578063f2fde38b1461071e576101c2565b8063b25047c2146105cc578063d2114e1814610609578063d2125bd214610646578063d5998aeb1461066f576101c2565b806387234689116100d157806387234689146105125780638da5cb5b1461053b5780639413c642146105665780639421da61146105a3576101c2565b806368789cea146104955780636a8ec05e146104be578063715018a6146104fb576101c2565b80634ac054bb116101645780635ddf30d01161013e5780635ddf30d0146103c957806361cabe37146103f257806365104afc1461042f57806365a5637e14610458576101c2565b80634ac054bb1461032657806359cca93b146103635780635c962dfc146103a0576101c2565b80631755e9e6116101a05780631755e9e61461026c57806321e6531d14610295578063239f60fa146102be57806348dc1561146102fb576101c2565b80630ae50a39146101c75780630c2fc6e3146101f25780631423ea071461022f575b600080fd5b3480156101d357600080fd5b506101dc610747565b6040516101e99190613647565b60405180910390f35b3480156101fe57600080fd5b5061021960048036038101906102149190613107565b610771565b6040516102269190613647565b60405180910390f35b34801561023b57600080fd5b50610256600480360381019061025191906130de565b6107b4565b60405161026391906138d2565b60405180910390f35b34801561027857600080fd5b50610293600480360381019061028e91906130de565b610989565b005b3480156102a157600080fd5b506102bc60048036038101906102b791906131fc565b610dd7565b005b3480156102ca57600080fd5b506102e560048036038101906102e09190613130565b610fa3565b6040516102f291906136bc565b60405180910390f35b34801561030757600080fd5b50610310610fd2565b60405161031d91906138f4565b60405180910390f35b34801561033257600080fd5b5061034d60048036038101906103489190613130565b610fdc565b60405161035a91906136bc565b60405180910390f35b34801561036f57600080fd5b5061038a600480360381019061038591906131fc565b611024565b6040516103979190613647565b60405180910390f35b3480156103ac57600080fd5b506103c760048036038101906103c29190613130565b61106d565b005b3480156103d557600080fd5b506103f060048036038101906103eb91906130de565b6111ac565b005b3480156103fe57600080fd5b50610419600480360381019061041491906130de565b61130c565b60405161042691906136d7565b60405180910390f35b34801561043b57600080fd5b50610456600480360381019061045191906130de565b611327565b005b34801561046457600080fd5b5061047f600480360381019061047a9190613107565b611699565b60405161048c91906138d2565b60405180910390f35b3480156104a157600080fd5b506104bc60048036038101906104b7919061323d565b61187c565b005b3480156104ca57600080fd5b506104e560048036038101906104e091906131c0565b611a94565b6040516104f291906136d7565b60405180910390f35b34801561050757600080fd5b50610510611ada565b005b34801561051e57600080fd5b506105396004803603810190610534919061323d565b611b62565b005b34801561054757600080fd5b50610550611d7a565b60405161055d9190613647565b60405180910390f35b34801561057257600080fd5b5061058d60048036038101906105889190613107565b611da3565b60405161059a9190613647565b60405180910390f35b3480156105af57600080fd5b506105ca60048036038101906105c591906130de565b611dd6565b005b3480156105d857600080fd5b506105f360048036038101906105ee91906131fc565b612195565b60405161060091906138d2565b60405180910390f35b34801561061557600080fd5b50610630600480360381019061062b91906131fc565b612378565b60405161063d9190613647565b60405180910390f35b34801561065257600080fd5b5061066d600480360381019061066891906132a9565b6123c0565b005b6106896004803603810190610684919061316c565b612446565b005b34801561069757600080fd5b506106b260048036038101906106ad9190613130565b61277d565b005b3480156106c057600080fd5b506106db60048036038101906106d691906130de565b6128bc565b6040516106ec959493929190613662565b60405180910390f35b34801561070157600080fd5b5061071c600480360381019061071791906130de565b6129d4565b005b34801561072a57600080fd5b50610745600480360381019061074091906130de565b612b34565b005b6000600260009054906101000a900473ffffffffffffffffffffffffffffffffffffffff16905090565b6000600360008360070b60070b815260200190815260200160002060009054906101000a900473ffffffffffffffffffffffffffffffffffffffff169050919050565b6107bc612ef4565b6000600460008473ffffffffffffffffffffffffffffffffffffffff1673ffffffffffffffffffffffffffffffffffffffff1681526020019081526020016000206040518060a00160405290816000820160009054906101000a900473ffffffffffffffffffffffffffffffffffffffff1673ffffffffffffffffffffffffffffffffffffffff1673ffffffffffffffffffffffffffffffffffffffff1681526020016000820160149054906101000a900460070b60070b60070b815260200160008201601c9054906101000a900460ff161515151581526020016001820160009054906101000a900473ffffffffffffffffffffffffffffffffffffffff1673ffffffffffffffffffffffffffffffffffffffff1673ffffffffffffffffffffffffffffffffffffffff1681526020016002820180546108fc90613a3f565b80601f016020809104026020016040519081016040528092919081815260200182805461092890613a3f565b80156109755780601f1061094a57610100808354040283529160200191610975565b820191906000526020600020905b81548152906001019060200180831161095857829003601f168201915b505050505081525050905080915050919050565b610991612c2c565b73ffffffffffffffffffffffffffffffffffffffff166109af611d7a565b73ffffffffffffffffffffffffffffffffffffffff1614610a05576040517f08c379a00000000000000000000000000000000000000000000000000000000081526004016109fc90613832565b60405180910390fd5b6000600460008373ffffffffffffffffffffffffffffffffffffffff1673ffffffffffffffffffffffffffffffffffffffff16815260200190815260200160002060000160149054906101000a900460070b90506000600460008473ffffffffffffffffffffffffffffffffffffffff1673ffffffffffffffffffffffffffffffffffffffff1681526020019081526020016000206002018054610aa890613a3f565b80601f0160208091040260200160405190810160405280929190818152602001828054610ad490613a3f565b8015610b215780601f10610af657610100808354040283529160200191610b21565b820191906000526020600020905b815481529060010190602001808311610b0457829003601f168201915b5050505050905060001515600460008573ffffffffffffffffffffffffffffffffffffffff1673ffffffffffffffffffffffffffffffffffffffff168152602001908152602001600020600001601c9054906101000a900460ff16151514610bbe576040517f08c379a0000000000000000000000000000000000000000000000000000000008152600401610bb5906138b2565b60405180910390fd5b60011515600660008460070b60070b815260200190815260200160002060008460070b60070b815260200190815260200160002060009054906101000a905050506040518060a001604052808473ffffffffffffffffffffffffffffffffffffffff1681526020018360070b81526020016001151581526020013373ffffffffffffffffffffffffffffffffffffffff16815260200182815250600460008573ffffffffffffffffffffffffffffffffffffffff1673ffffffffffffffffffffffffffffffffffffffff16815260200190815260200160002060008201518160000160006101000a81548173ffffffffffffffffffffffffffffffffffffffff021916908373ffffffffffffffffffffffffffffffffffffffff16021790555060208201518160000160146101000a81548167ffffffffffffffff021916908360070b67ffffffffffffffff160217905550604082015181600001601c6101000a81548160ff02191690831515021790555060608201518160010160006101000a81548173ffffffffffffffffffffffffffffffffffffffff021916908373ffffffffffffffffffffffffffffffffffffffff1602179055506080820151816002019080519060200190610d93929190612f54565b509050507fddda54aebd53f1c2d3f35d7107ddd15f71b313a804dda2179cded44927110cd0828433604051610dca9392919061371b565b60405180910390a1505050565b6000610de2336107b4565b90503373ffffffffffffffffffffffffffffffffffffffff16816000015173ffffffffffffffffffffffffffffffffffffffff1614610e56576040517f08c379a0000000000000000000000000000000000000000000000000000000008152600401610e4d906137f2565b60405180910390fd5b81816080018190525080600460003373ffffffffffffffffffffffffffffffffffffffff1673ffffffffffffffffffffffffffffffffffffffff16815260200190815260200160002060008201518160000160006101000a81548173ffffffffffffffffffffffffffffffffffffffff021916908373ffffffffffffffffffffffffffffffffffffffff16021790555060208201518160000160146101000a81548167ffffffffffffffff021916908360070b67ffffffffffffffff160217905550604082015181600001601c6101000a81548160ff02191690831515021790555060608201518160010160006101000a81548173ffffffffffffffffffffffffffffffffffffffff021916908373ffffffffffffffffffffffffffffffffffffffff1602179055506080820151816002019080519060200190610f9b929190612f54565b509050505050565b60066020528160005260406000206020528060005260406000206000915091509054906101000a900460ff1681565b6000600154905090565b6000600660008460070b60070b815260200190815260200160002060008360070b60070b815260200190815260200160002060009054906101000a900460ff16905092915050565b6005818051602081018201805184825260208301602085012081835280955050505050506000915054906101000a900473ffffffffffffffffffffffffffffffffffffffff1681565b600061107883611699565b90506000816000015190503373ffffffffffffffffffffffffffffffffffffffff168173ffffffffffffffffffffffffffffffffffffffff16146110f1576040517f08c379a00000000000000000000000000000000000000000000000000000000081526004016110e8906137d2565b60405180910390fd5b6110fb8484612c34565b600760008560070b60070b81526020019081526020016000208390806001815401808255809150506001900390600052602060002090600491828204019190066008029091909190916101000a81548167ffffffffffffffff021916908360070b67ffffffffffffffff1602179055508260070b7f72ea88320a14be91b677bb10d77500a955301d37422909c3ad479fcf35e100938560405161119e91906136d7565b60405180910390a250505050565b60006111b7336107b4565b90506000816000015190503373ffffffffffffffffffffffffffffffffffffffff168173ffffffffffffffffffffffffffffffffffffffff1614611230576040517f08c379a0000000000000000000000000000000000000000000000000000000008152600401611227906137d2565b60405180910390fd5b6000826020015190506000611244856107b4565b90506000816020015190506112598382612c34565b600760008460070b60070b81526020019081526020016000208190806001815401808255809150506001900390600052602060002090600491828204019190066008029091909190916101000a81548167ffffffffffffffff021916908360070b67ffffffffffffffff1602179055508060070b7f72ea88320a14be91b677bb10d77500a955301d37422909c3ad479fcf35e10093846040516112fc91906136d7565b60405180910390a2505050505050565b600080611318836107b4565b90508060200151915050919050565b61132f612c2c565b73ffffffffffffffffffffffffffffffffffffffff1661134d611d7a565b73ffffffffffffffffffffffffffffffffffffffff16146113a3576040517f08c379a000000000000000000000000000000000000000000000000000000000815260040161139a90613832565b60405180910390fd5b6000600460008373ffffffffffffffffffffffffffffffffffffffff1673ffffffffffffffffffffffffffffffffffffffff16815260200190815260200160002060000160149054906101000a900460070b90506000600460008473ffffffffffffffffffffffffffffffffffffffff1673ffffffffffffffffffffffffffffffffffffffff168152602001908152602001600020600201805461144690613a3f565b80601f016020809104026020016040519081016040528092919081815260200182805461147290613a3f565b80156114bf5780601f10611494576101008083540402835291602001916114bf565b820191906000526020600020905b8154815290600101906020018083116114a257829003601f168201915b5050505050905060004690506005811461150e576040517f08c379a000000000000000000000000000000000000000000000000000000000815260040161150590613872565b60405180910390fd5b600460008573ffffffffffffffffffffffffffffffffffffffff1673ffffffffffffffffffffffffffffffffffffffff168152602001908152602001600020600080820160006101000a81549073ffffffffffffffffffffffffffffffffffffffff02191690556000820160146101000a81549067ffffffffffffffff021916905560008201601c6101000a81549060ff02191690556001820160006101000a81549073ffffffffffffffffffffffffffffffffffffffff02191690556002820160006115db9190612fda565b5050600360008460070b60070b815260200190815260200160002060006101000a81549073ffffffffffffffffffffffffffffffffffffffff0219169055600582604051611629919061361b565b908152602001604051809103902060006101000a81549073ffffffffffffffffffffffffffffffffffffffff02191690557f0511bec3ed97c7099362d7e7b0ed4fe8afe6f448a0dcf73f258be48dceb302db838560405161168b9291906136f2565b60405180910390a150505050565b6116a1612ef4565b60006116ac83610771565b90506000600460008373ffffffffffffffffffffffffffffffffffffffff1673ffffffffffffffffffffffffffffffffffffffff1681526020019081526020016000206040518060a00160405290816000820160009054906101000a900473ffffffffffffffffffffffffffffffffffffffff1673ffffffffffffffffffffffffffffffffffffffff1673ffffffffffffffffffffffffffffffffffffffff1681526020016000820160149054906101000a900460070b60070b60070b815260200160008201601c9054906101000a900460ff161515151581526020016001820160009054906101000a900473ffffffffffffffffffffffffffffffffffffffff1673ffffffffffffffffffffffffffffffffffffffff1673ffffffffffffffffffffffffffffffffffffffff1681526020016002820180546117ee90613a3f565b80601f016020809104026020016040519081016040528092919081815260200182805461181a90613a3f565b80156118675780601f1061183c57610100808354040283529160200191611867565b820191906000526020600020905b81548152906001019060200180831161184a57829003601f168201915b50505050508152505090508092505050919050565b600061188783612195565b90506000816000015190503373ffffffffffffffffffffffffffffffffffffffff168173ffffffffffffffffffffffffffffffffffffffff1614611900576040517f08c379a00000000000000000000000000000000000000000000000000000000081526004016118f790613812565b60405180910390fd5b600082602001519050600061191485612195565b90506000816000015190506000826020015190508173ffffffffffffffffffffffffffffffffffffffff16600360008360070b60070b815260200190815260200160002060009054906101000a900473ffffffffffffffffffffffffffffffffffffffff1673ffffffffffffffffffffffffffffffffffffffff16146119cf576040517f08c379a00000000000000000000000000000000000000000000000000000000081526004016119c690613892565b60405180910390fd5b60008190506119de8582612c81565b600760008660070b60070b81526020019081526020016000208190806001815401808255809150506001900390600052602060002090600491828204019190066008029091909190916101000a81548167ffffffffffffffff021916908360070b67ffffffffffffffff1602179055508060070b7fc6910544ad28778f5982555eae73efab16f145f0e382250ac13db569707ca1cf86604051611a8191906136d7565b60405180910390a2505050505050505050565b60076020528160005260406000208181548110611ab057600080fd5b9060005260206000209060049182820401919006600802915091509054906101000a900460070b81565b611ae2612c2c565b73ffffffffffffffffffffffffffffffffffffffff16611b00611d7a565b73ffffffffffffffffffffffffffffffffffffffff1614611b56576040517f08c379a0000000000000000000000000000000000000000000000000000000008152600401611b4d90613832565b60405180910390fd5b611b606000612cce565b565b6000611b6d83612195565b90506000816000015190503373ffffffffffffffffffffffffffffffffffffffff168173ffffffffffffffffffffffffffffffffffffffff1614611be6576040517f08c379a0000000000000000000000000000000000000000000000000000000008152600401611bdd90613812565b60405180910390fd5b6000826020015190506000611bfa85612195565b90506000816000015190506000826020015190508173ffffffffffffffffffffffffffffffffffffffff16600360008360070b60070b815260200190815260200160002060009054906101000a900473ffffffffffffffffffffffffffffffffffffffff1673ffffffffffffffffffffffffffffffffffffffff1614611cb5576040517f08c379a0000000000000000000000000000000000000000000000000000000008152600401611cac90613852565b60405180910390fd5b6000819050611cc48582612c34565b600760008660070b60070b81526020019081526020016000208190806001815401808255809150506001900390600052602060002090600491828204019190066008029091909190916101000a81548167ffffffffffffffff021916908360070b67ffffffffffffffff1602179055508060070b7f72ea88320a14be91b677bb10d77500a955301d37422909c3ad479fcf35e1009386604051611d6791906136d7565b60405180910390a2505050505050505050565b60008060009054906101000a900473ffffffffffffffffffffffffffffffffffffffff16905090565b60036020528060005260406000206000915054906101000a900473ffffffffffffffffffffffffffffffffffffffff1681565b611dde612c2c565b73ffffffffffffffffffffffffffffffffffffffff16611dfc611d7a565b73ffffffffffffffffffffffffffffffffffffffff1614611e52576040517f08c379a0000000000000000000000000000000000000000000000000000000008152600401611e4990613832565b60405180910390fd5b6000600460008373ffffffffffffffffffffffffffffffffffffffff1673ffffffffffffffffffffffffffffffffffffffff16815260200190815260200160002060000160149054906101000a900460070b90506000600460008473ffffffffffffffffffffffffffffffffffffffff1673ffffffffffffffffffffffffffffffffffffffff1681526020019081526020016000206002018054611ef590613a3f565b80601f0160208091040260200160405190810160405280929190818152602001828054611f2190613a3f565b8015611f6e5780601f10611f4357610100808354040283529160200191611f6e565b820191906000526020600020905b815481529060010190602001808311611f5157829003601f168201915b5050505050905060001515600460008573ffffffffffffffffffffffffffffffffffffffff1673ffffffffffffffffffffffffffffffffffffffff168152602001908152602001600020600001601c9054906101000a900460ff1615151461200b576040517f08c379a0000000000000000000000000000000000000000000000000000000008152600401612002906138b2565b60405180910390fd5b600460008473ffffffffffffffffffffffffffffffffffffffff1673ffffffffffffffffffffffffffffffffffffffff168152602001908152602001600020600080820160006101000a81549073ffffffffffffffffffffffffffffffffffffffff02191690556000820160146101000a81549067ffffffffffffffff021916905560008201601c6101000a81549060ff02191690556001820160006101000a81549073ffffffffffffffffffffffffffffffffffffffff02191690556002820160006120d89190612fda565b5050600360008360070b60070b815260200190815260200160002060006101000a81549073ffffffffffffffffffffffffffffffffffffffff0219169055600581604051612126919061361b565b908152602001604051809103902060006101000a81549073ffffffffffffffffffffffffffffffffffffffff02191690557f0511bec3ed97c7099362d7e7b0ed4fe8afe6f448a0dcf73f258be48dceb302db82846040516121889291906136f2565b60405180910390a1505050565b61219d612ef4565b60006121a883612378565b90506000600460008373ffffffffffffffffffffffffffffffffffffffff1673ffffffffffffffffffffffffffffffffffffffff1681526020019081526020016000206040518060a00160405290816000820160009054906101000a900473ffffffffffffffffffffffffffffffffffffffff1673ffffffffffffffffffffffffffffffffffffffff1673ffffffffffffffffffffffffffffffffffffffff1681526020016000820160149054906101000a900460070b60070b60070b815260200160008201601c9054906101000a900460ff161515151581526020016001820160009054906101000a900473ffffffffffffffffffffffffffffffffffffffff1673ffffffffffffffffffffffffffffffffffffffff1673ffffffffffffffffffffffffffffffffffffffff1681526020016002820180546122ea90613a3f565b80601f016020809104026020016040519081016040528092919081815260200182805461231690613a3f565b80156123635780601f1061233857610100808354040283529160200191612363565b820191906000526020600020905b81548152906001019060200180831161234657829003601f168201915b50505050508152505090508092505050919050565b600060058260405161238a919061361b565b908152602001604051809103902060009054906101000a900473ffffffffffffffffffffffffffffffffffffffff169050919050565b6123c8612c2c565b73ffffffffffffffffffffffffffffffffffffffff166123e6611d7a565b73ffffffffffffffffffffffffffffffffffffffff161461243c576040517f08c379a000000000000000000000000000000000000000000000000000000000815260040161243390613832565b60405180910390fd5b8060018190555050565b6000339050612456838284612d92565b600154341461249a576040517f08c379a0000000000000000000000000000000000000000000000000000000008152600401612491906137b2565b60405180910390fd5b6040518060a001604052808273ffffffffffffffffffffffffffffffffffffffff1681526020018460070b8152602001600015158152602001600073ffffffffffffffffffffffffffffffffffffffff16815260200183815250600460003373ffffffffffffffffffffffffffffffffffffffff1673ffffffffffffffffffffffffffffffffffffffff16815260200190815260200160002060008201518160000160006101000a81548173ffffffffffffffffffffffffffffffffffffffff021916908373ffffffffffffffffffffffffffffffffffffffff16021790555060208201518160000160146101000a81548167ffffffffffffffff021916908360070b67ffffffffffffffff160217905550604082015181600001601c6101000a81548160ff02191690831515021790555060608201518160010160006101000a81548173ffffffffffffffffffffffffffffffffffffffff021916908373ffffffffffffffffffffffffffffffffffffffff160217905550608082015181600201908051906020019061262f929190612f54565b509050507fcb042d04619e497175f63ce8ec9b9127cb0bf344facc37db4fe8492c2ecfbb9e83336040516126649291906136f2565b60405180910390a18260070b7f2d329f0d038ded94203a58e5be2f2f41b14cbbc49cc1f89443696606f104658c3360405161269f9190613647565b60405180910390a26000600260009054906101000a900473ffffffffffffffffffffffffffffffffffffffff1673ffffffffffffffffffffffffffffffffffffffff166001546040516126f190613632565b60006040518083038185875af1925050503d806000811461272e576040519150601f19603f3d011682016040523d82523d6000602084013e612733565b606091505b5050905080612777576040517f08c379a000000000000000000000000000000000000000000000000000000000815260040161276e90613772565b60405180910390fd5b50505050565b600061278883611699565b90506000816000015190503373ffffffffffffffffffffffffffffffffffffffff168173ffffffffffffffffffffffffffffffffffffffff1614612801576040517f08c379a00000000000000000000000000000000000000000000000000000000081526004016127f8906137d2565b60405180910390fd5b61280b8484612c81565b600760008560070b60070b81526020019081526020016000208390806001815401808255809150506001900390600052602060002090600491828204019190066008029091909190916101000a81548167ffffffffffffffff021916908360070b67ffffffffffffffff1602179055508260070b7fc6910544ad28778f5982555eae73efab16f145f0e382250ac13db569707ca1cf856040516128ae91906136d7565b60405180910390a250505050565b60046020528060005260406000206000915090508060000160009054906101000a900473ffffffffffffffffffffffffffffffffffffffff16908060000160149054906101000a900460070b9080600001601c9054906101000a900460ff16908060010160009054906101000a900473ffffffffffffffffffffffffffffffffffffffff169080600201805461295190613a3f565b80601f016020809104026020016040519081016040528092919081815260200182805461297d90613a3f565b80156129ca5780601f1061299f576101008083540402835291602001916129ca565b820191906000526020600020905b8154815290600101906020018083116129ad57829003601f168201915b5050505050905085565b60006129df336107b4565b90506000816000015190503373ffffffffffffffffffffffffffffffffffffffff168173ffffffffffffffffffffffffffffffffffffffff1614612a58576040517f08c379a0000000000000000000000000000000000000000000000000000000008152600401612a4f906137d2565b60405180910390fd5b6000826020015190506000612a6c856107b4565b9050600081602001519050612a818382612c81565b600760008460070b60070b81526020019081526020016000208190806001815401808255809150506001900390600052602060002090600491828204019190066008029091909190916101000a81548167ffffffffffffffff021916908360070b67ffffffffffffffff1602179055508060070b7fc6910544ad28778f5982555eae73efab16f145f0e382250ac13db569707ca1cf84604051612b2491906136d7565b60405180910390a2505050505050565b612b3c612c2c565b73ffffffffffffffffffffffffffffffffffffffff16612b5a611d7a565b73ffffffffffffffffffffffffffffffffffffffff1614612bb0576040517f08c379a0000000000000000000000000000000000000000000000000000000008152600401612ba790613832565b60405180910390fd5b600073ffffffffffffffffffffffffffffffffffffffff168173ffffffffffffffffffffffffffffffffffffffff161415612c20576040517f08c379a0000000000000000000000000000000000000000000000000000000008152600401612c1790613752565b60405180910390fd5b612c2981612cce565b50565b600033905090565b6000600660008460070b60070b815260200190815260200160002060008360070b60070b815260200190815260200160002060006101000a81548160ff0219169083151502179055505050565b6001600660008460070b60070b815260200190815260200160002060008360070b60070b815260200190815260200160002060006101000a81548160ff0219169083151502179055505050565b60008060009054906101000a900473ffffffffffffffffffffffffffffffffffffffff169050816000806101000a81548173ffffffffffffffffffffffffffffffffffffffff021916908373ffffffffffffffffffffffffffffffffffffffff1602179055508173ffffffffffffffffffffffffffffffffffffffff168173ffffffffffffffffffffffffffffffffffffffff167f8be0079c531659141344cd1fd0a4f28419497f9722a3daafe3b4186f6b6457e060405160405180910390a35050565b600073ffffffffffffffffffffffffffffffffffffffff16600360008560070b60070b815260200190815260200160002060009054906101000a900473ffffffffffffffffffffffffffffffffffffffff1673ffffffffffffffffffffffffffffffffffffffff1614612e3a576040517f08c379a0000000000000000000000000000000000000000000000000000000008152600401612e3190613792565b60405180910390fd5b81600360008560070b60070b815260200190815260200160002060006101000a81548173ffffffffffffffffffffffffffffffffffffffff021916908373ffffffffffffffffffffffffffffffffffffffff16021790555081600582604051612ea3919061361b565b908152602001604051809103902060006101000a81548173ffffffffffffffffffffffffffffffffffffffff021916908373ffffffffffffffffffffffffffffffffffffffff160217905550505050565b6040518060a00160405280600073ffffffffffffffffffffffffffffffffffffffff168152602001600060070b8152602001600015158152602001600073ffffffffffffffffffffffffffffffffffffffff168152602001606081525090565b828054612f6090613a3f565b90600052602060002090601f016020900481019282612f825760008555612fc9565b82601f10612f9b57805160ff1916838001178555612fc9565b82800160010185558215612fc9579182015b82811115612fc8578251825591602001919060010190612fad565b5b509050612fd6919061301a565b5090565b508054612fe690613a3f565b6000825580601f10612ff85750613017565b601f016020900490600052602060002090810190613016919061301a565b5b50565b5b8082111561303357600081600090555060010161301b565b5090565b600061304a61304584613934565b61390f565b90508281526020810184848401111561306257600080fd5b61306d8482856139fd565b509392505050565b60008135905061308481613e7c565b92915050565b60008135905061309981613e93565b92915050565b600082601f8301126130b057600080fd5b81356130c0848260208601613037565b91505092915050565b6000813590506130d881613eaa565b92915050565b6000602082840312156130f057600080fd5b60006130fe84828501613075565b91505092915050565b60006020828403121561311957600080fd5b60006131278482850161308a565b91505092915050565b6000806040838503121561314357600080fd5b60006131518582860161308a565b92505060206131628582860161308a565b9150509250929050565b6000806040838503121561317f57600080fd5b600061318d8582860161308a565b925050602083013567ffffffffffffffff8111156131aa57600080fd5b6131b68582860161309f565b9150509250929050565b600080604083850312156131d357600080fd5b60006131e18582860161308a565b92505060206131f2858286016130c9565b9150509250929050565b60006020828403121561320e57600080fd5b600082013567ffffffffffffffff81111561322857600080fd5b6132348482850161309f565b91505092915050565b6000806040838503121561325057600080fd5b600083013567ffffffffffffffff81111561326a57600080fd5b6132768582860161309f565b925050602083013567ffffffffffffffff81111561329357600080fd5b61329f8582860161309f565b9150509250929050565b6000602082840312156132bb57600080fd5b60006132c9848285016130c9565b91505092915050565b6132db816139a8565b82525050565b6132ea816139a8565b82525050565b6132f9816139ba565b82525050565b613308816139ba565b82525050565b613317816139c6565b82525050565b613326816139c6565b82525050565b600061333782613965565b613341818561397b565b9350613351818560208601613a0c565b61335a81613b00565b840191505092915050565b600061337082613965565b61337a818561398c565b935061338a818560208601613a0c565b61339381613b00565b840191505092915050565b60006133a982613965565b6133b3818561399d565b93506133c3818560208601613a0c565b80840191505092915050565b60006133dc60268361398c565b91506133e782613b11565b604082019050919050565b60006133ff60168361398c565b915061340a82613b60565b602082019050919050565b600061342260308361398c565b915061342d82613b89565b604082019050919050565b600061344560188361398c565b915061345082613bd8565b602082019050919050565b600061346860408361398c565b915061347382613c01565b604082019050919050565b600061348b601f8361398c565b915061349682613c50565b602082019050919050565b60006134ae602c8361398c565b91506134b982613c79565b604082019050919050565b60006134d160208361398c565b91506134dc82613cc8565b602082019050919050565b60006134f4604a8361398c565b91506134ff82613cf1565b606082019050919050565b600061351760258361398c565b915061352282613d66565b604082019050919050565b600061353a60468361398c565b915061354582613db5565b606082019050919050565b600061355d60258361398c565b915061356882613e2a565b604082019050919050565b6000613580600083613970565b915061358b82613e79565b600082019050919050565b600060a0830160008301516135ae60008601826132d2565b5060208301516135c1602086018261330e565b5060408301516135d460408601826132f0565b5060608301516135e760608601826132d2565b50608083015184820360808601526135ff828261332c565b9150508091505092915050565b613615816139f3565b82525050565b6000613627828461339e565b915081905092915050565b600061363d82613573565b9150819050919050565b600060208201905061365c60008301846132e1565b92915050565b600060a08201905061367760008301886132e1565b613684602083018761331d565b61369160408301866132ff565b61369e60608301856132e1565b81810360808301526136b08184613365565b90509695505050505050565b60006020820190506136d160008301846132ff565b92915050565b60006020820190506136ec600083018461331d565b92915050565b6000604082019050613707600083018561331d565b61371460208301846132e1565b9392505050565b6000606082019050613730600083018661331d565b61373d60208301856132e1565b61374a60408301846132e1565b949350505050565b6000602082019050818103600083015261376b816133cf565b9050919050565b6000602082019050818103600083015261378b816133f2565b9050919050565b600060208201905081810360008301526137ab81613415565b9050919050565b600060208201905081810360008301526137cb81613438565b9050919050565b600060208201905081810360008301526137eb8161345b565b9050919050565b6000602082019050818103600083015261380b8161347e565b9050919050565b6000602082019050818103600083015261382b816134a1565b9050919050565b6000602082019050818103600083015261384b816134c4565b9050919050565b6000602082019050818103600083015261386b816134e7565b9050919050565b6000602082019050818103600083015261388b8161350a565b9050919050565b600060208201905081810360008301526138ab8161352d565b9050919050565b600060208201905081810360008301526138cb81613550565b9050919050565b600060208201905081810360008301526138ec8184613596565b905092915050565b6000602082019050613909600083018461360c565b92915050565b600061391961392a565b90506139258282613a71565b919050565b6000604051905090565b600067ffffffffffffffff82111561394f5761394e613ad1565b5b61395882613b00565b9050602081019050919050565b600081519050919050565b600081905092915050565b600082825260208201905092915050565b600082825260208201905092915050565b600081905092915050565b60006139b3826139d3565b9050919050565b60008115159050919050565b60008160070b9050919050565b600073ffffffffffffffffffffffffffffffffffffffff82169050919050565b6000819050919050565b82818337600083830152505050565b60005b83811015613a2a578082015181840152602081019050613a0f565b83811115613a39576000848401525b50505050565b60006002820490506001821680613a5757607f821691505b60208210811415613a6b57613a6a613aa2565b5b50919050565b613a7a82613b00565b810181811067ffffffffffffffff82111715613a9957613a98613ad1565b5b80604052505050565b7f4e487b7100000000000000000000000000000000000000000000000000000000600052602260045260246000fd5b7f4e487b7100000000000000000000000000000000000000000000000000000000600052604160045260246000fd5b6000601f19601f8301169050919050565b7f4f776e61626c653a206e6577206f776e657220697320746865207a65726f206160008201527f6464726573730000000000000000000000000000000000000000000000000000602082015250565b7f556e61626c6520746f207472616e736665722066656500000000000000000000600082015250565b7f54686572652773206164647265737320636f6e6e656374656420746f2074686160008201527f7420544720494420616c72656164792e00000000000000000000000000000000602082015250565b7f50617373706f727420666565206973206e6f7420706169640000000000000000600082015250565b7f596f75722063757272656e742061646472657373206d69736d6174636820776960008201527f746820796f7572207265676973747265642077616c6c65742061646472657373602082015250565b7f796f7520646f6e2774206e6f77206f776e207468697320757365726e616d6500600082015250565b7f596f75722063757272656e742061646472657373206d69736d6174636820776960008201527f746820796f757220746769640000000000000000000000000000000000000000602082015250565b7f4f776e61626c653a2063616c6c6572206973206e6f7420746865206f776e6572600082015250565b7f656e656d795f6e616d6520757365726e616d652f6964206d6973736d6174636860008201527f207769746820636f72726573706f646e696e6720616464726573732c20706f7360208201527f7369626c65206861636b00000000000000000000000000000000000000000000604082015250565b7f746869732066756e6374696f6e20776f726b2773206f6e6c7920666f7220746560008201527f73746e6574000000000000000000000000000000000000000000000000000000602082015250565b7f667269656e6420757365726e616d652f6964206d6973736d617463682077697460008201527f6820636f72726573706f646e696e6720616464726573732c20706f737369626c60208201527f65206861636b0000000000000000000000000000000000000000000000000000604082015250565b7f616c726561647920617070726f766564204f5220646f206e6f7420657869737460008201527f7320796574000000000000000000000000000000000000000000000000000000602082015250565b50565b613e85816139a8565b8114613e9057600080fd5b50565b613e9c816139c6565b8114613ea757600080fd5b50565b613eb3816139f3565b8114613ebe57600080fd5b5056fea2646970667358221220dc86398fac7352b09c7c805ac7f46321dbcaa910d3b1de3f39f5bd4dfdd6d5f064736f6c63430008040033",
  "linkReferences": {},
  "deployedLinkReferences": {}
}