{
  "_format": "hh-sol-artifact-1",
  "contractName": "TGPassport",
  "sourceName": "contracts/TGPassport.sol",
  "abi": [
    {
      "inputs": [],
      "stateMutability": "nonpayable",
      "type": "constructor"
    },
    {
      "anonymous": false,
      "inputs": [
        {
          "indexed": true,
          "internalType": "address",
          "name": "previousOwner",
          "type": "address"
        },
        {
          "indexed": true,
          "internalType": "address",
          "name": "newOwner",
          "type": "address"
        }
      ],
      "name": "OwnershipTransferred",
      "type": "event"
    },
    {
      "anonymous": false,
      "inputs": [
        {
          "indexed": false,
          "internalType": "int64",
          "name": "applyerTg",
          "type": "int64"
        },
        {
          "indexed": false,
          "internalType": "address",
          "name": "wallet_address",
          "type": "address"
        }
      ],
      "name": "passportApplied",
      "type": "event"
    },
    {
      "anonymous": false,
      "inputs": [
        {
          "indexed": true,
          "internalType": "int64",
          "name": "applyerTg",
          "type": "int64"
        },
        {
          "indexed": false,
          "internalType": "address",
          "name": "wallet_address",
          "type": "address"
        }
      ],
      "name": "passportAppliedIndexed",
      "type": "event"
    },
    {
      "anonymous": false,
      "inputs": [
        {
          "indexed": false,
          "internalType": "int256",
          "name": "applyerTg",
          "type": "int256"
        },
        {
          "indexed": false,
          "internalType": "address",
          "name": "wallet_address",
          "type": "address"
        },
        {
          "indexed": false,
          "internalType": "address",
          "name": "issuer",
          "type": "address"
        }
      ],
      "name": "passportApproved",
      "type": "event"
    },
    {
      "anonymous": false,
      "inputs": [
        {
          "indexed": false,
          "internalType": "int256",
          "name": "applyerTg",
          "type": "int256"
        },
        {
          "indexed": false,
          "internalType": "address",
          "name": "wallet",
          "type": "address"
        }
      ],
      "name": "passportDenied",
      "type": "event"
    },
    {
      "inputs": [
        {
          "internalType": "int64",
          "name": "applyerTg",
          "type": "int64"
        },
        {
          "internalType": "string",
          "name": "user_name_",
          "type": "string"
        }
      ],
      "name": "ApplyForPassport",
      "outputs": [],
      "stateMutability": "payable",
      "type": "function"
    },
    {
      "inputs": [
        {
          "internalType": "address",
          "name": "passportToApprove",
          "type": "address"
        }
      ],
      "name": "ApprovePassport",
      "outputs": [],
      "stateMutability": "nonpayable",
      "type": "function"
    },
    {
      "inputs": [
        {
          "internalType": "address",
          "name": "passportToDecline",
          "type": "address"
        }
      ],
      "name": "DeclinePassport",
      "outputs": [],
      "stateMutability": "nonpayable",
      "type": "function"
    },
    {
      "inputs": [
        {
          "internalType": "address",
          "name": "passportToDecline",
          "type": "address"
        }
      ],
      "name": "DeletePassport",
      "outputs": [],
      "stateMutability": "nonpayable",
      "type": "function"
    },
    {
      "inputs": [],
      "name": "GetOwner",
      "outputs": [
        {
          "internalType": "address",
          "name": "",
          "type": "address"
        }
      ],
      "stateMutability": "view",
      "type": "function"
    },
    {
      "inputs": [
        {
          "internalType": "address",
          "name": "user_wallet",
          "type": "address"
        }
      ],
      "name": "GetPassportByAddress",
      "outputs": [
        {
          "components": [
            {
              "internalType": "address",
              "name": "userAddress",
              "type": "address"
            },
            {
              "internalType": "int64",
              "name": "tgId",
              "type": "int64"
            },
            {
              "internalType": "bool",
              "name": "valid",
              "type": "bool"
            },
            {
              "internalType": "address",
              "name": "validatorAddress",
              "type": "address"
            },
            {
              "internalType": "string",
              "name": "userName",
              "type": "string"
            }
          ],
          "internalType": "struct TGPassport.Passport",
          "name": "",
          "type": "tuple"
        }
      ],
      "stateMutability": "view",
      "type": "function"
    },
    {
      "inputs": [
        {
          "internalType": "string",
          "name": "user_name_",
          "type": "string"
        }
      ],
      "name": "GetPassportByNickName",
      "outputs": [
        {
          "components": [
            {
              "internalType": "address",
              "name": "userAddress",
              "type": "address"
            },
            {
              "internalType": "int64",
              "name": "tgId",
              "type": "int64"
            },
            {
              "internalType": "bool",
              "name": "valid",
              "type": "bool"
            },
            {
              "internalType": "address",
              "name": "validatorAddress",
              "type": "address"
            },
            {
              "internalType": "string",
              "name": "userName",
              "type": "string"
            }
          ],
          "internalType": "struct TGPassport.Passport",
          "name": "",
          "type": "tuple"
        }
      ],
      "stateMutability": "view",
      "type": "function"
    },
    {
      "inputs": [],
      "name": "GetPassportFee",
      "outputs": [
        {
          "internalType": "uint256",
          "name": "",
          "type": "uint256"
        }
      ],
      "stateMutability": "view",
      "type": "function"
    },
    {
      "inputs": [
        {
          "internalType": "int64",
          "name": "tgId_",
          "type": "int64"
        }
      ],
      "name": "GetPassportWalletByID",
      "outputs": [
        {
          "internalType": "address",
          "name": "",
          "type": "address"
        }
      ],
      "stateMutability": "view",
      "type": "function"
    },
    {
      "inputs": [
        {
          "internalType": "address",
          "name": "user_wallet",
          "type": "address"
        }
      ],
      "name": "GetTgIdByAddress",
      "outputs": [
        {
          "internalType": "int64",
          "name": "tgid",
          "type": "int64"
        }
      ],
      "stateMutability": "view",
      "type": "function"
    },
    {
      "inputs": [
        {
          "internalType": "string",
          "name": "user_name_",
          "type": "string"
        }
      ],
      "name": "GetWalletByNickName",
      "outputs": [
        {
          "internalType": "address",
          "name": "",
          "type": "address"
        }
      ],
      "stateMutability": "view",
      "type": "function"
    },
    {
      "inputs": [
        {
          "internalType": "address",
          "name": "enemy_address",
          "type": "address"
        }
      ],
      "name": "INOTTrustAddress",
      "outputs": [],
      "stateMutability": "nonpayable",
      "type": "function"
    },
    {
      "inputs": [
        {
          "internalType": "string",
          "name": "my_username",
          "type": "string"
        },
        {
          "internalType": "string",
          "name": "enemy_name",
          "type": "string"
        }
      ],
      "name": "INOTTrustUsername",
      "outputs": [],
      "stateMutability": "nonpayable",
      "type": "function"
    },
    {
      "inputs": [
        {
          "internalType": "address",
          "name": "friend_address",
          "type": "address"
        }
      ],
      "name": "ITrustAddress",
      "outputs": [],
      "stateMutability": "nonpayable",
      "type": "function"
    },
    {
      "inputs": [
        {
          "internalType": "string",
          "name": "my_username",
          "type": "string"
        },
        {
          "internalType": "string",
          "name": "friend_name",
          "type": "string"
        }
      ],
      "name": "ITrustUsername",
      "outputs": [],
      "stateMutability": "nonpayable",
      "type": "function"
    },
    {
      "inputs": [
        {
          "internalType": "uint256",
          "name": "passportFee_",
          "type": "uint256"
        }
      ],
      "name": "SetPassportFee",
      "outputs": [],
      "stateMutability": "nonpayable",
      "type": "function"
    },
    {
      "inputs": [
        {
          "internalType": "string",
          "name": "new_user_name_",
          "type": "string"
        }
      ],
      "name": "UpdateUserName",
      "outputs": [],
      "stateMutability": "nonpayable",
      "type": "function"
    },
    {
      "inputs": [],
      "name": "owner",
      "outputs": [
        {
          "internalType": "address",
          "name": "",
          "type": "address"
        }
      ],
      "stateMutability": "view",
      "type": "function"
    },
    {
      "inputs": [
        {
          "internalType": "address",
          "name": "",
          "type": "address"
        }
      ],
      "name": "passports",
      "outputs": [
        {
          "internalType": "address",
          "name": "userAddress",
          "type": "address"
        },
        {
          "internalType": "int64",
          "name": "tgId",
          "type": "int64"
        },
        {
          "internalType": "bool",
          "name": "valid",
          "type": "bool"
        },
        {
          "internalType": "address",
          "name": "validatorAddress",
          "type": "address"
        },
        {
          "internalType": "string",
          "name": "userName",
          "type": "string"
        }
      ],
      "stateMutability": "view",
      "type": "function"
    },
    {
      "inputs": [],
      "name": "renounceOwnership",
      "outputs": [],
      "stateMutability": "nonpayable",
      "type": "function"
    },
    {
      "inputs": [
        {
          "internalType": "int64",
          "name": "",
          "type": "int64"
        }
      ],
      "name": "tgIdToAddress",
      "outputs": [
        {
          "internalType": "address",
          "name": "",
          "type": "address"
        }
      ],
      "stateMutability": "view",
      "type": "function"
    },
    {
      "inputs": [
        {
          "internalType": "address",
          "name": "newOwner",
          "type": "address"
        }
      ],
      "name": "transferOwnership",
      "outputs": [],
      "stateMutability": "nonpayable",
      "type": "function"
    },
    {
      "inputs": [
        {
          "internalType": "int64",
          "name": "",
          "type": "int64"
        },
        {
          "internalType": "int64",
          "name": "",
          "type": "int64"
        }
      ],
      "name": "trust_global",
      "outputs": [
        {
          "internalType": "bool",
          "name": "",
          "type": "bool"
        }
      ],
      "stateMutability": "view",
      "type": "function"
    },
    {
      "inputs": [
        {
          "internalType": "string",
          "name": "",
          "type": "string"
        }
      ],
      "name": "username_wallets",
      "outputs": [
        {
          "internalType": "address",
          "name": "",
          "type": "address"
        }
      ],
      "stateMutability": "view",
      "type": "function"
    }
  ],
  "bytecode": "0x60806040523480156200001157600080fd5b5062000032620000266200009160201b60201c565b6200009960201b60201c565b6103e86001819055506200004b6200015d60201b60201c565b600260006101000a81548173ffffffffffffffffffffffffffffffffffffffff021916908373ffffffffffffffffffffffffffffffffffffffff16021790555062000186565b600033905090565b60008060009054906101000a900473ffffffffffffffffffffffffffffffffffffffff169050816000806101000a81548173ffffffffffffffffffffffffffffffffffffffff021916908373ffffffffffffffffffffffffffffffffffffffff1602179055508173ffffffffffffffffffffffffffffffffffffffff168173ffffffffffffffffffffffffffffffffffffffff167f8be0079c531659141344cd1fd0a4f28419497f9722a3daafe3b4186f6b6457e060405160405180910390a35050565b60008060009054906101000a900473ffffffffffffffffffffffffffffffffffffffff16905090565b6135ea80620001966000396000f3fe60806040526004361061014b5760003560e01c8063715018a6116100b6578063d2114e181161006f578063d2114e18146104b2578063d2125bd2146104ef578063d5998aeb14610518578063e37c132b14610534578063e5122bab14610575578063f2fde38b1461059e5761014b565b8063715018a6146103a457806387234689146103bb5780638da5cb5b146103e45780639413c6421461040f5780639421da611461044c578063b25047c2146104755761014b565b806348dc15611161010857806348dc15611461028457806359cca93b146102af5780635ddf30d0146102ec57806361cabe371461031557806365104afc1461035257806368789cea1461037b5761014b565b80630ae50a39146101505780630c2fc6e31461017b5780631423ea07146101b85780631755e9e6146101f557806321e6531d1461021e578063239f60fa14610247575b600080fd5b34801561015c57600080fd5b506101656105c7565b6040516101729190612cff565b60405180910390f35b34801561018757600080fd5b506101a2600480360381019061019d91906127ec565b6105f1565b6040516101af9190612cff565b60405180910390f35b3480156101c457600080fd5b506101df60048036038101906101da91906127c3565b610634565b6040516101ec9190612fb3565b60405180910390f35b34801561020157600080fd5b5061021c600480360381019061021791906127c3565b610809565b005b34801561022a57600080fd5b50610245600480360381019061024091906128a5565b610c57565b005b34801561025357600080fd5b5061026e60048036038101906102699190612815565b610e23565b60405161027b9190612d74565b60405180910390f35b34801561029057600080fd5b50610299610e52565b6040516102a69190612fd5565b60405180910390f35b3480156102bb57600080fd5b506102d660048036038101906102d191906128a5565b610e5c565b6040516102e39190612cff565b60405180910390f35b3480156102f857600080fd5b50610313600480360381019061030e91906127c3565b610ea5565b005b34801561032157600080fd5b5061033c600480360381019061033791906127c3565b610f5a565b6040516103499190612d8f565b60405180910390f35b34801561035e57600080fd5b50610379600480360381019061037491906127c3565b610f75565b005b34801561038757600080fd5b506103a2600480360381019061039d91906128e6565b6112e7565b005b3480156103b057600080fd5b506103b9611454565b005b3480156103c757600080fd5b506103e260048036038101906103dd91906128e6565b6114dc565b005b3480156103f057600080fd5b506103f9611649565b6040516104069190612cff565b60405180910390f35b34801561041b57600080fd5b50610436600480360381019061043191906127ec565b611672565b6040516104439190612cff565b60405180910390f35b34801561045857600080fd5b50610473600480360381019061046e91906127c3565b6116a5565b005b34801561048157600080fd5b5061049c600480360381019061049791906128a5565b611a64565b6040516104a99190612fb3565b60405180910390f35b3480156104be57600080fd5b506104d960048036038101906104d491906128a5565b611c47565b6040516104e69190612cff565b60405180910390f35b3480156104fb57600080fd5b5061051660048036038101906105119190612952565b611c8f565b005b610532600480360381019061052d9190612851565b611d15565b005b34801561054057600080fd5b5061055b600480360381019061055691906127c3565b61204c565b60405161056c959493929190612d1a565b60405180910390f35b34801561058157600080fd5b5061059c600480360381019061059791906127c3565b612164565b005b3480156105aa57600080fd5b506105c560048036038101906105c091906127c3565b612219565b005b6000600260009054906101000a900473ffffffffffffffffffffffffffffffffffffffff16905090565b6000600360008360070b60070b815260200190815260200160002060009054906101000a900473ffffffffffffffffffffffffffffffffffffffff169050919050565b61063c6125d9565b6000600460008473ffffffffffffffffffffffffffffffffffffffff1673ffffffffffffffffffffffffffffffffffffffff1681526020019081526020016000206040518060a00160405290816000820160009054906101000a900473ffffffffffffffffffffffffffffffffffffffff1673ffffffffffffffffffffffffffffffffffffffff1673ffffffffffffffffffffffffffffffffffffffff1681526020016000820160149054906101000a900460070b60070b60070b815260200160008201601c9054906101000a900460ff161515151581526020016001820160009054906101000a900473ffffffffffffffffffffffffffffffffffffffff1673ffffffffffffffffffffffffffffffffffffffff1673ffffffffffffffffffffffffffffffffffffffff16815260200160028201805461077c90613132565b80601f01602080910402602001604051908101604052809291908181526020018280546107a890613132565b80156107f55780601f106107ca576101008083540402835291602001916107f5565b820191906000526020600020905b8154815290600101906020018083116107d857829003601f168201915b505050505081525050905080915050919050565b610811612311565b73ffffffffffffffffffffffffffffffffffffffff1661082f611649565b73ffffffffffffffffffffffffffffffffffffffff1614610885576040517f08c379a000000000000000000000000000000000000000000000000000000000815260040161087c90612f13565b60405180910390fd5b6000600460008373ffffffffffffffffffffffffffffffffffffffff1673ffffffffffffffffffffffffffffffffffffffff16815260200190815260200160002060000160149054906101000a900460070b90506000600460008473ffffffffffffffffffffffffffffffffffffffff1673ffffffffffffffffffffffffffffffffffffffff168152602001908152602001600020600201805461092890613132565b80601f016020809104026020016040519081016040528092919081815260200182805461095490613132565b80156109a15780601f10610976576101008083540402835291602001916109a1565b820191906000526020600020905b81548152906001019060200180831161098457829003601f168201915b5050505050905060001515600460008573ffffffffffffffffffffffffffffffffffffffff1673ffffffffffffffffffffffffffffffffffffffff168152602001908152602001600020600001601c9054906101000a900460ff16151514610a3e576040517f08c379a0000000000000000000000000000000000000000000000000000000008152600401610a3590612f93565b60405180910390fd5b60011515600660008460070b60070b815260200190815260200160002060008460070b60070b815260200190815260200160002060009054906101000a905050506040518060a001604052808473ffffffffffffffffffffffffffffffffffffffff1681526020018360070b81526020016001151581526020013373ffffffffffffffffffffffffffffffffffffffff16815260200182815250600460008573ffffffffffffffffffffffffffffffffffffffff1673ffffffffffffffffffffffffffffffffffffffff16815260200190815260200160002060008201518160000160006101000a81548173ffffffffffffffffffffffffffffffffffffffff021916908373ffffffffffffffffffffffffffffffffffffffff16021790555060208201518160000160146101000a81548167ffffffffffffffff021916908360070b67ffffffffffffffff160217905550604082015181600001601c6101000a81548160ff02191690831515021790555060608201518160010160006101000a81548173ffffffffffffffffffffffffffffffffffffffff021916908373ffffffffffffffffffffffffffffffffffffffff1602179055506080820151816002019080519060200190610c13929190612639565b509050507fc86c0f4d7dcfca9a81352087d1dd1bde720d362e74ab52722809cc8c31766277828433604051610c4a93929190612dfc565b60405180910390a1505050565b6000610c6233610634565b90503373ffffffffffffffffffffffffffffffffffffffff16816000015173ffffffffffffffffffffffffffffffffffffffff1614610cd6576040517f08c379a0000000000000000000000000000000000000000000000000000000008152600401610ccd90612ed3565b60405180910390fd5b81816080018190525080600460003373ffffffffffffffffffffffffffffffffffffffff1673ffffffffffffffffffffffffffffffffffffffff16815260200190815260200160002060008201518160000160006101000a81548173ffffffffffffffffffffffffffffffffffffffff021916908373ffffffffffffffffffffffffffffffffffffffff16021790555060208201518160000160146101000a81548167ffffffffffffffff021916908360070b67ffffffffffffffff160217905550604082015181600001601c6101000a81548160ff02191690831515021790555060608201518160010160006101000a81548173ffffffffffffffffffffffffffffffffffffffff021916908373ffffffffffffffffffffffffffffffffffffffff1602179055506080820151816002019080519060200190610e1b929190612639565b509050505050565b60066020528160005260406000206020528060005260406000206000915091509054906101000a900460ff1681565b6000600154905090565b6005818051602081018201805184825260208301602085012081835280955050505050506000915054906101000a900473ffffffffffffffffffffffffffffffffffffffff1681565b6000610eb033610634565b90506000816000015190503373ffffffffffffffffffffffffffffffffffffffff168173ffffffffffffffffffffffffffffffffffffffff1614610f29576040517f08c379a0000000000000000000000000000000000000000000000000000000008152600401610f2090612eb3565b60405180910390fd5b6000826020015190506000610f3d85610634565b9050600081602001519050610f528382612319565b505050505050565b600080610f6683610634565b90508060200151915050919050565b610f7d612311565b73ffffffffffffffffffffffffffffffffffffffff16610f9b611649565b73ffffffffffffffffffffffffffffffffffffffff1614610ff1576040517f08c379a0000000000000000000000000000000000000000000000000000000008152600401610fe890612f13565b60405180910390fd5b6000600460008373ffffffffffffffffffffffffffffffffffffffff1673ffffffffffffffffffffffffffffffffffffffff16815260200190815260200160002060000160149054906101000a900460070b90506000600460008473ffffffffffffffffffffffffffffffffffffffff1673ffffffffffffffffffffffffffffffffffffffff168152602001908152602001600020600201805461109490613132565b80601f01602080910402602001604051908101604052809291908181526020018280546110c090613132565b801561110d5780601f106110e25761010080835404028352916020019161110d565b820191906000526020600020905b8154815290600101906020018083116110f057829003601f168201915b5050505050905060004690506005811461115c576040517f08c379a000000000000000000000000000000000000000000000000000000000815260040161115390612f53565b60405180910390fd5b600460008573ffffffffffffffffffffffffffffffffffffffff1673ffffffffffffffffffffffffffffffffffffffff168152602001908152602001600020600080820160006101000a81549073ffffffffffffffffffffffffffffffffffffffff02191690556000820160146101000a81549067ffffffffffffffff021916905560008201601c6101000a81549060ff02191690556001820160006101000a81549073ffffffffffffffffffffffffffffffffffffffff021916905560028201600061122991906126bf565b5050600360008460070b60070b815260200190815260200160002060006101000a81549073ffffffffffffffffffffffffffffffffffffffff02191690556005826040516112779190612cd3565b908152602001604051809103902060006101000a81549073ffffffffffffffffffffffffffffffffffffffff02191690557f015de234da64d7247b81f8ecac83b1d657b0ecad3085534fbc525bc9ca4560fc83856040516112d9929190612daa565b60405180910390a150505050565b60006112f283611a64565b90506000816000015190503373ffffffffffffffffffffffffffffffffffffffff168173ffffffffffffffffffffffffffffffffffffffff161461136b576040517f08c379a000000000000000000000000000000000000000000000000000000000815260040161136290612ef3565b60405180910390fd5b600082602001519050600061137f85611a64565b90506000816000015190506000826020015190508173ffffffffffffffffffffffffffffffffffffffff16600360008360070b60070b815260200190815260200160002060009054906101000a900473ffffffffffffffffffffffffffffffffffffffff1673ffffffffffffffffffffffffffffffffffffffff161461143a576040517f08c379a000000000000000000000000000000000000000000000000000000000815260040161143190612f73565b60405180910390fd5b60008190506114498582612366565b505050505050505050565b61145c612311565b73ffffffffffffffffffffffffffffffffffffffff1661147a611649565b73ffffffffffffffffffffffffffffffffffffffff16146114d0576040517f08c379a00000000000000000000000000000000000000000000000000000000081526004016114c790612f13565b60405180910390fd5b6114da60006123b3565b565b60006114e783611a64565b90506000816000015190503373ffffffffffffffffffffffffffffffffffffffff168173ffffffffffffffffffffffffffffffffffffffff1614611560576040517f08c379a000000000000000000000000000000000000000000000000000000000815260040161155790612ef3565b60405180910390fd5b600082602001519050600061157485611a64565b90506000816000015190506000826020015190508173ffffffffffffffffffffffffffffffffffffffff16600360008360070b60070b815260200190815260200160002060009054906101000a900473ffffffffffffffffffffffffffffffffffffffff1673ffffffffffffffffffffffffffffffffffffffff161461162f576040517f08c379a000000000000000000000000000000000000000000000000000000000815260040161162690612f33565b60405180910390fd5b600081905061163e8582612319565b505050505050505050565b60008060009054906101000a900473ffffffffffffffffffffffffffffffffffffffff16905090565b60036020528060005260406000206000915054906101000a900473ffffffffffffffffffffffffffffffffffffffff1681565b6116ad612311565b73ffffffffffffffffffffffffffffffffffffffff166116cb611649565b73ffffffffffffffffffffffffffffffffffffffff1614611721576040517f08c379a000000000000000000000000000000000000000000000000000000000815260040161171890612f13565b60405180910390fd5b6000600460008373ffffffffffffffffffffffffffffffffffffffff1673ffffffffffffffffffffffffffffffffffffffff16815260200190815260200160002060000160149054906101000a900460070b90506000600460008473ffffffffffffffffffffffffffffffffffffffff1673ffffffffffffffffffffffffffffffffffffffff16815260200190815260200160002060020180546117c490613132565b80601f01602080910402602001604051908101604052809291908181526020018280546117f090613132565b801561183d5780601f106118125761010080835404028352916020019161183d565b820191906000526020600020905b81548152906001019060200180831161182057829003601f168201915b5050505050905060001515600460008573ffffffffffffffffffffffffffffffffffffffff1673ffffffffffffffffffffffffffffffffffffffff168152602001908152602001600020600001601c9054906101000a900460ff161515146118da576040517f08c379a00000000000000000000000000000000000000000000000000000000081526004016118d190612f93565b60405180910390fd5b600460008473ffffffffffffffffffffffffffffffffffffffff1673ffffffffffffffffffffffffffffffffffffffff168152602001908152602001600020600080820160006101000a81549073ffffffffffffffffffffffffffffffffffffffff02191690556000820160146101000a81549067ffffffffffffffff021916905560008201601c6101000a81549060ff02191690556001820160006101000a81549073ffffffffffffffffffffffffffffffffffffffff02191690556002820160006119a791906126bf565b5050600360008360070b60070b815260200190815260200160002060006101000a81549073ffffffffffffffffffffffffffffffffffffffff02191690556005816040516119f59190612cd3565b908152602001604051809103902060006101000a81549073ffffffffffffffffffffffffffffffffffffffff02191690557f015de234da64d7247b81f8ecac83b1d657b0ecad3085534fbc525bc9ca4560fc8284604051611a57929190612daa565b60405180910390a1505050565b611a6c6125d9565b6000611a7783611c47565b90506000600460008373ffffffffffffffffffffffffffffffffffffffff1673ffffffffffffffffffffffffffffffffffffffff1681526020019081526020016000206040518060a00160405290816000820160009054906101000a900473ffffffffffffffffffffffffffffffffffffffff1673ffffffffffffffffffffffffffffffffffffffff1673ffffffffffffffffffffffffffffffffffffffff1681526020016000820160149054906101000a900460070b60070b60070b815260200160008201601c9054906101000a900460ff161515151581526020016001820160009054906101000a900473ffffffffffffffffffffffffffffffffffffffff1673ffffffffffffffffffffffffffffffffffffffff1673ffffffffffffffffffffffffffffffffffffffff168152602001600282018054611bb990613132565b80601f0160208091040260200160405190810160405280929190818152602001828054611be590613132565b8015611c325780601f10611c0757610100808354040283529160200191611c32565b820191906000526020600020905b815481529060010190602001808311611c1557829003601f168201915b50505050508152505090508092505050919050565b6000600582604051611c599190612cd3565b908152602001604051809103902060009054906101000a900473ffffffffffffffffffffffffffffffffffffffff169050919050565b611c97612311565b73ffffffffffffffffffffffffffffffffffffffff16611cb5611649565b73ffffffffffffffffffffffffffffffffffffffff1614611d0b576040517f08c379a0000000000000000000000000000000000000000000000000000000008152600401611d0290612f13565b60405180910390fd5b8060018190555050565b6000339050611d25838284612477565b6001543414611d69576040517f08c379a0000000000000000000000000000000000000000000000000000000008152600401611d6090612e93565b60405180910390fd5b6040518060a001604052808273ffffffffffffffffffffffffffffffffffffffff1681526020018460070b8152602001600015158152602001600073ffffffffffffffffffffffffffffffffffffffff16815260200183815250600460003373ffffffffffffffffffffffffffffffffffffffff1673ffffffffffffffffffffffffffffffffffffffff16815260200190815260200160002060008201518160000160006101000a81548173ffffffffffffffffffffffffffffffffffffffff021916908373ffffffffffffffffffffffffffffffffffffffff16021790555060208201518160000160146101000a81548167ffffffffffffffff021916908360070b67ffffffffffffffff160217905550604082015181600001601c6101000a81548160ff02191690831515021790555060608201518160010160006101000a81548173ffffffffffffffffffffffffffffffffffffffff021916908373ffffffffffffffffffffffffffffffffffffffff1602179055506080820151816002019080519060200190611efe929190612639565b509050507fcb042d04619e497175f63ce8ec9b9127cb0bf344facc37db4fe8492c2ecfbb9e8333604051611f33929190612dd3565b60405180910390a18260070b7f2d329f0d038ded94203a58e5be2f2f41b14cbbc49cc1f89443696606f104658c33604051611f6e9190612cff565b60405180910390a26000600260009054906101000a900473ffffffffffffffffffffffffffffffffffffffff1673ffffffffffffffffffffffffffffffffffffffff16600154604051611fc090612cea565b60006040518083038185875af1925050503d8060008114611ffd576040519150601f19603f3d011682016040523d82523d6000602084013e612002565b606091505b5050905080612046576040517f08c379a000000000000000000000000000000000000000000000000000000000815260040161203d90612e53565b60405180910390fd5b50505050565b60046020528060005260406000206000915090508060000160009054906101000a900473ffffffffffffffffffffffffffffffffffffffff16908060000160149054906101000a900460070b9080600001601c9054906101000a900460ff16908060010160009054906101000a900473ffffffffffffffffffffffffffffffffffffffff16908060020180546120e190613132565b80601f016020809104026020016040519081016040528092919081815260200182805461210d90613132565b801561215a5780601f1061212f5761010080835404028352916020019161215a565b820191906000526020600020905b81548152906001019060200180831161213d57829003601f168201915b5050505050905085565b600061216f33610634565b90506000816000015190503373ffffffffffffffffffffffffffffffffffffffff168173ffffffffffffffffffffffffffffffffffffffff16146121e8576040517f08c379a00000000000000000000000000000000000000000000000000000000081526004016121df90612eb3565b60405180910390fd5b60008260200151905060006121fc85610634565b90506000816020015190506122118382612366565b505050505050565b612221612311565b73ffffffffffffffffffffffffffffffffffffffff1661223f611649565b73ffffffffffffffffffffffffffffffffffffffff1614612295576040517f08c379a000000000000000000000000000000000000000000000000000000000815260040161228c90612f13565b60405180910390fd5b600073ffffffffffffffffffffffffffffffffffffffff168173ffffffffffffffffffffffffffffffffffffffff161415612305576040517f08c379a00000000000000000000000000000000000000000000000000000000081526004016122fc90612e33565b60405180910390fd5b61230e816123b3565b50565b600033905090565b6000600660008460070b60070b815260200190815260200160002060008360070b60070b815260200190815260200160002060006101000a81548160ff0219169083151502179055505050565b6001600660008460070b60070b815260200190815260200160002060008360070b60070b815260200190815260200160002060006101000a81548160ff0219169083151502179055505050565b60008060009054906101000a900473ffffffffffffffffffffffffffffffffffffffff169050816000806101000a81548173ffffffffffffffffffffffffffffffffffffffff021916908373ffffffffffffffffffffffffffffffffffffffff1602179055508173ffffffffffffffffffffffffffffffffffffffff168173ffffffffffffffffffffffffffffffffffffffff167f8be0079c531659141344cd1fd0a4f28419497f9722a3daafe3b4186f6b6457e060405160405180910390a35050565b600073ffffffffffffffffffffffffffffffffffffffff16600360008560070b60070b815260200190815260200160002060009054906101000a900473ffffffffffffffffffffffffffffffffffffffff1673ffffffffffffffffffffffffffffffffffffffff161461251f576040517f08c379a000000000000000000000000000000000000000000000000000000000815260040161251690612e73565b60405180910390fd5b81600360008560070b60070b815260200190815260200160002060006101000a81548173ffffffffffffffffffffffffffffffffffffffff021916908373ffffffffffffffffffffffffffffffffffffffff160217905550816005826040516125889190612cd3565b908152602001604051809103902060006101000a81548173ffffffffffffffffffffffffffffffffffffffff021916908373ffffffffffffffffffffffffffffffffffffffff160217905550505050565b6040518060a00160405280600073ffffffffffffffffffffffffffffffffffffffff168152602001600060070b8152602001600015158152602001600073ffffffffffffffffffffffffffffffffffffffff168152602001606081525090565b82805461264590613132565b90600052602060002090601f01602090048101928261266757600085556126ae565b82601f1061268057805160ff19168380011785556126ae565b828001600101855582156126ae579182015b828111156126ad578251825591602001919060010190612692565b5b5090506126bb91906126ff565b5090565b5080546126cb90613132565b6000825580601f106126dd57506126fc565b601f0160209004906000526020600020908101906126fb91906126ff565b5b50565b5b80821115612718576000816000905550600101612700565b5090565b600061272f61272a84613015565b612ff0565b90508281526020810184848401111561274757600080fd5b6127528482856130f0565b509392505050565b6000813590506127698161356f565b92915050565b60008135905061277e81613586565b92915050565b600082601f83011261279557600080fd5b81356127a584826020860161271c565b91505092915050565b6000813590506127bd8161359d565b92915050565b6000602082840312156127d557600080fd5b60006127e38482850161275a565b91505092915050565b6000602082840312156127fe57600080fd5b600061280c8482850161276f565b91505092915050565b6000806040838503121561282857600080fd5b60006128368582860161276f565b92505060206128478582860161276f565b9150509250929050565b6000806040838503121561286457600080fd5b60006128728582860161276f565b925050602083013567ffffffffffffffff81111561288f57600080fd5b61289b85828601612784565b9150509250929050565b6000602082840312156128b757600080fd5b600082013567ffffffffffffffff8111156128d157600080fd5b6128dd84828501612784565b91505092915050565b600080604083850312156128f957600080fd5b600083013567ffffffffffffffff81111561291357600080fd5b61291f85828601612784565b925050602083013567ffffffffffffffff81111561293c57600080fd5b61294885828601612784565b9150509250929050565b60006020828403121561296457600080fd5b6000612972848285016127ae565b91505092915050565b61298481613089565b82525050565b61299381613089565b82525050565b6129a28161309b565b82525050565b6129b18161309b565b82525050565b6129c0816130de565b82525050565b6129cf816130a7565b82525050565b6129de816130a7565b82525050565b60006129ef82613046565b6129f9818561305c565b9350612a098185602086016130ff565b612a12816131f3565b840191505092915050565b6000612a2882613046565b612a32818561306d565b9350612a428185602086016130ff565b612a4b816131f3565b840191505092915050565b6000612a6182613046565b612a6b818561307e565b9350612a7b8185602086016130ff565b80840191505092915050565b6000612a9460268361306d565b9150612a9f82613204565b604082019050919050565b6000612ab760168361306d565b9150612ac282613253565b602082019050919050565b6000612ada60308361306d565b9150612ae58261327c565b604082019050919050565b6000612afd60188361306d565b9150612b08826132cb565b602082019050919050565b6000612b2060408361306d565b9150612b2b826132f4565b604082019050919050565b6000612b43601f8361306d565b9150612b4e82613343565b602082019050919050565b6000612b66602c8361306d565b9150612b718261336c565b604082019050919050565b6000612b8960208361306d565b9150612b94826133bb565b602082019050919050565b6000612bac604a8361306d565b9150612bb7826133e4565b606082019050919050565b6000612bcf60258361306d565b9150612bda82613459565b604082019050919050565b6000612bf260468361306d565b9150612bfd826134a8565b606082019050919050565b6000612c1560258361306d565b9150612c208261351d565b604082019050919050565b6000612c38600083613051565b9150612c438261356c565b600082019050919050565b600060a083016000830151612c66600086018261297b565b506020830151612c7960208601826129c6565b506040830151612c8c6040860182612999565b506060830151612c9f606086018261297b565b5060808301518482036080860152612cb782826129e4565b9150508091505092915050565b612ccd816130d4565b82525050565b6000612cdf8284612a56565b915081905092915050565b6000612cf582612c2b565b9150819050919050565b6000602082019050612d14600083018461298a565b92915050565b600060a082019050612d2f600083018861298a565b612d3c60208301876129d5565b612d4960408301866129a8565b612d56606083018561298a565b8181036080830152612d688184612a1d565b90509695505050505050565b6000602082019050612d8960008301846129a8565b92915050565b6000602082019050612da460008301846129d5565b92915050565b6000604082019050612dbf60008301856129b7565b612dcc602083018461298a565b9392505050565b6000604082019050612de860008301856129d5565b612df5602083018461298a565b9392505050565b6000606082019050612e1160008301866129b7565b612e1e602083018561298a565b612e2b604083018461298a565b949350505050565b60006020820190508181036000830152612e4c81612a87565b9050919050565b60006020820190508181036000830152612e6c81612aaa565b9050919050565b60006020820190508181036000830152612e8c81612acd565b9050919050565b60006020820190508181036000830152612eac81612af0565b9050919050565b60006020820190508181036000830152612ecc81612b13565b9050919050565b60006020820190508181036000830152612eec81612b36565b9050919050565b60006020820190508181036000830152612f0c81612b59565b9050919050565b60006020820190508181036000830152612f2c81612b7c565b9050919050565b60006020820190508181036000830152612f4c81612b9f565b9050919050565b60006020820190508181036000830152612f6c81612bc2565b9050919050565b60006020820190508181036000830152612f8c81612be5565b9050919050565b60006020820190508181036000830152612fac81612c08565b9050919050565b60006020820190508181036000830152612fcd8184612c4e565b905092915050565b6000602082019050612fea6000830184612cc4565b92915050565b6000612ffa61300b565b90506130068282613164565b919050565b6000604051905090565b600067ffffffffffffffff8211156130305761302f6131c4565b5b613039826131f3565b9050602081019050919050565b600081519050919050565b600081905092915050565b600082825260208201905092915050565b600082825260208201905092915050565b600081905092915050565b6000613094826130b4565b9050919050565b60008115159050919050565b60008160070b9050919050565b600073ffffffffffffffffffffffffffffffffffffffff82169050919050565b6000819050919050565b60006130e9826130a7565b9050919050565b82818337600083830152505050565b60005b8381101561311d578082015181840152602081019050613102565b8381111561312c576000848401525b50505050565b6000600282049050600182168061314a57607f821691505b6020821081141561315e5761315d613195565b5b50919050565b61316d826131f3565b810181811067ffffffffffffffff8211171561318c5761318b6131c4565b5b80604052505050565b7f4e487b7100000000000000000000000000000000000000000000000000000000600052602260045260246000fd5b7f4e487b7100000000000000000000000000000000000000000000000000000000600052604160045260246000fd5b6000601f19601f8301169050919050565b7f4f776e61626c653a206e6577206f776e657220697320746865207a65726f206160008201527f6464726573730000000000000000000000000000000000000000000000000000602082015250565b7f556e61626c6520746f207472616e736665722066656500000000000000000000600082015250565b7f54686572652773206164647265737320636f6e6e656374656420746f2074686160008201527f7420544720494420616c72656164792e00000000000000000000000000000000602082015250565b7f50617373706f727420666565206973206e6f7420706169640000000000000000600082015250565b7f596f75722063757272656e742061646472657373206d69736d6174636820776960008201527f746820796f7572207265676973747265642077616c6c65742061646472657373602082015250565b7f796f7520646f6e2774206e6f77206f776e207468697320757365726e616d6500600082015250565b7f596f75722063757272656e742061646472657373206d69736d6174636820776960008201527f746820796f757220746769640000000000000000000000000000000000000000602082015250565b7f4f776e61626c653a2063616c6c6572206973206e6f7420746865206f776e6572600082015250565b7f656e656d795f6e616d6520757365726e616d652f6964206d6973736d6174636860008201527f207769746820636f72726573706f646e696e6720616464726573732c20706f7360208201527f7369626c65206861636b00000000000000000000000000000000000000000000604082015250565b7f746869732066756e6374696f6e20776f726b2773206f6e6c7920666f7220746560008201527f73746e6574000000000000000000000000000000000000000000000000000000602082015250565b7f667269656e6420757365726e616d652f6964206d6973736d617463682077697460008201527f6820636f72726573706f646e696e6720616464726573732c20706f737369626c60208201527f65206861636b0000000000000000000000000000000000000000000000000000604082015250565b7f616c726561647920617070726f766564204f5220646f206e6f7420657869737460008201527f7320796574000000000000000000000000000000000000000000000000000000602082015250565b50565b61357881613089565b811461358357600080fd5b50565b61358f816130a7565b811461359a57600080fd5b50565b6135a6816130d4565b81146135b157600080fd5b5056fea2646970667358221220ba5056012d52d812629ac931a235b37bd5f7e5bd49efb4862fa0b446295cdba864736f6c63430008040033",
  "linkReferences": {},
  "deployedLinkReferences": {}
}