{
  "_format": "hh-sol-artifact-1",
  "contractName": "TGPassport",
  "sourceName": "contracts/TGPassport.sol",
  "abi": [
    {
      "inputs": [],
      "stateMutability": "nonpayable",
      "type": "constructor"
    },
    {
      "anonymous": false,
      "inputs": [
        {
          "indexed": true,
          "internalType": "address",
          "name": "previousOwner",
          "type": "address"
        },
        {
          "indexed": true,
          "internalType": "address",
          "name": "newOwner",
          "type": "address"
        }
      ],
      "name": "OwnershipTransferred",
      "type": "event"
    },
    {
      "anonymous": false,
      "inputs": [
        {
          "indexed": true,
          "internalType": "bytes32",
          "name": "role",
          "type": "bytes32"
        },
        {
          "indexed": true,
          "internalType": "bytes32",
          "name": "previousAdminRole",
          "type": "bytes32"
        },
        {
          "indexed": true,
          "internalType": "bytes32",
          "name": "newAdminRole",
          "type": "bytes32"
        }
      ],
      "name": "RoleAdminChanged",
      "type": "event"
    },
    {
      "anonymous": false,
      "inputs": [
        {
          "indexed": true,
          "internalType": "bytes32",
          "name": "role",
          "type": "bytes32"
        },
        {
          "indexed": true,
          "internalType": "address",
          "name": "account",
          "type": "address"
        },
        {
          "indexed": true,
          "internalType": "address",
          "name": "sender",
          "type": "address"
        }
      ],
      "name": "RoleGranted",
      "type": "event"
    },
    {
      "anonymous": false,
      "inputs": [
        {
          "indexed": true,
          "internalType": "bytes32",
          "name": "role",
          "type": "bytes32"
        },
        {
          "indexed": true,
          "internalType": "address",
          "name": "account",
          "type": "address"
        },
        {
          "indexed": true,
          "internalType": "address",
          "name": "sender",
          "type": "address"
        }
      ],
      "name": "RoleRevoked",
      "type": "event"
    },
    {
      "anonymous": false,
      "inputs": [
        {
          "indexed": false,
          "internalType": "int64",
          "name": "from",
          "type": "int64"
        },
        {
          "indexed": true,
          "internalType": "int64",
          "name": "to",
          "type": "int64"
        },
        {
          "indexed": false,
          "internalType": "bool",
          "name": "trust",
          "type": "bool"
        }
      ],
      "name": "TrustChanged",
      "type": "event"
    },
    {
      "anonymous": false,
      "inputs": [
        {
          "indexed": false,
          "internalType": "int64",
          "name": "applyerTg",
          "type": "int64"
        },
        {
          "indexed": false,
          "internalType": "address",
          "name": "wallet_address",
          "type": "address"
        }
      ],
      "name": "passportApplied",
      "type": "event"
    },
    {
      "anonymous": false,
      "inputs": [
        {
          "indexed": true,
          "internalType": "int64",
          "name": "applyerTg",
          "type": "int64"
        },
        {
          "indexed": false,
          "internalType": "address",
          "name": "wallet_address",
          "type": "address"
        }
      ],
      "name": "passportAppliedIndexed",
      "type": "event"
    },
    {
      "anonymous": false,
      "inputs": [
        {
          "indexed": false,
          "internalType": "int64",
          "name": "applyerTg",
          "type": "int64"
        },
        {
          "indexed": false,
          "internalType": "address",
          "name": "wallet_address",
          "type": "address"
        },
        {
          "indexed": false,
          "internalType": "address",
          "name": "issuer",
          "type": "address"
        }
      ],
      "name": "passportApproved",
      "type": "event"
    },
    {
      "anonymous": false,
      "inputs": [
        {
          "indexed": false,
          "internalType": "int64",
          "name": "applyerTg",
          "type": "int64"
        },
        {
          "indexed": false,
          "internalType": "address",
          "name": "wallet",
          "type": "address"
        }
      ],
      "name": "passportDenied",
      "type": "event"
    },
    {
      "inputs": [
        {
          "internalType": "int64",
          "name": "applyerTg",
          "type": "int64"
        },
        {
          "internalType": "string",
          "name": "user_name_",
          "type": "string"
        }
      ],
      "name": "ApplyForPassport",
      "outputs": [],
      "stateMutability": "payable",
      "type": "function"
    },
    {
      "inputs": [
        {
          "internalType": "address",
          "name": "passportToApprove",
          "type": "address"
        }
      ],
      "name": "ApprovePassport",
      "outputs": [],
      "stateMutability": "nonpayable",
      "type": "function"
    },
    {
      "inputs": [],
      "name": "DEFAULT_ADMIN_ROLE",
      "outputs": [
        {
          "internalType": "bytes32",
          "name": "",
          "type": "bytes32"
        }
      ],
      "stateMutability": "view",
      "type": "function"
    },
    {
      "inputs": [
        {
          "internalType": "address",
          "name": "passportToDecline",
          "type": "address"
        }
      ],
      "name": "DeclinePassport",
      "outputs": [],
      "stateMutability": "nonpayable",
      "type": "function"
    },
    {
      "inputs": [
        {
          "internalType": "address",
          "name": "passportToDecline",
          "type": "address"
        }
      ],
      "name": "DeletePassport",
      "outputs": [],
      "stateMutability": "nonpayable",
      "type": "function"
    },
    {
      "inputs": [],
      "name": "GetOwner",
      "outputs": [
        {
          "internalType": "address",
          "name": "",
          "type": "address"
        }
      ],
      "stateMutability": "view",
      "type": "function"
    },
    {
      "inputs": [
        {
          "internalType": "address",
          "name": "user_wallet",
          "type": "address"
        }
      ],
      "name": "GetPassportByAddress",
      "outputs": [
        {
          "components": [
            {
              "internalType": "address",
              "name": "userAddress",
              "type": "address"
            },
            {
              "internalType": "int64",
              "name": "tgId",
              "type": "int64"
            },
            {
              "internalType": "bool",
              "name": "valid",
              "type": "bool"
            },
            {
              "internalType": "address",
              "name": "validatorAddress",
              "type": "address"
            },
            {
              "internalType": "string",
              "name": "userName",
              "type": "string"
            }
          ],
          "internalType": "struct TGPassport.Passport",
          "name": "",
          "type": "tuple"
        }
      ],
      "stateMutability": "view",
      "type": "function"
    },
    {
      "inputs": [
        {
          "internalType": "string",
          "name": "user_name_",
          "type": "string"
        }
      ],
      "name": "GetPassportByNickName",
      "outputs": [
        {
          "components": [
            {
              "internalType": "address",
              "name": "userAddress",
              "type": "address"
            },
            {
              "internalType": "int64",
              "name": "tgId",
              "type": "int64"
            },
            {
              "internalType": "bool",
              "name": "valid",
              "type": "bool"
            },
            {
              "internalType": "address",
              "name": "validatorAddress",
              "type": "address"
            },
            {
              "internalType": "string",
              "name": "userName",
              "type": "string"
            }
          ],
          "internalType": "struct TGPassport.Passport",
          "name": "",
          "type": "tuple"
        }
      ],
      "stateMutability": "view",
      "type": "function"
    },
    {
      "inputs": [
        {
          "internalType": "int64",
          "name": "tgId_",
          "type": "int64"
        }
      ],
      "name": "GetPassportByTgId",
      "outputs": [
        {
          "components": [
            {
              "internalType": "address",
              "name": "userAddress",
              "type": "address"
            },
            {
              "internalType": "int64",
              "name": "tgId",
              "type": "int64"
            },
            {
              "internalType": "bool",
              "name": "valid",
              "type": "bool"
            },
            {
              "internalType": "address",
              "name": "validatorAddress",
              "type": "address"
            },
            {
              "internalType": "string",
              "name": "userName",
              "type": "string"
            }
          ],
          "internalType": "struct TGPassport.Passport",
          "name": "",
          "type": "tuple"
        }
      ],
      "stateMutability": "view",
      "type": "function"
    },
    {
      "inputs": [],
      "name": "GetPassportFee",
      "outputs": [
        {
          "internalType": "uint256",
          "name": "",
          "type": "uint256"
        }
      ],
      "stateMutability": "view",
      "type": "function"
    },
    {
      "inputs": [
        {
          "internalType": "int64",
          "name": "tgId_",
          "type": "int64"
        }
      ],
      "name": "GetPassportWalletByID",
      "outputs": [
        {
          "internalType": "address",
          "name": "",
          "type": "address"
        }
      ],
      "stateMutability": "view",
      "type": "function"
    },
    {
      "inputs": [
        {
          "internalType": "address",
          "name": "user_wallet",
          "type": "address"
        }
      ],
      "name": "GetTgIdByAddress",
      "outputs": [
        {
          "internalType": "int64",
          "name": "tgid",
          "type": "int64"
        }
      ],
      "stateMutability": "view",
      "type": "function"
    },
    {
      "inputs": [
        {
          "internalType": "int64",
          "name": "from",
          "type": "int64"
        },
        {
          "internalType": "int64",
          "name": "to",
          "type": "int64"
        }
      ],
      "name": "GetTrust",
      "outputs": [
        {
          "internalType": "bool",
          "name": "",
          "type": "bool"
        }
      ],
      "stateMutability": "view",
      "type": "function"
    },
    {
      "inputs": [
        {
          "internalType": "string",
          "name": "user_name_",
          "type": "string"
        }
      ],
      "name": "GetWalletByNickName",
      "outputs": [
        {
          "internalType": "address",
          "name": "",
          "type": "address"
        }
      ],
      "stateMutability": "view",
      "type": "function"
    },
    {
      "inputs": [
        {
          "internalType": "address",
          "name": "bot_",
          "type": "address"
        }
      ],
      "name": "SetBotAddress",
      "outputs": [],
      "stateMutability": "nonpayable",
      "type": "function"
    },
    {
      "inputs": [
        {
          "internalType": "uint256",
          "name": "passportFee_",
          "type": "uint256"
        }
      ],
      "name": "SetPassportFee",
      "outputs": [],
      "stateMutability": "nonpayable",
      "type": "function"
    },
    {
      "inputs": [
        {
          "internalType": "int64",
          "name": "from",
          "type": "int64"
        },
        {
          "internalType": "int64",
          "name": "to",
          "type": "int64"
        },
        {
          "internalType": "bool",
          "name": "trust",
          "type": "bool"
        }
      ],
      "name": "SetTrustToID",
      "outputs": [],
      "stateMutability": "nonpayable",
      "type": "function"
    },
    {
      "inputs": [
        {
          "internalType": "string",
          "name": "new_user_name_",
          "type": "string"
        }
      ],
      "name": "UpdateUserName",
      "outputs": [],
      "stateMutability": "nonpayable",
      "type": "function"
    },
    {
      "inputs": [],
      "name": "getModeratorIdentifier",
      "outputs": [
        {
          "internalType": "bytes32",
          "name": "",
          "type": "bytes32"
        }
      ],
      "stateMutability": "pure",
      "type": "function"
    },
    {
      "inputs": [
        {
          "internalType": "bytes32",
          "name": "role",
          "type": "bytes32"
        }
      ],
      "name": "getRoleAdmin",
      "outputs": [
        {
          "internalType": "bytes32",
          "name": "",
          "type": "bytes32"
        }
      ],
      "stateMutability": "view",
      "type": "function"
    },
    {
      "inputs": [
        {
          "internalType": "bytes32",
          "name": "role",
          "type": "bytes32"
        },
        {
          "internalType": "address",
          "name": "account",
          "type": "address"
        }
      ],
      "name": "grantRole",
      "outputs": [],
      "stateMutability": "nonpayable",
      "type": "function"
    },
    {
      "inputs": [
        {
          "internalType": "bytes32",
          "name": "role",
          "type": "bytes32"
        },
        {
          "internalType": "address",
          "name": "account",
          "type": "address"
        }
      ],
      "name": "hasRole",
      "outputs": [
        {
          "internalType": "bool",
          "name": "",
          "type": "bool"
        }
      ],
      "stateMutability": "view",
      "type": "function"
    },
    {
      "inputs": [],
      "name": "moderator",
      "outputs": [
        {
          "internalType": "bytes32",
          "name": "",
          "type": "bytes32"
        }
      ],
      "stateMutability": "view",
      "type": "function"
    },
    {
      "inputs": [
        {
          "internalType": "int64",
          "name": "",
          "type": "int64"
        },
        {
          "internalType": "uint256",
          "name": "",
          "type": "uint256"
        }
      ],
      "name": "opinion_changed",
      "outputs": [
        {
          "internalType": "int64",
          "name": "",
          "type": "int64"
        }
      ],
      "stateMutability": "view",
      "type": "function"
    },
    {
      "inputs": [],
      "name": "owner",
      "outputs": [
        {
          "internalType": "address",
          "name": "",
          "type": "address"
        }
      ],
      "stateMutability": "view",
      "type": "function"
    },
    {
      "inputs": [
        {
          "internalType": "address",
          "name": "",
          "type": "address"
        }
      ],
      "name": "passports",
      "outputs": [
        {
          "internalType": "address",
          "name": "userAddress",
          "type": "address"
        },
        {
          "internalType": "int64",
          "name": "tgId",
          "type": "int64"
        },
        {
          "internalType": "bool",
          "name": "valid",
          "type": "bool"
        },
        {
          "internalType": "address",
          "name": "validatorAddress",
          "type": "address"
        },
        {
          "internalType": "string",
          "name": "userName",
          "type": "string"
        }
      ],
      "stateMutability": "view",
      "type": "function"
    },
    {
      "inputs": [],
      "name": "renounceOwnership",
      "outputs": [],
      "stateMutability": "nonpayable",
      "type": "function"
    },
    {
      "inputs": [
        {
          "internalType": "bytes32",
          "name": "role",
          "type": "bytes32"
        },
        {
          "internalType": "address",
          "name": "account",
          "type": "address"
        }
      ],
      "name": "renounceRole",
      "outputs": [],
      "stateMutability": "nonpayable",
      "type": "function"
    },
    {
      "inputs": [
        {
          "internalType": "bytes32",
          "name": "role",
          "type": "bytes32"
        },
        {
          "internalType": "address",
          "name": "account",
          "type": "address"
        }
      ],
      "name": "revokeRole",
      "outputs": [],
      "stateMutability": "nonpayable",
      "type": "function"
    },
    {
      "inputs": [
        {
          "internalType": "bytes4",
          "name": "interfaceId",
          "type": "bytes4"
        }
      ],
      "name": "supportsInterface",
      "outputs": [
        {
          "internalType": "bool",
          "name": "",
          "type": "bool"
        }
      ],
      "stateMutability": "view",
      "type": "function"
    },
    {
      "inputs": [
        {
          "internalType": "int64",
          "name": "",
          "type": "int64"
        }
      ],
      "name": "tgIdToAddress",
      "outputs": [
        {
          "internalType": "address",
          "name": "",
          "type": "address"
        }
      ],
      "stateMutability": "view",
      "type": "function"
    },
    {
      "inputs": [
        {
          "internalType": "address",
          "name": "newOwner",
          "type": "address"
        }
      ],
      "name": "transferOwnership",
      "outputs": [],
      "stateMutability": "nonpayable",
      "type": "function"
    },
    {
      "inputs": [
        {
          "internalType": "int64",
          "name": "",
          "type": "int64"
        },
        {
          "internalType": "int64",
          "name": "",
          "type": "int64"
        }
      ],
      "name": "trust_global",
      "outputs": [
        {
          "internalType": "bool",
          "name": "",
          "type": "bool"
        }
      ],
      "stateMutability": "view",
      "type": "function"
    },
    {
      "inputs": [
        {
          "internalType": "string",
          "name": "",
          "type": "string"
        }
      ],
      "name": "username_wallets",
      "outputs": [
        {
          "internalType": "address",
          "name": "",
          "type": "address"
        }
      ],
      "stateMutability": "view",
      "type": "function"
    }
  ],
  "bytecode": "0x608060405273383a9e83e36796106eac11e8c2fbe8b92ff46d3a600460006101000a81548173ffffffffffffffffffffffffffffffffffffffff021916908373ffffffffffffffffffffffffffffffffffffffff160217905550730e5279eded9fe8281eb0f7277e51068c6da2fa31600560006101000a81548173ffffffffffffffffffffffffffffffffffffffff021916908373ffffffffffffffffffffffffffffffffffffffff160217905550348015620000bb57600080fd5b50620000dc620000d06200022f60201b60201c565b6200023760201b60201c565b66071afd498d0000600281905550620000fa620002fb60201b60201c565b600360006101000a81548173ffffffffffffffffffffffffffffffffffffffff021916908373ffffffffffffffffffffffffffffffffffffffff1602179055506200014f6000801b336200032460201b60201c565b620001817fcea62fe6ecc79e221c545bf918f804693c542ead2549e37c2bb9baa66ee2e157336200032460201b60201c565b620001d57fcea62fe6ecc79e221c545bf918f804693c542ead2549e37c2bb9baa66ee2e157600560009054906101000a900473ffffffffffffffffffffffffffffffffffffffff166200032460201b60201c565b620002297fcea62fe6ecc79e221c545bf918f804693c542ead2549e37c2bb9baa66ee2e157600460009054906101000a900473ffffffffffffffffffffffffffffffffffffffff166200032460201b60201c565b62000480565b600033905090565b60008060009054906101000a900473ffffffffffffffffffffffffffffffffffffffff169050816000806101000a81548173ffffffffffffffffffffffffffffffffffffffff021916908373ffffffffffffffffffffffffffffffffffffffff1602179055508173ffffffffffffffffffffffffffffffffffffffff168173ffffffffffffffffffffffffffffffffffffffff167f8be0079c531659141344cd1fd0a4f28419497f9722a3daafe3b4186f6b6457e060405160405180910390a35050565b60008060009054906101000a900473ffffffffffffffffffffffffffffffffffffffff16905090565b6200033682826200041560201b60201c565b6200041157600180600084815260200190815260200160002060000160008373ffffffffffffffffffffffffffffffffffffffff1673ffffffffffffffffffffffffffffffffffffffff16815260200190815260200160002060006101000a81548160ff021916908315150217905550620003b66200022f60201b60201c565b73ffffffffffffffffffffffffffffffffffffffff168173ffffffffffffffffffffffffffffffffffffffff16837f2f8788117e7eff1d82e926ec794901d17c78024a50270940304540a733656f0d60405160405180910390a45b5050565b60006001600084815260200190815260200160002060000160008373ffffffffffffffffffffffffffffffffffffffff1673ffffffffffffffffffffffffffffffffffffffff16815260200190815260200160002060009054906101000a900460ff16905092915050565b61437080620004906000396000f3fe6080604052600436106101f95760003560e01c806365104afc1161010d578063a217fddf116100a0578063d2125bd21161006f578063d2125bd2146107b5578063d547741f146107de578063d5998aeb14610807578063e37c132b14610823578063f2fde38b14610864576101f9565b8063a217fddf146106e7578063b25047c214610712578063b910c8981461074f578063d2114e1814610778576101f9565b80638da5cb5b116100dc5780638da5cb5b1461061957806391d14854146106445780639413c642146106815780639421da61146106be576101f9565b806365104afc1461055f57806365a5637e146105885780636a8ec05e146105c5578063715018a614610602576101f9565b80632cd94ba41161019057806348dc15611161015f57806348dc1561146104525780634ac054bb1461047d57806359cca93b146104ba5780635d1ce88f146104f757806361cabe3714610522576101f9565b80632cd94ba4146103ac5780632f2ff15d146103d557806336568abe146103fe5780633874390414610427576101f9565b80631755e9e6116101cc5780631755e9e6146102e057806321e6531d14610309578063239f60fa14610332578063248a9ca31461036f576101f9565b806301ffc9a7146101fe5780630ae50a391461023b5780630c2fc6e3146102665780631423ea07146102a3575b600080fd5b34801561020a57600080fd5b50610225600480360381019061022091906133ad565b61088d565b60405161023291906139da565b60405180910390f35b34801561024757600080fd5b50610250610907565b60405161025d9190613965565b60405180910390f35b34801561027257600080fd5b5061028d600480360381019061028891906133d6565b610931565b60405161029a9190613965565b60405180910390f35b3480156102af57600080fd5b506102ca60048036038101906102c5919061331f565b610974565b6040516102d79190613c36565b60405180910390f35b3480156102ec57600080fd5b506103076004803603810190610302919061331f565b610b49565b005b34801561031557600080fd5b50610330600480360381019061032b919061351a565b610f4e565b005b34801561033e57600080fd5b50610359600480360381019061035491906133ff565b61111a565b60405161036691906139da565b60405180910390f35b34801561037b57600080fd5b5061039660048036038101906103919190613348565b611149565b6040516103a391906139f5565b60405180910390f35b3480156103b857600080fd5b506103d360048036038101906103ce919061331f565b611169565b005b3480156103e157600080fd5b506103fc60048036038101906103f79190613371565b611229565b005b34801561040a57600080fd5b5061042560048036038101906104209190613371565b611252565b005b34801561043357600080fd5b5061043c6112d5565b60405161044991906139f5565b60405180910390f35b34801561045e57600080fd5b506104676112f9565b6040516104749190613c58565b60405180910390f35b34801561048957600080fd5b506104a4600480360381019061049f91906133ff565b611303565b6040516104b191906139da565b60405180910390f35b3480156104c657600080fd5b506104e160048036038101906104dc919061351a565b61134b565b6040516104ee9190613965565b60405180910390f35b34801561050357600080fd5b5061050c611394565b60405161051991906139f5565b60405180910390f35b34801561052e57600080fd5b506105496004803603810190610544919061331f565b6113bc565b6040516105569190613a10565b60405180910390f35b34801561056b57600080fd5b506105866004803603810190610581919061331f565b6113d7565b005b34801561059457600080fd5b506105af60048036038101906105aa91906133d6565b611749565b6040516105bc9190613c36565b60405180910390f35b3480156105d157600080fd5b506105ec60048036038101906105e791906134de565b61192c565b6040516105f99190613a10565b60405180910390f35b34801561060e57600080fd5b50610617611972565b005b34801561062557600080fd5b5061062e6119fa565b60405161063b9190613965565b60405180910390f35b34801561065057600080fd5b5061066b60048036038101906106669190613371565b611a23565b60405161067891906139da565b60405180910390f35b34801561068d57600080fd5b506106a860048036038101906106a391906133d6565b611a8e565b6040516106b59190613965565b60405180910390f35b3480156106ca57600080fd5b506106e560048036038101906106e0919061331f565b611ac1565b005b3480156106f357600080fd5b506106fc611e37565b60405161070991906139f5565b60405180910390f35b34801561071e57600080fd5b506107396004803603810190610734919061351a565b611e3e565b6040516107469190613c36565b60405180910390f35b34801561075b57600080fd5b506107766004803603810190610771919061343b565b612021565b005b34801561078457600080fd5b5061079f600480360381019061079a919061351a565b61222d565b6040516107ac9190613965565b60405180910390f35b3480156107c157600080fd5b506107dc60048036038101906107d7919061355b565b612275565b005b3480156107ea57600080fd5b5061080560048036038101906108009190613371565b6122fb565b005b610821600480360381019061081c919061348a565b612324565b005b34801561082f57600080fd5b5061084a6004803603810190610845919061331f565b61265b565b60405161085b959493929190613980565b60405180910390f35b34801561087057600080fd5b5061088b6004803603810190610886919061331f565b612773565b005b60007f7965db0b000000000000000000000000000000000000000000000000000000007bffffffffffffffffffffffffffffffffffffffffffffffffffffffff1916827bffffffffffffffffffffffffffffffffffffffffffffffffffffffff1916148061090057506108ff8261286b565b5b9050919050565b6000600360009054906101000a900473ffffffffffffffffffffffffffffffffffffffff16905090565b6000600660008360070b60070b815260200190815260200160002060009054906101000a900473ffffffffffffffffffffffffffffffffffffffff169050919050565b61097c6130f6565b6000600760008473ffffffffffffffffffffffffffffffffffffffff1673ffffffffffffffffffffffffffffffffffffffff1681526020019081526020016000206040518060a00160405290816000820160009054906101000a900473ffffffffffffffffffffffffffffffffffffffff1673ffffffffffffffffffffffffffffffffffffffff1673ffffffffffffffffffffffffffffffffffffffff1681526020016000820160149054906101000a900460070b60070b60070b815260200160008201601c9054906101000a900460ff161515151581526020016001820160009054906101000a900473ffffffffffffffffffffffffffffffffffffffff1673ffffffffffffffffffffffffffffffffffffffff1673ffffffffffffffffffffffffffffffffffffffff168152602001600282018054610abc90613eb3565b80601f0160208091040260200160405190810160405280929190818152602001828054610ae890613eb3565b8015610b355780601f10610b0a57610100808354040283529160200191610b35565b820191906000526020600020905b815481529060010190602001808311610b1857829003601f168201915b505050505081525050905080915050919050565b7fcea62fe6ecc79e221c545bf918f804693c542ead2549e37c2bb9baa66ee2e157610b7b81610b766128d5565b6128dd565b6000600760008473ffffffffffffffffffffffffffffffffffffffff1673ffffffffffffffffffffffffffffffffffffffff16815260200190815260200160002060000160149054906101000a900460070b90506000600760008573ffffffffffffffffffffffffffffffffffffffff1673ffffffffffffffffffffffffffffffffffffffff1681526020019081526020016000206002018054610c1e90613eb3565b80601f0160208091040260200160405190810160405280929190818152602001828054610c4a90613eb3565b8015610c975780601f10610c6c57610100808354040283529160200191610c97565b820191906000526020600020905b815481529060010190602001808311610c7a57829003601f168201915b5050505050905060001515600760008673ffffffffffffffffffffffffffffffffffffffff1673ffffffffffffffffffffffffffffffffffffffff168152602001908152602001600020600001601c9054906101000a900460ff16151514610d34576040517f08c379a0000000000000000000000000000000000000000000000000000000008152600401610d2b90613bf6565b60405180910390fd5b60011515600960008460070b60070b815260200190815260200160002060008460070b60070b815260200190815260200160002060009054906101000a905050506040518060a001604052808573ffffffffffffffffffffffffffffffffffffffff1681526020018360070b81526020016001151581526020013373ffffffffffffffffffffffffffffffffffffffff16815260200182815250600760008673ffffffffffffffffffffffffffffffffffffffff1673ffffffffffffffffffffffffffffffffffffffff16815260200190815260200160002060008201518160000160006101000a81548173ffffffffffffffffffffffffffffffffffffffff021916908373ffffffffffffffffffffffffffffffffffffffff16021790555060208201518160000160146101000a81548167ffffffffffffffff021916908360070b67ffffffffffffffff160217905550604082015181600001601c6101000a81548160ff02191690831515021790555060608201518160010160006101000a81548173ffffffffffffffffffffffffffffffffffffffff021916908373ffffffffffffffffffffffffffffffffffffffff1602179055506080820151816002019080519060200190610f09929190613156565b509050507fddda54aebd53f1c2d3f35d7107ddd15f71b313a804dda2179cded44927110cd0828533604051610f4093929190613a54565b60405180910390a150505050565b6000610f5933610974565b90503373ffffffffffffffffffffffffffffffffffffffff16816000015173ffffffffffffffffffffffffffffffffffffffff1614610fcd576040517f08c379a0000000000000000000000000000000000000000000000000000000008152600401610fc490613b96565b60405180910390fd5b81816080018190525080600760003373ffffffffffffffffffffffffffffffffffffffff1673ffffffffffffffffffffffffffffffffffffffff16815260200190815260200160002060008201518160000160006101000a81548173ffffffffffffffffffffffffffffffffffffffff021916908373ffffffffffffffffffffffffffffffffffffffff16021790555060208201518160000160146101000a81548167ffffffffffffffff021916908360070b67ffffffffffffffff160217905550604082015181600001601c6101000a81548160ff02191690831515021790555060608201518160010160006101000a81548173ffffffffffffffffffffffffffffffffffffffff021916908373ffffffffffffffffffffffffffffffffffffffff1602179055506080820151816002019080519060200190611112929190613156565b509050505050565b60096020528160005260406000206020528060005260406000206000915091509054906101000a900460ff1681565b600060016000838152602001908152602001600020600101549050919050565b6111716128d5565b73ffffffffffffffffffffffffffffffffffffffff1661118f6119fa565b73ffffffffffffffffffffffffffffffffffffffff16146111e5576040517f08c379a00000000000000000000000000000000000000000000000000000000081526004016111dc90613bb6565b60405180910390fd5b80600560006101000a81548173ffffffffffffffffffffffffffffffffffffffff021916908373ffffffffffffffffffffffffffffffffffffffff16021790555050565b61123282611149565b6112438161123e6128d5565b6128dd565b61124d838361297a565b505050565b61125a6128d5565b73ffffffffffffffffffffffffffffffffffffffff168173ffffffffffffffffffffffffffffffffffffffff16146112c7576040517f08c379a00000000000000000000000000000000000000000000000000000000081526004016112be90613c16565b60405180910390fd5b6112d18282612a5a565b5050565b7fcea62fe6ecc79e221c545bf918f804693c542ead2549e37c2bb9baa66ee2e15781565b6000600254905090565b6000600960008460070b60070b815260200190815260200160002060008360070b60070b815260200190815260200160002060009054906101000a900460ff16905092915050565b6008818051602081018201805184825260208301602085012081835280955050505050506000915054906101000a900473ffffffffffffffffffffffffffffffffffffffff1681565b60007fcea62fe6ecc79e221c545bf918f804693c542ead2549e37c2bb9baa66ee2e157905090565b6000806113c883610974565b90508060200151915050919050565b6113df6128d5565b73ffffffffffffffffffffffffffffffffffffffff166113fd6119fa565b73ffffffffffffffffffffffffffffffffffffffff1614611453576040517f08c379a000000000000000000000000000000000000000000000000000000000815260040161144a90613bb6565b60405180910390fd5b6000600760008373ffffffffffffffffffffffffffffffffffffffff1673ffffffffffffffffffffffffffffffffffffffff16815260200190815260200160002060000160149054906101000a900460070b90506000600760008473ffffffffffffffffffffffffffffffffffffffff1673ffffffffffffffffffffffffffffffffffffffff16815260200190815260200160002060020180546114f690613eb3565b80601f016020809104026020016040519081016040528092919081815260200182805461152290613eb3565b801561156f5780601f106115445761010080835404028352916020019161156f565b820191906000526020600020905b81548152906001019060200180831161155257829003601f168201915b505050505090506000469050600581146115be576040517f08c379a00000000000000000000000000000000000000000000000000000000081526004016115b590613bd6565b60405180910390fd5b600760008573ffffffffffffffffffffffffffffffffffffffff1673ffffffffffffffffffffffffffffffffffffffff168152602001908152602001600020600080820160006101000a81549073ffffffffffffffffffffffffffffffffffffffff02191690556000820160146101000a81549067ffffffffffffffff021916905560008201601c6101000a81549060ff02191690556001820160006101000a81549073ffffffffffffffffffffffffffffffffffffffff021916905560028201600061168b91906131dc565b5050600660008460070b60070b815260200190815260200160002060006101000a81549073ffffffffffffffffffffffffffffffffffffffff02191690556008826040516116d991906138ff565b908152602001604051809103902060006101000a81549073ffffffffffffffffffffffffffffffffffffffff02191690557f0511bec3ed97c7099362d7e7b0ed4fe8afe6f448a0dcf73f258be48dceb302db838560405161173b929190613a2b565b60405180910390a150505050565b6117516130f6565b600061175c83610931565b90506000600760008373ffffffffffffffffffffffffffffffffffffffff1673ffffffffffffffffffffffffffffffffffffffff1681526020019081526020016000206040518060a00160405290816000820160009054906101000a900473ffffffffffffffffffffffffffffffffffffffff1673ffffffffffffffffffffffffffffffffffffffff1673ffffffffffffffffffffffffffffffffffffffff1681526020016000820160149054906101000a900460070b60070b60070b815260200160008201601c9054906101000a900460ff161515151581526020016001820160009054906101000a900473ffffffffffffffffffffffffffffffffffffffff1673ffffffffffffffffffffffffffffffffffffffff1673ffffffffffffffffffffffffffffffffffffffff16815260200160028201805461189e90613eb3565b80601f01602080910402602001604051908101604052809291908181526020018280546118ca90613eb3565b80156119175780601f106118ec57610100808354040283529160200191611917565b820191906000526020600020905b8154815290600101906020018083116118fa57829003601f168201915b50505050508152505090508092505050919050565b600a602052816000526040600020818154811061194857600080fd5b9060005260206000209060049182820401919006600802915091509054906101000a900460070b81565b61197a6128d5565b73ffffffffffffffffffffffffffffffffffffffff166119986119fa565b73ffffffffffffffffffffffffffffffffffffffff16146119ee576040517f08c379a00000000000000000000000000000000000000000000000000000000081526004016119e590613bb6565b60405180910390fd5b6119f86000612b3c565b565b60008060009054906101000a900473ffffffffffffffffffffffffffffffffffffffff16905090565b60006001600084815260200190815260200160002060000160008373ffffffffffffffffffffffffffffffffffffffff1673ffffffffffffffffffffffffffffffffffffffff16815260200190815260200160002060009054906101000a900460ff16905092915050565b60066020528060005260406000206000915054906101000a900473ffffffffffffffffffffffffffffffffffffffff1681565b7fcea62fe6ecc79e221c545bf918f804693c542ead2549e37c2bb9baa66ee2e157611af381611aee6128d5565b6128dd565b6000600760008473ffffffffffffffffffffffffffffffffffffffff1673ffffffffffffffffffffffffffffffffffffffff16815260200190815260200160002060000160149054906101000a900460070b90506000600760008573ffffffffffffffffffffffffffffffffffffffff1673ffffffffffffffffffffffffffffffffffffffff1681526020019081526020016000206002018054611b9690613eb3565b80601f0160208091040260200160405190810160405280929190818152602001828054611bc290613eb3565b8015611c0f5780601f10611be457610100808354040283529160200191611c0f565b820191906000526020600020905b815481529060010190602001808311611bf257829003601f168201915b5050505050905060001515600760008673ffffffffffffffffffffffffffffffffffffffff1673ffffffffffffffffffffffffffffffffffffffff168152602001908152602001600020600001601c9054906101000a900460ff16151514611cac576040517f08c379a0000000000000000000000000000000000000000000000000000000008152600401611ca390613bf6565b60405180910390fd5b600760008573ffffffffffffffffffffffffffffffffffffffff1673ffffffffffffffffffffffffffffffffffffffff168152602001908152602001600020600080820160006101000a81549073ffffffffffffffffffffffffffffffffffffffff02191690556000820160146101000a81549067ffffffffffffffff021916905560008201601c6101000a81549060ff02191690556001820160006101000a81549073ffffffffffffffffffffffffffffffffffffffff0219169055600282016000611d7991906131dc565b5050600660008360070b60070b815260200190815260200160002060006101000a81549073ffffffffffffffffffffffffffffffffffffffff0219169055600881604051611dc791906138ff565b908152602001604051809103902060006101000a81549073ffffffffffffffffffffffffffffffffffffffff02191690557f0511bec3ed97c7099362d7e7b0ed4fe8afe6f448a0dcf73f258be48dceb302db8285604051611e29929190613a2b565b60405180910390a150505050565b6000801b81565b611e466130f6565b6000611e518361222d565b90506000600760008373ffffffffffffffffffffffffffffffffffffffff1673ffffffffffffffffffffffffffffffffffffffff1681526020019081526020016000206040518060a00160405290816000820160009054906101000a900473ffffffffffffffffffffffffffffffffffffffff1673ffffffffffffffffffffffffffffffffffffffff1673ffffffffffffffffffffffffffffffffffffffff1681526020016000820160149054906101000a900460070b60070b60070b815260200160008201601c9054906101000a900460ff161515151581526020016001820160009054906101000a900473ffffffffffffffffffffffffffffffffffffffff1673ffffffffffffffffffffffffffffffffffffffff1673ffffffffffffffffffffffffffffffffffffffff168152602001600282018054611f9390613eb3565b80601f0160208091040260200160405190810160405280929190818152602001828054611fbf90613eb3565b801561200c5780601f10611fe15761010080835404028352916020019161200c565b820191906000526020600020905b815481529060010190602001808311611fef57829003601f168201915b50505050508152505090508092505050919050565b600061202c84611749565b90506000816000015190503373ffffffffffffffffffffffffffffffffffffffff168173ffffffffffffffffffffffffffffffffffffffff16146120a5576040517f08c379a000000000000000000000000000000000000000000000000000000000815260040161209c90613b76565b60405180910390fd5b60011515831515141561216e576120bc8585612c00565b600a60008660070b60070b81526020019081526020016000208490806001815401808255809150506001900390600052602060002090600491828204019190066008029091909190916101000a81548167ffffffffffffffff021916908360070b67ffffffffffffffff1602179055508360070b7fb3ca43859da7280c9b07097e86cb568999c37fb4232a15e7ffbae5c6921c2bef8685604051612161929190613a8b565b60405180910390a2612226565b6121788585612c4d565b600a60008660070b60070b81526020019081526020016000208490806001815401808255809150506001900390600052602060002090600491828204019190066008029091909190916101000a81548167ffffffffffffffff021916908360070b67ffffffffffffffff1602179055508360070b7fb3ca43859da7280c9b07097e86cb568999c37fb4232a15e7ffbae5c6921c2bef868560405161221d929190613a8b565b60405180910390a25b5050505050565b600060088260405161223f91906138ff565b908152602001604051809103902060009054906101000a900473ffffffffffffffffffffffffffffffffffffffff169050919050565b61227d6128d5565b73ffffffffffffffffffffffffffffffffffffffff1661229b6119fa565b73ffffffffffffffffffffffffffffffffffffffff16146122f1576040517f08c379a00000000000000000000000000000000000000000000000000000000081526004016122e890613bb6565b60405180910390fd5b8060028190555050565b61230482611149565b612315816123106128d5565b6128dd565b61231f8383612a5a565b505050565b6000339050612334838284612c9a565b6002543414612378576040517f08c379a000000000000000000000000000000000000000000000000000000000815260040161236f90613b56565b60405180910390fd5b6040518060a001604052808273ffffffffffffffffffffffffffffffffffffffff1681526020018460070b8152602001600015158152602001600073ffffffffffffffffffffffffffffffffffffffff16815260200183815250600760003373ffffffffffffffffffffffffffffffffffffffff1673ffffffffffffffffffffffffffffffffffffffff16815260200190815260200160002060008201518160000160006101000a81548173ffffffffffffffffffffffffffffffffffffffff021916908373ffffffffffffffffffffffffffffffffffffffff16021790555060208201518160000160146101000a81548167ffffffffffffffff021916908360070b67ffffffffffffffff160217905550604082015181600001601c6101000a81548160ff02191690831515021790555060608201518160010160006101000a81548173ffffffffffffffffffffffffffffffffffffffff021916908373ffffffffffffffffffffffffffffffffffffffff160217905550608082015181600201908051906020019061250d929190613156565b509050507fcb042d04619e497175f63ce8ec9b9127cb0bf344facc37db4fe8492c2ecfbb9e8333604051612542929190613a2b565b60405180910390a18260070b7f2d329f0d038ded94203a58e5be2f2f41b14cbbc49cc1f89443696606f104658c3360405161257d9190613965565b60405180910390a26000600560009054906101000a900473ffffffffffffffffffffffffffffffffffffffff1673ffffffffffffffffffffffffffffffffffffffff166002546040516125cf90613916565b60006040518083038185875af1925050503d806000811461260c576040519150601f19603f3d011682016040523d82523d6000602084013e612611565b606091505b5050905080612655576040517f08c379a000000000000000000000000000000000000000000000000000000000815260040161264c90613b16565b60405180910390fd5b50505050565b60076020528060005260406000206000915090508060000160009054906101000a900473ffffffffffffffffffffffffffffffffffffffff16908060000160149054906101000a900460070b9080600001601c9054906101000a900460ff16908060010160009054906101000a900473ffffffffffffffffffffffffffffffffffffffff16908060020180546126f090613eb3565b80601f016020809104026020016040519081016040528092919081815260200182805461271c90613eb3565b80156127695780601f1061273e57610100808354040283529160200191612769565b820191906000526020600020905b81548152906001019060200180831161274c57829003601f168201915b5050505050905085565b61277b6128d5565b73ffffffffffffffffffffffffffffffffffffffff166127996119fa565b73ffffffffffffffffffffffffffffffffffffffff16146127ef576040517f08c379a00000000000000000000000000000000000000000000000000000000081526004016127e690613bb6565b60405180910390fd5b600073ffffffffffffffffffffffffffffffffffffffff168173ffffffffffffffffffffffffffffffffffffffff16141561285f576040517f08c379a000000000000000000000000000000000000000000000000000000000815260040161285690613af6565b60405180910390fd5b61286881612b3c565b50565b60007f01ffc9a7000000000000000000000000000000000000000000000000000000007bffffffffffffffffffffffffffffffffffffffffffffffffffffffff1916827bffffffffffffffffffffffffffffffffffffffffffffffffffffffff1916149050919050565b600033905090565b6128e78282611a23565b6129765761290c8173ffffffffffffffffffffffffffffffffffffffff166014612dfc565b61291a8360001c6020612dfc565b60405160200161292b92919061392b565b6040516020818303038152906040526040517f08c379a000000000000000000000000000000000000000000000000000000000815260040161296d9190613ab4565b60405180910390fd5b5050565b6129848282611a23565b612a5657600180600084815260200190815260200160002060000160008373ffffffffffffffffffffffffffffffffffffffff1673ffffffffffffffffffffffffffffffffffffffff16815260200190815260200160002060006101000a81548160ff0219169083151502179055506129fb6128d5565b73ffffffffffffffffffffffffffffffffffffffff168173ffffffffffffffffffffffffffffffffffffffff16837f2f8788117e7eff1d82e926ec794901d17c78024a50270940304540a733656f0d60405160405180910390a45b5050565b612a648282611a23565b15612b385760006001600084815260200190815260200160002060000160008373ffffffffffffffffffffffffffffffffffffffff1673ffffffffffffffffffffffffffffffffffffffff16815260200190815260200160002060006101000a81548160ff021916908315150217905550612add6128d5565b73ffffffffffffffffffffffffffffffffffffffff168173ffffffffffffffffffffffffffffffffffffffff16837ff6391f5c32d9c69d2a47ea670b442974b53935d1edc7fd64eb21e047a839171b60405160405180910390a45b5050565b60008060009054906101000a900473ffffffffffffffffffffffffffffffffffffffff169050816000806101000a81548173ffffffffffffffffffffffffffffffffffffffff021916908373ffffffffffffffffffffffffffffffffffffffff1602179055508173ffffffffffffffffffffffffffffffffffffffff168173ffffffffffffffffffffffffffffffffffffffff167f8be0079c531659141344cd1fd0a4f28419497f9722a3daafe3b4186f6b6457e060405160405180910390a35050565b6001600960008460070b60070b815260200190815260200160002060008360070b60070b815260200190815260200160002060006101000a81548160ff0219169083151502179055505050565b6000600960008460070b60070b815260200190815260200160002060008360070b60070b815260200190815260200160002060006101000a81548160ff0219169083151502179055505050565b600073ffffffffffffffffffffffffffffffffffffffff16600660008560070b60070b815260200190815260200160002060009054906101000a900473ffffffffffffffffffffffffffffffffffffffff1673ffffffffffffffffffffffffffffffffffffffff1614612d42576040517f08c379a0000000000000000000000000000000000000000000000000000000008152600401612d3990613b36565b60405180910390fd5b81600660008560070b60070b815260200190815260200160002060006101000a81548173ffffffffffffffffffffffffffffffffffffffff021916908373ffffffffffffffffffffffffffffffffffffffff16021790555081600882604051612dab91906138ff565b908152602001604051809103902060006101000a81548173ffffffffffffffffffffffffffffffffffffffff021916908373ffffffffffffffffffffffffffffffffffffffff160217905550505050565b606060006002836002612e0f9190613d62565b612e199190613d0c565b67ffffffffffffffff811115612e58577f4e487b7100000000000000000000000000000000000000000000000000000000600052604160045260246000fd5b6040519080825280601f01601f191660200182016040528015612e8a5781602001600182028036833780820191505090505b5090507f300000000000000000000000000000000000000000000000000000000000000081600081518110612ee8577f4e487b7100000000000000000000000000000000000000000000000000000000600052603260045260246000fd5b60200101907effffffffffffffffffffffffffffffffffffffffffffffffffffffffffffff1916908160001a9053507f780000000000000000000000000000000000000000000000000000000000000081600181518110612f72577f4e487b7100000000000000000000000000000000000000000000000000000000600052603260045260246000fd5b60200101907effffffffffffffffffffffffffffffffffffffffffffffffffffffffffffff1916908160001a90535060006001846002612fb29190613d62565b612fbc9190613d0c565b90505b60018111156130a8577f3031323334353637383961626364656600000000000000000000000000000000600f861660108110613024577f4e487b7100000000000000000000000000000000000000000000000000000000600052603260045260246000fd5b1a60f81b828281518110613061577f4e487b7100000000000000000000000000000000000000000000000000000000600052603260045260246000fd5b60200101907effffffffffffffffffffffffffffffffffffffffffffffffffffffffffffff1916908160001a905350600485901c9450806130a190613e89565b9050612fbf565b50600084146130ec576040517f08c379a00000000000000000000000000000000000000000000000000000000081526004016130e390613ad6565b60405180910390fd5b8091505092915050565b6040518060a00160405280600073ffffffffffffffffffffffffffffffffffffffff168152602001600060070b8152602001600015158152602001600073ffffffffffffffffffffffffffffffffffffffff168152602001606081525090565b82805461316290613eb3565b90600052602060002090601f01602090048101928261318457600085556131cb565b82601f1061319d57805160ff19168380011785556131cb565b828001600101855582156131cb579182015b828111156131ca5782518255916020019190600101906131af565b5b5090506131d8919061321c565b5090565b5080546131e890613eb3565b6000825580601f106131fa5750613219565b601f016020900490600052602060002090810190613218919061321c565b5b50565b5b8082111561323557600081600090555060010161321d565b5090565b600061324c61324784613c98565b613c73565b90508281526020810184848401111561326457600080fd5b61326f848285613e47565b509392505050565b600081359050613286816142b0565b92915050565b60008135905061329b816142c7565b92915050565b6000813590506132b0816142de565b92915050565b6000813590506132c5816142f5565b92915050565b6000813590506132da8161430c565b92915050565b600082601f8301126132f157600080fd5b8135613301848260208601613239565b91505092915050565b60008135905061331981614323565b92915050565b60006020828403121561333157600080fd5b600061333f84828501613277565b91505092915050565b60006020828403121561335a57600080fd5b6000613368848285016132a1565b91505092915050565b6000806040838503121561338457600080fd5b6000613392858286016132a1565b92505060206133a385828601613277565b9150509250929050565b6000602082840312156133bf57600080fd5b60006133cd848285016132b6565b91505092915050565b6000602082840312156133e857600080fd5b60006133f6848285016132cb565b91505092915050565b6000806040838503121561341257600080fd5b6000613420858286016132cb565b9250506020613431858286016132cb565b9150509250929050565b60008060006060848603121561345057600080fd5b600061345e868287016132cb565b935050602061346f868287016132cb565b92505060406134808682870161328c565b9150509250925092565b6000806040838503121561349d57600080fd5b60006134ab858286016132cb565b925050602083013567ffffffffffffffff8111156134c857600080fd5b6134d4858286016132e0565b9150509250929050565b600080604083850312156134f157600080fd5b60006134ff858286016132cb565b92505060206135108582860161330a565b9150509250929050565b60006020828403121561352c57600080fd5b600082013567ffffffffffffffff81111561354657600080fd5b613552848285016132e0565b91505092915050565b60006020828403121561356d57600080fd5b600061357b8482850161330a565b91505092915050565b61358d81613dbc565b82525050565b61359c81613dbc565b82525050565b6135ab81613dce565b82525050565b6135ba81613dce565b82525050565b6135c981613dda565b82525050565b6135d881613e10565b82525050565b6135e781613e10565b82525050565b60006135f882613cc9565b6136028185613cdf565b9350613612818560208601613e56565b61361b81613fa3565b840191505092915050565b600061363182613cc9565b61363b8185613cf0565b935061364b818560208601613e56565b61365481613fa3565b840191505092915050565b600061366a82613cc9565b6136748185613d01565b9350613684818560208601613e56565b80840191505092915050565b600061369d602083613cf0565b91506136a882613fb4565b602082019050919050565b60006136c0602683613cf0565b91506136cb82613fdd565b604082019050919050565b60006136e3601683613cf0565b91506136ee8261402c565b602082019050919050565b6000613706603083613cf0565b915061371182614055565b604082019050919050565b6000613729601883613cf0565b9150613734826140a4565b602082019050919050565b600061374c604083613cf0565b9150613757826140cd565b604082019050919050565b600061376f601f83613cf0565b915061377a8261411c565b602082019050919050565b6000613792602083613cf0565b915061379d82614145565b602082019050919050565b60006137b5602583613cf0565b91506137c08261416e565b604082019050919050565b60006137d8602583613cf0565b91506137e3826141bd565b604082019050919050565b60006137fb600083613cd4565b91506138068261420c565b600082019050919050565b600061381e601783613d01565b91506138298261420f565b601782019050919050565b6000613841601183613d01565b915061384c82614238565b601182019050919050565b6000613864602f83613cf0565b915061386f82614261565b604082019050919050565b600060a0830160008301516138926000860182613584565b5060208301516138a560208601826135cf565b5060408301516138b860408601826135a2565b5060608301516138cb6060860182613584565b50608083015184820360808601526138e382826135ed565b9150508091505092915050565b6138f981613e3d565b82525050565b600061390b828461365f565b915081905092915050565b6000613921826137ee565b9150819050919050565b600061393682613811565b9150613942828561365f565b915061394d82613834565b9150613959828461365f565b91508190509392505050565b600060208201905061397a6000830184613593565b92915050565b600060a0820190506139956000830188613593565b6139a260208301876135de565b6139af60408301866135b1565b6139bc6060830185613593565b81810360808301526139ce8184613626565b90509695505050505050565b60006020820190506139ef60008301846135b1565b92915050565b6000602082019050613a0a60008301846135c0565b92915050565b6000602082019050613a2560008301846135de565b92915050565b6000604082019050613a4060008301856135de565b613a4d6020830184613593565b9392505050565b6000606082019050613a6960008301866135de565b613a766020830185613593565b613a836040830184613593565b949350505050565b6000604082019050613aa060008301856135de565b613aad60208301846135b1565b9392505050565b60006020820190508181036000830152613ace8184613626565b905092915050565b60006020820190508181036000830152613aef81613690565b9050919050565b60006020820190508181036000830152613b0f816136b3565b9050919050565b60006020820190508181036000830152613b2f816136d6565b9050919050565b60006020820190508181036000830152613b4f816136f9565b9050919050565b60006020820190508181036000830152613b6f8161371c565b9050919050565b60006020820190508181036000830152613b8f8161373f565b9050919050565b60006020820190508181036000830152613baf81613762565b9050919050565b60006020820190508181036000830152613bcf81613785565b9050919050565b60006020820190508181036000830152613bef816137a8565b9050919050565b60006020820190508181036000830152613c0f816137cb565b9050919050565b60006020820190508181036000830152613c2f81613857565b9050919050565b60006020820190508181036000830152613c50818461387a565b905092915050565b6000602082019050613c6d60008301846138f0565b92915050565b6000613c7d613c8e565b9050613c898282613ee5565b919050565b6000604051905090565b600067ffffffffffffffff821115613cb357613cb2613f74565b5b613cbc82613fa3565b9050602081019050919050565b600081519050919050565b600081905092915050565b600082825260208201905092915050565b600082825260208201905092915050565b600081905092915050565b6000613d1782613e3d565b9150613d2283613e3d565b9250827fffffffffffffffffffffffffffffffffffffffffffffffffffffffffffffffff03821115613d5757613d56613f16565b5b828201905092915050565b6000613d6d82613e3d565b9150613d7883613e3d565b9250817fffffffffffffffffffffffffffffffffffffffffffffffffffffffffffffffff0483118215151615613db157613db0613f16565b5b828202905092915050565b6000613dc782613e1d565b9050919050565b60008115159050919050565b6000819050919050565b60007fffffffff0000000000000000000000000000000000000000000000000000000082169050919050565b60008160070b9050919050565b600073ffffffffffffffffffffffffffffffffffffffff82169050919050565b6000819050919050565b82818337600083830152505050565b60005b83811015613e74578082015181840152602081019050613e59565b83811115613e83576000848401525b50505050565b6000613e9482613e3d565b91506000821415613ea857613ea7613f16565b5b600182039050919050565b60006002820490506001821680613ecb57607f821691505b60208210811415613edf57613ede613f45565b5b50919050565b613eee82613fa3565b810181811067ffffffffffffffff82111715613f0d57613f0c613f74565b5b80604052505050565b7f4e487b7100000000000000000000000000000000000000000000000000000000600052601160045260246000fd5b7f4e487b7100000000000000000000000000000000000000000000000000000000600052602260045260246000fd5b7f4e487b7100000000000000000000000000000000000000000000000000000000600052604160045260246000fd5b6000601f19601f8301169050919050565b7f537472696e67733a20686578206c656e67746820696e73756666696369656e74600082015250565b7f4f776e61626c653a206e6577206f776e657220697320746865207a65726f206160008201527f6464726573730000000000000000000000000000000000000000000000000000602082015250565b7f556e61626c6520746f207472616e736665722066656500000000000000000000600082015250565b7f54686572652773206164647265737320636f6e6e656374656420746f2074686160008201527f7420544720494420616c72656164792e00000000000000000000000000000000602082015250565b7f50617373706f727420666565206973206e6f7420706169640000000000000000600082015250565b7f596f75722063757272656e742061646472657373206d69736d6174636820776960008201527f746820796f7572207265676973747265642077616c6c65742061646472657373602082015250565b7f796f7520646f6e2774206e6f77206f776e207468697320757365726e616d6500600082015250565b7f4f776e61626c653a2063616c6c6572206973206e6f7420746865206f776e6572600082015250565b7f746869732066756e6374696f6e20776f726b2773206f6e6c7920666f7220746560008201527f73746e6574000000000000000000000000000000000000000000000000000000602082015250565b7f616c726561647920617070726f766564204f5220646f206e6f7420657869737460008201527f7320796574000000000000000000000000000000000000000000000000000000602082015250565b50565b7f416363657373436f6e74726f6c3a206163636f756e7420000000000000000000600082015250565b7f206973206d697373696e6720726f6c6520000000000000000000000000000000600082015250565b7f416363657373436f6e74726f6c3a2063616e206f6e6c792072656e6f756e636560008201527f20726f6c657320666f722073656c660000000000000000000000000000000000602082015250565b6142b981613dbc565b81146142c457600080fd5b50565b6142d081613dce565b81146142db57600080fd5b50565b6142e781613dda565b81146142f257600080fd5b50565b6142fe81613de4565b811461430957600080fd5b50565b61431581613e10565b811461432057600080fd5b50565b61432c81613e3d565b811461433757600080fd5b5056fea26469706673582212206d0b1e0a352e9a1789930164fe26abd7236a06bee88000c6f0652c660ec20f7e64736f6c63430008040033",
  "linkReferences": {},
  "deployedLinkReferences": {}
}