{
  "_format": "hh-sol-artifact-1",
  "contractName": "TGPassport",
  "sourceName": "contracts/TGPassport.sol",
  "abi": [
    {
      "inputs": [],
      "stateMutability": "nonpayable",
      "type": "constructor"
    },
    {
      "anonymous": false,
      "inputs": [
        {
          "indexed": true,
          "internalType": "address",
          "name": "previousOwner",
          "type": "address"
        },
        {
          "indexed": true,
          "internalType": "address",
          "name": "newOwner",
          "type": "address"
        }
      ],
      "name": "OwnershipTransferred",
      "type": "event"
    },
    {
      "anonymous": false,
      "inputs": [
        {
          "indexed": false,
          "internalType": "int64",
          "name": "applyerTg",
          "type": "int64"
        },
        {
          "indexed": false,
          "internalType": "address",
          "name": "wallet_address",
          "type": "address"
        }
      ],
      "name": "passportApplied",
      "type": "event"
    },
    {
      "anonymous": false,
      "inputs": [
        {
          "indexed": true,
          "internalType": "int64",
          "name": "applyerTg",
          "type": "int64"
        },
        {
          "indexed": false,
          "internalType": "address",
          "name": "wallet_address",
          "type": "address"
        }
      ],
      "name": "passportAppliedIndexed",
      "type": "event"
    },
    {
      "anonymous": false,
      "inputs": [
        {
          "indexed": false,
          "internalType": "int256",
          "name": "applyerTg",
          "type": "int256"
        },
        {
          "indexed": false,
          "internalType": "address",
          "name": "wallet_address",
          "type": "address"
        },
        {
          "indexed": false,
          "internalType": "address",
          "name": "issuer",
          "type": "address"
        }
      ],
      "name": "passportApproved",
      "type": "event"
    },
    {
      "anonymous": false,
      "inputs": [
        {
          "indexed": false,
          "internalType": "int256",
          "name": "applyerTg",
          "type": "int256"
        },
        {
          "indexed": false,
          "internalType": "address",
          "name": "wallet",
          "type": "address"
        }
      ],
      "name": "passportDenied",
      "type": "event"
    },
    {
      "inputs": [
        {
          "internalType": "int64",
          "name": "applyerTg",
          "type": "int64"
        },
        {
          "internalType": "string",
          "name": "user_name_",
          "type": "string"
        }
      ],
      "name": "ApplyForPassport",
      "outputs": [],
      "stateMutability": "payable",
      "type": "function"
    },
    {
      "inputs": [
        {
          "internalType": "address",
          "name": "passportToApprove",
          "type": "address"
        }
      ],
      "name": "ApprovePassport",
      "outputs": [],
      "stateMutability": "nonpayable",
      "type": "function"
    },
    {
      "inputs": [
        {
          "internalType": "address",
          "name": "passportToDecline",
          "type": "address"
        }
      ],
      "name": "DeclinePassport",
      "outputs": [],
      "stateMutability": "nonpayable",
      "type": "function"
    },
    {
      "inputs": [
        {
          "internalType": "address",
          "name": "passportToDecline",
          "type": "address"
        }
      ],
      "name": "DeletePassport",
      "outputs": [],
      "stateMutability": "nonpayable",
      "type": "function"
    },
    {
      "inputs": [],
      "name": "GetOwner",
      "outputs": [
        {
          "internalType": "address",
          "name": "",
          "type": "address"
        }
      ],
      "stateMutability": "view",
      "type": "function"
    },
    {
      "inputs": [
        {
          "internalType": "address",
          "name": "user_wallet",
          "type": "address"
        }
      ],
      "name": "GetPassportByAddress",
      "outputs": [
        {
          "components": [
            {
              "internalType": "address",
              "name": "userAddress",
              "type": "address"
            },
            {
              "internalType": "int64",
              "name": "tgId",
              "type": "int64"
            },
            {
              "internalType": "bool",
              "name": "valid",
              "type": "bool"
            },
            {
              "internalType": "address",
              "name": "validatorAddress",
              "type": "address"
            },
            {
              "internalType": "string",
              "name": "userName",
              "type": "string"
            }
          ],
          "internalType": "struct TGPassport.Passport",
          "name": "",
          "type": "tuple"
        }
      ],
      "stateMutability": "view",
      "type": "function"
    },
    {
      "inputs": [
        {
          "internalType": "string",
          "name": "user_name_",
          "type": "string"
        }
      ],
      "name": "GetPassportByNickName",
      "outputs": [
        {
          "components": [
            {
              "internalType": "address",
              "name": "userAddress",
              "type": "address"
            },
            {
              "internalType": "int64",
              "name": "tgId",
              "type": "int64"
            },
            {
              "internalType": "bool",
              "name": "valid",
              "type": "bool"
            },
            {
              "internalType": "address",
              "name": "validatorAddress",
              "type": "address"
            },
            {
              "internalType": "string",
              "name": "userName",
              "type": "string"
            }
          ],
          "internalType": "struct TGPassport.Passport",
          "name": "",
          "type": "tuple"
        }
      ],
      "stateMutability": "view",
      "type": "function"
    },
    {
      "inputs": [],
      "name": "GetPassportFee",
      "outputs": [
        {
          "internalType": "uint256",
          "name": "",
          "type": "uint256"
        }
      ],
      "stateMutability": "view",
      "type": "function"
    },
    {
      "inputs": [
        {
          "internalType": "int64",
          "name": "tgId_",
          "type": "int64"
        }
      ],
      "name": "GetPassportWalletByID",
      "outputs": [
        {
          "internalType": "address",
          "name": "",
          "type": "address"
        }
      ],
      "stateMutability": "view",
      "type": "function"
    },
    {
      "inputs": [
        {
          "internalType": "string",
          "name": "user_name_",
          "type": "string"
        }
      ],
      "name": "GetWalletByNickName",
      "outputs": [
        {
          "internalType": "address",
          "name": "",
          "type": "address"
        }
      ],
      "stateMutability": "view",
      "type": "function"
    },
    {
      "inputs": [
        {
          "internalType": "uint256",
          "name": "passportFee_",
          "type": "uint256"
        }
      ],
      "name": "SetPassportFee",
      "outputs": [],
      "stateMutability": "nonpayable",
      "type": "function"
    },
    {
      "inputs": [
        {
          "internalType": "string",
          "name": "new_user_name_",
          "type": "string"
        }
      ],
      "name": "UpdateUserName",
      "outputs": [],
      "stateMutability": "nonpayable",
      "type": "function"
    },
    {
      "inputs": [],
      "name": "owner",
      "outputs": [
        {
          "internalType": "address",
          "name": "",
          "type": "address"
        }
      ],
      "stateMutability": "view",
      "type": "function"
    },
    {
      "inputs": [
        {
          "internalType": "address",
          "name": "",
          "type": "address"
        }
      ],
      "name": "passports",
      "outputs": [
        {
          "internalType": "address",
          "name": "userAddress",
          "type": "address"
        },
        {
          "internalType": "int64",
          "name": "tgId",
          "type": "int64"
        },
        {
          "internalType": "bool",
          "name": "valid",
          "type": "bool"
        },
        {
          "internalType": "address",
          "name": "validatorAddress",
          "type": "address"
        },
        {
          "internalType": "string",
          "name": "userName",
          "type": "string"
        }
      ],
      "stateMutability": "view",
      "type": "function"
    },
    {
      "inputs": [],
      "name": "renounceOwnership",
      "outputs": [],
      "stateMutability": "nonpayable",
      "type": "function"
    },
    {
      "inputs": [
        {
          "internalType": "int64",
          "name": "",
          "type": "int64"
        }
      ],
      "name": "tgIdToAddress",
      "outputs": [
        {
          "internalType": "address",
          "name": "",
          "type": "address"
        }
      ],
      "stateMutability": "view",
      "type": "function"
    },
    {
      "inputs": [
        {
          "internalType": "address",
          "name": "newOwner",
          "type": "address"
        }
      ],
      "name": "transferOwnership",
      "outputs": [],
      "stateMutability": "nonpayable",
      "type": "function"
    },
    {
      "inputs": [
        {
          "internalType": "string",
          "name": "",
          "type": "string"
        }
      ],
      "name": "username_wallets",
      "outputs": [
        {
          "internalType": "address",
          "name": "",
          "type": "address"
        }
      ],
      "stateMutability": "view",
      "type": "function"
    }
  ],
  "bytecode": "0x60806040523480156200001157600080fd5b5062000032620000266200009160201b60201c565b6200009960201b60201c565b6103e86001819055506200004b6200015d60201b60201c565b600260006101000a81548173ffffffffffffffffffffffffffffffffffffffff021916908373ffffffffffffffffffffffffffffffffffffffff16021790555062000186565b600033905090565b60008060009054906101000a900473ffffffffffffffffffffffffffffffffffffffff169050816000806101000a81548173ffffffffffffffffffffffffffffffffffffffff021916908373ffffffffffffffffffffffffffffffffffffffff1602179055508173ffffffffffffffffffffffffffffffffffffffff168173ffffffffffffffffffffffffffffffffffffffff167f8be0079c531659141344cd1fd0a4f28419497f9722a3daafe3b4186f6b6457e060405160405180910390a35050565b60008060009054906101000a900473ffffffffffffffffffffffffffffffffffffffff16905090565b612baf80620001966000396000f3fe6080604052600436106101095760003560e01c80638da5cb5b11610095578063d2114e1811610064578063d2114e181461037b578063d2125bd2146103b8578063d5998aeb146103e1578063e37c132b146103fd578063f2fde38b1461043e57610109565b80638da5cb5b146102ad5780639413c642146102d85780639421da6114610315578063b25047c21461033e57610109565b806321e6531d116100dc57806321e6531d146101dc57806348dc15611461020557806359cca93b1461023057806365104afc1461026d578063715018a61461029657610109565b80630ae50a391461010e5780630c2fc6e3146101395780631423ea07146101765780631755e9e6146101b3575b600080fd5b34801561011a57600080fd5b50610123610467565b6040516101309190612502565b60405180910390f35b34801561014557600080fd5b50610160600480360381019061015b9190612123565b610491565b60405161016d9190612502565b60405180910390f35b34801561018257600080fd5b5061019d600480360381019061019891906120fa565b6104d4565b6040516101aa9190612700565b60405180910390f35b3480156101bf57600080fd5b506101da60048036038101906101d591906120fa565b6106a9565b005b3480156101e857600080fd5b5061020360048036038101906101fe91906121a0565b610ab6565b005b34801561021157600080fd5b5061021a610c82565b6040516102279190612722565b60405180910390f35b34801561023c57600080fd5b50610257600480360381019061025291906121a0565b610c8c565b6040516102649190612502565b60405180910390f35b34801561027957600080fd5b50610294600480360381019061028f91906120fa565b610cd5565b005b3480156102a257600080fd5b506102ab611047565b005b3480156102b957600080fd5b506102c26110cf565b6040516102cf9190612502565b60405180910390f35b3480156102e457600080fd5b506102ff60048036038101906102fa9190612123565b6110f8565b60405161030c9190612502565b60405180910390f35b34801561032157600080fd5b5061033c600480360381019061033791906120fa565b61112b565b005b34801561034a57600080fd5b50610365600480360381019061036091906121a0565b6114ea565b6040516103729190612700565b60405180910390f35b34801561038757600080fd5b506103a2600480360381019061039d91906121a0565b6116cd565b6040516103af9190612502565b60405180910390f35b3480156103c457600080fd5b506103df60048036038101906103da91906121e1565b611715565b005b6103fb60048036038101906103f6919061214c565b61179b565b005b34801561040957600080fd5b50610424600480360381019061041f91906120fa565b611ad2565b60405161043595949392919061251d565b60405180910390f35b34801561044a57600080fd5b50610465600480360381019061046091906120fa565b611bea565b005b6000600260009054906101000a900473ffffffffffffffffffffffffffffffffffffffff16905090565b6000600360008360070b60070b815260200190815260200160002060009054906101000a900473ffffffffffffffffffffffffffffffffffffffff169050919050565b6104dc611f10565b6000600460008473ffffffffffffffffffffffffffffffffffffffff1673ffffffffffffffffffffffffffffffffffffffff1681526020019081526020016000206040518060a00160405290816000820160009054906101000a900473ffffffffffffffffffffffffffffffffffffffff1673ffffffffffffffffffffffffffffffffffffffff1673ffffffffffffffffffffffffffffffffffffffff1681526020016000820160149054906101000a900460070b60070b60070b815260200160008201601c9054906101000a900460ff161515151581526020016001820160009054906101000a900473ffffffffffffffffffffffffffffffffffffffff1673ffffffffffffffffffffffffffffffffffffffff1673ffffffffffffffffffffffffffffffffffffffff16815260200160028201805461061c9061287f565b80601f01602080910402602001604051908101604052809291908181526020018280546106489061287f565b80156106955780601f1061066a57610100808354040283529160200191610695565b820191906000526020600020905b81548152906001019060200180831161067857829003601f168201915b505050505081525050905080915050919050565b6106b1611ce2565b73ffffffffffffffffffffffffffffffffffffffff166106cf6110cf565b73ffffffffffffffffffffffffffffffffffffffff1614610725576040517f08c379a000000000000000000000000000000000000000000000000000000000815260040161071c906126a0565b60405180910390fd5b6000600460008373ffffffffffffffffffffffffffffffffffffffff1673ffffffffffffffffffffffffffffffffffffffff16815260200190815260200160002060000160149054906101000a900460070b90506000600460008473ffffffffffffffffffffffffffffffffffffffff1673ffffffffffffffffffffffffffffffffffffffff16815260200190815260200160002060020180546107c89061287f565b80601f01602080910402602001604051908101604052809291908181526020018280546107f49061287f565b80156108415780601f1061081657610100808354040283529160200191610841565b820191906000526020600020905b81548152906001019060200180831161082457829003601f168201915b5050505050905060001515600460008573ffffffffffffffffffffffffffffffffffffffff1673ffffffffffffffffffffffffffffffffffffffff168152602001908152602001600020600001601c9054906101000a900460ff161515146108de576040517f08c379a00000000000000000000000000000000000000000000000000000000081526004016108d5906126e0565b60405180910390fd5b6040518060a001604052808473ffffffffffffffffffffffffffffffffffffffff1681526020018360070b81526020016001151581526020013373ffffffffffffffffffffffffffffffffffffffff16815260200182815250600460008573ffffffffffffffffffffffffffffffffffffffff1673ffffffffffffffffffffffffffffffffffffffff16815260200190815260200160002060008201518160000160006101000a81548173ffffffffffffffffffffffffffffffffffffffff021916908373ffffffffffffffffffffffffffffffffffffffff16021790555060208201518160000160146101000a81548167ffffffffffffffff021916908360070b67ffffffffffffffff160217905550604082015181600001601c6101000a81548160ff02191690831515021790555060608201518160010160006101000a81548173ffffffffffffffffffffffffffffffffffffffff021916908373ffffffffffffffffffffffffffffffffffffffff1602179055506080820151816002019080519060200190610a72929190611f70565b509050507fc86c0f4d7dcfca9a81352087d1dd1bde720d362e74ab52722809cc8c31766277828433604051610aa9939291906125c9565b60405180910390a1505050565b6000610ac1336104d4565b90503373ffffffffffffffffffffffffffffffffffffffff16816000015173ffffffffffffffffffffffffffffffffffffffff1614610b35576040517f08c379a0000000000000000000000000000000000000000000000000000000008152600401610b2c90612680565b60405180910390fd5b81816080018190525080600460003373ffffffffffffffffffffffffffffffffffffffff1673ffffffffffffffffffffffffffffffffffffffff16815260200190815260200160002060008201518160000160006101000a81548173ffffffffffffffffffffffffffffffffffffffff021916908373ffffffffffffffffffffffffffffffffffffffff16021790555060208201518160000160146101000a81548167ffffffffffffffff021916908360070b67ffffffffffffffff160217905550604082015181600001601c6101000a81548160ff02191690831515021790555060608201518160010160006101000a81548173ffffffffffffffffffffffffffffffffffffffff021916908373ffffffffffffffffffffffffffffffffffffffff1602179055506080820151816002019080519060200190610c7a929190611f70565b509050505050565b6000600154905090565b6005818051602081018201805184825260208301602085012081835280955050505050506000915054906101000a900473ffffffffffffffffffffffffffffffffffffffff1681565b610cdd611ce2565b73ffffffffffffffffffffffffffffffffffffffff16610cfb6110cf565b73ffffffffffffffffffffffffffffffffffffffff1614610d51576040517f08c379a0000000000000000000000000000000000000000000000000000000008152600401610d48906126a0565b60405180910390fd5b6000600460008373ffffffffffffffffffffffffffffffffffffffff1673ffffffffffffffffffffffffffffffffffffffff16815260200190815260200160002060000160149054906101000a900460070b90506000600460008473ffffffffffffffffffffffffffffffffffffffff1673ffffffffffffffffffffffffffffffffffffffff1681526020019081526020016000206002018054610df49061287f565b80601f0160208091040260200160405190810160405280929190818152602001828054610e209061287f565b8015610e6d5780601f10610e4257610100808354040283529160200191610e6d565b820191906000526020600020905b815481529060010190602001808311610e5057829003601f168201915b50505050509050600046905060048114610ebc576040517f08c379a0000000000000000000000000000000000000000000000000000000008152600401610eb3906126c0565b60405180910390fd5b600460008573ffffffffffffffffffffffffffffffffffffffff1673ffffffffffffffffffffffffffffffffffffffff168152602001908152602001600020600080820160006101000a81549073ffffffffffffffffffffffffffffffffffffffff02191690556000820160146101000a81549067ffffffffffffffff021916905560008201601c6101000a81549060ff02191690556001820160006101000a81549073ffffffffffffffffffffffffffffffffffffffff0219169055600282016000610f899190611ff6565b5050600360008460070b60070b815260200190815260200160002060006101000a81549073ffffffffffffffffffffffffffffffffffffffff0219169055600582604051610fd791906124d6565b908152602001604051809103902060006101000a81549073ffffffffffffffffffffffffffffffffffffffff02191690557f015de234da64d7247b81f8ecac83b1d657b0ecad3085534fbc525bc9ca4560fc8385604051611039929190612577565b60405180910390a150505050565b61104f611ce2565b73ffffffffffffffffffffffffffffffffffffffff1661106d6110cf565b73ffffffffffffffffffffffffffffffffffffffff16146110c3576040517f08c379a00000000000000000000000000000000000000000000000000000000081526004016110ba906126a0565b60405180910390fd5b6110cd6000611cea565b565b60008060009054906101000a900473ffffffffffffffffffffffffffffffffffffffff16905090565b60036020528060005260406000206000915054906101000a900473ffffffffffffffffffffffffffffffffffffffff1681565b611133611ce2565b73ffffffffffffffffffffffffffffffffffffffff166111516110cf565b73ffffffffffffffffffffffffffffffffffffffff16146111a7576040517f08c379a000000000000000000000000000000000000000000000000000000000815260040161119e906126a0565b60405180910390fd5b6000600460008373ffffffffffffffffffffffffffffffffffffffff1673ffffffffffffffffffffffffffffffffffffffff16815260200190815260200160002060000160149054906101000a900460070b90506000600460008473ffffffffffffffffffffffffffffffffffffffff1673ffffffffffffffffffffffffffffffffffffffff168152602001908152602001600020600201805461124a9061287f565b80601f01602080910402602001604051908101604052809291908181526020018280546112769061287f565b80156112c35780601f10611298576101008083540402835291602001916112c3565b820191906000526020600020905b8154815290600101906020018083116112a657829003601f168201915b5050505050905060001515600460008573ffffffffffffffffffffffffffffffffffffffff1673ffffffffffffffffffffffffffffffffffffffff168152602001908152602001600020600001601c9054906101000a900460ff16151514611360576040517f08c379a0000000000000000000000000000000000000000000000000000000008152600401611357906126e0565b60405180910390fd5b600460008473ffffffffffffffffffffffffffffffffffffffff1673ffffffffffffffffffffffffffffffffffffffff168152602001908152602001600020600080820160006101000a81549073ffffffffffffffffffffffffffffffffffffffff02191690556000820160146101000a81549067ffffffffffffffff021916905560008201601c6101000a81549060ff02191690556001820160006101000a81549073ffffffffffffffffffffffffffffffffffffffff021916905560028201600061142d9190611ff6565b5050600360008360070b60070b815260200190815260200160002060006101000a81549073ffffffffffffffffffffffffffffffffffffffff021916905560058160405161147b91906124d6565b908152602001604051809103902060006101000a81549073ffffffffffffffffffffffffffffffffffffffff02191690557f015de234da64d7247b81f8ecac83b1d657b0ecad3085534fbc525bc9ca4560fc82846040516114dd929190612577565b60405180910390a1505050565b6114f2611f10565b60006114fd836116cd565b90506000600460008373ffffffffffffffffffffffffffffffffffffffff1673ffffffffffffffffffffffffffffffffffffffff1681526020019081526020016000206040518060a00160405290816000820160009054906101000a900473ffffffffffffffffffffffffffffffffffffffff1673ffffffffffffffffffffffffffffffffffffffff1673ffffffffffffffffffffffffffffffffffffffff1681526020016000820160149054906101000a900460070b60070b60070b815260200160008201601c9054906101000a900460ff161515151581526020016001820160009054906101000a900473ffffffffffffffffffffffffffffffffffffffff1673ffffffffffffffffffffffffffffffffffffffff1673ffffffffffffffffffffffffffffffffffffffff16815260200160028201805461163f9061287f565b80601f016020809104026020016040519081016040528092919081815260200182805461166b9061287f565b80156116b85780601f1061168d576101008083540402835291602001916116b8565b820191906000526020600020905b81548152906001019060200180831161169b57829003601f168201915b50505050508152505090508092505050919050565b60006005826040516116df91906124d6565b908152602001604051809103902060009054906101000a900473ffffffffffffffffffffffffffffffffffffffff169050919050565b61171d611ce2565b73ffffffffffffffffffffffffffffffffffffffff1661173b6110cf565b73ffffffffffffffffffffffffffffffffffffffff1614611791576040517f08c379a0000000000000000000000000000000000000000000000000000000008152600401611788906126a0565b60405180910390fd5b8060018190555050565b60003390506117ab838284611dae565b60015434146117ef576040517f08c379a00000000000000000000000000000000000000000000000000000000081526004016117e690612660565b60405180910390fd5b6040518060a001604052808273ffffffffffffffffffffffffffffffffffffffff1681526020018460070b8152602001600015158152602001600073ffffffffffffffffffffffffffffffffffffffff16815260200183815250600460003373ffffffffffffffffffffffffffffffffffffffff1673ffffffffffffffffffffffffffffffffffffffff16815260200190815260200160002060008201518160000160006101000a81548173ffffffffffffffffffffffffffffffffffffffff021916908373ffffffffffffffffffffffffffffffffffffffff16021790555060208201518160000160146101000a81548167ffffffffffffffff021916908360070b67ffffffffffffffff160217905550604082015181600001601c6101000a81548160ff02191690831515021790555060608201518160010160006101000a81548173ffffffffffffffffffffffffffffffffffffffff021916908373ffffffffffffffffffffffffffffffffffffffff1602179055506080820151816002019080519060200190611984929190611f70565b509050507fcb042d04619e497175f63ce8ec9b9127cb0bf344facc37db4fe8492c2ecfbb9e83336040516119b99291906125a0565b60405180910390a18260070b7f2d329f0d038ded94203a58e5be2f2f41b14cbbc49cc1f89443696606f104658c336040516119f49190612502565b60405180910390a26000600260009054906101000a900473ffffffffffffffffffffffffffffffffffffffff1673ffffffffffffffffffffffffffffffffffffffff16600154604051611a46906124ed565b60006040518083038185875af1925050503d8060008114611a83576040519150601f19603f3d011682016040523d82523d6000602084013e611a88565b606091505b5050905080611acc576040517f08c379a0000000000000000000000000000000000000000000000000000000008152600401611ac390612620565b60405180910390fd5b50505050565b60046020528060005260406000206000915090508060000160009054906101000a900473ffffffffffffffffffffffffffffffffffffffff16908060000160149054906101000a900460070b9080600001601c9054906101000a900460ff16908060010160009054906101000a900473ffffffffffffffffffffffffffffffffffffffff1690806002018054611b679061287f565b80601f0160208091040260200160405190810160405280929190818152602001828054611b939061287f565b8015611be05780601f10611bb557610100808354040283529160200191611be0565b820191906000526020600020905b815481529060010190602001808311611bc357829003601f168201915b5050505050905085565b611bf2611ce2565b73ffffffffffffffffffffffffffffffffffffffff16611c106110cf565b73ffffffffffffffffffffffffffffffffffffffff1614611c66576040517f08c379a0000000000000000000000000000000000000000000000000000000008152600401611c5d906126a0565b60405180910390fd5b600073ffffffffffffffffffffffffffffffffffffffff168173ffffffffffffffffffffffffffffffffffffffff161415611cd6576040517f08c379a0000000000000000000000000000000000000000000000000000000008152600401611ccd90612600565b60405180910390fd5b611cdf81611cea565b50565b600033905090565b60008060009054906101000a900473ffffffffffffffffffffffffffffffffffffffff169050816000806101000a81548173ffffffffffffffffffffffffffffffffffffffff021916908373ffffffffffffffffffffffffffffffffffffffff1602179055508173ffffffffffffffffffffffffffffffffffffffff168173ffffffffffffffffffffffffffffffffffffffff167f8be0079c531659141344cd1fd0a4f28419497f9722a3daafe3b4186f6b6457e060405160405180910390a35050565b600073ffffffffffffffffffffffffffffffffffffffff16600360008560070b60070b815260200190815260200160002060009054906101000a900473ffffffffffffffffffffffffffffffffffffffff1673ffffffffffffffffffffffffffffffffffffffff1614611e56576040517f08c379a0000000000000000000000000000000000000000000000000000000008152600401611e4d90612640565b60405180910390fd5b81600360008560070b60070b815260200190815260200160002060006101000a81548173ffffffffffffffffffffffffffffffffffffffff021916908373ffffffffffffffffffffffffffffffffffffffff16021790555081600582604051611ebf91906124d6565b908152602001604051809103902060006101000a81548173ffffffffffffffffffffffffffffffffffffffff021916908373ffffffffffffffffffffffffffffffffffffffff160217905550505050565b6040518060a00160405280600073ffffffffffffffffffffffffffffffffffffffff168152602001600060070b8152602001600015158152602001600073ffffffffffffffffffffffffffffffffffffffff168152602001606081525090565b828054611f7c9061287f565b90600052602060002090601f016020900481019282611f9e5760008555611fe5565b82601f10611fb757805160ff1916838001178555611fe5565b82800160010185558215611fe5579182015b82811115611fe4578251825591602001919060010190611fc9565b5b509050611ff29190612036565b5090565b5080546120029061287f565b6000825580601f106120145750612033565b601f0160209004906000526020600020908101906120329190612036565b5b50565b5b8082111561204f576000816000905550600101612037565b5090565b600061206661206184612762565b61273d565b90508281526020810184848401111561207e57600080fd5b61208984828561283d565b509392505050565b6000813590506120a081612b34565b92915050565b6000813590506120b581612b4b565b92915050565b600082601f8301126120cc57600080fd5b81356120dc848260208601612053565b91505092915050565b6000813590506120f481612b62565b92915050565b60006020828403121561210c57600080fd5b600061211a84828501612091565b91505092915050565b60006020828403121561213557600080fd5b6000612143848285016120a6565b91505092915050565b6000806040838503121561215f57600080fd5b600061216d858286016120a6565b925050602083013567ffffffffffffffff81111561218a57600080fd5b612196858286016120bb565b9150509250929050565b6000602082840312156121b257600080fd5b600082013567ffffffffffffffff8111156121cc57600080fd5b6121d8848285016120bb565b91505092915050565b6000602082840312156121f357600080fd5b6000612201848285016120e5565b91505092915050565b612213816127d6565b82525050565b612222816127d6565b82525050565b612231816127e8565b82525050565b612240816127e8565b82525050565b61224f8161282b565b82525050565b61225e816127f4565b82525050565b61226d816127f4565b82525050565b600061227e82612793565b61228881856127a9565b935061229881856020860161284c565b6122a181612940565b840191505092915050565b60006122b782612793565b6122c181856127ba565b93506122d181856020860161284c565b6122da81612940565b840191505092915050565b60006122f082612793565b6122fa81856127cb565b935061230a81856020860161284c565b80840191505092915050565b60006123236026836127ba565b915061232e82612951565b604082019050919050565b60006123466016836127ba565b9150612351826129a0565b602082019050919050565b60006123696030836127ba565b9150612374826129c9565b604082019050919050565b600061238c6018836127ba565b915061239782612a18565b602082019050919050565b60006123af601f836127ba565b91506123ba82612a41565b602082019050919050565b60006123d26020836127ba565b91506123dd82612a6a565b602082019050919050565b60006123f56025836127ba565b915061240082612a93565b604082019050919050565b60006124186025836127ba565b915061242382612ae2565b604082019050919050565b600061243b60008361279e565b915061244682612b31565b600082019050919050565b600060a083016000830151612469600086018261220a565b50602083015161247c6020860182612255565b50604083015161248f6040860182612228565b5060608301516124a2606086018261220a565b50608083015184820360808601526124ba8282612273565b9150508091505092915050565b6124d081612821565b82525050565b60006124e282846122e5565b915081905092915050565b60006124f88261242e565b9150819050919050565b60006020820190506125176000830184612219565b92915050565b600060a0820190506125326000830188612219565b61253f6020830187612264565b61254c6040830186612237565b6125596060830185612219565b818103608083015261256b81846122ac565b90509695505050505050565b600060408201905061258c6000830185612246565b6125996020830184612219565b9392505050565b60006040820190506125b56000830185612264565b6125c26020830184612219565b9392505050565b60006060820190506125de6000830186612246565b6125eb6020830185612219565b6125f86040830184612219565b949350505050565b6000602082019050818103600083015261261981612316565b9050919050565b6000602082019050818103600083015261263981612339565b9050919050565b600060208201905081810360008301526126598161235c565b9050919050565b600060208201905081810360008301526126798161237f565b9050919050565b60006020820190508181036000830152612699816123a2565b9050919050565b600060208201905081810360008301526126b9816123c5565b9050919050565b600060208201905081810360008301526126d9816123e8565b9050919050565b600060208201905081810360008301526126f98161240b565b9050919050565b6000602082019050818103600083015261271a8184612451565b905092915050565b600060208201905061273760008301846124c7565b92915050565b6000612747612758565b905061275382826128b1565b919050565b6000604051905090565b600067ffffffffffffffff82111561277d5761277c612911565b5b61278682612940565b9050602081019050919050565b600081519050919050565b600081905092915050565b600082825260208201905092915050565b600082825260208201905092915050565b600081905092915050565b60006127e182612801565b9050919050565b60008115159050919050565b60008160070b9050919050565b600073ffffffffffffffffffffffffffffffffffffffff82169050919050565b6000819050919050565b6000612836826127f4565b9050919050565b82818337600083830152505050565b60005b8381101561286a57808201518184015260208101905061284f565b83811115612879576000848401525b50505050565b6000600282049050600182168061289757607f821691505b602082108114156128ab576128aa6128e2565b5b50919050565b6128ba82612940565b810181811067ffffffffffffffff821117156128d9576128d8612911565b5b80604052505050565b7f4e487b7100000000000000000000000000000000000000000000000000000000600052602260045260246000fd5b7f4e487b7100000000000000000000000000000000000000000000000000000000600052604160045260246000fd5b6000601f19601f8301169050919050565b7f4f776e61626c653a206e6577206f776e657220697320746865207a65726f206160008201527f6464726573730000000000000000000000000000000000000000000000000000602082015250565b7f556e61626c6520746f207472616e736665722066656500000000000000000000600082015250565b7f54686572652773206164647265737320636f6e6e656374656420746f2074686160008201527f7420544720494420616c72656164792e00000000000000000000000000000000602082015250565b7f50617373706f727420666565206973206e6f7420706169640000000000000000600082015250565b7f796f7520646f6e2774206e6f77206f776e207468697320757365726e616d6500600082015250565b7f4f776e61626c653a2063616c6c6572206973206e6f7420746865206f776e6572600082015250565b7f746869732066756e6374696f6e20776f726b2773206f6e6c7920666f7220746560008201527f73746e6574000000000000000000000000000000000000000000000000000000602082015250565b7f616c726561647920617070726f766564204f5220646f206e6f7420657869737460008201527f7320796574000000000000000000000000000000000000000000000000000000602082015250565b50565b612b3d816127d6565b8114612b4857600080fd5b50565b612b54816127f4565b8114612b5f57600080fd5b50565b612b6b81612821565b8114612b7657600080fd5b5056fea264697066735822122004ce790b46609bcb39e39e398f9a34524ddf20de04f325f61b1e17f1e8b974c364736f6c63430008040033",
  "linkReferences": {},
  "deployedLinkReferences": {}
}