{
  "_format": "hh-sol-artifact-1",
  "contractName": "TGPassport",
  "sourceName": "contracts/TGPassport.sol",
  "abi": [
    {
      "inputs": [],
      "stateMutability": "nonpayable",
      "type": "constructor"
    },
    {
      "anonymous": false,
      "inputs": [
        {
          "indexed": true,
          "internalType": "address",
          "name": "previousOwner",
          "type": "address"
        },
        {
          "indexed": true,
          "internalType": "address",
          "name": "newOwner",
          "type": "address"
        }
      ],
      "name": "OwnershipTransferred",
      "type": "event"
    },
    {
      "anonymous": false,
      "inputs": [
        {
          "indexed": false,
          "internalType": "int64",
          "name": "applyerTg",
          "type": "int64"
        },
        {
          "indexed": false,
          "internalType": "address",
          "name": "wallet_address",
          "type": "address"
        }
      ],
      "name": "passportApplied",
      "type": "event"
    },
    {
      "anonymous": false,
      "inputs": [
        {
          "indexed": true,
          "internalType": "int64",
          "name": "applyerTg",
          "type": "int64"
        },
        {
          "indexed": false,
          "internalType": "address",
          "name": "wallet_address",
          "type": "address"
        }
      ],
      "name": "passportAppliedIndexed",
      "type": "event"
    },
    {
      "anonymous": false,
      "inputs": [
        {
          "indexed": false,
          "internalType": "int256",
          "name": "applyerTg",
          "type": "int256"
        },
        {
          "indexed": false,
          "internalType": "address",
          "name": "wallet_address",
          "type": "address"
        },
        {
          "indexed": false,
          "internalType": "address",
          "name": "issuer",
          "type": "address"
        }
      ],
      "name": "passportApproved",
      "type": "event"
    },
    {
      "anonymous": false,
      "inputs": [
        {
          "indexed": false,
          "internalType": "int256",
          "name": "applyerTg",
          "type": "int256"
        },
        {
          "indexed": false,
          "internalType": "address",
          "name": "wallet",
          "type": "address"
        }
      ],
      "name": "passportDenied",
      "type": "event"
    },
    {
      "inputs": [
        {
          "internalType": "int64",
          "name": "applyerTg",
          "type": "int64"
        },
        {
          "internalType": "string",
          "name": "user_name_",
          "type": "string"
        }
      ],
      "name": "ApplyForPassport",
      "outputs": [],
      "stateMutability": "payable",
      "type": "function"
    },
    {
      "inputs": [
        {
          "internalType": "address",
          "name": "passportToApprove",
          "type": "address"
        }
      ],
      "name": "ApprovePassport",
      "outputs": [],
      "stateMutability": "nonpayable",
      "type": "function"
    },
    {
      "inputs": [
        {
          "internalType": "address",
          "name": "passportToDecline",
          "type": "address"
        }
      ],
      "name": "DeclinePassport",
      "outputs": [],
      "stateMutability": "nonpayable",
      "type": "function"
    },
    {
      "inputs": [
        {
          "internalType": "address",
          "name": "passportToDecline",
          "type": "address"
        }
      ],
      "name": "DeletePassport",
      "outputs": [],
      "stateMutability": "nonpayable",
      "type": "function"
    },
    {
      "inputs": [],
      "name": "GetOwner",
      "outputs": [
        {
          "internalType": "address",
          "name": "",
          "type": "address"
        }
      ],
      "stateMutability": "view",
      "type": "function"
    },
    {
      "inputs": [
        {
          "internalType": "address",
          "name": "user_wallet",
          "type": "address"
        }
      ],
      "name": "GetPassportByAddress",
      "outputs": [
        {
          "components": [
            {
              "internalType": "address",
              "name": "userAddress",
              "type": "address"
            },
            {
              "internalType": "int64",
              "name": "tgId",
              "type": "int64"
            },
            {
              "internalType": "bool",
              "name": "valid",
              "type": "bool"
            },
            {
              "internalType": "address",
              "name": "validatorAddress",
              "type": "address"
            },
            {
              "internalType": "string",
              "name": "userName",
              "type": "string"
            }
          ],
          "internalType": "struct TGPassport.Passport",
          "name": "",
          "type": "tuple"
        }
      ],
      "stateMutability": "view",
      "type": "function"
    },
    {
      "inputs": [
        {
          "internalType": "string",
          "name": "user_name_",
          "type": "string"
        }
      ],
      "name": "GetPassportByNickName",
      "outputs": [
        {
          "components": [
            {
              "internalType": "address",
              "name": "userAddress",
              "type": "address"
            },
            {
              "internalType": "int64",
              "name": "tgId",
              "type": "int64"
            },
            {
              "internalType": "bool",
              "name": "valid",
              "type": "bool"
            },
            {
              "internalType": "address",
              "name": "validatorAddress",
              "type": "address"
            },
            {
              "internalType": "string",
              "name": "userName",
              "type": "string"
            }
          ],
          "internalType": "struct TGPassport.Passport",
          "name": "",
          "type": "tuple"
        }
      ],
      "stateMutability": "view",
      "type": "function"
    },
    {
      "inputs": [],
      "name": "GetPassportFee",
      "outputs": [
        {
          "internalType": "uint256",
          "name": "",
          "type": "uint256"
        }
      ],
      "stateMutability": "view",
      "type": "function"
    },
    {
      "inputs": [
        {
          "internalType": "int64",
          "name": "tgId_",
          "type": "int64"
        }
      ],
      "name": "GetPassportWalletByID",
      "outputs": [
        {
          "internalType": "address",
          "name": "",
          "type": "address"
        }
      ],
      "stateMutability": "view",
      "type": "function"
    },
    {
      "inputs": [
        {
          "internalType": "string",
          "name": "user_name_",
          "type": "string"
        }
      ],
      "name": "GetWalletByNickName",
      "outputs": [
        {
          "internalType": "address",
          "name": "",
          "type": "address"
        }
      ],
      "stateMutability": "view",
      "type": "function"
    },
    {
      "inputs": [
        {
          "internalType": "int64",
          "name": "from",
          "type": "int64"
        },
        {
          "internalType": "int64",
          "name": "to",
          "type": "int64"
        }
      ],
      "name": "ITrustTo",
      "outputs": [],
      "stateMutability": "nonpayable",
      "type": "function"
    },
    {
      "inputs": [
        {
          "internalType": "uint256",
          "name": "passportFee_",
          "type": "uint256"
        }
      ],
      "name": "SetPassportFee",
      "outputs": [],
      "stateMutability": "nonpayable",
      "type": "function"
    },
    {
      "inputs": [
        {
          "internalType": "string",
          "name": "new_user_name_",
          "type": "string"
        }
      ],
      "name": "UpdateUserName",
      "outputs": [],
      "stateMutability": "nonpayable",
      "type": "function"
    },
    {
      "inputs": [
        {
          "internalType": "int64",
          "name": "",
          "type": "int64"
        },
        {
          "internalType": "uint256",
          "name": "",
          "type": "uint256"
        }
      ],
      "name": "itrust_to_global",
      "outputs": [
        {
          "internalType": "int64",
          "name": "",
          "type": "int64"
        }
      ],
      "stateMutability": "view",
      "type": "function"
    },
    {
      "inputs": [],
      "name": "owner",
      "outputs": [
        {
          "internalType": "address",
          "name": "",
          "type": "address"
        }
      ],
      "stateMutability": "view",
      "type": "function"
    },
    {
      "inputs": [
        {
          "internalType": "address",
          "name": "",
          "type": "address"
        }
      ],
      "name": "passports",
      "outputs": [
        {
          "internalType": "address",
          "name": "userAddress",
          "type": "address"
        },
        {
          "internalType": "int64",
          "name": "tgId",
          "type": "int64"
        },
        {
          "internalType": "bool",
          "name": "valid",
          "type": "bool"
        },
        {
          "internalType": "address",
          "name": "validatorAddress",
          "type": "address"
        },
        {
          "internalType": "string",
          "name": "userName",
          "type": "string"
        }
      ],
      "stateMutability": "view",
      "type": "function"
    },
    {
      "inputs": [],
      "name": "renounceOwnership",
      "outputs": [],
      "stateMutability": "nonpayable",
      "type": "function"
    },
    {
      "inputs": [
        {
          "internalType": "int64",
          "name": "",
          "type": "int64"
        }
      ],
      "name": "tgIdToAddress",
      "outputs": [
        {
          "internalType": "address",
          "name": "",
          "type": "address"
        }
      ],
      "stateMutability": "view",
      "type": "function"
    },
    {
      "inputs": [
        {
          "internalType": "address",
          "name": "newOwner",
          "type": "address"
        }
      ],
      "name": "transferOwnership",
      "outputs": [],
      "stateMutability": "nonpayable",
      "type": "function"
    },
    {
      "inputs": [
        {
          "internalType": "int64",
          "name": "",
          "type": "int64"
        },
        {
          "internalType": "uint256",
          "name": "",
          "type": "uint256"
        }
      ],
      "name": "trusted_by_global",
      "outputs": [
        {
          "internalType": "int64",
          "name": "",
          "type": "int64"
        }
      ],
      "stateMutability": "view",
      "type": "function"
    },
    {
      "inputs": [
        {
          "internalType": "string",
          "name": "",
          "type": "string"
        }
      ],
      "name": "username_wallets",
      "outputs": [
        {
          "internalType": "address",
          "name": "",
          "type": "address"
        }
      ],
      "stateMutability": "view",
      "type": "function"
    }
  ],
  "bytecode": "0x60806040523480156200001157600080fd5b5062000032620000266200009160201b60201c565b6200009960201b60201c565b6103e86001819055506200004b6200015d60201b60201c565b600260006101000a81548173ffffffffffffffffffffffffffffffffffffffff021916908373ffffffffffffffffffffffffffffffffffffffff16021790555062000186565b600033905090565b60008060009054906101000a900473ffffffffffffffffffffffffffffffffffffffff169050816000806101000a81548173ffffffffffffffffffffffffffffffffffffffff021916908373ffffffffffffffffffffffffffffffffffffffff1602179055508173ffffffffffffffffffffffffffffffffffffffff168173ffffffffffffffffffffffffffffffffffffffff167f8be0079c531659141344cd1fd0a4f28419497f9722a3daafe3b4186f6b6457e060405160405180910390a35050565b60008060009054906101000a900473ffffffffffffffffffffffffffffffffffffffff16905090565b612e4480620001966000396000f3fe60806040526004361061012a5760003560e01c80638da5cb5b116100ab578063cbfee1791161006f578063cbfee17914610402578063d2114e181461043f578063d2125bd21461047c578063d5998aeb146104a5578063e37c132b146104c1578063f2fde38b146105025761012a565b80638da5cb5b146102f75780639413c642146103225780639421da611461035f578063b1eea0a514610388578063b25047c2146103c55761012a565b806348dc1561116100f257806348dc15611461022657806359cca93b146102515780635e2927571461028e57806365104afc146102b7578063715018a6146102e05761012a565b80630ae50a391461012f5780630c2fc6e31461015a5780631423ea07146101975780631755e9e6146101d457806321e6531d146101fd575b600080fd5b34801561013b57600080fd5b5061014461052b565b604051610151919061277c565b60405180910390f35b34801561016657600080fd5b50610181600480360381019061017c9190612325565b610555565b60405161018e919061277c565b60405180910390f35b3480156101a357600080fd5b506101be60048036038101906101b991906122fc565b610598565b6040516101cb9190612995565b60405180910390f35b3480156101e057600080fd5b506101fb60048036038101906101f691906122fc565b61076d565b005b34801561020957600080fd5b50610224600480360381019061021f919061241a565b610bf0565b005b34801561023257600080fd5b5061023b610dbc565b60405161024891906129b7565b60405180910390f35b34801561025d57600080fd5b506102786004803603810190610273919061241a565b610dc6565b604051610285919061277c565b60405180910390f35b34801561029a57600080fd5b506102b560048036038101906102b0919061234e565b610e0f565b005b3480156102c357600080fd5b506102de60048036038101906102d991906122fc565b610e4b565b005b3480156102ec57600080fd5b506102f56111bd565b005b34801561030357600080fd5b5061030c611245565b604051610319919061277c565b60405180910390f35b34801561032e57600080fd5b5061034960048036038101906103449190612325565b61126e565b604051610356919061277c565b60405180910390f35b34801561036b57600080fd5b50610386600480360381019061038191906122fc565b6112a1565b005b34801561039457600080fd5b506103af60048036038101906103aa91906123de565b611660565b6040516103bc91906127f1565b60405180910390f35b3480156103d157600080fd5b506103ec60048036038101906103e7919061241a565b6116a6565b6040516103f99190612995565b60405180910390f35b34801561040e57600080fd5b50610429600480360381019061042491906123de565b611889565b60405161043691906127f1565b60405180910390f35b34801561044b57600080fd5b506104666004803603810190610461919061241a565b6118cf565b604051610473919061277c565b60405180910390f35b34801561048857600080fd5b506104a3600480360381019061049e919061245b565b611917565b005b6104bf60048036038101906104ba919061238a565b61199d565b005b3480156104cd57600080fd5b506104e860048036038101906104e391906122fc565b611cd4565b6040516104f9959493929190612797565b60405180910390f35b34801561050e57600080fd5b50610529600480360381019061052491906122fc565b611dec565b005b6000600260009054906101000a900473ffffffffffffffffffffffffffffffffffffffff16905090565b6000600360008360070b60070b815260200190815260200160002060009054906101000a900473ffffffffffffffffffffffffffffffffffffffff169050919050565b6105a0612112565b6000600460008473ffffffffffffffffffffffffffffffffffffffff1673ffffffffffffffffffffffffffffffffffffffff1681526020019081526020016000206040518060a00160405290816000820160009054906101000a900473ffffffffffffffffffffffffffffffffffffffff1673ffffffffffffffffffffffffffffffffffffffff1673ffffffffffffffffffffffffffffffffffffffff1681526020016000820160149054906101000a900460070b60070b60070b815260200160008201601c9054906101000a900460ff161515151581526020016001820160009054906101000a900473ffffffffffffffffffffffffffffffffffffffff1673ffffffffffffffffffffffffffffffffffffffff1673ffffffffffffffffffffffffffffffffffffffff1681526020016002820180546106e090612b14565b80601f016020809104026020016040519081016040528092919081815260200182805461070c90612b14565b80156107595780601f1061072e57610100808354040283529160200191610759565b820191906000526020600020905b81548152906001019060200180831161073c57829003601f168201915b505050505081525050905080915050919050565b610775611ee4565b73ffffffffffffffffffffffffffffffffffffffff16610793611245565b73ffffffffffffffffffffffffffffffffffffffff16146107e9576040517f08c379a00000000000000000000000000000000000000000000000000000000081526004016107e090612935565b60405180910390fd5b6000600460008373ffffffffffffffffffffffffffffffffffffffff1673ffffffffffffffffffffffffffffffffffffffff16815260200190815260200160002060000160149054906101000a900460070b90506000600460008473ffffffffffffffffffffffffffffffffffffffff1673ffffffffffffffffffffffffffffffffffffffff168152602001908152602001600020600201805461088c90612b14565b80601f01602080910402602001604051908101604052809291908181526020018280546108b890612b14565b80156109055780601f106108da57610100808354040283529160200191610905565b820191906000526020600020905b8154815290600101906020018083116108e857829003601f168201915b5050505050905060001515600460008573ffffffffffffffffffffffffffffffffffffffff1673ffffffffffffffffffffffffffffffffffffffff168152602001908152602001600020600001601c9054906101000a900460ff161515146109a2576040517f08c379a000000000000000000000000000000000000000000000000000000000815260040161099990612975565b60405180910390fd5b6000600660008460070b60070b81526020019081526020016000209050808390806001815401808255809150506001900390600052602060002090600491828204019190066008029091909190916101000a81548167ffffffffffffffff021916908360070b67ffffffffffffffff1602179055506040518060a001604052808573ffffffffffffffffffffffffffffffffffffffff1681526020018460070b81526020016001151581526020013373ffffffffffffffffffffffffffffffffffffffff16815260200183815250600460008673ffffffffffffffffffffffffffffffffffffffff1673ffffffffffffffffffffffffffffffffffffffff16815260200190815260200160002060008201518160000160006101000a81548173ffffffffffffffffffffffffffffffffffffffff021916908373ffffffffffffffffffffffffffffffffffffffff16021790555060208201518160000160146101000a81548167ffffffffffffffff021916908360070b67ffffffffffffffff160217905550604082015181600001601c6101000a81548160ff02191690831515021790555060608201518160010160006101000a81548173ffffffffffffffffffffffffffffffffffffffff021916908373ffffffffffffffffffffffffffffffffffffffff1602179055506080820151816002019080519060200190610bab929190612172565b509050507fc86c0f4d7dcfca9a81352087d1dd1bde720d362e74ab52722809cc8c31766277838533604051610be29392919061285e565b60405180910390a150505050565b6000610bfb33610598565b90503373ffffffffffffffffffffffffffffffffffffffff16816000015173ffffffffffffffffffffffffffffffffffffffff1614610c6f576040517f08c379a0000000000000000000000000000000000000000000000000000000008152600401610c6690612915565b60405180910390fd5b81816080018190525080600460003373ffffffffffffffffffffffffffffffffffffffff1673ffffffffffffffffffffffffffffffffffffffff16815260200190815260200160002060008201518160000160006101000a81548173ffffffffffffffffffffffffffffffffffffffff021916908373ffffffffffffffffffffffffffffffffffffffff16021790555060208201518160000160146101000a81548167ffffffffffffffff021916908360070b67ffffffffffffffff160217905550604082015181600001601c6101000a81548160ff02191690831515021790555060608201518160010160006101000a81548173ffffffffffffffffffffffffffffffffffffffff021916908373ffffffffffffffffffffffffffffffffffffffff1602179055506080820151816002019080519060200190610db4929190612172565b509050505050565b6000600154905090565b6005818051602081018201805184825260208301602085012081835280955050505050506000915054906101000a900473ffffffffffffffffffffffffffffffffffffffff1681565b6000610e1a83610555565b90506000610e2782610598565b90506000610e3484610555565b90506000610e4182610598565b9050505050505050565b610e53611ee4565b73ffffffffffffffffffffffffffffffffffffffff16610e71611245565b73ffffffffffffffffffffffffffffffffffffffff1614610ec7576040517f08c379a0000000000000000000000000000000000000000000000000000000008152600401610ebe90612935565b60405180910390fd5b6000600460008373ffffffffffffffffffffffffffffffffffffffff1673ffffffffffffffffffffffffffffffffffffffff16815260200190815260200160002060000160149054906101000a900460070b90506000600460008473ffffffffffffffffffffffffffffffffffffffff1673ffffffffffffffffffffffffffffffffffffffff1681526020019081526020016000206002018054610f6a90612b14565b80601f0160208091040260200160405190810160405280929190818152602001828054610f9690612b14565b8015610fe35780601f10610fb857610100808354040283529160200191610fe3565b820191906000526020600020905b815481529060010190602001808311610fc657829003601f168201915b50505050509050600046905060048114611032576040517f08c379a000000000000000000000000000000000000000000000000000000000815260040161102990612955565b60405180910390fd5b600460008573ffffffffffffffffffffffffffffffffffffffff1673ffffffffffffffffffffffffffffffffffffffff168152602001908152602001600020600080820160006101000a81549073ffffffffffffffffffffffffffffffffffffffff02191690556000820160146101000a81549067ffffffffffffffff021916905560008201601c6101000a81549060ff02191690556001820160006101000a81549073ffffffffffffffffffffffffffffffffffffffff02191690556002820160006110ff91906121f8565b5050600360008460070b60070b815260200190815260200160002060006101000a81549073ffffffffffffffffffffffffffffffffffffffff021916905560058260405161114d9190612750565b908152602001604051809103902060006101000a81549073ffffffffffffffffffffffffffffffffffffffff02191690557f015de234da64d7247b81f8ecac83b1d657b0ecad3085534fbc525bc9ca4560fc83856040516111af92919061280c565b60405180910390a150505050565b6111c5611ee4565b73ffffffffffffffffffffffffffffffffffffffff166111e3611245565b73ffffffffffffffffffffffffffffffffffffffff1614611239576040517f08c379a000000000000000000000000000000000000000000000000000000000815260040161123090612935565b60405180910390fd5b6112436000611eec565b565b60008060009054906101000a900473ffffffffffffffffffffffffffffffffffffffff16905090565b60036020528060005260406000206000915054906101000a900473ffffffffffffffffffffffffffffffffffffffff1681565b6112a9611ee4565b73ffffffffffffffffffffffffffffffffffffffff166112c7611245565b73ffffffffffffffffffffffffffffffffffffffff161461131d576040517f08c379a000000000000000000000000000000000000000000000000000000000815260040161131490612935565b60405180910390fd5b6000600460008373ffffffffffffffffffffffffffffffffffffffff1673ffffffffffffffffffffffffffffffffffffffff16815260200190815260200160002060000160149054906101000a900460070b90506000600460008473ffffffffffffffffffffffffffffffffffffffff1673ffffffffffffffffffffffffffffffffffffffff16815260200190815260200160002060020180546113c090612b14565b80601f01602080910402602001604051908101604052809291908181526020018280546113ec90612b14565b80156114395780601f1061140e57610100808354040283529160200191611439565b820191906000526020600020905b81548152906001019060200180831161141c57829003601f168201915b5050505050905060001515600460008573ffffffffffffffffffffffffffffffffffffffff1673ffffffffffffffffffffffffffffffffffffffff168152602001908152602001600020600001601c9054906101000a900460ff161515146114d6576040517f08c379a00000000000000000000000000000000000000000000000000000000081526004016114cd90612975565b60405180910390fd5b600460008473ffffffffffffffffffffffffffffffffffffffff1673ffffffffffffffffffffffffffffffffffffffff168152602001908152602001600020600080820160006101000a81549073ffffffffffffffffffffffffffffffffffffffff02191690556000820160146101000a81549067ffffffffffffffff021916905560008201601c6101000a81549060ff02191690556001820160006101000a81549073ffffffffffffffffffffffffffffffffffffffff02191690556002820160006115a391906121f8565b5050600360008360070b60070b815260200190815260200160002060006101000a81549073ffffffffffffffffffffffffffffffffffffffff02191690556005816040516115f19190612750565b908152602001604051809103902060006101000a81549073ffffffffffffffffffffffffffffffffffffffff02191690557f015de234da64d7247b81f8ecac83b1d657b0ecad3085534fbc525bc9ca4560fc828460405161165392919061280c565b60405180910390a1505050565b6007602052816000526040600020818154811061167c57600080fd5b9060005260206000209060049182820401919006600802915091509054906101000a900460070b81565b6116ae612112565b60006116b9836118cf565b90506000600460008373ffffffffffffffffffffffffffffffffffffffff1673ffffffffffffffffffffffffffffffffffffffff1681526020019081526020016000206040518060a00160405290816000820160009054906101000a900473ffffffffffffffffffffffffffffffffffffffff1673ffffffffffffffffffffffffffffffffffffffff1673ffffffffffffffffffffffffffffffffffffffff1681526020016000820160149054906101000a900460070b60070b60070b815260200160008201601c9054906101000a900460ff161515151581526020016001820160009054906101000a900473ffffffffffffffffffffffffffffffffffffffff1673ffffffffffffffffffffffffffffffffffffffff1673ffffffffffffffffffffffffffffffffffffffff1681526020016002820180546117fb90612b14565b80601f016020809104026020016040519081016040528092919081815260200182805461182790612b14565b80156118745780601f1061184957610100808354040283529160200191611874565b820191906000526020600020905b81548152906001019060200180831161185757829003601f168201915b50505050508152505090508092505050919050565b600660205281600052604060002081815481106118a557600080fd5b9060005260206000209060049182820401919006600802915091509054906101000a900460070b81565b60006005826040516118e19190612750565b908152602001604051809103902060009054906101000a900473ffffffffffffffffffffffffffffffffffffffff169050919050565b61191f611ee4565b73ffffffffffffffffffffffffffffffffffffffff1661193d611245565b73ffffffffffffffffffffffffffffffffffffffff1614611993576040517f08c379a000000000000000000000000000000000000000000000000000000000815260040161198a90612935565b60405180910390fd5b8060018190555050565b60003390506119ad838284611fb0565b60015434146119f1576040517f08c379a00000000000000000000000000000000000000000000000000000000081526004016119e8906128f5565b60405180910390fd5b6040518060a001604052808273ffffffffffffffffffffffffffffffffffffffff1681526020018460070b8152602001600015158152602001600073ffffffffffffffffffffffffffffffffffffffff16815260200183815250600460003373ffffffffffffffffffffffffffffffffffffffff1673ffffffffffffffffffffffffffffffffffffffff16815260200190815260200160002060008201518160000160006101000a81548173ffffffffffffffffffffffffffffffffffffffff021916908373ffffffffffffffffffffffffffffffffffffffff16021790555060208201518160000160146101000a81548167ffffffffffffffff021916908360070b67ffffffffffffffff160217905550604082015181600001601c6101000a81548160ff02191690831515021790555060608201518160010160006101000a81548173ffffffffffffffffffffffffffffffffffffffff021916908373ffffffffffffffffffffffffffffffffffffffff1602179055506080820151816002019080519060200190611b86929190612172565b509050507fcb042d04619e497175f63ce8ec9b9127cb0bf344facc37db4fe8492c2ecfbb9e8333604051611bbb929190612835565b60405180910390a18260070b7f2d329f0d038ded94203a58e5be2f2f41b14cbbc49cc1f89443696606f104658c33604051611bf6919061277c565b60405180910390a26000600260009054906101000a900473ffffffffffffffffffffffffffffffffffffffff1673ffffffffffffffffffffffffffffffffffffffff16600154604051611c4890612767565b60006040518083038185875af1925050503d8060008114611c85576040519150601f19603f3d011682016040523d82523d6000602084013e611c8a565b606091505b5050905080611cce576040517f08c379a0000000000000000000000000000000000000000000000000000000008152600401611cc5906128b5565b60405180910390fd5b50505050565b60046020528060005260406000206000915090508060000160009054906101000a900473ffffffffffffffffffffffffffffffffffffffff16908060000160149054906101000a900460070b9080600001601c9054906101000a900460ff16908060010160009054906101000a900473ffffffffffffffffffffffffffffffffffffffff1690806002018054611d6990612b14565b80601f0160208091040260200160405190810160405280929190818152602001828054611d9590612b14565b8015611de25780601f10611db757610100808354040283529160200191611de2565b820191906000526020600020905b815481529060010190602001808311611dc557829003601f168201915b5050505050905085565b611df4611ee4565b73ffffffffffffffffffffffffffffffffffffffff16611e12611245565b73ffffffffffffffffffffffffffffffffffffffff1614611e68576040517f08c379a0000000000000000000000000000000000000000000000000000000008152600401611e5f90612935565b60405180910390fd5b600073ffffffffffffffffffffffffffffffffffffffff168173ffffffffffffffffffffffffffffffffffffffff161415611ed8576040517f08c379a0000000000000000000000000000000000000000000000000000000008152600401611ecf90612895565b60405180910390fd5b611ee181611eec565b50565b600033905090565b60008060009054906101000a900473ffffffffffffffffffffffffffffffffffffffff169050816000806101000a81548173ffffffffffffffffffffffffffffffffffffffff021916908373ffffffffffffffffffffffffffffffffffffffff1602179055508173ffffffffffffffffffffffffffffffffffffffff168173ffffffffffffffffffffffffffffffffffffffff167f8be0079c531659141344cd1fd0a4f28419497f9722a3daafe3b4186f6b6457e060405160405180910390a35050565b600073ffffffffffffffffffffffffffffffffffffffff16600360008560070b60070b815260200190815260200160002060009054906101000a900473ffffffffffffffffffffffffffffffffffffffff1673ffffffffffffffffffffffffffffffffffffffff1614612058576040517f08c379a000000000000000000000000000000000000000000000000000000000815260040161204f906128d5565b60405180910390fd5b81600360008560070b60070b815260200190815260200160002060006101000a81548173ffffffffffffffffffffffffffffffffffffffff021916908373ffffffffffffffffffffffffffffffffffffffff160217905550816005826040516120c19190612750565b908152602001604051809103902060006101000a81548173ffffffffffffffffffffffffffffffffffffffff021916908373ffffffffffffffffffffffffffffffffffffffff160217905550505050565b6040518060a00160405280600073ffffffffffffffffffffffffffffffffffffffff168152602001600060070b8152602001600015158152602001600073ffffffffffffffffffffffffffffffffffffffff168152602001606081525090565b82805461217e90612b14565b90600052602060002090601f0160209004810192826121a057600085556121e7565b82601f106121b957805160ff19168380011785556121e7565b828001600101855582156121e7579182015b828111156121e65782518255916020019190600101906121cb565b5b5090506121f49190612238565b5090565b50805461220490612b14565b6000825580601f106122165750612235565b601f0160209004906000526020600020908101906122349190612238565b5b50565b5b80821115612251576000816000905550600101612239565b5090565b6000612268612263846129f7565b6129d2565b90508281526020810184848401111561228057600080fd5b61228b848285612ad2565b509392505050565b6000813590506122a281612dc9565b92915050565b6000813590506122b781612de0565b92915050565b600082601f8301126122ce57600080fd5b81356122de848260208601612255565b91505092915050565b6000813590506122f681612df7565b92915050565b60006020828403121561230e57600080fd5b600061231c84828501612293565b91505092915050565b60006020828403121561233757600080fd5b6000612345848285016122a8565b91505092915050565b6000806040838503121561236157600080fd5b600061236f858286016122a8565b9250506020612380858286016122a8565b9150509250929050565b6000806040838503121561239d57600080fd5b60006123ab858286016122a8565b925050602083013567ffffffffffffffff8111156123c857600080fd5b6123d4858286016122bd565b9150509250929050565b600080604083850312156123f157600080fd5b60006123ff858286016122a8565b9250506020612410858286016122e7565b9150509250929050565b60006020828403121561242c57600080fd5b600082013567ffffffffffffffff81111561244657600080fd5b612452848285016122bd565b91505092915050565b60006020828403121561246d57600080fd5b600061247b848285016122e7565b91505092915050565b61248d81612a6b565b82525050565b61249c81612a6b565b82525050565b6124ab81612a7d565b82525050565b6124ba81612a7d565b82525050565b6124c981612ac0565b82525050565b6124d881612a89565b82525050565b6124e781612a89565b82525050565b60006124f882612a28565b6125028185612a3e565b9350612512818560208601612ae1565b61251b81612bd5565b840191505092915050565b600061253182612a28565b61253b8185612a4f565b935061254b818560208601612ae1565b61255481612bd5565b840191505092915050565b600061256a82612a28565b6125748185612a60565b9350612584818560208601612ae1565b80840191505092915050565b600061259d602683612a4f565b91506125a882612be6565b604082019050919050565b60006125c0601683612a4f565b91506125cb82612c35565b602082019050919050565b60006125e3603083612a4f565b91506125ee82612c5e565b604082019050919050565b6000612606601883612a4f565b915061261182612cad565b602082019050919050565b6000612629601f83612a4f565b915061263482612cd6565b602082019050919050565b600061264c602083612a4f565b915061265782612cff565b602082019050919050565b600061266f602583612a4f565b915061267a82612d28565b604082019050919050565b6000612692602583612a4f565b915061269d82612d77565b604082019050919050565b60006126b5600083612a33565b91506126c082612dc6565b600082019050919050565b600060a0830160008301516126e36000860182612484565b5060208301516126f660208601826124cf565b50604083015161270960408601826124a2565b50606083015161271c6060860182612484565b506080830151848203608086015261273482826124ed565b9150508091505092915050565b61274a81612ab6565b82525050565b600061275c828461255f565b915081905092915050565b6000612772826126a8565b9150819050919050565b60006020820190506127916000830184612493565b92915050565b600060a0820190506127ac6000830188612493565b6127b960208301876124de565b6127c660408301866124b1565b6127d36060830185612493565b81810360808301526127e58184612526565b90509695505050505050565b600060208201905061280660008301846124de565b92915050565b600060408201905061282160008301856124c0565b61282e6020830184612493565b9392505050565b600060408201905061284a60008301856124de565b6128576020830184612493565b9392505050565b600060608201905061287360008301866124c0565b6128806020830185612493565b61288d6040830184612493565b949350505050565b600060208201905081810360008301526128ae81612590565b9050919050565b600060208201905081810360008301526128ce816125b3565b9050919050565b600060208201905081810360008301526128ee816125d6565b9050919050565b6000602082019050818103600083015261290e816125f9565b9050919050565b6000602082019050818103600083015261292e8161261c565b9050919050565b6000602082019050818103600083015261294e8161263f565b9050919050565b6000602082019050818103600083015261296e81612662565b9050919050565b6000602082019050818103600083015261298e81612685565b9050919050565b600060208201905081810360008301526129af81846126cb565b905092915050565b60006020820190506129cc6000830184612741565b92915050565b60006129dc6129ed565b90506129e88282612b46565b919050565b6000604051905090565b600067ffffffffffffffff821115612a1257612a11612ba6565b5b612a1b82612bd5565b9050602081019050919050565b600081519050919050565b600081905092915050565b600082825260208201905092915050565b600082825260208201905092915050565b600081905092915050565b6000612a7682612a96565b9050919050565b60008115159050919050565b60008160070b9050919050565b600073ffffffffffffffffffffffffffffffffffffffff82169050919050565b6000819050919050565b6000612acb82612a89565b9050919050565b82818337600083830152505050565b60005b83811015612aff578082015181840152602081019050612ae4565b83811115612b0e576000848401525b50505050565b60006002820490506001821680612b2c57607f821691505b60208210811415612b4057612b3f612b77565b5b50919050565b612b4f82612bd5565b810181811067ffffffffffffffff82111715612b6e57612b6d612ba6565b5b80604052505050565b7f4e487b7100000000000000000000000000000000000000000000000000000000600052602260045260246000fd5b7f4e487b7100000000000000000000000000000000000000000000000000000000600052604160045260246000fd5b6000601f19601f8301169050919050565b7f4f776e61626c653a206e6577206f776e657220697320746865207a65726f206160008201527f6464726573730000000000000000000000000000000000000000000000000000602082015250565b7f556e61626c6520746f207472616e736665722066656500000000000000000000600082015250565b7f54686572652773206164647265737320636f6e6e656374656420746f2074686160008201527f7420544720494420616c72656164792e00000000000000000000000000000000602082015250565b7f50617373706f727420666565206973206e6f7420706169640000000000000000600082015250565b7f796f7520646f6e2774206e6f77206f776e207468697320757365726e616d6500600082015250565b7f4f776e61626c653a2063616c6c6572206973206e6f7420746865206f776e6572600082015250565b7f746869732066756e6374696f6e20776f726b2773206f6e6c7920666f7220746560008201527f73746e6574000000000000000000000000000000000000000000000000000000602082015250565b7f616c726561647920617070726f766564204f5220646f206e6f7420657869737460008201527f7320796574000000000000000000000000000000000000000000000000000000602082015250565b50565b612dd281612a6b565b8114612ddd57600080fd5b50565b612de981612a89565b8114612df457600080fd5b50565b612e0081612ab6565b8114612e0b57600080fd5b5056fea2646970667358221220a2ec8f8aeef493b8fee4e908d4843d092a40e6eaa8cb6f640af4bb0e453df4f664736f6c63430008040033",
  "linkReferences": {},
  "deployedLinkReferences": {}
}